:100000000C9424030C946B030C946B030C946B03FF
:100010000C946B030C946B030C946B030C946B03A8
:100020000C946B030C946B030C9454290C941029BE
:100030000C94512A0C946B030C946B030C946B037B
:100040000C946B030C946B030C946B030C946B0378
:100050000C946B030C942D2A0C946B030C946B037F
:100060000C946B030C946B030C946B030C946B0358
:100070000C946B030C946B030C946B030C946B0348
:100080000C946B030C946B030C946B030C946B0338
:100090000C946B030C946B030C946B030C946B0328
:1000A0000C946B030C946B030C946B030501090215
:1000B000A10185020901A100050919012905150001
:1000C00025019505750181029501750381010501E1
:1000D000093009311581257F950275088106093897
:1000E0001581257F950175088106050C0A380215D2
:1000F00081257F950175088106C0C005010980A191
:1001000001850319012AB700150126B7009501756D
:10011000108100C0050C0901A101850419012AA064
:1001200002150126A002950175108100C00660FF2E
:100130000961A1010962150026FF0095207508815B
:10014000020963150026FF00952075089102C0057D
:10015000010906A101050719E029E7150025019508
:1001600008750181029501750881010507190029AB
:10017000FF150026FF009506750881000508190186
:100180002905950575019102950175039101C0003E
:10019000000000000000000000000000000000005F
:1001A000000000000000000000000000000000004F
:1001B0000000007E0F00D4FFFFFFC70000007800A2
:1001C000000000000000002A2B28000000000000B2
:1001D0000000000000000000000029000000002CCA
:1001E0001E3420212224342627252E362D37382769
:1001F0001E1F202122232425263333362E37381F75
:100200000405060708090A0B0C0D0E0F1011121336
:100210001415161718191A1B1C1D2F3130232D35D4
:100220000405060708090A0B0C0D0E0F1011121316
:100230001415161718191A1B1C1D2F3130354C00B8
:10024000047F3F1F643214643214783C1E1E140A6B
:1002500005FD377A585A000004E6D6B4460200215C
:100260000116000000742FE5A3E0011400B45D0046
:100270003D8889C65436C3174FE4DCC66B2B28CCA7
:10028000523EA93C05CA948CB3725748649529D64E
:1002900059776AC9EC44649E1213A8EAAEF3C97D8B
:1002A000F302F05CD7886D7836196792F80F4C9F8F
:1002B00005009EAC9D68685CC3753CEBD4609321DF
:1002C000826CBAD7A60C3E831466C1A55D46417602
:1002D0007721617173247DC171F918FABA72138C98
:1002E000453A08C576FC79674A1B2E9623B13B7EBA
:1002F00034AABC0017F75606F59E5178CAA945CA1C
:10030000B2F06535D82297E83023B472AB7D8072A5
:100310009D391F8EF2376B1E95870A9E14C10DA260
:10032000ED20AC000026EDE90DF7F560710001D07D
:100330000195020000BA241165B1C467FB020000F8
:10034000000004595A0001010101010101010102EB
:100350000202020202020202030303030303030375
:100360000404040404040405050505050606060640
:1003700006070707070708080808090909090A0AFC
:100380000A0B0B0B0C0C0C0D0D0D0E0E0E0F0F0FA0
:10039000101011111112121313141415151616172B
:1003A00017181819191A1A1B1B1C1D1D1E1E1F2099
:1003B00020212222232424252626272829292A2BE6
:1003C0002C2D2D2E2F30313232333435363738390B
:1003D0003A3B3C3D3E3F4041424344454647484905
:1003E0004A4C4D4E4F50515354555658595A5B5DD7
:1003F0005E5F616264656668696B6C6D6F70727375
:100400007577787A7B7D7E8082838587888A8C8EDB
:100410008F91939596989A9C9EA0A2A3A5A7A9AB0D
:10042000ADAFB1B3B5B7BABCBEC0C2C4C6C9CBCDFF
:10043000CFD1D4D6D8DBDDDFE2E4E7E9EBEEF0F3B1
:10044000F5F8FAFDFFFFAA7F55402223252628292B
:100450002A2C2D2F3032333536383A3B3D3E404240
:10046000434547494A4C4E5051535557595A5C5E83
:100470006062646668696B6D6F71737577797B7D97
:100480007F81838587898A8C8E90929496989A9C96
:100490009E9FA1A3A5A7A8AAACAEAFB1B3B4B6B8AE
:1004A000B9BBBCBEBFC1C2C3C5C6C7C9CACBCCCD10
:1004B000CED0D1D2D2D3D4D5D6D7D7D8D9D9DADAEB
:1004C000DBDBDBDCDCDCDCDCDDDDDDDDDCDCDCDC6B
:1004D000DCDBDBDBDADAD9D9D8D7D7D6D5D4D3D29F
:1004E000D2D1D0CECDCCCBCAC9C7C6C5C3C2C1BF7D
:1004F000BEBCBBB9B8B6B4B3B1AFAEACAAA8A7A5E1
:10050000A3A19F9E9C9A98969492908E8C8A89879C
:100510008583817F7D7B79777573716F6D6B69687A
:10052000666462605E5C5A5957555351504E4C4A4E
:100530004947454342403E3D3B3A383635333230F9
:100540002F2D2C2A292826252322000001510000C6
:100550001E001F00200021002200230000000100D7
:100560000000C35C5200005C500051004F000000CE
:100570000100000001000100010001000100010074
:100580000000010000000100010001000100010065
:10059000010009025B00030100A0FA090400000148
:1005A000030101000921110100012240000705811A
:1005B0000308000A090401000203000000092111D8
:1005C0000100012222000705820320000107050324
:1005D00003200001090402000103000000092111A9
:1005E0000100012281000705840320000A12010096
:1005F0000200000008554307000100010203011C2E
:10060000037600690061006C003A00660036003431
:1006100000630032006200330063000000080343FF
:10062000005500370000001A03430061007000739A
:100630000055006E006C006F0063006B0065006485
:10064000000000040309040011241FBECFEFDAE00C
:10065000DEBFCDBF04B603FE27C080913A0490915F
:100660003B04A0913C04B0913D048730904BA740DF
:10067000B04BD1F410923A0410923B0410923C0417
:1006800010923D0414BE84B7877F84BF0FB6F894E0
:10069000A89580916000886180936000109260004E
:1006A0000FBEE0E0F8E3099511E0A0E0B1E0E8EC6E
:1006B000F6E602C005900D92A23AB107D9F724E000
:1006C000A2EAB1E001C01D92AA33B207E1F70E948D
:1006D000782A0C9430330C940000E8EDF0E080812F
:1006E0008E7F80831092E2001092DA001092E10077
:1006F000A0EEB0E08C9181608C9380818F778083B5
:1007000019BCA7EDB0E08C918E7F8C9380818F7E99
:10071000808310921E0408952091E4003091E5003A
:1007200095E6A9012091EC00822F817020FF06C080
:100730008091E80080FF06C080E008952091E800E5
:1007400022FD1AC080913404882389F0853089F015
:100750008091EB0085FD0FC02091E4003091E50011
:1007600042175307F9F29150E1F684E0089582E0D0
:10077000089583E0089581E00895EF92FF920F932A
:100780001F93CF937C018B010E948C03C82F811192
:1007900017C08091E80085FD0BC08091E8008E773E
:1007A0008093E8000E948C03882399F3C82F08C027
:1007B000F70181917F018093F1000150110949F700
:1007C0008C2FCF911F910F91FF90EF900895CF93B1
:1007D000FC0180913404843001F5C091E900CF70B0
:1007E0002091EC00922F917020FD90E8C92B82E0BF
:1007F0008093E9008091E80080FF0CC050E040E069
:1008000060E270E0CF010E94BD038091E8008E7726
:100810008093E800CF70C093E900CF910895809154
:100820002C0487FF13C08091E80082FF06C08091EE
:10083000E8008B778093E80004C080913404811134
:10084000F2CF0895809134048823D9F38091E80091
:1008500080FFF8CF8091E8008E77ECCF982F9093AF
:10086000E900242F762F50E0891731F07091EC00C9
:100870002091ED005091F00021FD07C09F5F97305F
:1008800071F78093E90081E008953091EB003E7F9D
:100890003093EB003091ED003D7F3093ED003091CF
:1008A000EB0031603093EB007093EC002093ED008F
:1008B0005093F0002091EE0027FDE0CF80E00895F6
:1008C000CF92DF92EF92FF920F931F93CF93DF931C
:1008D000C8EDD0E088818F7E8883E7EDF0E08081ED
:1008E0008160808384E082BF81E080931E048881E0
:1008F0008E7F888302EE10E0F80110821092DA00F9
:1009000081EEC82ED12CF601108288818F778883E2
:1009100088818068888388818F7D888319BC109244
:10092000340410922B0410922A041092290490EEA1
:10093000E92EF12CF70180818B7F80838881816093
:10094000888342E060E080E00E942E04F60180810E
:100950008E7F8083F80180818160808380818860C0
:100960008083F70180818E7F808388818061888386
:10097000DF91CF911F910F91FF90EF90DF90CF907B
:100980000895FC01809132049091330486179707F3
:10099000A0F06115710529F49091E8009E7790937D
:1009A000E80090E06115710551F4911108C0809143
:1009B000E80082FF34C080E00895BC01F2CF80914E
:1009C00034048823C1F18530C1F18091E80083FDB2
:1009D00030C08091E80082FDEACF8091E80080FF7E
:1009E000E1CF8091F3002091F200382F611571055D
:1009F00019F02830310558F091E02830310509F020
:100A000090E02091E8002E772093E800CBCF8191F1
:100A10008093F100615071092F5F3F4FE7CF8091C4
:100A20003404882341F0853041F08091E80083FF51
:100A3000BECF81E0089582E0089583E0089508958F
:100A40008091200408959C014FB7F8948091170479
:100A500090911804A0911904B0911A044FBF821B01
:100A6000930B08952FB7F894809117049091180470
:100A7000A0911904B0911A042FBF08952091140475
:100A8000309115042817390771F09093150480935D
:100A90001404E0911204F0911304309721F00084C3
:100AA000F185E02D099408952091100430911104EE
:100AB0002817390771F09093110480931004E09186
:100AC0001204F0911304309721F00680F781E02D95
:100AD00009940895E0911204F0911304309721F0E5
:100AE0000190F081E02D099480E00895DC0160918F
:100AF000580380915903962F891301C00895292F17
:100B000030E0F901EE0FFF1FE05BFC4F40815181A7
:100B10004A175B07A1F487E08A9FA0018B9F500DC5
:100B20001124485E5C4F81E0FA0184839613E6CF7E
:100B30002F5F3F4F237033272093580308952F5F73
:100B40003F4F922F9370D8CF1092B5021092B402FB
:100B5000E8E1F3E08581811102C0148216823796A4
:100B600083E0E035F807B1F70895FA01811101C07B
:100B7000FB010994089580914702982F9E7F61F4AC
:100B8000817082608093470280914A02833318F01B
:100B900082E380934A0208958A34B0F381708864B6
:100BA000F1CFAF92BF92DF92EF92FF920F931F931C
:100BB000CF93DF93082F162FE901E42FF0E0EB5BD2
:100BC000FC4F611110C0E4915E2F4E2F4983E883E2
:100BD0005A83DF91CF911F910F91FF90EF90DF909B
:100BE000BF90AF900895E62EF12C4491D42EE42FBF
:100BF000F0E026E0829FC00111242FEF30E0B90120
:100C00000E941232802F90E0880F991F55E5569F61
:100C1000D001579FB00D11248A1B9B0B982F990F61
:100C2000890F5901AE18BF08AE9ED001AF9EB00D1E
:100C3000BE9EB00D11245B2F189F80011124012F3F
:100C400011275901A01AB10AAE9E8001AF9E100D66
:100C5000BE9E100D11245901A81AB108AE9CC00106
:100C6000AF9C900DBE9C900D1124892F9927281BB5
:100C7000390B2E9FC0012F9F900D3E9F900D112488
:100C8000E92F62307105A1F050F46115710509F486
:100C90009DCF6130710581F0EB2F512F97CF6430DC
:100CA000710569F080F06630710509F48FCFF4CFDB
:100CB000E42F4B2F592F8ACFE42F412F87CFEB2FD3
:100CC000542F492F83CF4B2F5D2DE12F7FCF0E94D3
:100CD00032059C019091260280912702982B21F0E9
:100CE00030932302209322029091280280912902BE
:100CF000982B21F03093210220932002E0911204DE
:100D0000F0911304309749F082E08093240204802C
:100D1000F581E02D84E292E00994089590912602F5
:100D2000803F59F48091270287FF0DC0109227025F
:100D300091110BC010921E0208C0813F81F4809176
:100D4000270218169CF3992381F080912802909134
:100D50002902892B09F064C010921D020895823F78
:100D600049F497FFF0CF109226028091270281115B
:100D7000ECCFE0CF833F19F41916ACF3E4CF209108
:100D80002802893F29F41216F4F610922802DBCFCC
:100D90008A3F19F427FFD7CFF8CF209129028B3F44
:100DA00029F427FFD0CF10922902CDCF8C3F19F420
:100DB0001216CCF3C8CF843F31F4809125028E7F88
:100DC00080932502C0CF853F21F4809125028D7F3D
:100DD000F7CF863F21F4809125028B7FF1CF873FAB
:100DE00021F480912502877FEBCF883F21F4809109
:100DF00025028F7EE5CF8D3F31F480911F028E7FDB
:100E000080931F02A0CF8E3F21F480911F028D7F1F
:100E1000F7CF8F3F09F097CF80911F028B7FF0CFE4
:100E2000089580911F0280FD16C081FD16C082FDCD
:100E300016C080911D028823A1F0883280F428E03A
:100E4000829FC001112468E270E00E942632862F42
:100E5000672B39F0089582E0089584E0089588E0D2
:100E6000089581E0089580911F0280FD14C081FDE6
:100E700014C082FD16C080911E02882381F0843147
:100E800080F422E3829FC001112464E170E00E949B
:100E90002632862F08958CE0089589E1089585E033
:100EA000089582E30895803F31F40E9433078195CD
:100EB000809327020895813F19F40E943307F8CFE9
:100EC000823F31F40E943307819580932602089572
:100ED000833F19F40E943307F8CF893F29F40E9419
:100EE00011078093280208958A3F21F40E94110778
:100EF0008195F7CF8B3F31F40E9411078195809344
:100F0000290208958C3F19F40E941107F8CF843FFD
:100F100031F4809125028160809325020895853FF8
:100F200021F4809125028260F7CF863F21F48091E1
:100F300025028460F1CF873F21F4809125028860EB
:100F4000EBCF883F21F4809125028061E5CF8D3F72
:100F500031F480911F02816080931F0208958E3FBB
:100F600021F480911F028260F7CF8F3FB9F7809103
:100F70001F028460F1CF80E00895F894E82FE29595
:100F8000EF70F0E031A1282F2F7081E090E001C0D8
:100F9000880F2A95EAF7982F9095932391A392A111
:100FA000892B82A3789408959091080292FF06C03D
:100FB000282F28712830F9F4877F846093FF06C0BA
:100FC000282F28712831F1F4877E8461209109024D
:100FD00020FF06C0382F38713830D9F4877F816000
:100FE00021FF06C0282F28712831D1F4877E816126
:100FF00094FD877E0895282F24712430F9F68B7F85
:101000008860DCCF282F2471243101F78B7E886122
:10101000DDCF382F3171313019F78E7F8860E0CF06
:10102000282F2171213121F78E7E8861E1CFCF9366
:10103000DF93EC0182389105A9F1D8F58133910550
:1010400009F496C048F58932910509F48AC08A9757
:1010500009F495C0C11521E5D20708F0BCC0C1153F
:1010600030E5D30708F014C1C83ED10508F09CC094
:10107000C13ED10560F5C83AD10508F087C0C53A30
:10108000D10508F0FDC0C130D10509F12097F9F074
:10109000C430D105E0F440C08533910509F45AC04D
:1010A000C997C1F680910802837089F0C0EED0E044
:1010B0000EC0833E910599F170F4803E910501F1D7
:1010C000823E910539F68091080282FD21C0CE0151
:1010D000DF91CF910895863E910561F1873E91059C
:1010E00071F1843E910509F0B5CF8091090281FF2D
:1010F000EECF80910802C7EED0E084FD0DC0E7CFAF
:101100008091080280FD12C19091090290FFDFCF0B
:10111000C3EED0E084FFDBCFD0E0C0E0D8CF809139
:10112000080282FD06C19091090290FDBFCF84FFA5
:10113000CECFF2CF8091080283FDDDCFC8CF809162
:10114000080283FDF9C09091090291FFF0CFC4EE2F
:10115000D0E0BDCF8091080285FFB9CFC9E2D0E0D1
:10116000B6CF8091080285FFB2CFC5E3D0E0AFCF04
:101170008091080286FFABCFCAE2D0E0A8CF809171
:10118000080286FFA4CFC1E3D0E0A1CFCF3BD105B9
:1011900018F6C85AD0E0CC0FDD1FC75DDE4F0990AE
:1011A000D881C02DD46493CFC11540E2D40758F440
:1011B000C11581E0D80708F08ACFC03FD10508F4F7
:1011C000ABCFD06584CFC11590E4D90708F4A4CF84
:1011D000DF70D06A7CCFC11525E5D20700F5C115B7
:1011E00034E5D30708F08AC0C11543E5D40708F0F9
:1011F00071C0C11582E5D80708F467C0CE018370BD
:10120000992721E030E002C0220F331F8A95E2F7D0
:10121000C695C69580E2C89FE001112452C0C11551
:1012200099E5D907A8F4C11528E5D20708F06BC0E5
:10123000C11536E5D30708F06FCF8C2F0E94D40775
:10124000C82FD0E0DC2FCC27CC27DF71D0623FCF76
:10125000C1154AE5D40708F45BC0CE01905681154C
:10126000904208F059CF8D2F8F710E94D40790E0E3
:10127000982F882788279F719C012C2BE901E6CFA6
:10128000C55AD0E0CA5DDE4FC881D0E0D0641FCF20
:10129000CE01E4E096958795EA95E1F783702C2FCF
:1012A00026952695237040E2249F90011124382B27
:1012B0008C2F8370C1E0D0E002C0CC0FDD1F8A9577
:1012C000E2F7C22BD32BDC6802CFDC2FCC27C16F17
:1012D000D06AFDCECE018370992721E030E002C0B4
:1012E000220F331F8A95E2F7C695C69590E2C99FF3
:1012F000E0011124C22BD32BDA68E9CEDC2FCC27F6
:10130000C46FD06AE4CEDC2FCC27C06FD06ADFCEAA
:101310008C2F8F700E94D40734E0D695C7953A95EC
:10132000E1F7CF709C2FEC01D069D1CEC9E3D0E0BA
:10133000CECEC2EED0E0CBCEC6EED0E0C8CE80910D
:101340000402882331F010920402109203021092DA
:1013500002020895809590915D03982390935D0318
:101360000895809590915C03982390935C03089571
:1013700080915C0390915D03892B90910102892BF0
:101380008093A40180910402882319F10E94320500
:101390002091020230910302821B930B8838934103
:1013A00010F00E949F098091A40190910402892B62
:1013B0008093A40120E086EA91E0FC013191CF0105
:1013C00031112F5FF1E08C3A9F07B9F721110E948C
:1013D0009F09E0911204F0911304309731F00280DC
:1013E000F381E02D84EA91E009940895EF92FF9251
:1013F0000F931F93CF93DF93EC018A85811134C043
:10140000EB80FC8087E5F81A26E12E9DC0012F9D18
:10141000900D1124DC01A05ABC4F1496ED91FC9163
:101420001597309731F054966D917C918A599C4F65
:10143000099586E18E9D80018F9D100D1124005A23
:101440001C4FF80187810E94B109F80180850E9434
:10145000AA090E94B809188219861B861E821D825D
:1014600010925F0310925E03DF91CF911F910F9155
:10147000FF90EF900895CF93DF93EC01898981115C
:101480001BC081E0898B80915C039F81892B8093B5
:101490005C0380915D039885892B80935D030E9496
:1014A000B809EA81FB81309739F06C897D89CE01DA
:1014B0000696DF91CF910994DF91CF910895109214
:1014C00000021092FF011092FE0108958091FD012B
:1014D00081111092FD010895E6EAF1E091918913DE
:1014E00003C0DF0111971C9291E0EC3AF907B1F7C4
:1014F0000895A6EAB1E0EFEF90E02D91821751F048
:10150000EF3F19F4211101C0E92F9F5F9630A9F731
:10151000EF3F09F408950E2E000CFF0BEC55FE4F23
:10152000828308958091FC019091BB01981301C0C2
:1015300008958F5F8770FACF9E3F49F1292F220FC0
:10154000E22FE90FE80F9E2F9770E695E695E69556
:1015500083E0E89FF0011124E355FE4F50E040E0A6
:1015600080E0219130E0092E02C0369527950A943B
:10157000E2F721703327042E01C0220F0A94EAF704
:10158000822B4F5F5F4F4330510559F7089580E03C
:1015900008959E3F69F1292F220FE22FE90FE80FEE
:1015A0008E2F877041E001C0440F8A95EAF7E695D7
:1015B000E695E69583E0E89FF0011124E355FE4FA0
:1015C00030E020E070E05191DF011197CB01022E55
:1015D00002C0969587950A94E2F7817081958527D8
:1015E000842385278C932F5F3F4F2330310559F794
:1015F000089590E080E00E94540590E080E00E9411
:101600003E0510925D03109201020E94B80986E027
:10161000E4E2F2E0DF011D928A95E9F710921E02E2
:1016200010921D0210921F020C94670680933604DC
:101630000C94F90A80913604982F9670963019F41C
:1016400088600C94160B877FFCCF21E030E001C04E
:10165000220F8A95EAF720958091360482230C9414
:10166000160B909100028095892380930002282F09
:10167000277091F4282F082E000C330B92171306B5
:1016800059F09091090292FD07C085958595859541
:101690000E94250B0C945F0A089521E030E001C000
:1016A000220F8A95EAF780913604822B0C94160B50
:1016B0009091090292FD10C098E0899F9001112439
:1016C000622B609300020E944D0B0E9432059093A2
:1016D000FF018093FE0108950C944D0B8093350417
:1016E0000C94F90A882321F00E94AA090C94B809E5
:1016F0000895882339F090915D03982B90935D03B2
:101700000C94B8090895882321F00E94B1090C9423
:10171000B8090895882339F090915C03982B909331
:101720005C030C94B8090895882309F452C08238E8
:1017300071F40E946A0581FF4CC089E30E94790A16
:101740000E94B80989E30E946C0A0C94B809833896
:1017500059F40E946A0580FF3CC083E50E94790A23
:101760000E94B80983E5EFCF843859F40E946A05D6
:1017700082FF2FC087E40E94790A0E94B80987E49B
:10178000E2CF9CEF980F913AF0F290E2980F9830E8
:1017900050F4877091E001C0990F8A95EAF7892F7C
:1017A0000E94B109D2CF9BE5980F933020F490E0CE
:1017B00080E00C94540598E5980F973120F490E060
:1017C00080E00C943E05803F20F00E948E060C9431
:1017D000670608959C013A9521153F4150F5FC019B
:1017E000EE27F170BC0166277270AC01442754707B
:1017F0009C012227387094FF0EC080E1EF2B09F482
:1018000080E0672B09F08062452B09F08064232B70
:1018100089F08068089581E0EF2B09F480E0672B60
:1018200009F08260452B09F08460232B19F0886051
:10183000089580E0089580931B0470931D046093C5
:101840001C04809134048430F9F48093E9008FEF14
:101850009091E800815095FD06C095ED9A95F1F7BD
:1018600000008111F5CF8091E80085FF0DC050E0A8
:1018700040E063E070E08BE194E00E94BD03809162
:10188000E8008E778093E8000895BC0184E00C9412
:101890001B0CBC0183E00C941B0C9C0184E0809326
:1018A000E9009FEF8091E800915085FD06C085ED2D
:1018B0008A95F1F700009111F5CF8091E80085FF3E
:1018C0000CC050E040E066E070E0C9010E94BD033A
:1018D0008091E8008E778093E8000895CF93DF939E
:1018E000EC0181E08093E9008FEF9091E800815056
:1018F00095FD06C095ED9A95F1F700008111F5CFA1
:101900008091E80085FF14C050E040E068E070E09E
:10191000CE010E94BD038091E8008E778093E8009D
:1019200088E0FE01A1E2B4E001900D928A95E1F712
:10193000DF91CF91089581E08093E00080E2809371
:10194000D8001092C9008FE19EE40197F1F700C022
:10195000000087E090EBDC0180933A0490933B0415
:10196000A0933C04B0933D0488E19CE00FB6F8944A
:10197000A895809360000FBE90936000FFCF809188
:10198000470280FD0AC0E5E3F2E011821082128274
:10199000339652E0E734F507C1F7819A31B33D7FC2
:1019A00021B322604FB7F89485E392E0FC01519196
:1019B000CF0168E021BB000000C057FF31BB550FCD
:1019C000000000C000C000C031BB00C06A9591F7A4
:1019D000F2E087349F0751F74FBF8FE594E00197FE
:1019E000F1F700C000000895EF92FF920F931F934C
:1019F000CF93DF938C01C5E3D2E0F12CE12CF80109
:101A000094816091490280914802F3E0EF16F1045D
:101A100014F5992311F140914A02433308F042E34F
:101A20009E010E94D1052FEFE21AF20A239686E06A
:101A3000E816F10421F70E94BF0CF801848190E0C0
:101A40000196817099278483DF91CF911F910F9127
:101A5000FF90EF9008959923F1F29E0140E0E1CFCD
:101A60008F929F92AF92BF92CF92DF92EF92FF92AE
:101A70000F931F93CF93DF93EC014C81042F10E061
:101A80009801D8010E9471329B01AC010E948732FB
:101A90004B015C01E0E2F0E0E01BF10BA5E5B0E0FA
:101AA000AC019B010E9487326B017C019F01DF0129
:101AB0000E9469329B01AC010E9492329B01AC01F1
:101AC000280D391D4A1D5B1DC701B6010E943A321F
:101AD000F22E822F90E039E23F1508F43EC043E039
:101AE000249F9001112435952795122F109595E389
:101AF000C92E92E0D92E00E085E5E82EEF188E2D54
:101B000001FD8F2D412F133308F042E396016091C0
:101B100049020E94D1050F5F53E0C50ED11C06306B
:101B200071F70E94BF0C9C8181E0992319F09032DB
:101B300019F48FEF80931B0180911B01890F8C8317
:101B4000DF91CF911F910F91FF90EF90DF90CF9099
:101B5000BF90AF909F908F90089525E530E0A90148
:101B6000481B590BCA019A01220F331F280F391F36
:101B700037FFB9CF2F5F3F4FB6CF0F931F93CF9350
:101B8000DF93C5E3D2E0FE01118210821282339608
:101B900082E0E734F807C1F710E000E080913302FB
:101BA000082E000C990B08171907A4F180911A014F
:101BB000082E000C990B8017910764F140914A029E
:101BC000433308F042E39E0160914902809148024C
:101BD0000E94D1050F5F1F4F239606301105F1F6C5
:101BE0000E94BF0C8091190190913302980F90933D
:101BF000330220911A01280F20931A01121614F4AF
:101C000095301CF0819580931901DF91CF911F9140
:101C10000F910895198218821A82DCCFBF92CF9259
:101C2000DF92EF92FF920F931F93CF93DF93FC010C
:101C30008281DD24DA9480FD02C0DD24D39405E3A3
:101C400012E0D0E0C0E026E0B22EF801118210824E
:101C5000128294E0E92EF12CC12C809132028C0D7D
:101C600087300CF440C06B2D0E940432892F082E5F
:101C7000000C990B8C179D07A9F480914A028E9D48
:101C8000A0018F9D500D1124559547955595479569
:101C9000433308F042E39801609149028091480281
:101CA0000E94D105CD0CF1E0EF1AF108B1F62196B2
:101CB0000D5F1F4FC630D10541F60E94BF0C8091C9
:101CC000320291E0D91215C0811111C085E08093D4
:101CD0003202DF91CF911F910F91FF90EF90DF9033
:101CE000CF90BF90089587FFC2CF8A5FC0CF815049
:101CF000EECF90E00196BE010E942632E8CFEF922F
:101D0000FF921F93CF93DF93EC0185E3E82E82E0EF
:101D1000F82E10E040914A02433308F042E38C81F0
:101D2000970160914902810F0E94D105165D83E001
:101D3000E80EF11C1C3F71F70E94BF0C9A818C8148
:101D400090FF08C08F5F8C83DF91CF911F91FF9030
:101D5000EF9008958150F7CF9091470290FF0CC00B
:101D6000E5E3F2E0818360834283339692E0E734D7
:101D7000F907C1F70C94BF0C08950F931F93CF93ED
:101D8000DF9300D00F92CDB7DEB78C018091340283
:101D900081110AC09E012F5F3F4F42E36FEF0E9407
:101DA000D1058A8180933402F8016481613069F041
:101DB0008091340240E0662361F040E0623011F42B
:101DC0004091340280E060E004C06091340240E061
:101DD00080E00E94AC0EF801848190E0019663E0FF
:101DE00070E00E94263284830F900F900F90DF9155
:101DF000CF911F910F910895CF93DF9300D00F9251
:101E0000CDB7DEB79091470290FF0DC0433308F085
:101E100042E39E012F5F3F4F0E94D1054B816981B4
:101E20008A810E94AC0E0F900F900F90DF91CF919E
:101E30000895CF93DF93EC01E7E4F2E04381628100
:101E40008C810E94FC0E8C818F5F8C83DF91CF91FF
:101E50000895CF93DF93EC01EC81F0E0E65BFB4F5C
:101E60004491E7E4F2E0628181810E94FC0E8C8162
:101E70008F5F8C83DF91CF910895CF93C82F8823F4
:101E800009F490C08238C1F40E946A0581FD8AC0BD
:101E900089E30E94790A0E94B8092FEF81EE94E04D
:101EA000215080409040E1F700C0000089E30E948B
:101EB0006C0ACF910C94B8098338A1F40E946A058A
:101EC00080FD70C083E50E94790A0E94B8092FEF57
:101ED00081EE94E0215080409040E1F700C0000086
:101EE00083E5E5CF8438A1F40E946A0582FD5AC0DB
:101EF00087E40E94790A0E94B8092FEF81EE94E0EE
:101F0000215080409040E1F700C0000087E4CFCF2F
:101F10008CEF8C0F813A68F4E6EAF1E08191C81702
:101F2000D9F121E0EC3AF207C9F78C2F0E94790A27
:101F3000C0CF80E28C0F883068F4C77021E030E0B9
:101F400001C0220FCA95EAF780915C03822B80932F
:101F50005C03AFCFEBE5EC0FE33040F4F0E0EA5D7B
:101F6000FE4F808190E0CF910C945405E8E5EC0F92
:101F7000E73150F4F0E0EE0FFF1FE75DFE4F808188
:101F80009181CF910C943E05C03F60F08C2F0E9450
:101F90005307CF910C9467068C2F0E946C0A0E9405
:101FA000B809C3CFCF9108951F93CF93DF93182F14
:101FB000D0E0C0E0893311F4C0E5D0E0812F0E9469
:101FC0003D0F209731F4812FDF91CF911F910C9419
:101FD000940B8FE99FE00197F1F700C00000219773
:101FE000F0CF0F931F93CF93DF93C62FD42F022FE1
:101FF000FC0182818823A1F0609339040E9432059C
:102000009093380480933704C77081E001C0880F33
:10201000CA95EAF7DF91CF911F910F910C948A0B2B
:1020200080913904681335C0809137049091380449
:102030000E942305883C910560F510E21D0FCD1725
:10204000B9F080E28C0F883040F4C77081E001C0A5
:10205000880FCA95EAF70E94830B183048F481E094
:102060009D2F977001C0880F9A95EAF70E948A0BFE
:10207000802F0E94D40F183098F4D77081E001C0EF
:10208000880FDA95EAF7DF91CF911F910F910C94A9
:10209000830BC77081E001C0880FCA95EAF7F3CFC0
:1020A000DF91CF911F910F910895AF92BF92CF9280
:1020B000DF92EF92FF920F931F93CF93DF93EC0188
:1020C0008AE0A82E2881222309F48CC02130C9F58A
:1020D00099818A81913021F422960E94D40F05C003
:1020E000923029F422960E943D0F2196EBCF933037
:1020F00021F422960E94940BF8CF943011F021968F
:10210000F4CF229630E020E0AE014F5F5F4F805366
:10211000990B8A30910550F02150310930F38FE945
:102120009FE00197F1F700C00000F6CFA29EB0013A
:10213000A39E700D11249C01260F371F8981EA018F
:10214000E3CFE22FF0E0E154FE4FB490822F86956A
:102150008695869590E0FC01E155FE4FE49027704E
:10216000F12C022E02C0F594E7940A94E2F731E0D4
:10217000E322FF24FC01E156FE4FC490D12C022E35
:1021800002C0D594C7940A94E2F731E0C322DD245B
:10219000FC01E157FE4F049110E002C01595079530
:1021A0002A95E2F701701127E114F10419F081EE8C
:1021B0000E943D0FC114D10419F086EE0E943D0F1C
:1021C0008B2D0E94D40FCD2819F086EE0E94940B1F
:1021D000EF2819F081EE0E94940B012B09F485CFB2
:1021E0008CE27BCFDF91CF911F910F91FF90EF9009
:1021F000DF90CF90BF90AF900895CF93DF93CFE162
:10220000D1E060E0CE010E94F4322196C11584E055
:10221000D807B9F7DF91CF9108950F931F93CF930C
:10222000DF938901843028F5611123C0423008F51D
:1022300021153C4531F42091AE023091AF02232BA1
:10224000C1F094E0899FE001112450E0440F551F34
:10225000C40FD51FC159DF4F612FCE010E94F43248
:10226000602FCE010196DF91CF911F910F910C94B9
:10227000F432DF91CF911F910F9108950F931F9327
:10228000CF93DF938901843048F5633038F54330CC
:1022900028F521153C4531F42091AE023091AF0272
:1022A000232BE1F0C42FD0E0CC0FDD1F96E0699F17
:1022B000C00DD11D112492E1899FC00DD11D1124A3
:1022C000612FCE0187960E94F432602FCE0188964E
:1022D000DF91CF911F910F910C94F432DF91CF9148
:1022E0001F910F910895CF93C82F6FEF811163EA6B
:1022F00083E290E00E94F4326FEFC1116AE084E261
:1023000090E00E94F4326FEFC1116CE185E290E041
:10231000CF910C94F432CF93C0910902C2FB99275C
:1023200090F9981799F080FBC2F9C0930902609167
:10233000080284E090E00E94F4326C2F82E290E088
:102340000E94F43282E0CF910C94310BCF9108952A
:102350007F928F929F92AF92BF92CF92DF92EF9235
:10236000FF920F931F93CF93DF93CDB7DEB76497A0
:102370000FB6F894DEBF0FBECDBFA090AE02B090F6
:10238000AF0281E090E09093AF028093AE028AE4C6
:10239000C82E85E0D82E10E0760100E015C0F401CB
:1023A00025913491472D602F812F0E943E1182E0AC
:1023B000880E911C7394E3E07E12F1CFF6E0EF0EED
:1023C000F11C0F5F033019F04701712CE8CF21E0B9
:1023D00030E040E060E0812F0E940D1121E030E00C
:1023E00041E060E0812F0E940D111F5F82E1C80E65
:1023F000D11C143089F61A8219821C821B821E821B
:102400001D8218861F8288EC90E09A8789870FE7E3
:1024100010E04AE050E0B801CE0101960E94183366
:10242000065F1F4F0F3C1105A1F77E01EBE0EE0E9A
:10243000F11C8AE0F70111928A95E9F74AE050E031
:10244000B801C7010E941833065F1F4F0F31F1E03A
:102450001F07A1F7B092AF02A092AE0264960FB62A
:10246000F894DEBF0FBECDBFDF91CF911F910F91CA
:10247000FF90EF90DF90CF90BF90AF909F908F90A4
:102480007F90089580E00E94731160E086E290E002
:102490000E94F4320E94A8110E94FD1081E00C9469
:1024A00073119B01883070F49AE0899FB001112468
:1024B00061587F4F4AE050E0C9010E94D03290E05D
:1024C00080E008958FEF9FEF08958F929F92AF92D3
:1024D000BF92CF92DF92EF92FF920F931F93CF9311
:1024E000DF93CDB7DEB72A970FB6F894DEBF0FBEE5
:1024F000CDBF00E613E0F12CE12C80E3C82E87E28B
:10250000D82E9AE5A92E97E2B92E2BE3822E26E249
:10251000922EF801D182C082B382A28295828482F7
:10252000F58AE48ABE016F5F7F4F8E2D0E945112A3
:10253000892B29F489859A85F801938B828BFFEF8B
:10254000EF1AFF0A0A5E1F4F88E0E816F10409F748
:102550002A960FB6F894DEBF0FBECDBFDF91CF91A4
:102560001F910F91FF90EF90DF90CF90BF90AF90B1
:102570009F908F9008950F931F93CF93DF93843094
:1025800000F561111EC024E0829F8001112450E0FB
:10259000440F551F040F151F01591F4FC8010E94FA
:1025A000E032C82FD0E0DC2FCC27C80101960E9472
:1025B000E0329E01282BC901DF91CF911F910F912D
:1025C000089590E080E0F8CF0F931F93CF93DF93AF
:1025D000843030F5633020F5433010F5C42FD0E05F
:1025E000CC0FDD1F26E0629FC00DD11D112432E10A
:1025F000839FC00DD11D1124CE0187960E94E03229
:10260000082F10E0102F0027CE0188960E94E0329C
:102610009801282BC901DF91CF911F910F91089547
:1026200090E080E0F8CF462F2091B2023091B302C3
:10263000232B91F47E3F39F46E3F71F48091B00208
:102640009091B1020895843038F4733028F46330E7
:1026500018F4672F0C94E41290E080E00895CF9274
:10266000DF92FF920F931F93CF93DF936C01009142
:10267000360480913504082BC7E0D0E010E0FC2E32
:10268000C8010C2E02C0959587950A94E2F780FD4B
:102690000CC02197A0F7F12C8F2DDF91CF911F91C6
:1026A0000F91FF90DF90CF900895B6018C2F0E947C
:1026B00013130E941708019761F3EECFCF93DF93B6
:1026C000EC010E942F13BE010E941313DF91CF91E2
:1026D0000C941708FC0186819781009779F00E947D
:1026E0001708292F2F7092959F7092509E30A0F45A
:1026F000E92FF0E0EE5CFC4C0C945C32808191811F
:102700000E945E13EECF803F19F020F4883E20F443
:1027100081E00895843FE1F380E00895883EC0F3AE
:10272000813FD1F7F5CF822F8695869586950895BE
:102730001F93CF93DF9300D000D00F92CDB7DEB7B9
:10274000FC01268137812115310541F525E0DE01A7
:10275000119601900D922A95E1F7FC012281898161
:102760009A812223B9F06623A9F00E942F13182F13
:10277000682F89819A810E94C90A69817A81812F93
:102780000F900F900F900F900F90DF91CF911F91AE
:102790000C9413130E949C0A182FEFCFC9010F90BD
:1027A0000F900F900F900F90DF91CF911F91089590
:1027B00083E290E00E94E032833A89F484E290E080
:1027C0000E94E0328A3059F485E290E00E94E032C3
:1027D00091E08C3109F090E0892F8170089580E0BC
:1027E000FCCFCF9384E090E00E94E032C82F82E2D9
:1027F00090E00E94E032982F8C2FCF910895CF92D5
:10280000DF92EF92FF920F931F93CF93DF93CDB799
:10281000DEB72A970FB6F894DEBF0FBECDBFEEE548
:10282000F2E080E5DF011D928A95E9F7E8E1F3E047
:1028300088E3DF011D928A95E9F78EE5C82E82E0D4
:10284000D82E7F010FEC10E0F701D182C0824AE060
:1028500050E0B801CE0101960E94D03288E0FE011E
:102860003196D60101900D928A95E1F789859A8576
:10287000D70113969C938E931297BAE0CB0ED11C7E
:10288000E7E0EE0EF11C065F1F4F0F31F1E01F076E
:10289000D9F62A960FB6F894DEBF0FBECDBFDF91F2
:1028A000CF911F910F91FF90EF90DF90CF900895FF
:1028B00010925C03E6EAF1E086E0DF011D928A9562
:1028C000E9F70C94F90A1F93CF93DF93CDB7DEB7E6
:1028D000AA970FB6F894DEBF0FBECDBF8CE294E08E
:1028E0002091F100DC012D93CD01B4E084339B07EE
:1028F000B9F780912D04833009F472C0B8F48130A7
:1029000009F449C0823009F4B3C08091E80083FF24
:1029100096C280912C0490912D049A3008F08FC2B9
:10292000E92FF0E0E05CFC4C0C945C328A3009F456
:102930008EC08B3009F471C0893039F780912C0436
:10294000813219F78091300490913104009711F091
:102950000297D9F68091E800877F8093E800809104
:10296000E80082FF38C09091F3008091F200029756
:1029700031F48091F100813011F0863021F48091A2
:10298000F100809320048091E8008B778093E80029
:102990000E940F04BACF80912C04813A09F0B5CF80
:1029A0008091E800877F8093E800809130049091C7
:1029B0003104892B61F468E081E294E070E00E94C8
:1029C000C1048091E8008B778093E8009ECF60E09F
:1029D00090E080E0F3CF809134048111C0CF95CF97
:1029E00080912C04813A09F090CF8091300490912D
:1029F0003104892B09F089CF8091E800877F80938B
:102A0000E8008091E80080FFFCCF80911D01809359
:102A1000F1008091E8008E77B9CF80912C0481324B
:102A200009F073CF8091300490913104892B09F023
:102A30006CCF8091E800877F8093E8000E940F04AC
:102A400080912E0480931D010E9458145ECF8091C6
:102A50002C04813209F059CF8091E800877F809360
:102A6000E8000E940F0480912F0480931F044DCF33
:102A700080912C04813A09F048CF8091E800877F4B
:102A80008093E8008091E80080FFFCCF80911F04D4
:102A9000BECF803899F0823809F0D1C180913004DE
:102AA0008F70873008F0CBC18093E9008091EB00F4
:102AB00085FB882780F91092E90006C080912904DF
:102AC00090912A04911182609091E800977F9093F1
:102AD000E8008093F1001092F1008091E8008E7779
:102AE000AAC1882309F498C1823009F0A8C1809155
:102AF0002E0481119BC1809130048F702FEF280F1D
:102B0000263008F09CC18093E9002091EB0020FF63
:102B10008DC1933031F48091EB0080628093EB00A3
:102B200085C19091EB0090619093EB0021E030E043
:102B300001C0220F8A95EAF72093EA001092EA007A
:102B40008091EB008860EACF811179C110912E0449
:102B50001F778091E3008078812B8093E300809140
:102B6000E800877F8093E8000E940F048091E800CE
:102B700080FFFCCF8091E30080688093E30082E0D7
:102B8000111183E0809334045AC18058823008F0D8
:102B900056C120912E0430912F042C3DE3E03E07D6
:102BA000A1F583E08A838AE289834FB7F894DE0136
:102BB000139620E03EE051E2E32FF0E050935700FF
:102BC000E49120FF03C0E295EF703F5FEF708E2F1E
:102BD00090E0EA30C0F0C7968D939D932F5F24312B
:102BE00059F74FBF8091E800877F8093E8006AE241
:102BF00070E0CE0101960E94C1048091E8008B77BD
:102C00008093E8001CC1C096E7CF8091300490917A
:102C10003104432F55274330510509F44AC078F554
:102C20004130510509F485C08BE590E0E2E9F5E01B
:102C30004230510509F003C12091E800277F20931D
:102C4000E80020913204309133048217930708F48E
:102C50009C0140E02115310509F070C041116EC0A2
:102C60008091E80082FDC9CF80913404882329F245
:102C7000853019F28091E80083FFF2CFBECF413258
:102C8000510509F447C04232510509F0D8C08330DC
:102C9000910508F0D4C0FC01EE0FFF1FEB56FE4F6C
:102CA0000190F081E02D8E569E4FDC018C9190E0DA
:102CB0001DC0332721303105E9F02115310579F0A8
:102CC00022303105F9F02330310509F0B8C0EFEFBB
:102CD000F5E0E4918E2F90E0EFEFF5E007C0E3E43C
:102CE000F6E0E4918E2F90E0E3E4F6E0009709F43B
:102CF000A6C0A2CFE7E2F6E0E4918E2F90E0E7E2F3
:102D0000F6E0F4CFEDE1F6E0E4918E2F90E0EDE116
:102D1000F6E0ECCF8330910508F091C0880F991F41
:102D2000FC01E556FE4F0190F081E02D89E090E036
:102D300083CF82E190E0EDEEF5E07ECF8091340428
:102D4000882309F45ACF853009F457CF8091E800E1
:102D500083FD53CF8091E80082FD82CF8091E8000F
:102D600080FF78CF9091F3008091F200211531051A
:102D700019F08830910550F041E0089709F040E0E3
:102D80008091E8008E778093E80064CF449140936F
:102D9000F1003196215031090196E8CF803809F0D1
:102DA0004EC08091E800877F8093E80080912B04DB
:102DB0008093F10092CE811142C010912E04123006
:102DC000F0F58091E800877F8093E80010932B0452
:102DD0000E940F04112311F084E005C08091E300EC
:102DE00087FDFACF81E08093340442E061EC81E01A
:102DF0000E942E0442E261EC84E00E942E0442E232
:102E000061EC82E00E942E0442E260EC83E00E94CA
:102E10002E048091340413C080912E04813079F403
:102E200081E0933009F080E080932A041092E90059
:102E30008091E800877F8093E8000E940F048091D2
:102E4000E80083FF0AC08091E800877F8093E80054
:102E50008091EB0080628093EB00AA960FB6F89405
:102E6000DEBF0FBECDBFDF91CF911F910895CF92EE
:102E7000DF92EF92FF926B017C010E94BB05B701CC
:102E8000A60188E090E0FF90EF90DF90CF900C9447
:102E900006335F926F927F928F929F92AF92BF9212
:102EA000CF92DF92EF92FF920F931F93CF93DF9316
:102EB00000D00F92CDB7DEB7082F762E142F622EDA
:102EC0009091470290FF2DC0E92FE695AE2FB0E01C
:102ED000A359BE4F8C91809330029E7F9230A1F512
:102EE000433308F042E39E012F5F3F4F672D802F51
:102EF0000E94D1054B8169818A810E94AC0E0093AA
:102F000048027092490210934A02662051F0609183
:102F10004702709148028091490290914A020E94B2
:102F200037170F900F900F90DF91CF911F910F9156
:102F3000FF90EF90DF90CF90BF90AF909F908F90D9
:102F40007F906F905F900895823019F410914A023B
:102F5000D6CF863019F400914802D1CF8930D9F309
:102F6000893169F6E9518E2F8170582EE695F0E08F
:102F7000EB5BFB4FA590B490BB2485E3E82E82E089
:102F8000F82ED12CC12C96E0892E912CC601B401CB
:102F90000E941232802F511016C0860F412F13331A
:102FA00008F042E39701672D0E94D105CA0CDB1C93
:102FB00083E0E80EF11C87E4E81682E0F80631F7BA
:102FC0000E94BF0C9CCF861BE9CFE7E4F2E043816F
:102FD00021E1421B08F440E021E0628181810C94F0
:102FE0004917E7E4F2E0438121E1420F08F44FEF93
:102FF00021E0628181810C944917E7E4F2E062816B
:1030000021E1621B08F460E021E0438181810C949E
:103010004917E7E4F2E0628121E1620F08F46FEF03
:1030200021E0438181810C944917E7E4F2E081813A
:1030300021E0438162818A500C944917E7E4F2E071
:10304000818121E043816281865F0C9449178091E0
:103050004B02882319F0815080934B026091470204
:10306000709148028091490290914A020C9437175E
:1030700080914B02833018F48F5F80934B026091F4
:103080004702709148028091490290914A020C9443
:1030900037179091470290FF3DC09170811129C070
:1030A000926090934702662351F0609147027091BD
:1030B00048028091490290914A020E94371760911C
:1030C0004702669570E04BE050E08EE091E00E9490
:1030D000AF32892BA9F01092310281E080932D024A
:1030E00020E040914A0260914902809148020C948C
:1030F0004917853210F09864D4CF880F982BD1CF20
:1031000081E0809331020E94320590932B028093DC
:103110002A02E3CF0895809147028695815009F4F1
:1031200084E261E00C9449188091470286958F5F94
:10313000853208F081E061E00C94491890914702D3
:1031400090FF07C09695981720F0961710F40C94EE
:10315000941861E00C944918E7E4F2E083E080837E
:1031600011828FEF828382E3838314826081718175
:10317000828193810C9437176AEE7EEF90E080E0B5
:103180000E94123360E082E090E00E94F43260E03E
:1031900083E090E00E94F4321092350460E084E015
:1031A00090E00E94F43260E082E290E00E94F4320B
:1031B00060E085E090E00E94F43260E086E090E01C
:1031C0000E94F4326FEF87E090E00E94F43240E01A
:1031D00050E0BA0188E090E00E94063360E08DE0A4
:1031E00090E00E94F43240E050E0BA0188E190E0C3
:1031F0000E94063360E087E190E00E94F43240E0F4
:1032000050E0BA018CE190E00E94063370E060E08B
:1032100080E290E00E94123340E050E0BA0188E181
:1032200090E00E94063380E00E9473110E944212D7
:1032300040E050E0BA018FE090E00E94063340E0A9
:1032400050E0BA0183E190E00C9406338F929F9294
:10325000AF92BF92CF92DF92EF92FF920F931F93A4
:10326000CF93DF9300D000D0CDB7DEB77C01DC0177
:1032700013968D919C911497892B39F08C9111960E
:103280009C9189238F3F09F0CEC50F900F900F902E
:103290000F90DF91CF911F910F91FF90EF90DF90F2
:1032A000CF90BF90AF909F908F900895D6011696C3
:1032B0008C9116978823D1F019968D919C910817BF
:1032C000190739F480915E0390915F03081719077D
:1032D00069F0F601978614870387C6010E943B0AAE
:1032E000C60106960E94F60910925D03FFEFAF1A21
:1032F000BF0A26E1C20ED11CAEC5980122513F453E
:103300002031310508F05FC58FEF93E00E94E03275
:103310004EEED42ED00E0FE111E08823F1F0809113
:103320000002877009F4B1CFF7018281882309F484
:10333000ACCF8091090282FDA8CF82E00E94310BC0
:10334000A4CF011534E0130751F3C8010E94E03205
:10335000811101C0DA940F5F1F4FD110F2CF198293
:103360001A821B821C82CC24CA9448014FEF841A13
:10337000940AC8010E94E03289831A82882379F274
:10338000813009F048C0580152E0A50EB11CC401BB
:103390000E94E032982E8A83882309F4C0CFC501A9
:1033A0000E94E032D82E8FEF890D833068F45801E7
:1033B00083E0A80EB11CDB82DD2021F0CE01019656
:1033C0000E9455108501D1CF94E09912FBCF58018E
:1033D000A4E0AA0EB11CC80103960E94E032DD20D1
:1033E00009F49DCF882309F49ACF8150990BC89E88
:1033F0009001C99E300D1124ED2DE150FF0BCF013E
:10340000820F931F0197F0F2AFE9BFE01197F1F738
:1034100000C00000F7CFCE0101960E945510540164
:10342000D1CF81E00E944D0B0E941A0B78CF81E032
:103430000E94250BF9CF82E0F5CF2FEFC216D10401
:1034400011F008F0D6C464E572E08C2D0E94511290
:10345000892B29F586E18C9DF0018D9DF00D1124BD
:10346000E05AFC4F8681813009F0AEC08091540251
:1034700090915502892B99F08091560290915702B4
:10348000892B69F0809158029091590220915A023B
:1034900030915B02822B932B892B09F49FC0809182
:1034A0000001909101018C159D0524F4D092010139
:1034B000C0920001F701828196E19C9D50019D9D83
:1034C000B00C11249501205A3C4F6901D901509646
:1034D0008C935097928116968C911697992309F4A4
:1034E0008BC01A961C930E9319978F5F16968C9328
:1034F0000E943205F60196878587809104028783B2
:1035000080915D0390915C03892B80870190F0810D
:10351000E02D309741F0D60154966D917C91C50114
:103520008A599C4F099510935F0300935E03F7013E
:103530008281882309F4A7C4109239040330FDE581
:103540001F0708F08BC00A3F2CE5120730F4C801B2
:1035500082509C45449708F086C00E94F1139093D6
:1035600009028093080200314CE5140709F44CC1AC
:1035700008F0C8C008308CE5180709F433C108F01A
:103580009AC00430ACE51A0709F41EC108F080C0E7
:103590000230ECE51E0709F411C180910802826037
:1035A00003301C4509F40DC1609108021091090215
:1035B00084E090E00E94F432612F82E290E00E9469
:1035C000F4320E945814ABCE823009F068CF80915B
:1035D000580290915902892B09F461CF26E12C9D64
:1035E000C0012D9D900D1124805A9C4FDC015096F6
:1035F0001C920E943B0A53CF882309F498CFF9010B
:103600008189882309F493CFC5018A599C4F0E9470
:10361000F6098DCF053F8CE51807C9F0A0F027E229
:1036200045EE66EE063FACE51A0709F080CFC7010C
:103630000E94F10F74CE27E245EE65EEF8CF26E248
:1036400041EE60EEF4CF27E245EE64EEF0CF26E2E5
:1036500041EE62EEECCF28E241E0EFCF01363DE5EE
:10366000130709F47ACF80915C0306319CE51907B2
:1036700009F014C48A7A91E009F490E09093AC01C7
:103680008111E7C089E20E94790A0E94B80947CEF9
:1036900080910802806106302CE5120709F491C080
:1036A00080910802886007301C4508F48AC0809128
:1036B0000802806286C0809108028D7F0C304CE544
:1036C000140709F47EC058F40A308CE5180709F491
:1036D00093C008F48BC0809108028E7F72C08091E5
:1036E0000802877F0E30ACE51A0709F46AC08091A2
:1036F00008028B7F0F301C4508F463C080910802DC
:103700008F7E5FC00C3FECE51E0709F479C068F5B9
:1037100004312CE5120709F48BC080F402314CE52A
:10372000140709F475C0809108028F7B03311C4592
:1037300008F447C080910802837F43C00A3F8CE5AC
:10374000180709F445C008F049C005311C4509F0C7
:103750002BCF8091080282FB992790F921E09227D4
:1037600090FB82F990FB83F92CC00115BDE51B0786
:1037700009F454C088F48091090283600E3FFCE58F
:103780001F0749F1809109028D7F0F3F1C4518F1F9
:10379000809109028C7F1FC002303DE5130709F4B8
:1037A00056C008F44EC001361D4509F0FDCE90917B
:1037B0000802892F8F7E94FF806103C080910802E8
:1037C000816080930802F0CE809108028460F9CF76
:1037D00080910902816080930902E6CE80910902FE
:1037E0008260F9CF809108028064EBCF0E94581468
:1037F000809108028068E5CF809108028C60E1CF5B
:10380000809109028E7FE7CF809108028F7DD9CF0A
:103810000E945814809108028F77D3CF80910902BB
:10382000982F909591708E7F892B90FB81F9D3CF43
:103830000E94581490910802892F97FB87F98058AD
:10384000C0CF61E08EE090E00E94F432ADCE60E047
:10385000F9CF85E318CF85E31EC38091470280FF2F
:103860001BC08E7F8093470260914702709148028F
:103870008091490290914A020E94371710923102BA
:10388000AFEFB0E7E2E0A150B040E040E1F700C0A8
:1038900000000E94BF0C43CD81608093470261E02D
:1038A00086950E9449183BCD4BE858E164E978E1E0
:1038B0000E94B50534CD44E958E16BE878E1F8CFD2
:1038C0004EE158E165E178E1F3CF4DEF57E169E072
:1038D00078E1EECF45EE57E161EF77E1E9CF41EFD7
:1038E00057E165EE77E1E4CF48E358E167E278E13C
:1038F000DFCF61E081E0D5CF65E082E00E949E18D5
:103900000ECD68E086E0FACF64E18FE0F7CF67E1A3
:1039100085E1F4CF62E289E1F1CF61E083E2C1CFDA
:103920000B355DE5150701F10C351D4509F0E1C2C8
:103930008091090282FB882780F991E089270E9403
:103940008B11D7C20E9458149FEFA4E3BCE09150A2
:10395000A040B040E1F700C000000E949B0C0E9414
:10396000BC18DDCC81E0EBCF80E0E9CFF7018281AC
:1039700000811181882369F0C8010E942F13D82E7D
:10398000682FC8010E94C90AB8018D2D0E94131327
:10399000B7C2C8010E949C0AD82EF6CFE12FEF7063
:1039A000DE2E107F19F0D29490EFD922CC20B9F0FE
:1039B000DD2069F080E2800F883010F0011109C02D
:1039C00080915C03D82AD0925C030E94B809802FB2
:1039D0004AC080915D03D82AD0925D03F6CF802F34
:1039E0000E94940BDD2009F440C080E2800F8830F3
:1039F00010F0011104C08D2D0E94B10903C08D2D5E
:103A00000E94AA090E94B80930C0F12FFF70DF2E72
:103A1000107F103219F0D29480EFD822002399F051
:103A2000013009F48DC0CC2009F496C0BB2009F404
:103A30006BC0D70115968C91159780FFC8CF8F70FA
:103A400015968C9361C08091090282FF38C0CC200A
:103A500081F1DD2039F080915C03D82AD0925C039B
:103A60000E94B80980E00E943D0FE92DE850FF0B4D
:103A7000349710F40E946A05AA20B1F080910002E8
:103A800080FD12C0D70112961C928595859585956B
:103A90000E944D0BC7010E94261980910002859556
:103AA000859585950E94250B60E0C7010E949813BB
:103AB000ECCB80E00E94940BDD20B9F29CCFCC20AF
:103AC00039F1B11004C0809104028D291EC021E09B
:103AD000B21210C082FDC9CF80910402D82AD81634
:103AE00021F20E9432059093030280930202D09249
:103AF0000402BBCF35E0B312E6CF0E949F0980914C
:103B0000FD01D812D092FD018D2D0E948A0BADCF00
:103B1000B11006C00E949F098D2D0E94830BA5CF76
:103B200041E0B41208C080915C038D2109F49DCF5F
:103B30000E94660AEFCF55E0B51609F496CFEACF9A
:103B4000CC2029F085E08B1508F48FCFDDCF94E0F1
:103B50009B1508F48ACFE0CFBB20F1F2093349F47A
:103B6000BFEFE7EEF3E0B150E040F040E1F700C016
:103B70000000802F0E94940B78CF812F8695869528
:103B8000837061F0813009F070CFC8019370C1106B
:103B900002C090E080E00E943E0567CFC8019370AC
:103BA000C11002C090E080E00E9454055ECF802FDB
:103BB000CC2029F00E9453070E94670656CF0E942E
:103BC0008E06FACF812F837089F5C1104ECF402F1A
:103BD000429546954770440F440F802F8F70042EF6
:103BE00001C0880F0A94EAF7202F207104FF07C054
:103BF0002FE030E001C0220F4A95EAF72095169594
:103C000016951370123069F050F43091350411306C
:103C100029F0822B83230E946E0B27CF832B822BCC
:103C2000FACF282B809135048227F5CF8695CC20BA
:103C300011F0812F8170882309F417CF402F42950E
:103C400046954770440F440F802F8F70042E01C09B
:103C5000880F0A94EAF7202F207104FF07C02FE095
:103C600030E001C0220F4A95EAF720951695169587
:103C70001370123069F050F430913604113029F08D
:103C8000822B83230E94160BF0CE832B822BFACF3C
:103C9000282B809136048227F5CF1F70CC2029F085
:103CA000812F0E944D0B802F30CF802F0E94830BDD
:103CB000812F0E94250BD9CE023F81F160F4003F95
:103CC000B9F0013F81F0CC2009F46DC0B1107FCE76
:103CD000812F8F7127C0033F41F1043FA1F78091ED
:103CE000090282FF2DC0812F8F71CC2011F31AC0E1
:103CF000CC2079F024E02B1508F4B7CE1F7181E0B9
:103D000090E001C0880F1A95EAF790913604892750
:103D1000B9CF35E03B1508F4A8CEF0CF812F8F71D5
:103D2000C110C7CF0E944D0BA0CE80E0CC2009F47B
:103D3000A9CF1F7181E001C0880F1A95EAF7A2CFC1
:103D40008091FD01CC20D9F00E94B1098091000240
:103D50008770843041F40E945F0A812F8F710E9426
:103D6000250BA12C82CE44E04B15D8F31F71812F77
:103D70000E944D0B63E0812F0E94580BF2CF90916F
:103D80005C03982B90935C0354E05B1540F40E9415
:103D90005F0A0E94660A64E0812F8F71EDCF81E097
:103DA0000E94310BDECFBB2059F0093309F0E1CE80
:103DB0008FEF97EEA3E081509040A040E1F7D7CE7F
:103DC000812F8F7176CF0031BFE51B0709F429CB16
:103DD0000131EFE51E0709F42ECB6801E7E5DE1A95
:103DE000882309F42ACBFFEFCF16D10409F008F499
:103DF00056CB033FFCE51F0709F421CC08F00ACCA1
:103E0000083D3CE5130709F416CC093D4CE51407C1
:103E100009F421CC073D5CE5150709F088CB26E2C3
:103E200041EE61EE04CC61E0C7010E9498138C0161
:103E3000D70112968C918823B1F080910001909166
:103E40000101019681F050E6C52E53E0D52EB12C2C
:103E5000A12C9924939480910001909101018A15DD
:103E60009B050CF023CAF7018281811146CA0031FB
:103E7000FFE51F0709F4DBCA01312FE5120709F03E
:103E8000ACCF82E0D5CA06311C4599F58091AC01D2
:103E90008111E1CC89E20E946C0AF7CB82720C3C62
:103EA000ECE51E0709F420CD08F094C0063C2CE593
:103EB000120709F405CD08F069C0033C4CE514076E
:103EC00009F4F2CC08F053C0023C8CE5180709F461
:103ED000C4CC0A35FDE51F0709F444CD08F020CD18
:103EE00001153CE5130709F42DCD0E3D1C4509F4E1
:103EF00036CDD70116968D919C91009709F436CD59
:103F00000E9417088C01D7011296CC901297159633
:103F1000BC90B2943FE0B322809100028770C1F060
:103F2000AC2CCC20B1F0812F807F803421F080E256
:103F3000800F883068F08091090282FD09C082E01C
:103F40000E94310B809100028770AA24A3948111F2
:103F5000A12C912E92942FE09222BBE0B91508F487
:103F600084CDE92DF0E0E65BFC4C0C945C32043C23
:103F70009CE5190709F49FCC45E158E16EE178E131
:103F8000053CACE51A0709F493CCA3CF093CBCE58A
:103F90001B0709F49FCC78F4073CFCE51F0709F4E4
:103FA00094CC49E058E16DEF77E1083C2CE512072D
:103FB00009F47ECC8ECF0A3C3CE5130709F48FCC84
:103FC0000B3C4CE5140709F084CF47E258E168E365
:103FD00078E16ECC013D5CE5150709F495CCA0F4C1
:103FE0000E3C9CE5190709F487CC08F482CC0F3C01
:103FF000BCE51B0709F485CC6EE089E0003DECE5EB
:104000001E0709F47BCC65CF043DFCE51F0709F4CE
:1040100081CC68F4023D3CE5130709F478CC61E0FB
:1040200088E1033D4CE5140709F43BCC52CF053D34
:104030005CE5150709F471CC0D35100709F46FC95B
:1040400048CFCF93DF938091B801807FA1F4809116
:10405000B501882381F08091FC01D091BB01609172
:10406000B3017091B401A091B601B091B701C62F10
:10407000C723D81303C0DF91CF91089590E0109724
:1040800011F0CF3F19F401968770F3CF9C0143E004
:10409000220F331F4A95E1F7F901E454FE4F4181A5
:1040A0004713F1CF40814613EECF42814111EBCF50
:1040B000438154814A1B5B0B483C510520F780919A
:1040C000B8018F7080618093B801F901EF53FE4F02
:1040D00080818F708061808383EB91E00E9426193C
:1040E000DF91CF910C94920AAF92BF92CF92DF9260
:1040F000EF92FF920F931F93CF93DF93CDB7DEB76D
:1041000065970FB6F894DEBF0FBECDBF8C0185E07A
:10411000F801DE01519601900D928A95E1F7F801C0
:10412000E28063EBA62E61E0B62E6091B60170913D
:10413000B7016115710509F468C19091B30140910F
:10414000B401892F84238F3F09F45FC1208131811D
:10415000C380D480F090B501F601E61BF70BFF2079
:1041600009F41DC18091B801582F507FE83CF1053A
:1041700008F0D0C0511181C0FE2C43132BC0921304
:1041800029C06091B9017091BA01F8014681578147
:1041900064177507F9F4E1101DC08F70806180937A
:1041A000B801C5010E9426198091B801F8018583E4
:1041B0008F2D65960FB6F894DEBF0FBECDBFDF9191
:1041C000CF911F910F91FF90EF90DF90CF90BF9014
:1041D000AF900895CD2829F0822F83238F3F09F0D7
:1041E0002FC180E0F82FF170DF2E80FF3CC080915E
:1041F000FC014091BB01841315C0298B3A8B89893E
:104200009A890E945E13292F22952F702230F8F090
:10421000243020F59F70F9F0F8019581907FD9F452
:10422000D12C1FC090E0FC0153E0EE0FFF1F5A9508
:10423000E1F7E454FE4F5181351306C05081251338
:1042400003C05281E5120FC001968770D4CF9F70D2
:1042500011F0882329F3805E883010F3C8010E9492
:104260002619FD2CA5CFEE2009F4A2CF8091B8012C
:1042700081608093B801F12C9BCF43131BC0921334
:1042800019C04091B9015091BA01F80126813781D6
:104290004217530779F4E1100DC08583C8010E94CD
:1042A000261988E0F801A3EBB1E001900D928A9500
:1042B000E1F77ECFC8010E946A13882339F1EE200E
:1042C00029F18091B8018032A0F02091B3013091A2
:1042D000B4013A8729871B86DD86CC868E8780913C
:1042E000B9019091BA01988B8F87CE0109960E94EF
:1042F000261988E0F801A3EBB1E001900D928A95B0
:10430000E1F70E942120FF24F39452CFC8010E94BC
:104310002619F9CF51110AC083EB91E00E942619AA
:1043200088E0F50111928A95E9F7A5CF431318C0EB
:10433000921316C04091B9015091BA01F80126813B
:1043400037814217530761F4E1100AC08583C80121
:104350000E94261988E0F50111928A95E9F728CF85
:10436000C8010E946A13882389F2EE2079F28091B5
:10437000B801803208F4BDCF2091B3013091B4016F
:104380003A8329831B82DD82CC828E838091B9019E
:104390009091BA0198878F83CE010196A8CFE83C0F
:1043A000F105C0F6FE2CEE2009F4B0CF43131FC078
:1043B00092131DC02091B9013091BA01F801868194
:1043C00097812817390799F49091B80190FD69CF2A
:1043D000907F09F466CF8091B8018583903F09F4FE
:1043E0005DCF982F907F905F8F70892B56CFC8013B
:1043F0000E946A1381117DCF8091B8018160809302
:10440000B801C8010E942619D3CEEE2009F47ECF50
:10441000C8010E946A13F82E882309F477CF88E038
:10442000F801A3EBB1E001900D928A95E1F780913C
:10443000B3019091B4010E945E130E942120B8CE76
:1044400081E08E25CFCECF93DF93CDB7DEB76097D7
:104450000FB6F894DEBF0FBECDBF29873A874B87D2
:104460005C876D877E878F87988BCE0109960E9427
:104470007420811112C088E0FE013996DE01119688
:1044800001900D928A95E1F78C859D85892B29F005
:1044900089859A8589238F3FA9F58091FC019091A8
:1044A000BB0189131CC060960FB6F894DEBF0FBE27
:1044B000CDBFDF91CF91089593E0AA0FBB1F9A95CE
:1044C000E1F7A454BE4F98E0FE01319601900D92A1
:1044D0009A95E1F78093BB010E94920ADECFB8E083
:1044E0008B9FC001112484549E4F0E947420882306
:1044F000D1F28091FC0190E001968770992780931A
:10450000FC01CBCFA091BB01B0E0CD01019687703B
:1045100099272091FC012817190671F60E9458145A
:104520001092BB011092FC0188E0E3EBF1E0DF01A7
:104530001D928A95E9F7B1CF0F931F93CF93DF9325
:104540008091B702E091B602CCE081111AC0DF91F0
:10455000CF911F910F910895D1E0DE0FD093B60255
:104560000E2F10E0EC9FF0011124E854FD4F8381E1
:104570009481892B29F08081918189238F3F51F487
:10458000ED2F8091B702E81738F31092B70210921E
:10459000B602DDCFC09FD001C19FB00D1124A85439
:1045A000BD4F16968D919C911797892B29F41896DB
:1045B0008D919C91019651F42081318142815381EA
:1045C00064817581868197810E942322C09FF001BA
:1045D000C19FF00D1124E854FD4F14821382D0CFF7
:1045E00010925B0310925A0310921C0180915903A0
:1045F000809358030E94A4050C949C223F924F92F2
:104600005F926F927F928F929F92AF92BF92CF9262
:10461000DF92EF92FF920F931F93CF93DF93C0919E
:10462000580397E0892E01E010E02CE0322E3EEF97
:10463000932E44244394809159038C1315C00E94F7
:104640009C22DF91CF911F910F91FF90EF90DF900F
:10465000CF90BF90AF909F908F907F906F905F9022
:104660004F903F900C94A405D0E0FE01EE0FFF1F89
:10467000E05BFC4F80819181889ED001899EB00DC6
:104680001124A85EBC4F14962C911497211157C089
:104690005090B702E8EBF2E030E020E0712C5D01D1
:1046A000251508F04AC0E284F384D501CD90DC9052
:1046B0006FEF7FEF612C462D50E0DA01AA0FBB1F90
:1046C000AC0DBD1D0D90BC91A02D109731F0EA16D8
:1046D000FB0609F4BA016394EECF6F3F7607A1F1B0
:1046E000D80102C0AA0FBB1F6A95E2F77A2AB80167
:1046F00002C0660F771F6A94E2F7AB01415051097F
:1047000074161506F9F4329EF001339EF00D112453
:10471000E854FD4F889ED001899EB00D1124A85EFB
:10472000BC4F12962D913C9113973783268390822C
:1047300091829187808715964C920E9476052196EA
:10474000C37079CF148213822F5F3F4F3C96A8CF5E
:104750002F923F924F925F926F927F928F929F9291
:10476000AF92BF92CF92DF92EF92FF920F931F937F
:10477000CF93DF93CDB7DEB769970FB6F894DEBF5E
:104780000FBECDBF498B5A8B6B8B7C8B8D8B611190
:1047900010925D031D861E861F86188A85E0FE0125
:1047A0007196DE01199601900D928A95E1F780913C
:1047B000090282FD1CC00E9432052091FE01309149
:1047C000FF01821B930B8838934120F080910002F7
:1047D00082FFFEC10E943205209102023091030245
:1047E000821B930B8838934110F00E949F098C859F
:1047F0009D85892B31F089859A8589238F3F09F022
:10480000D3C129853A854B855C856D857E858F85ED
:1048100098890E942322C2C048EFC4164CE5D406F2
:1048200029F4882379F00E94F022EBCF69EFC616B5
:104830006CE5D60639F4882329F080911C0181119A
:10484000F2CFC2C108E113E0E12CB12CA12C8824E5
:104850008394912C2EEF522E44244394F8014081EE
:10486000518166246A94762C20E0822F90E0FC012E
:10487000EE0FFF1FE40FF51F608171816115710557
:1048800031F0C616D70609F43C012F5FEECFF12CAC
:10489000FFEF6F167F0609F443C0F8014481F090E2
:1048A0001C018F2D411180E0F82FF170FF2EF801CF
:1048B000258086819B85992309F406C1FF2009F490
:1048C00003C1211013C0A40101C0440F6A94EAF788
:1048D000842B86838091B4029091B502C29730F404
:1048E00062E370E07093B5026093B402C40102C049
:1048F000880F991F2A95E2F70197F801268128175A
:10490000190671F480915A0390915B03009709F4A2
:104910005EC00E942305C39708F459C0F801448281
:10492000EF28FFEFAF1ABF0A095F1F4F28E0A2165A
:10493000B10409F093CF8B85882309F420C1EE20C0
:1049400009F41DC10E94320590935B0380935A03C2
:104950008091B702883010F591E0980F9093B702DC
:1049600098E0FE013996DE01119601900D929A951C
:10497000E1F73CE0839FC001112488549D4F28E05B
:10498000FE013196DC0101900D922A95E1F72FEF9F
:104990003FEFFC0131872087D386C28669960FB628
:1049A000F894DEBF0FBECDBFDF91CF911F910F9165
:1049B000FF90EF90DF90CF90BF90AF909F908F903F
:1049C0007F906F905F904F903F902F9008958091CF
:1049D000580350915903982FF0E0E0E0851314C07C
:1049E000909358030E171F0709F49ACF90E0FC012B
:1049F000EE0FFF1FE05BFC4FB182A0820196837037
:104A00009927809359038CCF282E312CF101EE0F7A
:104A1000FF1FE05BFC4F20813181F7E0F29FD00166
:104A2000F39FB00D1124A85EBC4F2D913C911197BE
:104A3000398F288F40E020E030E0E32FF0E0EE0FE8
:104A4000FF1F688D798DE60FF71F608071806114FC
:104A50007104E1F0F8010190F081E02DFF8BEE8B05
:104A600020E005C06616770609F44F2D2F5FE22F70
:104A7000F0E0EE0FFF1F6E897F89E60FF71F608160
:104A800071816115710571F73F5FD7CF4423C9F07C
:104A9000F801231708F0FD014482E017F10721F423
:104AA00090935803F42E3CCF981305C0EA17FB07E8
:104AB00011F49F5F937091012F5F3F4F822F83709E
:104AC0008DCFF0E0E0E0F7CF90E021101FC0B401FF
:104AD00002C0660F771F2A95E2F79B01215031092A
:104AE0008217930731F4442309F447C0C5010E949B
:104AF0007605C40101C0880F6A94EAF7982F909553
:104B0000F801868189238683F22C0ACF9C01062C2A
:104B100002C0359527950A94E2F7A90141705527FF
:104B2000BC016150710986239723892B11F5452B10
:104B300001F1F80182819381892BC1F01B821C82D3
:104B40001D821E8259825A820E9432058160582F2E
:104B50009D838C83F801828193818F83988729813B
:104B60003A814B816D817E810E942322F80115825A
:104B7000C0CFF22FF1702F2EBCCF2F2CBACF909137
:104B8000580380915903981731F00E94FE22EE20BD
:104B900009F437CE03CF0E949C2210925B0310923F
:104BA0005A030E94A405F3CF61E0CE0109960E944A
:104BB00098136C018B85F7EFCF16FCE5DF0609F043
:104BC0002BCE882309F43ECE81E080931C0119CEC0
:104BD00082E00E94310BFECD0F931F93CF93DF93A2
:104BE00000D000D00F92CDB7DEB78C019093B10208
:104BF0008093B002011580E2180720F5802F0E94F3
:104C0000940BC8010E94EA0B9801205E31092830FC
:104C1000310510F0012B59F40F900F900F900F9069
:104C20000F90DF91CF911F910F910C94830B0F90F8
:104C30000F900F900F900F90DF91CF911F910F91D8
:104C40000C94720B8EEF89838A831B820E9432053B
:104C50008160782F9D838C8349815A816B818D81FE
:104C60000F900F900F900F900F90DF91CF911F91A9
:104C70000F910C94A8230F931F93CF93DF938C0174
:104C8000EB0164E572E08C2F0E945112892B71F4C4
:104C9000DD27C45BDD4F8881F801108218828330E4
:104CA00009F148F4813059F0823081F0DF91CF91E1
:104CB0001F910F9108958430D1F08530B9F780911C
:104CC000540290915502009789F306C080915602D4
:104CD00090915702009799F3DF91CF911F910F9117
:104CE0000C94EC258091580290915902F3CF809159
:104CF0005A0290915B02009779F72091540230910B
:104D00005502809156029091570221153105D9F232
:104D1000009711F7C901E0CF0F931F93CF93DF9353
:104D200000D000D00F92CDB7DEB78C019093B102C6
:104D30008093B002011580E21807E8F4C8010E94D0
:104D4000EA0B9801205E31092830310518F0011571
:104D5000110571F40E948A0B802F0F900F900F9015
:104D60000F900F90DF91CF911F910F910C943D0FF9
:104D70000E94790BF1CF8EEF89838A8381E08B8348
:104D80000E9432058160782F9D838C8349815A81EE
:104D90006B818D810F900F900F900F900F90DF918E
:104DA000CF911F910F910C94A823BF92CF92DF92C5
:104DB000EF92FF920F931F93CF93DF93B82EC09083
:104DC000360480913504C82AC7E0D0E0D12CF12CFC
:104DD000E12CD701C6010C2E04C0B695A795979576
:104DE00087950A94D2F780FF1FC04B2D60E08C2F6F
:104DF0000E94BB128C0181309105B1F00E948C267B
:104E00008FE39CE90197F1F700C00000C8010E9400
:104E1000EC2581E0DF91CF911F910F91FF90EF90F2
:104E2000DF90CF90BF900895219798F64B2D60E0CA
:104E300080E00E94BB12EC010E948C268FE39CE96B
:104E40000197F1F700C00000CE01E1CFCF93DF93CF
:104E5000EC010E948C26CE01DF91CF910C94EC25C1
:104E60000F931F93CF93DF938C01862F64E572E03D
:104E70000E945112892BC9F4C0915402D09155025D
:104E8000209799F0F8018081833069F4CE010E9467
:104E90002627CE010E942627CE01DF91CF911F91B8
:104EA0000F910C9426278430B8F7DF91CF911F9192
:104EB0000F9108950F931F93CF93DF938C01EB0114
:104EC00064E572E08C2F0E945112892B09F064C0B6
:104ED000FE01FF27D8018C91E45BFD4F8130D9F4AE
:104EE00019969C911997992311F080830CC01A96FA
:104EF0009C919923D1F382E0808380915602909116
:104F000057020097D9F4809154029091550200976E
:104F100009F442C013C08230E9F519968C911997B3
:104F200081112DC01A968C9181110EC083E080836F
:104F30008091580290915902009719F1DF91CF9119
:104F40001F910F910C948C2684E0808380915A02EB
:104F500090915B02009791F78091540290915502D5
:104F60000097F9F00E9426278091560290915702EF
:104F7000009721F78091540290915502DFCF85E090
:104F800080838091540290915502009729F00E94ED
:104F90002627F0CF86E08083DF91CF911F910F917C
:104FA00008958091560290915702B1CF9F92AF928F
:104FB000BF92CF92DF92EF92FF920F931F93CF9306
:104FC000DF9300D00F92CDB7DEB719821A821B8211
:104FD00037E5E32E31E0F32E10E000E0CC24C3945B
:104FE000D12C5DE5A52E51E0B52EF70181917F0111
:104FF0008F3F09F445C0F894E82FE295EF70F0E098
:1050000021A18F70A60102C0440F551F8A95E2F7B7
:10501000CA01922F982B91A392A18095892382A3F4
:10502000789400C0EAE5F1E0912C31E021912F3F26
:1050300009F465C0A22FA295AF70B0E090968C9154
:1050400090E02F7002C0959587952A95E2F780FD34
:1050500056C0832F982A330FAE16BF0639F7F701D3
:10506000319780818F3F11F00E94BD0750EA5A9519
:10507000F1F7E1E0F0E0EC0FFD1FE00FF11F90828F
:105080000F5F1F4F0330110509F0AFCF43E050E031
:10509000BE016F5F7F4F8AE092E00E94BC32DD2448
:1050A000D394009709F4D12C892B59F189819A81E5
:1050B000AB8180930A0290930B02A0930C0281E0D3
:1050C000809307020E9432059093060280930502A6
:1050D00080910502909106020E9423050597A8F091
:1050E00080910A0280931A0280910B0280931B0226
:1050F00080910C0280931C021092070206C080E08F
:10510000A9CF809107028111E3CF80910001909196
:10511000010110E006E1019609F042C080911C01F6
:10512000811148C08D2D0F900F900F90DF91CF917E
:105130001F910F91FF90EF90DF90CF90BF90AF90B5
:105140009F900895089FF001099FF00D1124E05AE7
:10515000FC4FE288F388E114F10419F428ECE22E04
:10516000F12C089FF001099FF00D1124E05AFC4F2B
:1051700086818823A1F0858596850E942305E816FF
:10518000F90668F4109F70011124C701805A9C4FE2
:105190000E943B0AC7018A599C4F0E94F6091F5F73
:1051A000812F90E0209100013091010128173907EB
:1051B0004CF6B4CF80915A0390915B03009709F4A9
:1051C000B1CF0E9423052091B4023091B502281777
:1051D000390708F0A7CF9091580380915903981789
:1051E00059F00E94FE221092B5021092B402109261
:1051F0005B0310925A0396CF0E949C2210925B038D
:1052000010925A030E94A4058DCF90E080E00E9486
:10521000EE328A3E9E4F11F40C94D81380E008952C
:105220001F920F920FB60F9211242F933F934F931B
:105230005F936F937F938F939F93AF93BF93CF931E
:10524000DF93EF93FF93D091E900DF708091EC0042
:10525000C82FC17080FDC0E81092E9008091F00075
:10526000877F8093F00078940E9463141092E90085
:105270008091F00088608093F000CD2BCF70C093B8
:10528000E900FF91EF91DF91CF91BF91AF919F9195
:105290008F917F916F915F914F913F912F910F90DF
:1052A0000FBE0F901F9018951F920F920FB60F927E
:1052B00011242F933F934F935F936F937F938F931B
:1052C0009F93AF93BF93EF93FF938091E10082FF91
:1052D00009C08091E20082FF05C08091E1008B7FD0
:1052E0008093E1008091DA0080FF24C08091D80093
:1052F00080FF20C08091DA008E7F8093DA00809159
:10530000D90080FF9DC080E189BD82E189BD09B4DB
:1053100000FEFDCF81E08093340480911E04811152
:1053200009C00E946D030E9460048091E2008460C5
:105330008093E2008091E10080FF17C08091E2003D
:1053400080FF13C08091E2008E7F8093E200809105
:10535000E20080618093E2008091D80080628093B7
:10536000D80019BC85E0809334048091E10084FF6B
:105370002BC08091E20084FF27C080E189BD82E1DB
:1053800089BD89B5982F917080FFFBCF8091D8009F
:105390008F7D8093D8008091E1008F7E8093E10023
:1053A0008091E2008F7E8093E2008091E200816034
:1053B0008093E20080912B04882309F447C084E0A5
:1053C00080933404809134048091E10083FF27C0EE
:1053D0008091E20083FF23C08091E100877F80936A
:1053E000E10082E08093340410922B048091E1006C
:1053F0008E7F8093E1008091E2008E7F8093E200B7
:105400008091E20080618093E20042E060E080E011
:105410000E942E048091F00088608093F000FF913C
:10542000EF91BF91AF919F918F917F916F915F911C
:105430004F913F912F910F900FBE0F901F90189595
:1054400019BC1092340410921E0474CF8091E300B2
:1054500087FD93E090933404B5CF78941F921FB6E4
:105460001F9211248F939F93AF93BF938091170442
:1054700090911804A0911904B0911A040196A11DED
:10548000B11D8093170490931804A0931904B0934E
:105490001A04BF91AF919F918F911F901FBE1F90D3
:1054A00018951F921FB61F9211248F939F93AF934D
:1054B000BF9380911604811113C0809117049091BD
:1054C0001804A0911904B0911A044196A11DB11DB0
:1054D0008093170490931804A0931904B0931A04AE
:1054E000BF91AF919F918F911F901FBE1F901895F4
:1054F000CDB7DEB7E8970FB6F894DEBF0FBECDBFCD
:1055000084B7877F84BF0FB6F894A8958091600018
:10551000886180936000109260000FBE80E890E088
:105520000FB6F89480936100909361000FBE85B729
:10553000806885BF85B7806885BF8BEB97E09093C7
:10554000A3018093A2010E9465120E94FF130E9492
:105550006D030E9460048091E20084608093E20009
:105560007894809134048823A1F01091E9001F7091
:105570009091EC00892F817090FD80E8182B10929B
:10558000E9008091E80083FD0E9463141F7010936E
:10559000E90082E084BD93E095BD9AEF97BD8093CA
:1055A0006E000E94D813811102C00E94421287E946
:1055B0000E94BD0780EF0E94BD0786EF0E94BD07D5
:1055C00085EF0E94BD0787EF0E94BD0784EF0E9410
:1055D000BD0783E0EAE1F2E0DF01282F1D922A9562
:1055E000E9F7EAE0F2E0DF011D928A95E9F70E940F
:1055F0000529811102C00E94BC1882E090E00E943F
:10560000E032809312020E94F1139093090280937A
:1056100008020E94D627EFE3FCE93197F1F700C0BA
:1056200000000E94D62780911A0280FF08C06FEF09
:105630007FEF90E080E00E9412330E949B0C83E099
:1056400090E00E94E0320E946E0B80910D02811169
:1056500033C00E940529811104C00E94BC180E9419
:10566000AC1888E090E00E94E832609347027093A3
:1056700048028093490290934A026E7F71F40E941F
:10568000AC1888E090E00E94E83260934702709383
:1056900048028093490290934A020E94BB051092EF
:1056A00031028091470280FF04C060E086950E942D
:1056B000491881E080930D0256985E9A54985C9A3E
:1056C00089B186FB882780F94C99F9C190E0892B34
:1056D0008093100282E091E090931304809312046F
:1056E0008E010F5F1F4F9E012D5F3F4F3EAB2DABD5
:1056F00080913404E0E1FE2EF2E1EF2E853009F4D2
:105700002CC20E94D627882359F08FB7F894409175
:105710001704509118046091190470911A048FBFF6
:10572000AAE1B2E0E3E1F2E0F12CE12C2E2D9D9113
:105730008191891709F421C28927382F3170D32E1E
:1057400080FD15C281FD15C282FF17C274E0D72EFD
:1057500082E08BA72CA79D2181E009F480E08DA732
:105760000E9432058160782F9FA78EA74BA55CA56C
:105770006DA58FA50E94A823F701ED5EFD4F8081E6
:10578000D826D082809131028823D1F180913002D5
:10579000E0914702E695E81BE0932C02823009F085
:1057A00005C2F0E0E35BFD4FE491EE2EF12C59E2EF
:1057B000C52E5FE0D52E80912D02882361F01092D6
:1057C0002D020E94320590932B0280932A021092A0
:1057D0002F0210922E020E943205E0912A02F091CF
:1057E0002B028E1B9F0B8F3F9F4750F4EE0DFF1D2A
:1057F000F0932B02E0932A028AE292E0F6010995E7
:10580000E0911002EE0FEE0FE093100289B186FBDB
:10581000882780F98FAB18AE4C9927C280E02FA95A
:1058200038AD822BE82BE0931002EF70F0E0E35AE2
:10583000FE4F808190910F02890F80930F0220E02C
:1058400082304CF080910E028F5F80930E0280E0D8
:105850000E94D52621E080910F028F3F4CF4809169
:105860000E02815080930E0281E00E94D52621E035
:1058700080910F02082E000C990B62E070E00E94EC
:10588000263280930F02222359F08FB7F89440916B
:105890001704509118046091190470911A048FBF75
:1058A00086E0E4E2F2E0D80101900D928A95E1F7FA
:1058B000D0902602C0902702F0902802E0902902A2
:1058C00010922602109227021092280210922902AA
:1058D0008D2D8C2909F448C08091220290912302D9
:1058E0000E9423059C0190911E02992309F487C50B
:1058F00023333105C8F19F3F19F09F5F90931E023B
:10590000DD2059F00E9433079FEF1D140CF491E045
:10591000899F802D112480932602CC2059F00E946B
:1059200033079FEF1C140CF491E0899F802D112404
:1059300080932702309126023323B1F02091270271
:10594000222391F045EB3403C0011124992309F47B
:105950008FC19093260245EB240390011124332339
:1059600009F48AC1309327028F2D8E2909F448C08B
:1059700080912002909121020E9423059C01909128
:105980001D02992309F436C525363105C8F19F3F1C
:1059900019F09F5F90931D02FF2059F00E9411079C
:1059A0009FEF1F140CF491E0899F802D11248093A8
:1059B0002802EE2059F00E9411079FEF1E140CF4EC
:1059C00091E0899F802D1124809329023091280233
:1059D0003323B1F020912902222391F045EB3403C7
:1059E000C0011124992309F44BC19093280245EB7F
:1059F000240390011124332309F446C13093290272
:105A00008091260290912702892B90912802892B60
:105A100090912902892B11F00E94670686E0F80117
:105A2000A4E2B2E001900D928A95E1F70E946A0526
:105A300090911102891721F00E946A05809311024A
:105A400080913404843009F053CE83E08093E900E0
:105A50008091E80082FF4CCE8091E80090E085FFC5
:105A60000AC00E948C0350E2E52EF12C68018823C5
:105A700009F418C191E08091E8008B778093E800E9
:105A8000992309F435CEE090B202F090B3028981F7
:105A9000E114F10409F414C18E3F09F0ADC18A810B
:105AA000833020F08550833008F0A6C1EA81EE30C3
:105AB00008F0A2C1F0E0EA5AFC4C0C945C3292E08F
:105AC00006CE80913404843021F11092160488E1CE
:105AD00090E0A0E40FB6F894A895809360000FBE04
