:100000000C940D020C9454020C9454020C9454025F
:100010000C9454020C9454020C9454020C94540208
:100020000C9454020C9454020C94DB240C94AF25D1
:100030000C9407200C9454020C9454020C94540217
:100040000C9454020C9454020C9454020C945402D8
:100050000C9454020C945E200C9454020C945402A0
:100060000C9454020C9454020C9454020C945402B8
:100070000C9454020C9454020C9454020C945402A8
:100080000C9454020C9454020C9454020C94540298
:100090000C9454020C9454020C9454020C94540288
:1000A0000C9454020C9454020C945402000001511C
:1000B00000001E001F00200021002200230000007D
:1000C00001000000C45C5200005C500051004F0071
:1000D00000047F3F1F643214643214783C1E1E14E7
:1000E0000A052223252628292A2C2D2F30323335A4
:1000F00036383A3B3D3E4042434547494A4C4E50D4
:1001000051535557595A5C5E6062646668696B6DFD
:100110006F71737577797B7D7F81838587898A8C01
:100120008E90929496989A9C9E9FA1A3A5A7A8AA08
:10013000ACAEAFB1B3B4B6B8B9BBBCBEBFC1C2C33D
:10014000C5C6C7C9CACBCCCDCED0D1D2D2D3D4D5D7
:10015000D6D7D7D8D9D9DADADBDBDBDCDCDCDCDC00
:10016000DDDDDDDDDCDCDCDCDCDBDBDBDADAD9D9D8
:10017000D8D7D7D6D5D4D3D2D2D1D0CECDCCCBCA66
:10018000C9C7C6C5C3C2C1BFBEBCBBB9B8B6B4B38C
:10019000B1AFAEACAAA8A7A5A3A19F9E9C9A989622
:1001A0009492908E8C8A89878583817F7D7B7977F5
:1001B0007573716F6D6B6968666462605E5C5A59D5
:1001C00057555351504E4C4A4947454342403E3D96
:1001D0003B3A3836353332302F2D2C2A2928262524
:1001E0002322FFAA7F554000010101010101010105
:1001F00001020202020202020202030303030303DA
:1002000003030404040404040405050505050606A7
:100210000606060707070707080808080909090965
:100220000A0A0A0B0B0B0C0C0C0D0D0D0E0E0E0F0B
:100230000F0F10101111111212131314141515169B
:10024000161717181819191A1A1B1B1C1D1D1E1E0C
:100250001F2020212222232424252626272829295D
:100260002A2B2C2D2D2E2F30313232333435363788
:1002700038393A3B3C3D3E3F404142434445464786
:1002800048494A4C4D4E4F50515354555658595A5F
:100290005B5D5E5F616264656668696B6C6D6F7003
:1002A00072737577787A7B7D7E8082838587888A72
:1002B0008C8E8F91939596989A9C9EA0A2A3A5A7A9
:1002C000A9ABADAFB1B3B5B7BABCBEC0C2C4C6C9A5
:1002D000CBCDCFD1D4D6D8DBDDDFE2E4E7E9EBEE5E
:1002E000F0F3F5F8FAFDFF0803430055003700006E
:1002F000001A03430061007000730055006E006C2B
:10030000006F0063006B00650064000000040309D7
:100310000409023B00020100A0FA090400000103E5
:10032000010100092111010001224000070581039C
:1003300008000A090401000103000000092111015D
:100340000001227B000705820320000A120100023F
:1003500000000008554307000100010200010501EB
:100360000902A10185020901A10005091901290855
:100370001500250195087501810205010930093133
:100380001581257F95027508810609381581257F1D
:10039000950175088106050C0A38021581257F959F
:1003A0000175088106C0C005010980A101850319F6
:1003B000012AB700150126B700950175108100C00C
:1003C000050C0901A101850419012AA002150126C5
:1003D000A002950175108100C005010906A1010563
:1003E0000719E029E7150025019508750181029597
:1003F00001750881010507190029FF150026FF0076
:1004000095067508810005081901290595057501EE
:100410009102950175039101C00011241FBECFEF19
:10042000DAE0DEBFCDBF04B603FE27C080919D0297
:1004300090919E02A0919F02B091A0028730904BB4
:10044000A740B04BD1F410929D0210929E021092E0
:100450009F021092A00214BE84B7877F84BF0FB69C
:10046000F894A89580916000886180936000109254
:1004700060000FBEE0E0F8E3099511E0A0E0B1E014
:10048000E0E1F1E502C005900D92AA3CB107D9F771
:1004900022E0AAECB1E001C01D92AD39B207E1F74C
:1004A0000E94C7120C945E280C940000662339F059
:1004B0006AE070E089EA0E946C0481E008956AE0D5
:1004C00070E08AEAF8CF81E0089581E008950C9405
:1004D000650208950C9469021F93CF93DF9300D0B7
:1004E00000D00F92CDB7DEB749835A836B8330912A
:1004F000CC0189819A8131111DC06623B9F0222374
:10050000A9F00E94D008182F682F89819A810E9433
:100510007B0869817A81812F0F900F900F900F9047
:100520000F90DF91CF911F910C943E0F0E94A8086D
:10053000182FEFCF0E94D00869817A81EDCFFC019E
:10054000262F408151816281738184810C946C02D9
:1005500081E00895CF93DF93EC0160E00E949F0259
:10056000BE01DF91CF910C946A020E9465110E9436
:1005700038030C948A110C948D1180E00C9439038B
:10058000089508950E9424070E94C1022FEF84E37A
:100590009CE0215080409040E1F700C000000C94A6
:1005A00082200F931F93CF93DF938C0161E00E9411
:1005B0009F02EC01B8010E9467028823D9F1B801BB
:1005C000CE010E94A71E8823A9F1B801CE010E9486
:1005D0008C1C882379F1B801CE010E94111E88235A
:1005E00049F1B801CE010E94951B882319F1F80149
:1005F0008281882361F0CB35FDE5DF0721F170F4BE
:10060000C115ECE5DE07A1F0CF3DDC45C9F0C8011E
:10061000DF91CF911F910F910C946302CC358DE542
:10062000D807A1F0CD35DD4591F70E947D0DEFCFC4
:100630000E94C20280E0DF91CF911F910F91089537
:100640000E94370EF7CF0E94860DE1CF0E94890DE0
:10065000DECF0C94C0020E94031F0E9439030C9449
:10066000290308950C94310381E008950C94340318
:100670000895CF93C82F0E9432038C2FCF910C94F2
:100680003603CF93DF93CDB7DEB72B970FB6F89431
:10069000DEBF0FBECDBF4F83588769877A878B87B0
:1006A00061110E94CB0C1E821D8285E0FE013796EF
:1006B000DE01119601900D928A95E1F78C819D8162
:1006C000892B89F449815A816B817C818D819E813E
:1006D0000E94EC0B2B960FB6F894DEBF0FBECDBF79
:1006E000DF91CF91089589819A8189238F3F51F3BA
:1006F000CE0101960E94A8028111E4CFEBCFFC014C
:10070000808191810C941209CF93C82F882309F41A
:100710008BC08238C1F40E94031F81FD85C089E32C
:100720000E94860C0E94FB0C2FEF81EE94E021507A
:1007300080409040E1F700C0000089E30E948D0CEA
:10074000CF910C94FB0C8338A1F40E94031F80FD11
:100750006BC083E50E94860C0E94FB0C2FEF81EE9C
:1007600094E0215080409040E1F700C0000083E514
:10077000E5CF8438A1F40E94031F82FD55C087E4B1
:100780000E94860C0E94FB0C2FEF81EE94E021501A
:1007900080409040E1F700C0000087E4CFCF8CEFAD
:1007A0008C0F813A90F46C2F80910201909103019B
:1007B0000E94661F882329F08C2F0E948D0C0E94B6
:1007C000FB0C8C2F0E94860CBBCF80E28C0F8830F4
:1007D00048F4C77081E001C0880FCA95EAF70E940B
:1007E000AE0CAECFEBE5EC0FE33040F4F0E0E65AB0
:1007F000FE4F808190E0CF910C94281FE8E5EC0F2C
:10080000E73150F4F0E0EE0FFF1FE45DFE4F808112
:100810009181CF910C943E1FCD3E30F08C2F0E94E1
:100820005713CF910C942A14CF910895882309F47B
:1008300052C0823871F40E94031F81FF4CC089E3CB
:100840000E94860C0E94FB0C89E30E948D0C0C9484
:10085000FB0C833859F40E94031F80FF3CC083E5E2
:100860000E94860C0E94FB0C83E5EFCF843859F47C
:100870000E94031F82FF2FC087E40E94860C0E9403
:10088000FB0C87E4E2CF9CEF980F913AF0F290E2F4
:10089000980F983050F4877091E001C0990F8A95B5
:1008A000EAF7892F0E94B40CD2CF9BE5980F9330C2
:1008B00020F490E080E00C94281F98E5980F973181
:1008C00020F490E080E00C943E1F8D3E20F00E94CA
:1008D000B1130C942A1408951F93CF93DF93182F0C
:1008E000EB010E948403209731F4812FDF91CF9197
:1008F0001F910C9416048FE99FE00197F1F700C057
:1009000000002197F0CF70E060E0893311F460E5DA
:1009100070E00C946C04882321F00E94AE0C0C94BF
:10092000FB0C0895882321F00E94B40C0C94FB0C5E
:100930000895BF92CF92DF92EF92FF920F931F9391
:10094000CF93DF936C01D62FC72FFC011281F58066
:10095000F2949FE0F9220E94A40CE82E8823B9F0BB
:10096000E12E1123A1F08C2F807F803421F080E2D2
:100970008D0F8830B0F080916E0282FD12C082E04F
:100980000E944C0D0E94A40C91E0E82EE926BC2E9A
:10099000B2948FE0B822EB2DF0E0E05AF74D0C94C2
:1009A000B927E12CF4CF0C2F0F70C07F11F0029506
:1009B000007F112399F0002359F080E28D0F8830D9
:1009C00010F0D11107C0802F0E94AE0C0E94FB0CCA
:1009D0008D2F41C0802F0E94BE0CF8CF8D2F0E941A
:1009E0001604002309F43FC080E28D0F883010F018
:1009F000D11104C0802F0E94B40C03C0802F0E942C
:100A0000C40C0E94FB0C2FC00C2F0F70C07FC03293
:100A100011F00295007FDD2381F0D13009F469C027
:100A2000112309F473C0FF2009F469C0F601858120
:100A300080FFCECF8F70858362C080916E0282FF6F
:100A400038C0112359F0002329F0802F0E94AE0CEA
:100A50000E94FB0C80E00E94840305C080E00E949D
:100A600016040111C7CFEB2DE850FF0B349720F48B
:100A70000E94031F0E943903EE2009F482C10E94E4
:100A8000A00C80FD7EC1F60112820E949A0C0E9489
:100A9000DF07C6010E94E2060E949A0CDF91CF9107
:100AA0001F910F91FF90EF90DF90CF90BF900C942B
:100AB0000008112389F0F11006C00E94DE0C802B83
:100AC0000E948B04D0CFF1E0FF12F7CF0E94DE0C22
:100AD000802B0E94E40CC7CFF11006C00E94F10CDD
:100AE000802F0E949204BFCF21E0F21609F4BBCF01
:100AF000F5CF112331F035E03F1508F4B4CF802F46
:100B0000DFCF84E08F1508F4AECFEACFFF2041F3AA
:100B1000D93349F4FFEF27EE33E0F1502040304065
:100B2000E1F700C000008D2F0E9416049CCF8C2F8F
:100B300086958695837069F0813009F094CF8D2F6A
:100B40009C2F9370111102C090E080E00E943E1F24
:100B50008ACF8D2F9C2F9370111102C090E080E0FE
:100B60000E94281F80CF8D2F112329F00E94571338
:100B70000E942A1478CF0E94B113FACF8C2F837071
:100B800009F041C011116FCF4D2F42954695477026
:100B9000440F440F0D2F0F7010E030E020E0042EC2
:100BA00004C0000F111F221F331F0A94D2F760E008
:100BB00070E0CB01D4FF0FC06FE070E080E090E008
:100BC00004C0660F771F881F991F4A95D2F760955A
:100BD000709580959095C695C695C370602B712BC6
:100BE000822B932BC23049F058F4C13019F00E9487
:100BF000910739CF0E947F0736CF0E94A30733CFDA
:100C00000E947D0730CF8695112311F08C2F8170C3
:100C1000882309F428CF4D2F429546954770440FFD
:100C2000440F0D2F0F7010E030E020E0042E04C0C0
:100C3000000F111F221F331F0A94D2F760E070E0EB
:100C4000CB01D4FF0FC06FE070E080E090E004C003
:100C5000660F771F881F991F4A95D2F76095709588
:100C600080959095C695C695C370602B712B822B8D
:100C7000932BC23049F058F4C13019F00E94560845
:100C8000F2CE0E944408EFCE0E946808ECCE0E948B
:100C9000B907E9CECF70112329F08C2F0E94DF070E
:100CA0008D2F0ECF8D2F0E9492048C2F0E94000852
:100CB000DACED23F51F160F4D03FB9F0D13F81F0AC
:100CC000112309F449C0F11083CE8C2F8F7121C0FC
:100CD000D33F11F1D43FA1F780916E0282FF26C06D
:100CE0008C2F8F71112311F314C0112349F084E06C
:100CF0008F1508F4B8CE8C2F8F710E942308B3CEC5
:100D000095E09F1508F4AFCEF6CF8C2F8F7111119F
:100D1000CDCF0E94DF07A7CE112329F08C2F8F7132
:100D20000E94CA07A0CE0E94C5079DCE112349F09C
:100D3000CF718C2F0E94DF0763E08C2F0E94310D52
:100D400092CE81E00E944C0DE1E0EF1508F08BCED1
:100D500082E00E944C0D87CEF110DACE8C2F8F717D
:100D6000A5CF4C2F4F706D2FC6010E943A0F0E94E5
:100D7000400979CE4C2F4F706D2FC6010E943D0F58
:100D800072CEDF91CF911F910F91FF90EF90DF9086
:100D9000CF90BF9008950F931F93CF93DF93EC01F3
:100DA000688179818A810E941C098C010E947A08DD
:100DB0000E947C07B801CE01DF91CF911F910F9166
:100DC0000C949904CF93DF93EC018B819C81892B48
:100DD00029F08881998189238F3F59F4DF91CF9140
:100DE0000895CE010E94CB06CE01DF91CF910C94E5
:100DF000AA02CE010E94D1028111F3CF0E94A40C5D
:100E0000882361F38A81882349F380916E0282FDF1
:100E1000E5CF82E0DF91CF910C944C0D90E080E023
:100E20000E94281F90E080E00E943E1F0E94CB0C91
:100E30000E94DB0C0E94FB0C0E9451150C942A149A
:100E40000E94940C0C940E070E94BB0C0C9420077B
:100E5000E92FE295EF70E250EE3070F4F0E0E059E7
:100E6000F74D0C94B927803F19F020F4883E20F408
:100E700081E00895843FE1F380E00895883EC0F367
:100E8000813FD1F7F5CF93FB882780F90895FC01C6
:100E9000808191810E9412090C942807CF93DF93DF
:100EA00000D000D00F92CDB7DEB70F900F900F900B
:100EB0000F900F90DF91CF910895CF93DF9300D0E3
:100EC00000D000D0CDB7DEB726960FB6F894DEBFBF
:100ED0000FBECDBFDF91CF91089508950C946D079B
:100EE0000E946E076093DB017093DC018093DD014B
:100EF0009093DE010C940E0708950C9470070F93E5
:100F00001F930091DB011091DC012091DD013091F4
:100F1000DE01602B712B822B932B1F910F910C9470
:100F200070070F931F930091DB011091DC0120915A
:100F3000DD013091DE0160237123822393231F9111
:100F40000F910C9470070F931F930091DB01109188
:100F5000DC012091DD013091DE01602771278227BD
:100F600093271F910F910C9470070C946D070C94AC
:100F7000B5070E94B7076093D7017093D80180939B
:100F8000D9019093DA010C940E0760E070E0CB0178
:100F90000C94B9070F931F9341E050E060E070E0BC
:100FA0008A019B0104C0000F111F221F331F8A9565
:100FB000D2F7C901B8011F910F910C94B9070F9393
:100FC0001F9341E050E060E070E004C0440F551F03
:100FD000661F771F8A95D2F78091D7019091D8012B
:100FE000A091D901B091DA018A019B01082B192B3C
:100FF0002A2B3B2BC901B8011F910F910C94B90703
:101000000F931F9341E050E060E070E004C0440F94
:10101000551F661F771F8A95D2F7CB01BA016095DD
:101020007095809590950091D7011091D8012091ED
:10103000D9013091DA0160237123822393231F9118
:101040000F910C94B9070F931F9341E050E060E0BB
:1010500070E004C0440F551F661F771F8A95D2F7B2
:101060008091D7019091D801A091D901B091DA0176
:101070008A019B01082719272A273B27C901B801A4
:101080001F910F910C94B9070F931F930091D701F3
:101090001091D8012091D9013091DA01602B712B88
:1010A000822B932B1F910F910C94B9070F931F93D1
:1010B0000091D7011091D8012091D9013091DA0126
:1010C00060237123822393231F910F910C94B907FE
:1010D0000F931F930091D7011091D8012091D9014E
:1010E0003091DA0160277127822793271F910F9192
:1010F0000C94B9070895E92FEE0F9E0F890F982FD2
:10110000977041E001C0440F9A95EAF7869586955D
:10111000869595E0899FF0011124E353FE4F30E05E
:1011200020E070E05191DF011197CB01022E02C047
:10113000969587950A94E2F7817081958527842397
:1011400085278C932F5F3F4F2530310559F7089540
:10115000E92FEE0F9E0F890F982F97708695869531
:10116000869525E0829FF0011124E353FE4F50E065
:1011700040E080E0219130E0092E02C036952795AD
:101180000A94E2F721703327042E01C0220F0A943B
:10119000EAF7822B4F5F5F4F4530510559F70895AD
:1011A000BF92CF92DF92EF92FF920F931F93CF9354
:1011B000DF938C01C090D701D090D801E090D90185
:1011C000F090DA018091DB019091DC01A091DD01CA
:1011D000B091DE01C82AD92AEA2AFB2ACFE1D0E061
:1011E000BC2ED701C6010C2E04C0B695A7959795C5
:1011F00087950A94D2F780FD0EC0219788F7B12C0D
:101200008B2DDF91CF911F910F91FF90EF90DF9089
:10121000CF90BF900895B8018C2F0E946D10019758
:1012200061F3EECFCF93DF93EC010E94D008BE01B3
:10123000DF91CF910C946D101F93CF93DF93EB014F
:101240009091CC01992331F0CB01DF91CF911F9187
:101250000C941209882379F0CB010E94D008182F32
:10126000682FCE010E947B08BE01812FDF91CF91B4
:101270001F910C946D10CB010E94A808182FF4CF79
:10128000EF92FF920F931F93CF93DF938C01892BE3
:1012900081F0F12CEE24E394E8012196F801849189
:1012A000843770F4843008F05FC08130B1F0823050
:1012B000A1F1DF91CF911F910F91FF90EF900895D1
:1012C000853709F44CC008F43DC09CE7980F90376F
:1012D00080F78F770E94160449C00E5F1F4FFE01F2
:1012E000849190E2980F983060F48770FE2D01C0D1
:1012F000FF0F8A95EAF78F2F0E94CE0C0E94FB0CFD
:1013000002C00E9484038F2D815030F2EFE9FFE08C
:101310003197F1F700C00000F7CF0E5F1F4FFE01BD
:10132000849190E2980F983050F48770FE2D01C0A0
:10133000FF0F8A95EAF78F2F0E94D40CDFCF0E940F
:101340001604E1CF0E5F1F4FFE01C491C150D8F2C9
:101350008FE99FE00197F1F700C00000F7CF0E5F23
:101360001F4FFE01F490CFCF0E9484038E01CBCF9C
:101370001F93CF93DF93C091DF0116E08091E001CE
:101380008C1304C0DF91CF911F910895D0E01C9F72
:10139000F0011D9FF00D1124EF51FE4F408151814E
:1013A00062817381848195810E945D072196C77057
:1013B000E5CF409111025091120260911302709199
:1013C000140280911502909116020C945D07FF9211
:1013D0000F931F93CF93DF9380911602807FD1F4F8
:1013E000809113028823B1F08091DF011091E00118
:1013F0006091110270911202A0911402B091150235
:10140000062F0723C0910001D091010196E0F92E2B
:10141000181306C0DF91CF911F910F91FF9008958F
:1014200090E0109711F00F3F19F401968770F0CFFC
:10143000F89E9001F99E300D1124F901EF51FE4FF5
:1014400041814713F2CF40814613EFCF42814111D2
:10145000ECCF438154814A1B5B0B4C175D0728F787
:10146000809116028F70806180931602F901EA5113
:10147000FE4F80818F708061808381E192E00E94C5
:10148000E206DF91CF911F910F91FF900C94B80964
:10149000AF92BF92CF92DF92EF92FF920F931F9382
:1014A000CF93DF93CDB7DEB761970FB6F894DEBF69
:1014B0000FBECDBF8C0185E0F801DE011D960190C5
:1014C0000D928A95E1F7F801E28081E1C82E82E071
:1014D000D82E60911402709115026115710509F4FE
:1014E0005FC19091110220911202892F82238F3FB8
:1014F00009F456C140815181A380B480F090130259
:10150000F501E61BF70BBF01E0910001F09101012D
:10151000FF2009F4F6C080911602382F307F6E1735
:101520007F0708F0AFC0311179C0FE2C251323C00E
:10153000941321C0E1101FC08F7080618093160248
:101540000E94D909C6010E94E20680911602F801A4
:1015500085838F2D61960FB6F894DEBF0FBECDBF89
:10156000DF91CF911F910F91FF90EF90DF90CF907F
:10157000BF90AF900895AB2829F0842F85238F3F2B
:1015800009F027C180E0F82FF170DF2E80FF3CC00A
:101590008091DF012091E00136E0821315C04D8774
:1015A0005E878D859E850E941209292F22952F70B6
:1015B0002230F0F0243018F59F70F1F0F801958199
:1015C000907FD1F4D12C1EC090E0389FF001399F5C
:1015D000F00D1124EF51FE4F6181651306C060814B
:1015E000641303C062816E110FC001968770D5CF5E
:1015F0009F7011F0882331F3805E883018F3C801A2
:101600000E94E206FD2CA5CFEE2009F4A2CF809126
:101610001602816080931602F12C9BCF251306C021
:10162000941304C0F801EE2009F487C0C8010E9499
:101630004707882319F1EE2009F1809116028032C4
:1016400070F0209111023091120238872F83198691
:10165000BB86AA868C87CE0107960E94E20686E0AA
:10166000F801A1E1B2E001900D928A95E1F70E94A4
:10167000E7090E94D909FF24F3946BCFC8010E94A7
:10168000E206F9CF311113C07A2DB98AA88A6E2DDE
:1016900089890E944E0781E192E00E94E20686E07D
:1016A000F60111928A95E9F70E94D909B5CF251361
:1016B0000FC094130DC0E1100BC0F8018583C80161
:1016C0000E94E20686E0F60111928A95E9F741CF81
:1016D000C8010E944707882389F2EE2079F28091A1
:1016E0001602803208F4BBCF209111023091120211
:1016F0003A8329831B82BD82AC828E83CE01019600
:10170000ACCF6E177F0708F03EC0FE2CEE2009F428
:10171000B5CF25132AC0941328C08091160280FDEE
:101720001BC0982F907FC1F0F8018583903F31F066
:10173000982F907F905F8F70892B8583C8010E94BE
:10174000E20686E0F801A1E1B2E001900D928A95EF
:10175000E1F70E94D909FDCE86E0F801A1E1B2E0EF
:1017600001900D928A95E1F7F4CEC8010E944707D7
:10177000811175CF80911602816080931602C80195
:101780000E94E206E6CE7A2DB98AA88A6E2D898952
:101790000E944E0786E0F60111928A95E9F7D9CFAB
:1017A000EE2009F46BCFC8010E944707F82E88236A
:1017B00009F464CF86E0F801A1E1B2E001900D9256
:1017C0008A95E1F781E192E00E947F030E94E70998
:1017D000C0CF81E08E25D7CE1F93CF93DF93CDB7B7
:1017E000DEB72C970FB6F894DEBF0FBECDBF4F8388
:1017F000588769877A878B879C87CE0107960E94D6
:10180000480A882369F08A859B85892B39F04F81A6
:101810005885842F85238F3F09F071C016E05FC083
:1018200086E0FE013796DE01119601900D928A95B1
:10183000E1F78A859B85892B89F38F819885892398
:101840008F3F61F32091E00130E0C901019687707C
:1018500099274091DF014817190671F40E94240767
:101860001092E0011092DF0186E0E1E1F2E0DF0199
:101870001D928A95E9F7D2CF96E0929FD001939F6F
:10188000B00D1124AF51BE4FFE01319601900D9263
:101890009A95E1F78093E0010E94B809BFCF819F3C
:1018A000C00111248F519E4F0E94480A8823E9F0FD
:1018B000E091DF011E9FF0011124EF51FE4F4081A6
:1018C000518162817381848195810E945D0780913D
:1018D000DF0190E00196877099278093DF01809166
:1018E000DF019091E0018913DACF2C960FB6F894BE
:1018F000DEBF0FBECDBFDF91CF911F9108956985E7
:101900007A858B859C850E945D0788CF682F8091A2
:101910000201909103010C949C1F682F8091020199
:10192000909103010C949E1F8091020190910301FC
:101930000C94A01F80911702859585958595089533
:10194000809117028770089590911702977081E037
:1019500009F480E008958091230208959091230274
:10196000892B8093230208958095909123029823D8
:1019700090932302089510922302089590912202D9
:10198000892B8093220208958095909122029823BA
:1019900090932202089510922202089590912102BC
:1019A000892B80932102089580959091210298239C
:1019B00090932102089510922102089580911802B7
:1019C000089508950C94E10C90916E0292FD08C068
:1019D00090911802981721F0809318020C94E20C51
:1019E000089580911802882329F01092180280E04F
:1019F0000C94E20C0895E0910201F09103018091B2
:101A000023028083E0910201F09103018081909193
:101A10002202892B8083E0910201F09103018081F1
:101A200090912102892B808390911802992381F053
:101A3000E0910201F09103018081892B80838091E4
:101A40000201909103010E94541F81110E94F10C28
:101A500080910201909103010C940F1F08950C9442
:101A60002E0D90916E0292FD10C098E0899F90011A
:101A70001124622B609317020E94DF0780911702E6
:101A80008595859585950C942F0D0C94DF07109204
:101A9000170280E00C942F0D9091170280958923F6
:101AA00080931702282F277091F4282F082E000CFE
:101AB000330B9217130659F090916E0292FD07C0F6
:101AC0008595859585950E9400080C94470D08958D
:101AD00090916E0292FB222720F9281769F080FB73
:101AE00092F990936E0280916D0290916E020E9425
:101AF000B30D82E00C944C0D089580916E0282FB30
:101B0000882780F991E089270C94680D81E00C9476
:101B1000680D80E00C94680D6FEF7FEF90E080E03F
:101B20000C94482890E080E00E94242821E0893E1F
:101B30009E4F09F020E0822F089582E090E00C94FF
:101B4000162883E090E00C941628CF9384E090E070
:101B50000E941628C82F82E290E00E941628982F33
:101B60008C2FCF910895CF93C92F682F84E090E0F8
:101B70000E942A286C2F82E290E0CF910C942A28B0
:101B8000AB01BC018FE090E00C943C28AB01BC01A0
:101B900083E190E00C943C2860E070E0CB010C9471
:101BA000C60D60E070E0CB010E94C00D0C94CC0D1E
:101BB00069EE7EEF90E080E00E94482860E082E0DD
:101BC00090E00E942A2860E083E090E00E942A28AA
:101BD0001092DB011092DC011092DD011092DE0107
:101BE00060E084E090E00E942A2860E082E290E0D9
:101BF0000E942A2860E085E090E00E942A2860E0A8
:101C000086E090E00E942A286FEF87E090E00E9433
:101C10002A2840E050E0BA0188E090E00E943C2889
:101C200060E08DE090E00E942A2840E050E0BA0198
:101C300088E190E00E943C2860E087E190E00E940B
:101C40002A2840E050E0BA018CE190E00E943C2854
:101C500070E060E080E290E00E94482840E050E0C0
:101C6000BA0188E190E00E943C280C94D10D0C94BC
:101C7000D80D682F8EE090E00C942A280E94432013
:101C8000609330027093310280933202909333025A
:101C900060932C0270932D0280932E0290932F025A
:101CA00008950E9443206093300270933102809324
:101CB000320290933302609328027093290280933A
:101CC0002A0290932B02089585B7806885BF85B757
:101CD000806885BF0895089508950C946B0E08954B
:101CE0000C946F0E0E94640E8BE491E10E94F91E29
:101CF0000E946C0E0C946D0E81E008950C947C0E85
:101D0000089508950E94800E0C94810E0E942E204A
:101D10000E942C120E94B41A0E94B81D0C94700EDE
:101D2000BF92CF92DF92EF92FF920F931F93CF93C8
:101D3000DF93CDB7DEB72A970FB6F894DEBF0FBE9C
:101D4000CDBF0E94411281110E943E0E35E2C32E8A
:101D500032E0D32E10E000E0B02E802F0E948F11D1
:101D6000E82EF601F1906F01F81609F45CC080913D
:101D7000340281FD0E9495118F2D8E25F82FF17070
:101D8000FF2E80FD49C081FD49C082FF4CC092E01A
:101D9000D92E24E0F22E0E947E0E882399F0DE8256
:101DA000BF82EF2081E009F480E088870E9437201D
:101DB0008160782F9A8789874E815F8168858A85BF
:101DC0000E944103F801EB5DFD4F8081F826F0820F
:101DD0000E94E71A0E94C91D81110E94510E0E94A3
:101DE00045140E94031F90912402891799F10E94C3
:101DF000031F809324022A960FB6F894DEBF0FBE0D
:101E0000CDBFDF91CF911F910F91FF90EF90DF90A9
:101E1000CF90BF900C943903D12CBDCFDD24D39447
:101E200082E0F82EB8CF0F5F1F4F0330110509F085
:101E300093CF8FEF89838A831B820E943720816032
:101E4000782F9D838C8349815A816B818D810E947B
:101E50004103BECF2A960FB6F894DEBF0FBECDBFAA
:101E6000DF91CF911F910F91FF90EF90DF90CF9076
:101E7000BF90089590E080E008950895972F70E056
:101E800023E0929F600D711D1124FB0199E0899F51
:101E9000E00DF11D1124EE0FFF1FE455FF4F85915A
:101EA00094910895FC01EE0FFF1FE053FF4F8591C1
:101EB00094910895CF93DF930E947110EC018115E6
:101EC00020E5920708F042C0811530E4930708F03E
:101ED000BDC0883E910528F5803E910508F09DC063
:101EE000883A910588F4853A910508F08FC08130D1
:101EF000910509F492C0009709F48FC0049708F087
:101F00008CC0D0E0C0E089C08F3B910508F489C047
:101F1000805C9109C03CD105A0F30E94520FEC01F6
:101F20007CC08115904250F4C11581E0D80708F0BB
:101F300074C0CD3ED10528F3D0656FC0C11590E3C4
:101F4000D90708F079C0CE019F70E7CF811525E54C
:101F5000920758F5811534E5930708F0A6C081155E
:101F600042E5940750F4C11581E5D80708F471C023
:101F7000DC2FCC27C16FD06A50C0982F96959695CC
:101F80009E0123703327C115D34508F07FC0C1E0FF
:101F9000D0E002C0CC0FDD1F2A95E2F720E2929F2D
:101FA000C0011124C82BD92B6FC0C11589E5D807F2
:101FB000A8F4C11598E5D90708F07CC0C11526E53D
:101FC000D20708F09ECF8C2F0E940811C82FD0E0B6
:101FD000DC2FCC27CC27DF71D0621FC0C1153AE5BA
:101FE000D30708F46CC0CE0190568115904208F0DA
:101FF00088CF8D2F8F710E94081190E0982F88272D
:1020000088279F719C012C2BE901E6CFC55AD0E0AF
:10201000C557DE4FC881D0E0D064CE01DF91CF91AB
:102020000895C85AD0E0CC0FDD1FC35ADE4F099087
:10203000D881C02DD464F1CFCE019927D3FF03C03E
:10204000EC01D86CEACFEC01D06CE7CFDF70D06A3E
:10205000E4CFCE01E4E096958795EA95E1F78370A9
:102060002C2F26952695237090E2299F900111240C
:10207000382B8C2F8370C1E0D0E002C0CC0FDD1F65
:102080008A95E2F7C22BD32BDC68C7CFC1E0D0E042
:1020900002C0CC0FDD1F2A95E2F730E2939FC0010A
:1020A0001124C82BD92BDA68B8CFD82FCC27C46F0E
:1020B000D06AB3CFDC2FCC27C06FD06AAECF8C2FC5
:1020C0008F700E94081134E0D695C7953A95E1F7D4
:1020D000CF709C2FEC01D069A0CF0E943E0F0C94D2
:1020E0005A0F82389105B1F1B0F48133910509F4AA
:1020F00075C048F48932910509F469C08A329105A6
:1021000009F473C008958533910509F459C08933E2
:10211000910501F10895833E9105A9F138F4803EBF
:102120009105F9F0823E910549F10895863E9105A9
:10213000A9F1873E9105C9F1843E910519F52091D9
:102140006E0221FF1FC080916D0284FD14C087EED6
:1021500090E0089520916D022370A1F080EE90E050
:10216000089520916D0220FD47C030916E0230FF2E
:1021700009C024FF44C090E080E004C020916D02BB
:1021800022FDF7CF089520916D0222FD3BC03091D2
:102190006E0230FDE3CF24FFF5CFEDCF20916D022D
:1021A00023FFF0CF24FDE7CFD2CF20916D0223FD96
:1021B0002CC030916E0231FFEECF84EE90E0089596
:1021C00020916D0225FFDECF89E290E008952091F5
:1021D0006D0225FFD7CF85E390E0089520916D0231
:1021E00026FFD0CF8AE290E0089520916D0226FF6D
:1021F000C9CF81E390E0089589E390E0089583EEEC
:1022000090E0089582EE90E0089586EE90E00895C3
:1022100090916D0292FF06C0282F28712830F9F4A2
:10222000877F846093FF06C0282F28712831F1F43E
:10223000877E846120916E0220FF06C0382F38719E
:102240003830D9F4877F816021FF06C0282F28719C
:102250002831D1F4877E816194FD877E0895282FEF
:1022600024712430F9F68B7F8860DCCF282F24710D
:10227000243101F78B7E8861DDCF382F3171313009
:1022800019F78E7F8860E0CF282F2171213121F747
:102290008E7E8861E1CF80E008950C948C0D0E94C1
:1022A00041128FE39CE90197F1F700C000000E9402
:1022B000411280E00E948F1180FF04C00E944D11E6
:1022C0000C94822008950C944F110E94920D81115C
:1022D00002C00E94370E0E949D0D809334020E941E
:1022E000A50D90936E0280936D020E9463110E946F
:1022F000A10D682F70E090E080E00E947D07609162
:10230000D7017091D8018091D9019091DA010C9494
:10231000B70708950C94891108950C948C11E82F37
:10232000F0E0EE58FD4F80810895089580EA8A9587
:10233000F1F7089500C008950C949611F894E82FD1
:10234000E295EF70F0E031A1282F2F7081E090E04E
:1023500001C0880F2A95EAF7982F9095932391A3AF
:1023600092A1892B82A37894089587E90E949E11F7
:1023700080EF0E949E1186EF0E949E1185EF0E94C1
:102380009E1187EF0E949E1184EF0C949E11CF92B4
:10239000DF92EF92FF920F931F93CF93DF93EC01A5
:1023A000D62E062F10E0C8018F569E4F7C01FC01EF
:1023B00080818F3F09F445C0F894E82FE295EF70D3
:1023C000F0E091A18F7021E030E001C0220F8A95EA
:1023D000EAF7892F822B81A382A12095282322A3AB
:1023E00078940E949A11EEE8F1E041E951E031E081
:1023F000C12C21912F3F71F1A22FA295AF70B0E0B7
:1024000090968C9190E02F7002C0959587952A95B3
:10241000E2F780FD1FC0832FC82A330F4E175F07D6
:1024200041F7F70180818F3F11F00E949E1161E01A
:10243000C11001C060E08D2D0E949C11C00FD11F02
:10244000C882DF91CF911F910F91FF90EF90DF90A5
:10245000CF90089580E0E0CF0E94B51183E0E2E7DD
:10246000F2E0DF01982F1D929A95E9F7EFE6F2E08E
:10247000DF011D928A95E9F783E00E9484120C9493
:10248000B5021F93CF93DF9300D00F92CDB7DEB785
:1024900019821A821B8260E0CE0101960E94C71148
:1024A00061E0CE0101960E94C71162E0CE01019663
:1024B0000E94C71143E050E0BE016F5F7F4F8FE67F
:1024C00092E00E94092811E0009709F410E0892B9E
:1024D00049F089819A81AB8180936F029093700259
:1024E000A0937102212F43E062E772E08FE692E051
:1024F0000E9485120E94BB02812F0F900F900F90B7
:10250000DF91CF911F9108950895FF920F931F932C
:10251000CF93DF93F82E092F162FD72FC42F222306
:1025200049F081E0809337020E9437209093360271
:1025300080933502809137028823A1F08091350283
:10254000909136020E944F20059760F0EF2DF02FFA
:10255000A12FBD2FCE0FDF2FD11DEC17FD0741F4AA
:1025600010923702DF91CF911F910F91FF90089544
:1025700081918D93F2CF0E9435220E94860E0C9499
:1025800041220E9445220E94900E0C945F220E94DC
:10259000C11F0E941C220E94720E0E94BB120E9448
:1025A000C1120E94820EFBCF80913E0280FF12C0BA
:1025B0006091090185E0689FB001112475956795C8
:1025C0007595679560387105A8F561157105A1F1DC
:1025D000862F089581FF09C06091090185E0689FF9
:1025E000B001112475956795EDCF6091090182FDC9
:1025F0000AC080913D028823D1F09091080160913A
:102600000901891728F085E0689FB0011124DACF0D
:10261000869FB001112485E0869F9001879F300D31
:102620001124692F70E0C9010E948327CBCF65E098
:1026300070E0CECF8FE7089581E0089580913E024B
:1026400080FF0CC06091050170E0759567957595E8
:1026500067956115710549F1862F089581FF06C0C0
:102660006091050170E075956795F3CF6091050164
:1026700082FD0BC090913C029923A1F0609104016E
:1026800080910501961738F0682F70E06038710569
:1026900000F38FE70895899FC001112470E00E9424
:1026A0008327F4CF61E070E0D7CF81E008958D3EBD
:1026B00031F40E94D41281958093420208958E3E97
:1026C00019F40E94D412F8CF8F3E31F40E94D41234
:1026D0008195809341020895803F19F40E94D4129D
:1026E000F8CF893F29F40E941E1380934302089576
:1026F0008A3F21F40E941E138195F7CF8B3F31F45E
:102700000E941E1381958093440208958C3F19F412
:102710000E941E13F8CF9FE0980F983070F4815FED
:10272000990B21E030E001C0220F8A95EAF78091F1
:102730004002822B8093400208958D3F31F48091B6
:102740003E02816080933E0208958E3F21F4809185
:102750003E028260F7CF8F3FB9F780913E028460DE
:10276000F1CF409141028D3E59F48091420287FFA2
:102770000DC01092420241110BC010923D0208C0E0
:102780008E3E81F48091420218169CF3442381F01E
:102790008091430290914402892B09F05AC0109213
:1027A0003C0208958F3E49F447FFF0CF109241025A
:1027B000809142028111ECCFE0CF803F19F41416D2
:1027C000ACF3E4CF90914302893F29F41916F4F653
:1027D00010924302DBCF8A3F19F497FFD7CFF8CF8F
:1027E000909144028B3F29F497FFD0CF109244027E
:1027F000CDCF8C3F19F41916CCF3C8CF9FE0980FBA
:10280000983090F4815F990B21E030E0B90102C06B
:10281000660F771F8A95E2F7CB0180959091400271
:10282000892380934002B2CF8D3F31F480913E02E4
:102830008E7F80933E02AACF8E3F21F480913E028C
:102840008D7FF7CF8F3F09F0A1CF80913E028B7F24
:10285000F0CF08950E9437209C0190914102809111
:102860004202982B21F030933B0220933A02909140
:10287000430280914402982B21F030933902209337
:1028800038028FE392E00C941A1FEF92FF920F939D
:102890001F93CF93DF9300D000D000D0CDB7DEB729
:1028A00086E0EFE3F2E0DE01119601900D928A9549
:1028B000E1F7E0904102F090420200914302109152
:1028C000440210924102109242021092430210926E
:1028D00044028E2D8F2991F080913A0290913B0213
:1028E0000E944F20AC0190913D02992309F43FC012
:1028F00080910A018417150608F447C0802F812BA8
:1029000091F080913802909139020E944F20AC01E1
:1029100090913C02992309F477C0809106018417B5
:10292000150608F47FC08091410290914202892BE4
:1029300090914302892B90914402892B11F00E94BF
:102940002A1486E0FE013196AFE3B2E001900D92C9
:102950008A95E1F726960FB6F894DEBF0FBECDBF7D
:10296000DF91CF911F910F91FF90EF9008952091EB
:102970000B018AE0289F900111242417350708F0E5
:10298000BDCF9F5F90933D0202C09F3FD1F7EE20E5
:1029900059F00E94D4129FEF1E140CF491E0899F0D
:1029A000802D112480934102FF2059F00E94D412FF
:1029B0009FEF1F140CF491E0899F802D11248093C8
:1029C000420230914102332309F498CF2091420210
:1029D000222309F493CF45EB3403C001112499233A
:1029E00059F09093410245EB2403900111243323C5
:1029F00039F03093420282CF81E080934102F3CFDD
:102A000081E0809342027ACF209107018AE0289FDB
:102A1000900111242417350708F085CF9F5F90930C
:102A20003C0202C09F3FD1F7002359F00E941E13C1
:102A30009FEF10160CF491E0899F802D1124809354
:102A40004302112359F00E941E139FEF11160CF43C
:102A500091E0899F802D112480934402309143029C
:102A6000332309F460CF20914402222309F45BCF81
:102A700045EB3403C0011124992359F0909343028C
:102A800045EB240390011124332339F030934402A1
:102A90004ACF81E080934302F3CF81E080934402E8
:102AA00042CF86E0EFE3F2E0DF011D928A95E9F77D
:102AB00010923D0210923C0210923E020895EF9255
:102AC000FF920F931F93CF93DF93EB01E82FD11168
:102AD00010C0442321F0F0E0E951FE4FE4916E2F45
:102AE0007E2F8E2FDF91CF911F910F91FF90EF904E
:102AF00008950D2F10E0282F30E0442329F02951AC
:102B00003E4FF901249130E0F6E0CF9FC00111243F
:102B1000EFEFF0E0BF010E946F27AB018C2F90E038
:102B2000880F991FA5E5A49FB001A59F700D1124E2
:102B3000861B970B982F990F980FBF01601B710B85
:102B4000629FD001639FB00D729FB00D11248B2F37
:102B50009D9FB0011124672F7727EF01C61BD70B6C
:102B6000BE01629FE001639FD00D729FD00D1124C2
:102B70007F01E91AF108E09EB001E19E700DF09E20
:102B8000700D1124672F7727E61BF70BE29F80015A
:102B9000E39F100DF29F100D1124E12F722F423090
:102BA000510599F048F44115510569F0413051053E
:102BB00081F0EB2F8D2F07C04430510569F080F074
:102BC00046305105B1F76E2F8DCFE22F7B2F812F2D
:102BD000FACFE22F7D2FF7CFEB2F822F712FF3CF7C
:102BE0007B2F822FED2FEFCF41E00C945F150895DE
:102BF0000C94F415CF93DF93762FE901682F842F7F
:102C00000E94F815798368838A83DF91CF910895B4
:102C1000433308F042E30C94FA1580917502982F23
:102C20009E7F61F48170826080937502809178024A
:102C3000833318F082E38093780208958A34B0F3E6
:102C400081708864F1CF88E090E00C941E28CF92C8
:102C5000DF92EF92FF926B017C010E940D16B7018B
:102C6000A60188E090E0FF90EF90DF90CF900C9469
:102C70003C28E5E7F2E083E0808311828FEF8283D6
:102C800082E38383148260817181828193810C94B9
:102C900027168091750280FF02C08695089580E016
:102CA000089590917902933018F49F5F9093790280
:102CB000882351F0609175027091760280917702BD
:102CC000909178020C942716089581E00C94511687
:102CD00090917902992319F0915090937902882369
:102CE00051F0609175027091760280917702909117
:102CF00078020C942716089581E00C94681670E011
:102D00000C94601C609110018091750280FF0AC0D4
:102D100080910F0123E0829FC001112486589D4FAE
:102D20000C947F16809111019091120123E0829FF3
:102D3000F0011124E658FD4F891750F711821082D7
:102D400012828F5F3396F8CF9091750290FF14C076
:102D5000909111012091120133E0939FF001112411
:102D6000E658FD4F921710F00C9482168183608311
:102D700042839F5F3396F6CF0895CF93DF9300D0C1
:102D80000F92CDB7DEB79091750290FF0AC09E01F9
:102D90002F5F3F4F0E9408164B8169818A810E94F4
:102DA000A4160F900F900F90DF91CF910895CF93BD
:102DB000DF93EC01EC81F0E0EE51FF4F4491E5E749
:102DC000F2E0628181810E94BD168C818F5F8C83CD
:102DD000DF91CF910895CF93DF93EC01E5E7F2E027
:102DE000438162818C810E94BD168C818F5F8C83B0
:102DF000DF91CF9108950F931F93CF93DF9300D06E
:102E00000F92CDB7DEB78C018091450281110AC0C7
:102E10009E012F5F3F4F42E36FEF0E9408168A81A9
:102E200080934502F8016481613069F08091450228
:102E300040E0662361F040E0623011F440914502C9
:102E400080E060E004C06091450240E080E00E94C4
:102E5000A416F801848190E0019663E070E00E947E
:102E6000832784830F900F900F90DF91CF911F9154
:102E70000F910895AF92BF92CF92DF92EF92FF929F
:102E80000F931F93CF93DF9300D00F92CDB7DEB790
:102E9000182FF62E042FE22E9091750290FF29C074
:102EA000E92FE695AE2FB0E0AC56BE4F8C918093E3
:102EB0004F029E7F923059F59E012F5F3F4F812F29
:102EC0000E9408164B8169818A810E94A416109382
:102ED0007602F092770200937802EE2051F0609132
:102EE00075027091760280917702909178020E942B
:102EF00027160F900F900F90DF91CF911F910F9198
:102F0000FF90EF90DF90CF90BF90AF900895823008
:102F100019F400917802DBCF863019F41091760213
:102F2000D6CF8930D9F3893191F6E9518E2F81704E
:102F3000D82EE695F0E0EE51FE4FA590B490C12C4E
:102F4000BB2460911301C61618F00E948216BFCFF1
:102F50002C2D30E0A29EC001A39E900DB29E900D3C
:102F6000112470E00E946F27812FD11013C0860FAB
:102F700040911101420F532F511D9A01220F331F0F
:102F8000240F351F26583D4F402F6F2D0E940816E5
:102F9000C394D7CF861BECCFE5E7F2E09181282FD1
:102FA000438162818AE0890F0C943A1781E00C9486
:102FB000CC17E5E7F2E09181282F4381628186EF0B
:102FC000890F0C943A1781E00C94D917E5E7F2E0E9
:102FD000628121E1620F08F46FEF282F4381818124
:102FE0000C943A1781E00C94E617E5E7F2E0628171
:102FF00021E1621B08F460E0282F438181810C9459
:103000003A1781E00C94F517E5E7F2E0438121E1FE
:10301000420F08F44FEF282F628181810C943A17F8
:1030200081E00C940418E5E7F2E0438121E1421BC2
:1030300008F440E0282F628181810C943A1781E0E6
:103040000C94131820E00C943A17EF92FF921F9300
:10305000CF93DF93EC0110E0EE24EA94F12C609121
:103060001301161770F00E9482169A818C8190FFCE
:1030700027C08F5F8C83DF91CF911F91FF90EF90DE
:10308000089520911101422F410F5527551FCA0164
:103090009A01220F331F280F391F26583D4F70E029
:1030A000C7010E948327962F8C81409178026091FE
:1030B0007702199F800D11240E9408161F5FCFCF41
:1030C0008150D8CFAF92BF92CF92DF92EF92FF9212
:1030D0000F931F93CF93DF93FC0182810FEF80FF4B
:1030E00001E010E046E0A42E809113011817C8F00B
:1030F0000E94821680914702013009F055C081116B
:1031000002C080911301815080934702DF91CF91DB
:103110001F910F91FF90EF90DF90CF90BF90AF90F5
:103120000895C0911101C12ED12CCC0DDD2DD11DE2
:10313000CE01880F991FC80FD91FC658DD4F1982BD
:1031400018821A8234E0E32EF12CB12C80914702D0
:103150008B0D87301CF16A2D0E946127892F082E64
:10316000000C990BC816D90691F4809178028E9DB7
:10317000A0018F9D500D1124559547955595479564
:103180009E0160917702809176020E940816B00E2F
:10319000F1E0EF1AF108D1F61F5FA6CF87FFDFCF6E
:1031A00090911301890FDBCF90E00196609113019C
:1031B00070E00E948327A8CF0F931F93CF93DF93D4
:1031C000809111019091120123E0829FF00111245E
:1031D000E658FD4F891740F1C0E0D3E0609113013C
:1031E000C61740F10E94821620910D01809146027F
:1031F000820F8093460290910E01920F90930E01E0
:10320000191654F4082E000C990B409113014150EB
:10321000550B841795071CF0219520930D01DF9124
:10322000CF911F910F9108951182108212828F5FAA
:103230003396D0CF0C2F10E070E0C8010E94832796
:1032400020911101820F482F50E020914602022E5A
:10325000000C330B02171307BCF020910E01022E55
:10326000000C330B201731077CF08D9F9001112447
:1032700026583D4F40917802609177028091760206
:103280000E940816CF5FAACFFA01EE0FFF1FE40FCE
:10329000F51FE658FD4F118210821282F3CF8F92F4
:1032A0009F92AF92BF92CF92DF92EF92FF920F93D5
:1032B0001F93CF93DF93EC014C81042F10E0980112
:1032C000D8010E94C7279B01AC010E94DD274B015A
:1032D0005C01E0E2F0E0E01BF10BA5E5B0E0AC0141
:1032E0009B010E94DD276B017C019F01DF010E9491
:1032F000BF279B01AC010E94E8279B01AC01280D70
:10330000391D4A1D5B1DC701B6010E949727F22E89
:10331000822F90E039E23F1560F143E0249F900155
:10332000112435952795122F109500E085E5E82E9C
:10333000EF1880911301081758F10E9482169C81A2
:1033400081E0992319F0903219F48FEF80930C01EA
:1033500080910C01890F8C83DF91CF911F910F9188
:10336000FF90EF90DF90CF90BF90AF909F908F90A5
:10337000089525E530E0B901681B790B9B01220F08
:10338000331F260F371F37FFCCCF2F5F3F4FC9CFDB
:103390008E2D01FD8F2D20911101622F600F772757
:1033A000771F9B01220F331F260F371F26583D4FD3
:1033B000412F609177020E9408160F5FBACF0F93DA
:1033C0001F93CF93DF93EC0110E000E09091130185
:1033D0009017110609F06CF40E9482168C8190E01F
:1033E0000196817099278C83DF91CF911F910F9166
:1033F000089520911101A801420F511D9A01220F39
:10340000331F240F351F26583D4F4C8160917702A2
:103410008091760296959017110651F04CF0442356
:1034200049F0409178020E9408160F5F1F4FCECFDF
:103430004423B9F340E0F7CFE5E7F2E080818E7FE7
:10344000808360817181828193810E94271610920E
:1034500050022FEF80E792E0215080409040E1F74A
:1034600000C000000C94821660917502669570E0B1
:103470004BE050E084E191E00E94FC27892B19F495
:1034800081E0809350020E943720909349028093FC
:10349000480208959091750290FF35C09170811196
:1034A00028C0926090937502662351F06091750276
:1034B0007091760280917702909178020E9427168F
:1034C00060917502669570E04BE050E084E191E018
:1034D0000E94FC27892BA1F01092500281E080937A
:1034E0004B024091780260917702809176020C94B1
:1034F0002218853210F09864D5CF880F982BD2CF40
:103500000E94341AEBCF0895682F9091750296951A
:1035100081E0890F853208F081E00C944A1A81E03D
:103520000C94841A682F9091750296958FEF890FED
:1035300009F484E20C944A1A81E00C94921A61E036
:103540000C944A1AE5E7F2E08081816080838695D9
:103550000C949F1A8091750280FD0C941C1A0C9497
:10356000A21A60E00C944A1A80914E0281112EC07A
:103570000E94920D811104C00E94370E0E943916DC
:103580000E942316609375027093760280937702EF
:10359000909378026E7F61F40E9439160E94231680
:1035A000609375027093760280937702909378020D
:1035B0000E940D16109250028091750280FF03C088
:1035C00086950E94B11A81E080934E0208950F9370
:1035D0001F93CF93DF9380915002882309F486C014
:1035E00080914F02E0917502E695E81BE0934A0254
:1035F000823091F5F0E0E252FF4FE491CE2FD0E01F
:1036000007ED16E180914B02882361F010924B0286
:103610000E943720909349028093480210924D02F5
:1036200010924C020E943720E0914802F09149022A
:103630008E1B9F0B8F3F9F4708F058C0EC0FFD1F5C
:10364000F0934902E093480288E492E0F801DF91A8
:10365000CF911F910F910994863049F4F0E0E55223
:10366000FF4FE491CE2FD0E00BEE16E1CBCF8930A7
:1036700051F4E695F0E0E852FF4FE491CE2FD0E010
:1036800005E218E1BFCF8F3051F4E695F0E0EB5240
:10369000FF4FE491CE2FD0E002E618E1B3CF8531A1
:1036A00049F4F0E0EE52FF4FE491CE2FD0E00CED64
:1036B00018E1A8CFC8E2D0E00FE419E1883109F49D
:1036C000A1CF833239F4E0EDF0E0C591D4910BEF56
:1036D00016E198CFC4EFD1E00FED19E1843209F47F
:1036E00091CFC0EDD7E007EF15E18CCFDF91CF91FF
:1036F0001F910F910895FA01811101C0FB010994F6
:10370000CF93DF93C82FD62F0E9449168C1740F015
:103710000E9449168D1720F4DF91CF910C948F1AD7
:103720008C2FDF91CF910C949F1A1F93CF93DF932F
:10373000EC01FB011281112309F4C0C00E94AB0C03
:103740008272CD3CFCE5DF0709F49CC008F044C060
:10375000C73CECE5DE0709F481C0F0F4C43C9CE50D
:10376000D90709F471C048F4C33CDC4509F469C0C9
:10377000812FDF91CF911F910895C53C9CE5D9071A
:1037800009F467C043EE57E166ED77E1C63CDC45DE
:1037900079F70E947B1B53C0CA3CFCE5DF0709F4A4
:1037A00067C068F4C83CECE5DE0709F45CC042EF92
:1037B00057E161E078E1C93CDC4559F3D9CFCB3C16
:1037C0009CE5D90709F459C04CE756E165E676E176
:1037D000CC3CDC45F1F2CCCFC23DFCE5DF0709F47F
:1037E00062C098F4CF3C9CE5D90709F454C008F4B2
:1037F0004EC0C03DFCE5DF0709F452C0C13DDC45C9
:1038000009F0B6CF6EE089E048C0C53D9CE5D90718
:1038100009F44FC058F4C33DFCE5DF0709F446C086
:10382000C43DDC4509F0A4CF88E132C0C63D9CE52B
:10383000D90709F441C0CE35DD4509F099CF10E034
:1038400097CF0E94AA1AFBCF4CE95AE16FE87AE1C0
:10385000A0CF4FE85AE16CE97AE19BCF46ED57E102
:1038600063EE77E196CF41E058E162EF77E191CFE7
:103870004FE158E160E178E18CCF40E158E16FE140
:1038800078E187CF45E656E16CE776E182CF81E0CB
:103890000E949F1AD4CF65E082E00E94801BCFCFA8
:1038A00068E086E0FACF64E18FE0F7CF67E185E179
:1038B000F4CF62E289E1F1CF83E2EACF11E058CFA1
:1038C000819A41B34D7F51B35260EFB7F8949B0199
:1038D000220F331F260F371F280F391F28173907CC
:1038E00041F4EFBF8FE594E00197F1F700C00000CD
:1038F0000895DC016D91CD0178E051BB000000C05E
:1039000067FF41BB660F000000C000C000C041BBA4
:1039100000C07A9591F7E2CFCF93DF93EC01FB01E2
:103920008281882309F420C1C430FDE5DF07C8F592
:10393000CB3F9CE5D90730F49E0122503C45243111
:10394000310598F50E94A50D90936E0280936D024B
:10395000C031FCE5DF0709F4E0C008F061C0C83001
:103960009CE5D90709F4CBC088F5C430FCE5DF0736
:1039700009F4B3C0E8F4C2309CE5D90709F4A7C044
:1039800080916D028260C330DC4509F4A3C0809150
:103990006D0290916E020E94B30D0E94240780E098
:1039A00004C0C236EDE5DE0769F2DF91CF910895DC
:1039B00080916D028061C630FCE5DF0709F48AC0A2
:1039C00008F48FC080916D02806284C080916D0286
:1039D0008D7FCC309CE5D90709F47CC070F48091D0
:1039E0006D028C60CA30FCE5DF0709F473C008F48F
:1039F0008AC080916D028E7F6DC080916D02877F3D
:103A0000CE309CE5D90709F465C080916D028B7FAB
:103A1000CF30DC4508F45EC080916D028F7E5AC0C5
:103A2000CD3FFCE5DF0709F474C040F5C4319CE5E7
:103A3000D90709F48AC058F4C231FCE5DF0709F45C
:103A400074C008F46EC080916D02837F43C0CB3F89
:103A50009CE5D90709F449C008F04DC0C531DC45E3
:103A600009F095CF80916D0282FB992790F921E0B2
:103A7000922790FB82F990FB83F92CC0C1308DE531
:103A8000D80709F458C088F480916E028360CF3F54
:103A9000ECE5DE0769F180916E028D7FC115DD4591
:103AA00038F180916E028C7F23C0C3308DE5D8073A
:103AB00009F458C008F452C0C236DD4509F067CF9A
:103AC00090916D02892F8F7E94FF806103C0809159
:103AD0006D02816080936D025ACF80916D02846087
:103AE000F9CF80916D028860F5CF80916E02816080
:103AF00080936E024CCF80916E028260F9CF8091EC
:103B00006D028064E7CF0E94240780916D02806877
:103B1000E1CF80916E028E7FEBCF80916D028F7D21
:103B2000D9CF80916D028F7BD5CF0E9424078091E1
:103B30006D028F77CFCF80916E02982F9095917004
:103B40008E7F892B90FB81F9D3CF0E94240790911F
:103B50006D02892F97FB87F98058BCCF81E00E94C6
:103B6000390E15CF80E0FBCF81E01FCF0C945602B9
:103B700056985E9A54985C9A89B186FB882780F99A
:103B80004C9905C090E0892B80935302089592E0F0
:103B9000FACFE0915302EE0FEE0FE093530249B1DA
:103BA00046FB882780F949B144FB222720F944FFCE
:103BB00002C022E030E0822BE82BE0935302EF704A
:103BC000F0E0E754FE4F808190915202890F80937C
:103BD000520220E0823054F0809151028F5F809336
:103BE000510260E080E00E94B61D21E08091520207
:103BF0008F3F54F48091510281508093510261E0D3
:103C000080E00E94B61D21E080915202082E000C37
:103C1000990B62E070E00E94832780935202822F0A
:103C20000895CF93DF93EB0186319C4511F50E94F7
:103C3000AB0C9A81992399F08A7A91E009F490E08B
:103C400090935402811109C089E20E94860C0E945F
:103C5000FB0C80E0DF91CF91089585E3F6CF809152
:103C60005402811104C089E20E948D0CF0CF85E3DB
:103C7000FBCF81E0EFCF0F931F93CF93DF93C42F40
:103C8000D22FFC0182818823C9F0409357020E9401
:103C90003720909356028093550280E28C0F883033
:103CA00008F050C0C77081E001C0880FCA95EAF7DC
:103CB000DF91CF911F910F910C948B0410915702BB
:103CC000141335C080915502909156020E944F20E6
:103CD000883C910560F5C0E2CD0F1D17B9F080E278
:103CE000810F883040F4177081E001C0880F1A9569
:103CF000EAF70E949204C83048F481E09D2F977043
:103D000001C0880F9A95EAF70E948B04802F0E94C9
:103D10008304C830B8F4D77081E001C0880FDA9509
:103D2000EAF7DF91CF911F910F910C94920480E2FA
:103D30008C0F883038F4C77081E001C0880FCA95B5
:103D4000EAF7EFCFDF91CF911F910F9108950F9375
:103D50009C01CB01243F4CE5340759F1A8F4293DDF
:103D6000FCE53F0701F12A3D4CE53407D1F1283D40
:103D70003C4591F406E221EE41EE68ED7CE50E94BF
:103D80003B1E80E00F910895263FFCE53F07E9F0D8
:103D9000B0F0273F3C45F9F0FC018281882339F1DE
:103DA00010925702EFCF07E225EE45EE69ED7CE574
:103DB000E6CF06E221EE40EE64EF7CE5E0CF07E2DD
:103DC00025EE44EE65EF7CE5DACF06E221EE42EE29
:103DD00066EF7CE5D4CF07E225EE46EE67EF7CE5A3
:103DE000CECF08E221E045EE6AED7CE5C8CF81E068
:103DF000C9CF9093CB018093CA01089590935D023F
:103E000080935C020895E0915C02F0915D0230972E
:103E100021F00190F081E02D099480E00895E09177
:103E20005C02F0915D02309721F00280F381E02D79
:103E300009940895E0915C02F0915D02309739F0A9
:103E400022E0DC012C930480F581E02D0994089593
:103E500020915A0230915B022817390771F0909334
:103E60005B0280935A02E0915C02F0915D02309710
:103E700021F00680F781E02D0994089520915802E1
:103E8000309159022817390771F0909359028093A5
:103E90005802E0915C02F0915D02309721F00084BD
:103EA000F185E02D099408959C012E5F3F4FAC01F0
:103EB000485F5F4F80E02417350709F40895F90142
:103EC00091919F019923B9F38F5FF5CF662349F054
:103ED000FC01329608962191261729F0E817F90778
:103EE000D1F780E0089581E008959C01FC013296AD
:103EF0009FEF80E04191461751F09F3F19F4411127
:103F000001C0982F8F5F8630A9F79F3F09F408956D
:103F1000290F311D97FD3A95F90162830895FC013F
:103F2000329608962191261303C0DF0111971C9247
:103F3000E817F907B9F708950C94751F0C948F1FB3
:103F4000029626E0FC0111922A95E9F7089508955A
:103F50000C94A71F811105C081E080935E020C9430
:103F6000A81F82E0FACF83E080935E020C94A81F22
:103F70000C94AA1F81E080935E020C94A81F0C94FD
:103F8000BA1F089580919402843031F10E94BD02DD
:103F900010925F0288E190E020E40FB6F894A895B3
:103FA000809360000FBE2093600083B7817F8460A0
:103FB00083BF83B7816083BF7894889583B78E7FF2
:103FC00083BF0FB6F894A8958091600088618093B4
:103FD0006000109260000FBE089508950895CF9379
:103FE0000E94ED1F0E9441120E94EE1FC0E08C2F24
:103FF0000E948F11811105C0CF5FC330C1F7CF91EF
:10400000089581E0FCCF0E9424070C942B031F929B
:104010001FB61F9211248F939F93AF93BF938091EC
:104020005F02811113C080918C0290918D02A0914A
:104030008E02B0918F024196A11DB11D80938C021A
:1040400090938D02A0938E02B0938F02BF91AF9197
:104050009F918F911F901FBE1F90189582E084BD85
:1040600093E095BD9AEF97BD80936E0008952FB7AA
:10407000F89480918C0290918D02A0918E02B09163
:104080008F022FBF08952FB7F89460918C02709122
:104090008D0280918E0290918F022FBF08959C0116
:1040A0004FB7F89480918C0290918D02A0918E026E
:1040B000B0918F024FBF821B930B089578941F928B
:1040C0001FB61F9211248F939F93AF93BF9380913C
:1040D0008C0290918D02A0918E02B0918F02019678
:1040E000A11DB11D80938C0290938D02A0938E022E
:1040F000B0938F02BF91AF919F918F911F901FBE80
:104100001F90189581E08093E00080E28093D800B2
:104110001092C9008FE19EE40197F1F700C0000002
:1041200087E090EBDC0180939D0290939E02A09328
:104130009F02B093A00288E19CE00FB6F894A89586
:10414000809360000FBE90936000FFCF80916B0260
:10415000089508959C0182E08093E9009FEF80918B
:10416000E800915085FD06C085ED8A95F1F70000C5
:104170009111F5CF8091E80085FF0CC050E040E040
:1041800066E070E0C9010E94D0228091E8008E773D
:104190008093E8000895CF93DF93EC0181E0809352
:1041A000E9008FEF9091E800815095FD06C095EDF4
:1041B0009A95F1F700008111F5CF8091E80085FF15
:1041C00014C050E040E068E070E0CE010E94D022D0
:1041D0008091E8008E778093E80088E0FE01A3E6F6
:1041E000B2E001900D928A95E1F7DF91CF910895A9
:1041F00080936002709362026093610280919402E6
:10420000843001F582E08093E9008FEF9091E8001F
:10421000815095FD06C095ED9A95F1F7000081114A
:10422000F5CF8091E80085FF0DC050E040E063E0ED
:1042300070E080E692E00E94D0228091E8008E77C4
:104240008093E8000895BC0184E00C94F820BC0140
:1042500083E00C94F82080919302811109C00E94A0
:1042600060240E94BD248091E20084608093E2007B
:1042700008951092930208950C94BA1F60919002D1
:1042800081E0611101C080E00C94B31F9091940211
:1042900081E0943009F080E0609190020C94B81FA6
:1042A00042E061EC81E00E94DC2342E261EC82E0CA
:1042B0000E94DC239091940281E0943009F080E028
:1042C000609190020C94AA1F80919602833009F4A9
:1042D00060C030F48130C9F1823009F49CC0089587
:1042E0008A3009F488C08B3009F46EC0893009F037
:1042F0004FC080919502813209F04AC080919902A5
:1043000090919A02029708F043C08091E800877F5D
:104310008093E8008091E80082FF36C09091F3001E
:104320008091F200029731F48091F100813011F018
:10433000863021F48091F10080936B028091E80037
:104340008B778093E8000C94102480919502813A39
:10435000F9F48091E800877F8093E80080919902CA
:1043600090919A02892B61F468E083E692E070E014
:104370000E941F238091E8008B778093E8000895C6
:1043800060E090E080E0F3CF809194028111C2CF91
:10439000089580919502813AD9F780919902909180
:1043A0009A02892BA9F78091E800877F8093E80023
:1043B0008091E80080FFFCCF80912B018093F10079
:1043C0008091E8008E77BDCF80919502813201F710
:1043D0008091990290919A02892BD1F68091E80000
:1043E000877F8093E8000E94102480919702809339
:1043F0002B010C94240780919502813249F680911B
:10440000E800877F8093E8000E9410248091980242
:1044100080936C02089580919502813A09F0B8CF9B
:104420008091E800877F8093E8008091E80080FF1A
:10443000FCCF80916C02C2CF84B7877F84BF0FB658
:10444000F894A89580916000886180936000109234
:1044500060000FBE80E890E00FB6F8948093610092
:10446000909361000FBE0C94BF1F0E9460240E94B5
:10447000BD24E2EEF0E080818460808378940C9427
:1044800046278FE191E00C94FE1E809194028530C6
:10449000A9F480919402853011F00C9403200E94BD
:1044A000C21F809192028823A1F30E94EF1F8823EC
:1044B00081F30E94BA220E942407EBCF0895089549
:1044C0000C946222292F33272330310519F168F427
:1044D0002130310509F444C02230310509F445C0CA
:1044E00090E080E030E020E025C02132310549F144
:1044F00022323105A9F780E490E029ED33E061151F
:104500007105C1F08BE790E02EE533E06130710575
:1045100089F0E6CF99278130910581F0009729F045
:104520000297F1F6E7EEF2E002C0EDE0F3E08491ED
:1045300090E09F01FA01318320830895E1EFF2E0DA
:10454000F6CF89E090E023E233E06115710591F345
:1045500089E090E02CE333E06130710559F3C0CF7E
:1045600082E190E02CE433E0E5CF8BE390E021E1C1
:1045700033E0E0CF80E189BD82E189BD09B400FE6E
:10458000FDCF8091D8008F7D8093D8008091E0008E
:1045900082608093E0008091E00081FDFCCF08956F
:1045A000AF92BF92CF92DF92FF920F931F93CF9360
:1045B000DF936C01EB018A010E942F24F82E8111F8
:1045C00023C00115110539F0F80180819181C81BC4
:1045D000D90BC80ED91EB12CA12C2097A9F080911F
:1045E000E80085FD22C08091E8008E778093E80086
:1045F00001151105A1F0F80180819181A80EB91E65
:10460000B182A08285E0F82E8F2DDF91CF911F918E
:104610000F91FF90DF90CF90BF90AF9008950E94D0
:104620002F248823D1F2F82EEFCFF60181916F016C
:104630008093F1002197FFEFAF1ABF0ACECFFC01A4
:1046400080919B0290919C0286179707A0F06115BC
:10465000710529F49091E8009E779093E80090E02E
:104660006115710551F4911108C08091E80082FF35
:1046700034C080E00895BC01F2CF80919402882379
:10468000C1F18530C1F18091E80083FD30C0809197
:10469000E80082FDEACF8091E80080FFE1CF8091C1
:1046A000F3002091F200382F6115710519F02830C0
:1046B000310558F091E02830310509F090E0209163
:1046C000E8002E772093E800CBCF81918093F10012
:1046D000615071092F5F3F4FE7CF8091940288238B
:1046E00041F0853041F08091E80083FFBECF81E04A
:1046F000089582E0089583E00895FC0180919B0273
:1047000090919C0286179707A0F06115710529F416
:104710008091E8008E778093E80090E06115710544
:1047200051F4911108C08091E80082FF35C080E00B
:104730000895BC01F2CF809194028823C9F185309D
:10474000C9F18091E80083FD31C08091E80082FDCD
:10475000EACF8091E80080FFE1CF8091F3002091C3
:10476000F200382F6115710519F02830310558F025
:1047700091E02830310509F090E08091E8008E77D3
:104780008093E800CBCF84918093F1003196615003
:1047900071092F5F3F4FE6CF80919402882341F04B
:1047A000853041F08091E80083FFBDCF81E008951E
:1047B00082E0089583E00895982F973028F08F7055
:1047C0008093E90081E008959093E900242F762FEB
:1047D00050E0981731F07091EC002091ED0050916D
:1047E000F00021FD02C09F5FE8CF3091EB003E7FDB
:1047F0003093EB003091ED003D7F3093ED00309130
:10480000EB0031603093EB007093EC002093ED00EF
:104810005093F0002091EE0027FDE5CF80E0089551
:104820008091950287FF13C08091E80082FF06C047
:104830008091E8008B778093E80004C08091940217
:104840008111F2CF0895809194028823D9F3809149
:10485000E80080FFF8CF8091E8008E77ECCF2091C0
:10486000E4003091E50095E6A9012091EC00822F4B
:10487000817020FF06C08091E80080FF06C080E0C4
:1048800008952091E80022FD1AC0809194028823A7
:1048900089F0853089F08091EB0085FD0FC0209173
:1048A000E4003091E50042175307F9F29150E1F628
:1048B00084E0089582E0089583E0089581E00895FA
:1048C0000E94CE240E94D624E0EEF0E08081816038
:1048D0008083E8EDF0E080818F77808319BCA7EDBD
:1048E000B0E08C918E7F8C9380818F7E808310923C
:1048F000930208950F931F93CF93DF930E94CE24CA
:104900000E94D624C8EDD0E088818F778883888183
:104910008068888388818F7D888319BC1092940277
:1049200010929002109292021092910200EE10E00A
:10493000F80180818B7F808388818160888342E059
:1049400060E080E00E94DC23E1EEF0E080818E7F79
:104950008083E2EEF0E080818160808380818860E6
:104960008083F80180818E7F808388818061888345
:10497000DF91CF911F910F910895E8EDF0E08081D4
:104980008F7E8083E7EDF0E080818160808384E02A
:1049900082BF81E0809393020C947A24E8EDF0E0EA
:1049A00080818E7F80831092E20008951092DA0059
:1049B0001092E10008951F920F920FB60F921124EA
:1049C0002F933F934F935F936F937F938F939F9317
:1049D000AF93BF93EF93FF938091E10082FF0BC0F1
:1049E0008091E20082FF07C08091E1008B7F80937D
:1049F000E1000E9445278091DA0080FF19C0809174
:104A0000D80080FF15C08091DA008E7F8093DA0095
:104A10008091D90080FF96C080E189BD82E189BD87
:104A200009B400FEFDCF81E0809394020E942B2107
:104A30008091E10080FF19C08091E20080FF15C0E5
:104A40008091E2008E7F8093E2008091E20080619D
:104A50008093E2008091D80080628093D80019BCD6
:104A600085E0809394020E943E218091E10084FFC2
:104A70002BC08091E20084FF27C080E189BD82E1E4
:104A800089BD89B5982F917080FFFBCF8091D800A8
:104A90008F7D8093D8008091E1008F7E8093E1002C
:104AA0008091E2008F7E8093E2008091E20081603D
:104AB0008093E20080919002882309F449C084E049
:104AC000809394020E9446218091E10083FF29C0D7
:104AD0008091E20083FF25C08091E100877F809371
:104AE000E10082E080939402109290028091E100B4
:104AF0008E7F8093E1008091E2008E7F8093E200C0
:104B00008091E20080618093E20042E060E080E01A
:104B10000E94DC238091F00088608093F0000E9466
:104B20003C21FF91EF91BF91AF919F918F917F9128
:104B30006F915F914F913F912F910F900FBE0F900A
:104B40001F90189519BC109294020E94392170CFC1
:104B50008091E30087FD93E090939402B3CF1F927E
:104B60000F920FB60F9211242F933F934F935F93A1
:104B70006F937F938F939F93AF93BF93CF93DF9365
:104B8000EF93FF93D091E900DF708091EC00C82F84
:104B9000C17080FDC0E81092E9008091F000877F2D
:104BA0008093F00078940E94F3251092E9008091A0
:104BB000F00088608093F000CD2BCF70C093E900A7
:104BC000FF91EF91DF91CF91BF91AF919F918F9125
:104BD0007F916F915F914F913F912F910F900FBEF9
:104BE0000F901F9018951F93CF93DF93CDB7DEB72B
:104BF000AA970FB6F894DEBF0FBECDBF85E992E04D
:104C00002091F100FC012193CF01F2E08D399F0743
:104C1000B9F70E9464218091E80083FF1EC1809152
:104C20009502909196029A3008F017C1E92FF0E0B2
:104C3000E258F74D0C94B927803899F0823809F082
:104C40000CC1809199028F70873008F006C1809363
:104C5000E9008091EB0085FB882780F91092E9003C
:104C600006C0809191029091920291118260909180
:104C7000E800977F9093E8008093F1001092F10094
:104C80008091E8008E77E5C0882309F4D3C0823094
:104C900009F0E3C0809197028111D6C080919902FA
:104CA0008F702FEF280F263008F0D7C08093E900CF
:104CB0002091EB0020FFC8C0933031F48091EB00CD
:104CC00080628093EB00C0C09091EB009061909364
:104CD000EB0021E030E001C0220F8A95EAF7209333
:104CE000EA001092EA008091EB008860EACF81111F
:104CF000B4C0109197021F778091E3008078812BD8
:104D00008093E3008091E800877F8093E8000E9411
:104D100010248091E80080FFFCCF8091E300806840
:104D20008093E30082E0111183E08093940295C0A8
:104D30008058823008F091C080919702909198023B
:104D40008C3D23E09207A1F583E08A838AE2898380
:104D50004FB7F894DE01139620E03EE051E2E32FD6
:104D6000F0E050935700E49120FF03C0E295EF700C
:104D70003F5FEF708E2F90E0EA30C0F0C7968D93C2
:104D80009D932F5F243159F74FBF8091E800877FB3
:104D90008093E8006AE270E0CE0101960E941F2332
:104DA0008091E8008B778093E80057C0C096E7CFEA
:104DB0006091990270919A02AE014F5F5F4F0E941D
:104DC0006022BC01892B09F448C09091E800977FCC
:104DD0009093E80089819A810E947D23E1CF8038F9
:104DE000E1F58091E800877F8093E8008091900250
:104DF0008093F10045CF811130C09091970292309D
:104E000060F58091E800877F8093E800909390029E
:104E10000E94102480919002882311F084E005C044
:104E20008091E30087FDFACF81E0809394020E9495
:104E3000502113C080919702813079F481E0933042
:104E400009F080E0809392021092E9008091E800DE
:104E5000877F8093E8000E9410248091E80083FF00
:104E60000AC08091E800877F8093E8008091EB0082
:104E700080628093EB00AA960FB6F894DEBF0FBE57
:104E8000CDBFDF91CF911F9108950895CF93809169
:104E900094028823A1F0C091E900CF709091EC00BA
:104EA000892F817090FD80E8C82B1092E9008091D5
:104EB000E80083FD0E94F325CF70C093E900CF91F5
:104EC000089587FB082E062687FD819567FD61956D
:104ED0000E94F0270EF4919507FC81950895AA1B76
:104EE000BB1B51E107C0AA1FBB1FA617B70710F0D5
:104EF000A61BB70B881F991F5A95A9F78095909507
:104F0000BC01CD01089597FB072E16F4009407D03D
:104F100077FD09D00E946F2707FC05D03EF49095DD
:104F200081959F4F0895709561957F4F0895A1E2F7
:104F30001A2EAA1BBB1BFD010DC0AA1FBB1FEE1F13
:104F4000FF1FA217B307E407F50720F0A21BB30B5E
:104F5000E40BF50B661F771F881F991F1A9469F7DA
:104F600060957095809590959B01AC01BD01CF0136
:104F70000895EE0FFF1F0590F491E02D09940E9413
:104F8000C727332312F48A1B9B0B0C94D827A29FAC
:104F9000B001B39FC001A39F700D811D1124911D0D
:104FA000B29F700D811D1124911D08950E94C72785
:104FB000B7FF0895821B930B08950E94C727A59FF2
:104FC000900DB49F900DA49F800D911D1124089504
:104FD000B7FF0C94DD270E94DD27821B930B0895F9
:104FE000991B79E004C0991F961708F0961B881F3B
:104FF0007A95C9F780950895FC014150504030F0F2
:1050000001900616D1F73197CF0108958827992787
:105010000895FB01DC0104C08D910190801921F4F9
:1050200041505040C8F7881B990B0895F999FECF5D
:1050300092BD81BDF89A992780B50895A6E1B0E0A8
:1050400044E050E00C945028A8E1B0E042E050E089
:105050000C945028262FF999FECF92BD81BDF89A65
:10506000019700B4021639F01FBA20BD0FB6F894AC
:10507000FA9AF99A0FBE08950396272F0E942B28BB
:105080000E942A28252F0E942B28242F0C942B289D
:105090000196272F0E942B280C942A28DC01CB0193
:1050A000FC01F999FECF06C0F2BDE1BDF89A319638
:1050B00000B40D9241505040B8F70895F894FFCFD6
:1050C000D304D304040504059705B305330533055C
:1050D000BE054A0659065906B10633053305BA0618
:1050E000330733073C073C073E073C073C073C07B8
:1050F0003307330743073C073C0743071C26442676
:105100002D2744262D27772698262D27EF26FB26A8
:10511000C80019022808641E140A321E0101020088
:105120000600060601191A1B1C1D1E1F202122A69F
:1051300020CB20AA2027212321A92001E200E90079
:10514000EA00B500B600B700CD008301CC008A01AB
:105150009201940121022302240225022602270241
:105160002A02B300B4006F007000818283E200E97C
:1051700000EA00B500B600B700CD008301CC008A7C
:105180000192019401210223022402250226022712
:10519000022A02B300B4006F007000818283F5F729
:1051A000F497F0F600010202020206060609090958
:1051B0000909090F0F0F0F0F0F15151518191919D8
:1051C00019191919191919232400FF0100010000E8
:0A51D000FFFF0000010001FF0000D6
:00000001FF
