:100000000C9473020C94BA020C94BA020C94BA02C7
:100010000C94BA020C94BA020C94BA020C94BA0270
:100020000C94BA020C94BA020C941F2A0C94F32A72
:100030000C94B3200C94BA020C94BA020C94BA0239
:100040000C94BA020C94BA020C94BA020C94BA0240
:100050000C94BA020C940A210C94BA020C94BA02C1
:100060000C94BA020C94BA020C94BA020C94BA0220
:100070000C94BA020C94BA020C94BA020C94BA0210
:100080000C94BA020C94BA020C94BA020C94BA0200
:100090000C94BA020C94BA020C94BA020C94BA02F0
:1000A0000C94BA020C94BA020C94BA0224002100F7
:1000B0001E0027001250250022001F002A001150A8
:1000C000260023002000280010500000000000003F
:1000D000000001000000000000000000010000001E
:1000E000000000000000010000000000000000000F
:1000F00001000000000000000000010000000000FE
:1001000000000000010000000000000000000100ED
:1001100000000000000000000100000000000000DE
:100120000000010000000000000000002A2B280051
:100130000000000000000000000000000000002996
:10014000000000002C1E3420212224342627252ED6
:10015000362D3738271E1F2021222324252633330E
:10016000362E37381F0405060708090A0B0C0D0E3A
:100170000F101112131415161718191A1B1C1D2F06
:100180003130232D350405060708090A0B0C0D0E26
:100190000F101112131415161718191A1B1C1D2FE6
:1001A0003130354C0000000000000000000000006D
:1001B000000000000000000000000000000000003F
:1001C00000000000000000007E0F00D4FFFFFFC70A
:1001D000000000780001010101010101010102029A
:1001E00002020202020202030303030303030304E5
:1001F00004040404040405050505050606060606B0
:10020000070707070708080808090909090A0A0A69
:100210000B0B0B0C0C0C0D0D0D0E0E0E0F0F0F100B
:100220001011111112121313141415151616171795
:10023000181819191A1A1B1B1C1D1D1E1E1F202001
:10024000212222232424252626272829292A2B2C4B
:100250002D2D2E2F30313232333435363738393A6E
:100260003B3C3D3E3F404142434445464748494A66
:100270004C4D4E4F50515354555658595A5B5D5E34
:100280005F616264656668696B6C6D6F70727375CF
:1002900077787A7B7D7E8082838587888A8C8E8F33
:1002A00091939596989A9C9EA0A2A3A5A7A9ABAD61
:1002B000AFB1B3B5B7BABCBEC0C2C4C6C9CBCDCF4F
:1002C000D1D4D6D8DBDDDFE2E4E7E9EBEEF0F3F5FD
:1002D000F8FAFDFF0A035300500049004E000000E9
:1002E000160344004D0051002000440065007300D7
:1002F000690067006E000000040309040902BF00E2
:10030000050100A0FA090400000103010100092110
:10031000110100012240000705810308000A0904B9
:100320000100020300000009211101000122220046
:1003300007058203200001070503032000010904CB
:100340000200010300000009211101000122B60092
:100350000705840320000A080B03020101000009BD
:10036000040300000101000009240100010900014B
:1003700004090404000201030000072401000141F4
:1003800000062402010100062402020200092403DF
:100390000103010201000924030204010101000913
:1003A000050602400005000005250101010905853B
:1003B00002400005000005250101031201000200B2
:1003C00000000855A401000100010200010660FFC1
:1003D0000961A1010962150026FF009520750881B9
:1003E000020963150026FF00952075089102C005DB
:1003F000010902A10185020901A1000509190129CC
:1004000008150025019508750181020501093009CB
:10041000311581257F9502750881060938158125DA
:100420007F950175088106050C0A38021581257F24
:10043000950175088106C0C005010980A1018503E9
:1004400019012AB700150126B70095017510810022
:10045000C0050C0901A101850419012AA00215019A
:1004600026A002950175108100C005010906A101B1
:100470008505050719E029E715002501950875018F
:1004800081020507190029EF1500250195F0750176
:10049000810205081901290595057501910295014B
:1004A00075039101C005010906A101050719E0299D
:1004B000E7150025019508750181029501750881F0
:1004C000010507190029FF150026FF00950675088C
:1004D000810005081901290595057501910295010D
:1004E00075039101C00011241FBECFEFDAE0DEBF1B
:1004F000CDBF04B603FE27C080919F039091A00357
:10050000A091A103B091A2038730904BA740B04BBC
:10051000D1F410929F031092A0031092A1031092A5
:10052000A20314BE84B7877F84BF0FB6F894A89542
:1005300080916000886180936000109260000FBE1F
:10054000E0E0F8E3099511E0A0E0B1E0E8EDFAE5BC
:1005500002C005900D92A63CB107D9F723E0A6ECA6
:10056000B1E001C01D92AF39B207E1F70E94F81265
:100570000C942F2D0C940000811109C0662321F0EA
:100580000E947E1781E008950E948B17FBCF813077
:1005900041F4662319F00E949A17F4CF0E94A9171C
:1005A000F1CF823079F7662319F00E94B817EACFAD
:1005B0000E94C717E7CF81E0089581E008950C9469
:1005C000DD0208950C94E1021F93CF93DF9300D0D6
:1005D00000D00F92CDB7DEB749835A836B83309139
:1005E000C80189819A8131111DC06623B9F0222387
:1005F000A9F00E944B09182F682F89819A810E94C7
:10060000F40869817A81812F0F900F900F900F90DD
:100610000F90DF91CF911F910C94691C0E942209C9
:10062000182FEFCF0E944B0969817A81EDCFFC0131
:10063000262F408151816281738184810C94E40270
:1006400081E00895CF93DF93EC0160E00E941703EF
:10065000BE01DF91CF910C94E202E1E0F0E0DF0116
:1006600002C0AA0FBB1F6A95E2F7BD01DF0102C0FD
:10067000AA0FBB1F4A95E2F76A2B01C0EE0F2A951D
:10068000EAF7962F9823961302C08E2B0895E095D3
:100690008E230895242F462F682F8091CF010E942A
:1006A0002D030C94B1080E94A0110E94A2040C9486
:1006B000BB110C94BE1108950E9449080E945B036F
:1006C0002FEF84E39CE0215080409040E1F700C090
:1006D00000000C942E210F931F93CF93DF938C0176
:1006E00061E00E941703EC01B8010E945A1A8823A6
:1006F00009F441C0B801CE010E94DF028823D9F17C
:10070000B801CE010E94A01D8823A9F1B801CE0135
:100710000E94F21D882379F1B801CE010E94151FB5
:10072000882349F1B801CE010E945118882319F19C
:10073000F8018281882361F0CA35FDE5DF0721F1E8
:1007400070F4C115ECE5DE07A1F0CE3DDC45C9F043
:10075000C801DF91CF911F910F910C94DB02CB3533
:100760008DE5D807A1F0CC35DD4591F70E94130D3A
:10077000EFCF0E945C0380E0DF91CF911F910F913A
:1007800008950E94890EF7CF0E941C0DE1CF0E94B0
:100790001F0DDECFDF92EF92FF920F931F93CF9347
:1007A000DF93E82FF0E0EC5DFE4FD490282F2695E4
:1007B0002695269530E0F901EC53FE4F04918770A1
:1007C00010E0082E02C0159507950A94E2F7017013
:1007D0001127F901EC54FE4FE490F12C082E02C0D1
:1007E000F594E7940A94E2F791E0E922FF24F901F5
:1007F000EC55FE4FC491D0E002C0D595C7958A95BF
:10080000E2F7C170DD270115110519F081EE0E9494
:10081000EE04E114F10419F086EE0E94EE048D2D31
:100820000E94ED05EF2819F086EE0E948005012B4D
:1008300019F081EE0E948005CD2B51F08CE2DF9102
:10084000CF911F910F91FF90EF90DF900C94ED05E9
:10085000DF91CF911F910F91FF90EF90DF9008955E
:10086000EF92FF920F931F93CF93DF93EC01162F1C
:100870000AE08881882309F454C0813009F04EC011
:100880008981813099F47E0122E0E20EF11C8A8197
:100890000E94ED05E7012196812F815050F3EFE989
:1008A000FFE03197F1F700C00000F7CF823041F44C
:1008B0007E0182E0E80EF11C8A810E94EE04EACFFC
:1008C000833041F47E01E2E0EE0EF11C8A810E9449
:1008D0008005E0CF843011F02196DDCF2A81229669
:1008E00090E080E0AE014F5F5F4F2053330B2A3022
:1008F000310548F0019778F2EFE9FFE03197F1F721
:1009000000C00000F7CF089FB001099F700D1124AF
:10091000C901860F971F2981EA01E4CF0E94CA030B
:10092000BACFDF91CF911F910F91FF90EF90089573
:1009300060E00C94300408950C949B0481E00895C9
:100940000C949E040895CF93C82F0E949C048C2F72
:10095000CF910C94A004CF93DF93CDB7DEB72B9744
:100960000FB6F894DEBF0FBECDBF4F83588769879F
:100970007A878B8761110E94420D1E821D8285E05D
:10098000FE013796DE01119601900D928A95E1F7EE
:100990008C819D81892B89F449815A816B817C816D
:1009A0008D819E810E94420C2B960FB6F894DEBF7B
:1009B0000FBECDBFDF91CF91089589819A818923A0
:1009C0008F3F51F3CE0101960E9420038111E4CFA5
:1009D000EBCFFC01808191810C947809CF93C82FD3
:1009E000882309F48BC08238C1F40E94441F81FD22
:1009F00085C089E30E94DC0C0E94720D2FEF81EE0E
:100A000094E0215080409040E1F700C0000089E36D
:100A10000E94E30CCF910C94720D8338A1F40E94D4
:100A2000441F80FD6BC083E50E94DC0C0E94720DA8
:100A30002FEF81EE94E0215080409040E1F700C01C
:100A4000000083E5E5CF8438A1F40E94441F82FDB5
:100A500055C087E40E94DC0C0E94720D2FEF81EEDE
:100A600094E0215080409040E1F700C0000087E40E
:100A7000CFCF8CEF8C0F813A90F46C2F80910001D6
:100A8000909101010E94B81F882329F08C2F0E94A9
:100A9000E30C0E94720D8C2F0E94DC0CBBCF80E215
:100AA0008C0F883048F4C77081E001C0880FCA9568
:100AB000EAF70E94250DAECFEBE5EC0FE33040F4F2
:100AC000F0E0EC5AFE4F808190E0CF910C94781FBB
:100AD000E8E5EC0FE73150F4F0E0EE0FFF1FEA5DC0
:100AE000FE4F80819181CF910C948E1FC03F30F0DA
:100AF0008C2F0E948A13CF910C945D14CF9108958E
:100B0000882309F452C0823871F40E94441F81FF87
:100B10004CC089E30E94DC0C0E94720D89E30E94A4
:100B2000E30C0C94720D833859F40E94441F80FF2B
:100B30003CC083E50E94DC0C0E94720D83E5EFCF80
:100B4000843859F40E94441F82FF2FC087E40E941A
:100B5000DC0C0E94720D87E4E2CF9CEF980F913A73
:100B6000F0F290E2980F983050F4877091E001C055
:100B7000990F8A95EAF7892F0E942B0DD2CF9BE51A
:100B8000980F933020F490E080E00C94781F98E563
:100B9000980F973120F490E080E00C948E1F803FF6
:100BA00020F00E94E4130C945D1408951F93CF93DA
:100BB000DF93182FEB010E94EE04209731F4812F70
:100BC000DF91CF911F910C9480058FE99FE00197F1
:100BD000F1F700C000002197F0CF70E060E08933AA
:100BE00011F460E570E00C94D605882321F00E9492
:100BF000250D0C94720D0895882321F00E942B0D71
:100C00000C94720D0895BF92CF92DF92EF92FF92F3
:100C10000F931F93CF93DF936C01D62FC72FFC0147
:100C20001281058102950F700E94FA0CE82E88232C
:100C3000A1F0E12E112389F08C2F807F803429F0E0
:100C400080E28D0FE12C883040F082E00E94C30DDD
:100C50000E94FA0C91E0E82EE926BC2EB2949FE0A7
:100C6000B922EB2DF0E0EF5CF24D0C94CD2C0C2F63
:100C70000F70C07F11F00295007F1123A9F00023AF
:100C800059F080E28D0F883010F0D11109C0802F0B
:100C90000E94250D0E94720D8D2F0E94EE0414C03B
:100CA000802F0E94350DF6CF8D2F0E9480050023E6
:100CB00059F080E28D0F883010F0D1112CC0802FB8
:100CC0000E942B0D0E94720D2B2D2850330B2430C7
:100CD000310520F40E94441F0E94A304EE2009F471
:100CE00079C10E94F60C80FD75C1F60112820E9446
:100CF000F00C0E94C208C6010E940B080E94F00C72
:100D0000DF91CF911F910F91FF90EF90DF90CF90E7
:100D1000BF900C94CD08802F0E943B0DD3CFFC2FA9
:100D2000FF70FF2EC07FC03219F0F29480EFF822DE
:100D3000DD2369F0D13049F1112391F1002351F104
:100D4000F601858180FFA8CF8F70858323C0112392
:100D500081F0011106C00E94550D8F290E94F505F2
:100D6000B3CF0130C1F70E94550D8F290E945B0D52
:100D7000ABCF011106C00E94680D8F2D0E94FC05AB
:100D8000A3CF013009F4A0CFF6CF112329F006300C
:100D900008F09ACF8F2DE2CF053008F095CFEDCF38
:100DA000002359F3D93349F4FFEF27EE33E0F15034
:100DB00020403040E1F700C000008D2F0E948005E8
:100DC00083CF8C2F86958695837069F0813009F0EA
:100DD0007BCF8D2F9C2F9370111102C090E080E08B
:100DE0000E948E1F71CF8D2F9C2F9370111102C006
:100DF00090E080E00E94781F67CF8D2F112329F0AB
:100E00000E948A130E945D145FCF0E94E413FACF00
:100E10008C2F837079F5111157CF4D2F4295469540
:100E20004770440F440F8D2F8F70042E01C0880F20
:100E30000A94EAF72D2F2071D4FF07C02FE030E08D
:100E400001C0220F4A95EAF72095C695C695C37052
:100E5000822BC23049F058F4C13019F00E94A30827
:100E600033CF0E949E0830CF0E94A8082DCF0E9449
:100E70009C082ACF8695112311F08C2F817088232E
:100E800009F422CF4D2F429546954770440F440FE9
:100E90008D2F8F70042E01C0880F0A94EAF72D2F32
:100EA0002071D4FF07C02FE030E001C0220F4A9527
:100EB000EAF72095C695C695C370822BC23049F0DB
:100EC00058F4C13019F00E94E908FECE0E94E408EF
:100ED000FBCE0E94EE08F8CE0E94B108F5CECF708E
:100EE000112329F08C2F0E94C2088D2F37CF8D2F10
:100EF0000E94FC058C2F0E94CD08E6CED23F89F1DE
:100F000060F4D03FC9F0D13F29F1112309F442C068
:100F10000111C2CE8C2F8F7121C0D33F39F1D43F44
:100F2000A1F7112369F1CF718C2F0E94C20863E0F1
:100F30008C2F0E94A80DC8CE112341F0053008F077
:100F4000C3CE8C2F8F710E94D908BECE063008F018
:100F5000BBCEF7CF8C2F8F71112369F20E94C2088C
:100F6000B3CE8C2F8F711123C9F3C5CF112329F074
:100F70008C2F8F710E94BA08A7CE0E94B708A4CE0A
:100F800081E00E94C30D023008F49ECE82E00E94F0
:100F9000C30D9ACE002359F0D93309F00ECF8FEF4D
:100FA00097EEE3E081509040E040E1F704CF8C2FD2
:100FB0008F71A1CF4C2F4F706D2FC6010E94890FEA
:100FC0000E94A60981CE4C2F4F706D2FC6010E9442
:100FD0008C0F7ACEDF91CF911F910F91FF90EF9000
:100FE000DF90CF90BF9008950F931F93CF93DF931F
:100FF000EC01688179818A810E9482098C010E94BA
:10100000F3080E949B08B801CE01DF91CF911F9198
:101010000F910C940306CF93DF93EC018B819C819D
:10102000892B29F08881998189238F3F59F4DF9199
:10103000CF910895CE010E94F407CE01DF91CF91A8
:101040000C942203CE010E946B038111F3CF0E9406
:10105000FA0C882361F38A81882349F382E0DF91C7
:10106000CF910C94C30D90E080E00E94781F90E037
:1010700080E00E948E1F0E94420D0E94520D0E942D
:10108000720D0E9484150C945D140E94EA0C0C945D
:1010900033080E94320D0C944508E92FE295EF7059
:1010A000E250EE3070F4F0E0EF5BF24D0C94CD2C9A
:1010B000803F19F020F4883E20F481E00895843FB9
:1010C000E1F380E00895883EC0F3813FD1F7F5CF8A
:1010D00093FB882780F90895FC01808191810E940B
:1010E00078090C944D08CF93DF9300D000D00F9275
:1010F000CDB7DEB70F900F900F900F900F90DF914C
:10110000CF910895CF93DF9300D000D000D0CDB71A
:10111000DEB726960FB6F894DEBF0FBECDBFDF91C7
:10112000CF91089508950C9492080E94930880939B
:10113000D0010C94330808950C9495089091D00137
:10114000892B0C9495089091D00189230C949508D3
:101150009091D00189270C9495080C9492080C94D6
:10116000AD080E94AF088093CF010C94330880E053
:101170000C94B10891E001C0990F8A95EAF7892F84
:101180000C94B10821E030E001C0220F8A95EAF703
:101190008091CF01822B0C94B10821E030E001C096
:1011A000220F8A95EAF720958091CF0182230C9433
:1011B000B10821E030E001C0220F8A95EAF7809162
:1011C000CF0182270C94B1089091CF01892B0C9408
:1011D000B1089091CF0189230C94B1089091CF016F
:1011E00089270C94B1080895E92FEE0FEE0F9E0F9A
:1011F000890F982F977041E001C0440F9A95EAF744
:1012000086958695869593E0899FF0011124E75392
:10121000FE4F30E020E070E05191DF011197CB01EB
:10122000022E02C0969587950A94E2F78170819507
:101230008527842385278C932F5F3F4F23303105EB
:1012400059F70895E92FEE0FEE0F9E0F890F982F93
:10125000977086958695869523E0829FF0011124EC
:10126000E753FE4F50E040E080E0219130E0092E4E
:1012700002C0369527950A94E2F721703327042E91
:1012800001C0220F0A94EAF7822B4F5F5F4F433071
:10129000510559F70895CF92DF92FF920F931F9354
:1012A000CF93DF936C010091CF018091D001082B87
:1012B000C7E0D0E010E0FC2EC8010C2E02C09595CE
:1012C00087950A94E2F780FD0CC02197A0F7F12CD6
:1012D0008F2DDF91CF911F910F91FF90DF90CF90D5
:1012E0000895B6018C2F0E94A810019771F3F0CFDA
:1012F000CF93DF93EC010E944B09BE01DF91CF91A8
:101300000C94A8101F93CF93DF93EB019091C80129
:10131000992331F0CB01DF91CF911F910C94780983
:10132000882379F0CB010E944B09182F682FCE013A
:101330000E94F408BE01812FDF91CF911F910C9480
:10134000A810CB010E942209182FF4CFEF92FF9230
:101350000F931F93CF93DF938C01892B81F0F12C96
:10136000EE24E394E8012196F8018491843770F427
:10137000843008F05FC08130B1F08230A1F1DF919C
:10138000CF911F910F91FF90EF900895853709F449
:101390004CC008F43DC09CE7980F903780F78F77DA
:1013A0000E94800549C00E5F1F4FFE01849190E2AC
:1013B000980F983060F48770FE2D01C0FF0F8A955A
:1013C000EAF78F2F0E94450D0E94720D02C00E9405
:1013D000EE048F2D815030F2EFE9FFE03197F1F705
:1013E00000C00000F7CF0E5F1F4FFE01849190E216
:1013F000980F983050F48770FE2D01C0FF0F8A952A
:10140000EAF78F2F0E944B0DDFCF0E948005E1CFBE
:101410000E5F1F4FFE01C491C150D8F28FE99FE0CB
:101420000197F1F700C00000F7CF0E5F1F4FFE01DC
:10143000F490CFCF0E94EE048E01CBCF1F93CF93B9
:10144000DF93C091D10116E08091D2018C1304C0CA
:10145000DF91CF911F910895D0E01C9FF0011D9F57
:10146000F00D1124ED52FE4F408151816281738154
:10147000848195810E9482082196C770E5CF4091B2
:10148000030250910402609105027091060280915E
:101490000702909108020C9482081F93CF93DF9368
:1014A00080910802807FA9F480910502882389F049
:1014B0008091D101C091D201609103027091040228
:1014C000A0910602B0910702D62FD72316E0C813C9
:1014D00004C0DF91CF911F91089590E0109711F013
:1014E000DF3F19F401968770F2CF189F9001199F82
:1014F000300D1124F901ED52FE4F41814713F2CF17
:1015000040814613EFCF42814111ECCF438154819A
:101510004A1B5B0B483C510528F7809108028F70ED
:10152000806180930802F901E852FE4F80818F703C
:101530008061808383E092E00E940B08DF91CF916D
:101540001F910C941E0AAF92BF92CF92DF92EF923E
:10155000FF920F931F93CF93DF93CDB7DEB76197C1
:101560000FB6F894DEBF0FBECDBF8C0185E0F80149
:10157000DE011D9601900D928A95E1F7F801E28057
:1015800083E0C82E82E0D82E609106027091070297
:101590006115710509F45AC190910302209104026A
:1015A000892F82238F3F09F451C140815181A3804B
:1015B000B480F0900502F501E61BF70BFF2009F45B
:1015C000F6C080910802382F307FE83CF10508F022
:1015D000AFC0311179C0FE2C251323C0941321C054
:1015E000E1101FC08F708061809308020E943F0A43
:1015F000C6010E940B0880910802F80185838F2D97
:1016000061960FB6F894DEBF0FBECDBFDF91CF91CC
:101610001F910F91FF90EF90DF90CF90BF90AF9010
:101620000895AB2829F0842F85238F3F09F027C127
:1016300080E0F82FF170DF2E80FF3CC08091D10157
:101640002091D20136E0821315C04D875E878D85CB
:101650009E850E947809292F22952F702230F0F064
:10166000243018F59F70F1F0F8019581907FD1F446
:10167000D12C1EC090E0389FF001399FF00D11244D
:10168000ED52FE4F6181651306C06081641303C093
:101690006281E6120FC001968770D5CF9F7011F05E
:1016A000882331F3805E883018F3C8010E940B084C
:1016B000FD2CA5CFEE2009F4A2CF80910802816015
:1016C00080930802F12C9BCF251306C0941304C00D
:1016D000F801EE2009F487C0C8010E946C08882335
:1016E00019F1EE2009F180910802803270F020910A
:1016F00003023091040238872F831986BB86AA869D
:101700008C87CE0107960E940B0886E0F801A3E0C3
:10171000B2E001900D928A95E1F70E944D0A0E9475
:101720003F0AFF24F3946BCFC8010E940B08F9CF46
:10173000311113C07A2DB98AA88A6E2D89890E9429
:10174000730883E092E00E940B0886E0F601119294
:101750008A95E9F70E943F0AB5CF25130FC094136D
:101760000DC0E1100BC0F8018583C8010E940B0871
:1017700086E0F60111928A95E9F741CFC8010E94EF
:101780006C08882389F2EE2079F280910802803279
:1017900008F4BBCF20910302309104023A832983DD
:1017A0001B82BD82AC828E83CE010196ACCFE83C19
:1017B000F10508F03EC0FE2CEE2009F4B5CF25134C
:1017C0002AC0941328C08091080280FD1BC0982F66
:1017D000907FC1F0F8018583903F31F0982F907F82
:1017E000905F8F70892B8583C8010E940B0886E06B
:1017F000F801A3E0B2E001900D928A95E1F70E9412
:101800003F0AFDCE86E0F801A3E0B2E001900D9220
:101810008A95E1F7F4CEC8010E946C08811175CF5A
:1018200080910802816080930802C8010E940B0821
:10183000E6CE7A2DB98AA88A6E2D89890E9473080E
:1018400086E0F60111928A95E9F7D9CFEE2009F4E6
:101850006BCFC8010E946C08F82E882309F464CF6E
:1018600086E0F801A3E0B2E001900D928A95E1F7DD
:1018700083E092E00E94E9040E944D0AC0CF81E01B
:101880008E25D7CE1F93CF93DF93CDB7DEB72C979E
:101890000FB6F894DEBF0FBECDBF4F835887698760
:1018A0007A878B879C87CE0107960E94A30A88239C
:1018B00069F08A859B85892B39F04F815885842F63
:1018C00085238F3F09F071C016E05FC086E0FE01FE
:1018D0003796DE01119601900D928A95E1F78A857F
:1018E0009B85892B89F38F81988589238F3F61F3AD
:1018F0002091D20130E0C90101968770992740916B
:10190000D1014817190671F40E9449081092D201BA
:101910001092D10186E0E3E0F2E0DF011D928A95AA
:10192000E9F7D2CF96E0929FD001939FB00D11249A
:10193000AD52BE4FFE01319601900D929A95E1F79E
:101940008093D2010E941E0ABFCF819FC001112443
:101950008D529E4F0E94A30A8823E9F0E091D101A5
:101960001E9FF0011124ED52FE4F40815181628192
:101970007381848195810E9482088091D10190E0D9
:101980000196877099278093D1018091D101909120
:10199000D2018913DACF2C960FB6F894DEBF0FBEB2
:1019A000CDBFDF91CF911F91089569857A858B8591
:1019B0009C850E94820888CF682F809100019091B9
:1019C00001010C943820682F809100019091010151
:1019D0000C94432080910001909101010C944E20C1
:1019E00080910902859585958595089580910902D4
:1019F0008770089590910902977081E009F480E062
:101A0000089590918C0292FB222720F9281751F01B
:101A100080FB92F990938C0280918B0290918C02C2
:101A20000C94060E089580918C0282FB882780F921
:101A300091E089270C94010D81E00C94010D80E068
:101A40000C94010D80912D02089590912D02892B07
:101A500080932D020895809590912D029823909364
:101A60002D02089510922D02089590912C02892B39
:101A700080932C020895809590912C029823909346
:101A80002C02089510922C02089590912B02892B1C
:101A900080932B020895809590912B029823909328
:101AA0002B02089510922B02089580910A02089546
:101AB00008950C94580D90918C0292FD08C090915D
:101AC0000A02981721F080930A020C94590D089588
:101AD00080910A02882329F010920A0280E00C9477
:101AE000590D0895E0910001F091010180912D02BE
:101AF0008083E0910001F0910101808190912C029E
:101B0000892B8083E0910001F09101018081909107
:101B10002B02892B808390910A02992381F0E09116
:101B20000001F09101018081892B80838091000167
:101B3000909101010E94A41F81110E94680D809163
:101B40000001909101010C94501F08950C94A50D73
:101B500090918C0292FD10C098E0899F9001112411
:101B6000622B609309020E94C20880910902859548
:101B7000859585950C94A60D0C94C20810920902C7
:101B800080E00C94A60D90910902809589238093A2
:101B90000902282F277039F4282F082E000C330B48
:101BA0009217130621F490918C0292FF07C085953D
:101BB000859585950E94CD080C94BE0D08956FEF14
:101BC0007FEF90E080E00C94192D90E080E00E947F
:101BD000F52C893E9E4F11F40C94031A80E0089571
:101BE00082E090E00C94E72C83E090E00C94E72CEA
:101BF000CF9384E090E00E94E72CC82F82E290E02F
:101C00000E94E72C982F8C2FCF910895CF93C92F46
:101C1000682F84E090E00E94FB2C6C2F82E290E021
:101C2000CF910C94FB2CAB01BC018FE090E00C94A5
:101C30000D2DAB01BC0183E190E00C940D2D60E013
:101C400070E0CB010C94190E60E070E0CB010E94B3
:101C5000130E0C941F0E69EE7EEF90E080E00E9460
:101C6000192D60E082E090E00E94FB2C60E083E0B0
:101C700090E00E94FB2C1092D00160E084E090E0A4
:101C80000E94FB2C60E082E290E00E94FB2C60E06E
:101C900085E090E00E94FB2C60E086E090E00E94EE
:101CA000FB2C6FEF87E090E00E94FB2C40E050E0BF
:101CB000BA0188E090E00E940D2D60E08DE090E098
:101CC0000E94FB2C40E050E0BA0188E190E00E94C5
:101CD0000D2D60E087E190E00E94FB2C40E050E099
:101CE000BA018CE190E00E940D2D70E060E080E28E
:101CF00090E00E94192D40E050E0BA0188E190E0A8
:101D00000E940D2D80E00E941C1A0E94421A0C9421
:101D1000240E0C942B0E682F8EE090E00C94FB2C7C
:101D20000E94EF2060933A0270933B0280933C0242
:101D300090933D026093360270933702809338028D
:101D40009093390208950E94EF2060933A027093B5
:101D50003B0280933C0290933D0260933202709369
:101D600033028093340290933502089585B78068DA
:101D700085BF85B7806885BF0895089508950C9440
:101D8000BD0E08950C94C10E0E94B60E86E891E136
:101D90000E9452210E94BE0E0C94BF0E81E0089555
:101DA0000C94CE0E089508950E94D20E0C94D30E7A
:101DB0000E94DA200E94511A0E946A120E9413188F
:101DC0000E94FB180C94C20EAF92BF92CF92DF928A
:101DD000EF92FF920F931F93CF93DF93CDB7DEB7B0
:101DE0002A970FB6F894DEBF0FBECDBF0E947E12B9
:101DF00081110E94900E8FE2A82E82E0B82E10E092
:101E000000E0C02E802F0E94C011E82EF501F19055
:101E10005F01F81609F455C080913E0281FD0E94D1
:101E2000C6118F2D8E25D12CFF24F394982F9F213E
:101E300009F442C00E94D00E882399F0DE82CF823E
:101E4000EF2081E009F480E088870E94E320816030
:101E5000782F9A8789874E815F8168858A850E945D
:101E6000AB04F801E15DFD4F8081F826F0820E940D
:101E7000631981110E94A30E0E9478140E9403131B
:101E80000E94441F90912E02891791F10E94441FD5
:101E900080932E022A960FB6F894DEBF0FBECDBFF8
:101EA000DF91CF911F910F91FF90EF90DF90CF9036
:101EB000BF90AF900C94A304D394FF0CF5E0DF1215
:101EC000B5CF0F5F1F4F0330110509F09ACF8FEF89
:101ED00089838A831B820E94E3208160782F9D83FF
:101EE0008C8349815A816B818D810E94AB04BFCF65
:101EF0002A960FB6F894DEBF0FBECDBFDF91CF910B
:101F00001F910F91FF90EF90DF90CF90BF90AF9017
:101F1000089590E080E008950895FC01EE0FFF1F02
:101F2000EC52FE4F859194910895CF93DF930E94D8
:101F3000AC10EC01811520E5920708F042C0811534
:101F400030E4930708F0BDC0883E910528F5803E37
:101F5000910508F09DC0883A910588F4853A91056D
:101F600008F08FC08130910509F492C0009709F400
:101F70008FC0049708F08CC0D0E0C0E089C08F3BD0
:101F8000910508F489C0805C9109C03CD105A0F39B
:101F90000E948D0FEC017CC08115904250F4C11558
:101FA00081E0D80708F074C0C03FD10528F3D065A0
:101FB0006FC0C11590E3D90708F079C0CE019F70BA
:101FC000E7CF811525E5920758F5811534E593078C
:101FD00008F0A6C0811542E5940750F4C11581E5CB
:101FE000D80708F471C0DC2FCC27C16FD06A50C06D
:101FF000982F969596959E0123703327C115D3454A
:1020000008F07FC0C1E0D0E002C0CC0FDD1F2A95F0
:10201000E2F720E2929FC0011124C82BD92B6FC098
:10202000C11589E5D807A8F4C11598E5D90708F0C6
:102030007CC0C11526E5D20708F09ECF8C2F0E94E8
:102040004311C82FD0E0DC2FCC27CC27DF71D06222
:102050001FC0C1153AE5D30708F46CC0CE019056F5
:102060008115904208F088CF8D2F8F710E94431107
:1020700090E0982F882788279F719C012C2BE901DD
:10208000E6CFC55AD0E0CB57DE4FC881D0E0D06450
:10209000CE01DF91CF910895C85AD0E0CC0FDD1F5B
:1020A000C95ADE4F0990D881C02DD464F1CFCE013A
:1020B0009927D3FF03C0EC01D86CEACFEC01D06CB8
:1020C000E7CFDF70D06AE4CFCE01E4E09695879544
:1020D000EA95E1F783702C2F26952695237090E2E0
:1020E000299F90011124382B8C2F8370C1E0D0E000
:1020F00002C0CC0FDD1F8A95E2F7C22BD32BDC6820
:10210000C7CFC1E0D0E002C0CC0FDD1F2A95E2F7B7
:1021100030E2939FC0011124C82BD92BDA68B8CFC5
:10212000D82FCC27C46FD06AB3CFDC2FCC27C06F99
:10213000D06AAECF8C2F8F700E94431134E0D695B9
:10214000C7953A95E1F7CF709C2FEC01D069A0CFED
:102150000E94691C0C94950F82389105B1F1B0F47E
:102160008133910509F475C048F48932910509F469
:1021700069C08A32910509F473C0089585339105C9
:1021800009F459C08933910501F10895833E910501
:10219000A9F138F4803E9105F9F0823E910549F1AC
:1021A0000895863E9105A9F1873E9105C9F1843EC7
:1021B000910519F520918C0221FF1FC080918B029F
:1021C00084FD14C087EE90E0089520918B02237067
:1021D000A1F080EE90E0089520918B0220FD47C091
:1021E00030918C0230FF09C024FF44C090E080E0B1
:1021F00004C020918B0222FDF7CF089520918B021D
:1022000022FD3BC030918C0230FDE3CF24FFF5CF9F
:10221000EDCF20918B0223FFF0CF24FDE7CFD2CF6B
:1022200020918B0223FD2CC030918C0231FFEECF28
:1022300084EE90E0089520918B0225FFDECF89E2A5
:1022400090E0089520918B0225FFD7CF85E390E0A1
:10225000089520918B0226FFD0CF8AE290E0089566
:1022600020918B0226FFC9CF81E390E0089589E396
:1022700090E0089583EE90E0089582EE90E0089556
:1022800086EE90E0089590918B0292FF06C0282F71
:1022900028712830F9F4877F846093FF06C0282FC7
:1022A00028712831F1F4877E846120918C0220FF0F
:1022B00006C0382F38713830D9F4877F816021FF0C
:1022C00006C0282F28712831D1F4877E816194FDC2
:1022D000877E0895282F24712430F9F68B7F88603B
:1022E000DCCF282F2471243101F78B7E8861DDCF6C
:1022F000382F3171313019F78E7F8860E0CF282F69
:102300002171213121F78E7E8861E1CF80E008952F
:102310000C94DF0D0E947E128FE39CE90197F1F788
:1023200000C000000E947E1280E00E94C01180FF69
:1023300004C00E9488110C942E2108950C948A11D7
:102340000E94E50D811102C00E94890E0E94F00DCD
:1023500080933E020E94F80D90938C0280938B0232
:102360000E949E110E94F40D0E949C088091CF0152
:102370000C94AF0808950C94BA1108950C94BD11F3
:10238000E82FF0E0E057FD4F80810895089580EA3E
:102390008A95F1F7089500C008950C94C711F89438
:1023A000E82FE295EF70F0E031A1282F2F7081E047
:1023B00090E001C0880F2A95EAF7982F9095932313
:1023C00091A392A1892B82A378940895CF93DF9350
:1023D00080EF0E94CF1181EF0E94CF1184EF0E9405
:1023E000CF11C8E8D1E089918F3F11F00E94CF1141
:1023F00081E0CD38D807B9F7DF91CF910895CF921A
:10240000DF92EF92FF920F931F93CF93DF93EC0134
:10241000D62E062F10E0C80183579E4F7C01FC0189
:1024200080818F3F09F44BC0F894E82FE295EF705C
:10243000F0E091A18F7021E030E001C0220F8A9579
:10244000EAF7892F822B81A382A12095282322A33A
:1024500078940E94CB11E8E8F1E030E020E0C12C54
:1024600051E041914F3FA1F1A42FA295AF70B0E090
:1024700090968C9190E04F7002C0959587954A9503
:10248000E2F780FD25C0852F022E01C0880F0A9437
:10249000EAF7C82A2F5F3F4F2530310511F7F701C2
:1024A00080818F3F11F00E94CF1161E0C11001C007
:1024B00060E08D2D0E94CD11C00FD11FC882DF9129
:1024C000CF911F910F91FF90EF90DF90CF900895E3
:1024D00080E0DFCF0E94E611ADE8B2E01C92E0E9B7
:1024E000F2E0108211961C921197118212961C92A2
:1024F000128283E00E94C1120C9453031F93CF9366
:10250000DF9300D00F92CDB7DEB719821A821B82FB
:1025100060E0CE0101960E94FF1161E0CE010196BC
:102520000E94FF1162E0CE0101960E94FF1143E07C
:1025300050E0BE016F5F7F4F8DE892E00E94DA2C81
:1025400011E0009709F410E0892B49F089819A8104
:10255000AB8180938D0290938E02A0938F02212FE6
:1025600043E060E972E08DE892E00E94C2120E94AE
:102570005903812F0F900F900F90DF91CF911F91F2
:1025800008950895FF920F931F93CF93DF93F82E32
:10259000092F162FD72FC42F222349F081E08093D3
:1025A00041020E94E3209093400280933F02809179
:1025B00041028823A1F080913F02909140020E9445
:1025C000FB20059760F0EF2DF02FA12FBD2FCE0F30
:1025D000DF2FD11DEC17FD0741F410924102DF916E
:1025E000CF911F910F91FF90089581918D93F2CF1C
:1025F0000E9460200E94D0260E94EB260E94FD26A9
:102600000E94D40EFBCF85EA92E00C946323809164
:10261000480280FF12C06091070185E0689FB00109
:102620001124759567957595679560387105A8F5BE
:1026300061157105A1F1862F089581FF09C0609190
:10264000070185E0689FB001112475956795EDCF6E
:102650006091070182FD0AC0809147028823D1F072
:102660009091060160910701891728F085E0689F25
:10267000B0011124DACF869FB001112485E0869F36
:102680009001879F300D1124692F70E0C9010E94CD
:10269000B92CCBCF65E070E0CECF8FE7089581E015
:1026A00008958091480280FF0CC06091030170E0A2
:1026B00075956795759567956115710549F1862F33
:1026C000089581FF06C06091030170E075956795DC
:1026D000F3CF6091030182FD0BC0909146029923D4
:1026E000A1F06091020180910301961738F0682FE4
:1026F00070E06038710500F38FE70895899FC0018D
:10270000112470E00E94B92CF4CF61E070E0D7CFC3
:1027100081E00895803F31F40E94071381958093F2
:102720004C020895813F19F40E940713F8CF823FAD
:1027300031F40E940713819580934B020895833FE3
:1027400019F40E940713F8CF893F29F40E9451130E
:1027500080934D0208958A3F21F40E945113819580
:10276000F7CF8B3F31F40E945113819580934E0235
:1027700008958C3F19F40E945113F8CF9CE0980FF4
:10278000953070F4845F990B21E030E001C0220F96
:102790008A95EAF780914A02822B80934A02089533
:1027A0008D3F31F480914802816080934802089502
:1027B0008E3F21F4809148028260F7CF8F3FB9F7B6
:1027C000809148028460F1CF40914B02803F59F4E0
:1027D00080914C0287FF0DC010924C0241110BC03A
:1027E0001092470208C0813F81F480914C02181674
:1027F0009CF3442381F080914D0290914E02892BED
:1028000009F05AC0109246020895823F49F447FFEA
:10281000F0CF10924B0280914C028111ECCFE0CFAF
:10282000833F19F41416ACF3E4CF90914D02893F25
:1028300029F41916F4F610924D02DBCF8A3F19F4F1
:1028400097FFD7CFF8CF90914E028B3F29F497FF97
:10285000D0CF10924E02CDCF8C3F19F41916CCF385
:10286000C8CF9CE0980F953090F4845F990B21E0DD
:1028700030E0B90102C0660F771F8A95E2F7CB01FD
:10288000809590914A02892380934A02B2CF8D3F6E
:1028900031F4809148028E7F80934802AACF8E3F08
:1028A00021F4809148028D7FF7CF8F3F09F0A1CFAF
:1028B000809148028B7FF0CF08950E94E3209C0115
:1028C00090914B0280914C02982B21F0309345025D
:1028D0002093440290914D0280914E02982B21F05A
:1028E000309343022093420289E492E00C946A1FE1
:1028F000EF92FF920F931F93CF93DF9300D000D0FE
:1029000000D0CDB7DEB786E0E9E4F2E0DE01119653
:1029100001900D928A95E1F7E0904B02F0904C0205
:1029200000914D0210914E0210924B0210924C02F7
:1029300010924D0210924E028E2D8F2991F08091AF
:102940004402909145020E94FB20AC019091470205
:10295000992309F43FC0809108018417150608F4F3
:1029600047C0802F812B91F08091420290914302C9
:102970000E94FB20AC0190914602992309F477C094
:10298000809104018417150608F47FC080914B02E2
:1029900090914C02892B90914D02892B90914E027F
:1029A000892B11F00E945D1486E0FE013196A9E4A6
:1029B000B2E001900D928A95E1F726960FB6F89451
:1029C000DEBF0FBECDBFDF91CF911F910F91FF9062
:1029D000EF900895209109018AE0289F9001112429
:1029E0002417350708F0BDCF9F5F9093470202C0C0
:1029F0009F3FD1F7EE2059F00E9407139FEF1E145E
:102A00000CF491E0899F802D112480934B02FF20CC
:102A100059F00E9407139FEF1F140CF491E0899F57
:102A2000802D112480934C0230914B02332309F402
:102A300098CF20914C02222309F493CF45EB340325
:102A4000C0011124992359F090934B0245EB2403C4
:102A500090011124332339F030934C0282CF81E06E
:102A600080934B02F3CF81E080934C027ACF209188
:102A700005018AE0289F900111242417350708F0EA
:102A800085CF9F5F9093460202C09F3FD1F70023FE
:102A900059F00E9451139FEF10160CF491E0899F9A
:102AA000802D112480934D02112359F00E9451135F
:102AB0009FEF11160CF491E0899F802D11248093D3
:102AC0004E0230914D02332309F460CF20914E0223
:102AD000222309F45BCF45EB3403C0011124992371
:102AE00059F090934D0245EB2403900111243323B8
:102AF00039F030934E024ACF81E080934D02F3CFFC
:102B000081E080934E0242CF86E0E9E4F2E0DF010B
:102B10001D928A95E9F71092470210924602109290
:102B200048020895EF92FF920F931F93CF93DF9384
:102B3000EB01E82FD11110C0442321F0F0E0EC525A
:102B4000FE4FE4916E2F7E2F8E2FDF91CF911F913C
:102B50000F91FF90EF9008950D2F10E0282F30E097
:102B6000442329F02C523E4FF901249130E0F6E045
:102B7000CF9FC0011124EFEFF0E0BF010E94A52C10
:102B8000AB018C2F90E0880F991FA5E5A49FB001A1
:102B9000A59F700D1124861B970B982F990F980FE6
:102BA000BF01601B710B629FD001639FB00D729FCC
:102BB000B00D11248B2F9D9FB0011124672F772713
:102BC000EF01C61BD70BBE01629FE001639FD00DD2
:102BD000729FD00D11247F01E91AF108E09EB00127
:102BE000E19E700DF09E700D1124672F7727E61B74
:102BF000F70BE29F8001E39F100DF29F100D11244F
:102C0000E12F722F4230510599F048F441155105DA
:102C100069F04130510581F0EB2F8D2F07C0443012
:102C2000510569F080F046305105B1F76E2F8DCF18
:102C3000E22F7B2F812FFACFE22F7D2FF7CFEB2FC3
:102C4000822F712FF3CF7B2F822FED2FEFCF41E01B
:102C50000C9492150C942716CF93DF93762FE901ED
:102C6000682F842F0E942A16798368838A83DF91D4
:102C7000CF91089580919302982F9E7F39F480918F
:102C80009302817082608093930208958430B8F734
:102C9000089588E090E00C94EF2CCF92DF92EF92B1
:102CA000FF926B017C010E943A16B701A60188E0F1
:102CB00090E0FF90EF90DF90CF900C940D2D6091FD
:102CC00093027091940280919502909196020C94D7
:102CD0004D16E3E9F2E083E0808311828FEF828377
:102CE0008383148260817181828193810C944D165B
:102CF0008091930280FF02C08695089580E0089538
:102D000090919702933018F49F5F909397028823D5
:102D100051F060919302709194028091950290918C
:102D200096020C944D16089581E00C9480169091B3
:102D30009702992319F0915090939702882351F0AC
:102D40006091930270919402809195029091960205
:102D50000C944D16089581E00C949716809197027B
:102D6000089580939702662351F0609193027091C9
:102D7000940280919502909196020C944D160895BC
:102D800060E00C94B11680919402089580919502B0
:102D9000089580919602089570E00C94CD1860918A
:102DA0000B018091930280FF0AC080910A0123E009
:102DB000829FC001112488569D4F0C94CC1680919F
:102DC0000C0190910D0123E0829FF0011124E8563F
:102DD000FD4F891750F71182108212828F5F339650
:102DE000F8CFE3E9F2E080818E7F8083608171819A
:102DF000828193810E944D162FEF80E792E021504F
:102E000080409040E1F700C000000C94CF16E3E949
:102E1000F2E080818E7F80832FEF80E792E0215067
:102E200080409040E1F700C000000C94CF169091D4
:102E3000930290FF14C090910C0120910D0133E09A
:102E4000939FF0011124E856FD4F921710F00C9457
:102E5000CF168183608342839F5F3396F6CF0895B8
:102E6000EF92FF920F931F93CF93DF9300D00F92B7
:102E7000CDB7DEB7F82E062F142FE22E80919302E5
:102E800080FF28C0E82FE695F0E0E057FE4F9081E4
:102E9000909350028E7F823059F49E012F5F3F4FF6
:102EA0008F2D0E942C164B8169818A810E941717F1
:102EB000F09294020093950210939602EE2051F046
:102EC0006091930270919402809195029091960284
:102ED0000E944D160F900F900F90DF91CF911F9190
:102EE0000F91FF90EF900895E3E9F2E09181282F90
:102EF0004381628188E0890F0C94301781E00C9443
:102F00007417E3E9F2E09181282F4381628188EF11
:102F1000890F0C94301781E00C948117E3E9F2E0FB
:102F2000628121E1620F08F46FEF282F43818181D4
:102F30000C94301781E00C948E17E3E9F2E0628183
:102F400021E1621B08F460E0282F438181810C9409
:102F5000301781E00C949D17E3E9F2E0438121E111
:102F6000420F08F44FEF282F628181810C943017B3
:102F700081E00C94AC17E3E9F2E0438121E1421BCC
:102F800008F440E0282F628181810C94301781E0A1
:102F90000C94BB1720E00C9430178091930280FFB3
:102FA00018C08170826080939302662351F0609113
:102FB00093027091940280919502909196020E94E2
:102FC0004D164091960260919502809194020C9466
:102FD000CA170895682F81E00C94CD1781E00C94F6
:102FE000EA17682F9091930296958FEF890F09F455
:102FF00081E00C94CD1781E00C94F11761E00C9402
:10300000CD17E3E9F2E080818160808386950C949E
:10301000FE178091930280FD0C94F1160C94011818
:1030200060E00C94CD1780914F0281112CC00E945A
:10303000E50D811104C00E94890E0E9469160E944C
:103040004916609393027093940280939502909333
:1030500096026E7F61F40E9469160E944916609381
:1030600093027093940280939502909396020E942B
:103070003A168091930280FF03C086950E94101833
:1030800081E080934F020895E3E9F2E0808181605E
:10309000808386950C941018FA01811101C0FB0100
:1030A00009940F931F93CF938C01FB01C281CC2312
:1030B00009F471C00E94220D8272093CFCE51F07D1
:1030C00009F460C048F5053CECE51E0709F455C05D
:1030D00078F4033C9CE5190709F443C008F048C0A4
:1030E000023C1C45D9F18C2FCF911F910F9108956F
:1030F00049EA57E16AE977E1073C9CE51907A9F13C
:103100004EE757E16BE877E1083C1C4570F14AE96E
:1031100057E169EA77E129C00D3CFCE51F07B9F1E9
:10312000A0F44BEA56E164E976E10B3CECE51E07BE
:10313000E1F048EB57E167EC77E10C3C1C45A8F067
:1031400044E956E16BEA76E110C0063D8CE51807CC
:1031500018F00D351D4539F6C0E0C5CF0E9409189D
:10316000FBCF4BEF57E16EEE77E10E944C18F4CFA6
:103170004EEE57E16BEF77E1F8CF4BE857E16EE7A2
:1031800077E1F3CF47EC57E168EB77E1EECF81E0F1
:103190000E94FE17E1CFC1E0A6CF539A4BB1477F03
:1031A0005BB15860EFB7F8949B01220F331F260FD5
:1031B000371F280F391F2817390741F4EFBF8FE554
:1031C00094E00197F1F700C000000895DC016D91D3
:1031D000CD0178E05BB9000000C067FF4BB9660F16
:1031E000000000C000C000C04BB900C07A9591F744
:1031F000E2CF0C94BC02AF92BF92CF92DF92EF92DB
:10320000FF920F931F93CF93DF93A5EAB1E022EAD9
:1032100031E088E5A82E82E0B82E68EA71E041E04E
:1032200050E00D91802F82958F7090E0FC01C1A13C
:103230000F707A01002E01C0EE0C0A94EAF7FE2D01
:10324000F095CF23FC01C1A3C2A1CE29C2A3E901FD
:1032500019919E01E12FE295EF70F0E0F1A01F704F
:103260006A01012E01C0CC0C0A94EAF7EC2CE09420
:10327000EF20E1A2F2A0FC28F2A2EC0188A190E0EC
:1032800002C0959587950A95E2F78170E0A1F0E07C
:1032900002C0F595E7951A95E2F790E0E0FD92E01F
:1032A000892BF50181935F016A177B0709F0B9CF7C
:1032B000DF91CF911F910F91FF90EF90DF90CF9012
:1032C000BF90AF9008954F925F926F927F928F92CE
:1032D0009F92AF92BF92CF92DF92EF92FF920F93A5
:1032E0001F93CF93DF9308E512E085EAC82E81E0B3
:1032F000D82E92EAE92E91E0F92EC5E5D2E022E53A
:10330000822E22E0922E512C412C34E0632E712C1F
:10331000D801ED918D016E2F660F660F6E93F60149
:1033200021916F01822F82958F7090E0FC0180A126
:1033300090E02F7002C0959587952A95E2F78170ED
:103340009927F70121917F01422F42954F7050E05C
:10335000FA0140A150E02F7002C0559547952A957B
:10336000E2F79A012170332740FF02C022E030E0EB
:10337000822BE62FE82BEC935E01EF70F0E0EE5627
:10338000FE4F80819881890F888320E084304CF043
:10339000D4018C918F5F8C9360E0852D0E94F91889
:1033A00021E088818D3F4CF4F4018081815080833D
:1033B00061E0852D0E94F91821E02196FE013197E8
:1033C000D5018C91082E000C990BB3010E94B92CE9
:1033D0008083422A5394BFEF8B1A9B0AE3E05E126C
:1033E00097CF842DDF91CF911F910F91FF90EF9098
:1033F000DF90CF90BF90AF909F908F907F906F9015
:103400005F904F90089583E290E00E94E72C813214
:1034100089F484E290E00E94E72C803159F485E23F
:1034200090E00E94E72C91E0823209F090E0892F31
:103430008170089580E0FCCFCF93C82F6FEF81118A
:1034400061E283E290E00E94FB2C6FEFC11160E12A
:1034500084E290E00E94FB2C6FEFC11162E285E2F2
:1034600090E0CF910C94FB2C089586E290E00E94AE
:10347000E72C682F70E090E080E0089586E290E00D
:103480000C94FB2C80E00E941C1A60E070E0CB01E1
:103490000E943E1A0E94E31B0E94CD1C81E00C9406
:1034A0001C1A0E94341A0E94031A811102C00C9443
:1034B000421A0895CF93FB01C281CC2309F19C01EC
:1034C00022513F452031310520F582510E94DD1CFB
:1034D000C0E08C2FCF91089581E00E94C20843E0A4
:1034E00062E081E00E944A03F3CF81E00E94CD08B0
:1034F00043E062E081E00E944A03EBCF82E0F6CF36
:103500008031FFE59F0789F381319F45B9F3C1E021
:10351000E0CF8031EFE59E07F9F281319F45C9F692
:1035200082E0DBCF2FEFFC0120830895CF93DF9360
:10353000EC0188818138A9F028F4803871F0DF919E
:10354000CF910895823881F08338C9F70E94C3165D
:1035500089830E94C6168A83F2CF0E94C916898386
:10356000EECF0E947816FBCF0E94AE16F8CFCF9315
:10357000DF93EC0188818138E1F028F4803869F02C
:10358000DF91CF910895823811F18338C9F70E94F5
:10359000C916482F6A81898108C0D9810E94C61640
:1035A000C82F0E94C3164D2F6C2FDF91CF910C9422
:1035B000CA1789810E9410188981811104C0DF9186
:1035C000CF910C940717DF91CF910C944418898107
:1035D000DF91CF910C94C0161F93CF93DF93EC0132
:1035E000162FDC01ED91CD01E150E33108F0A8C0C8
:1035F000F0E0E15BF24D0C94CD2C198289E08A83D6
:10360000612FCE01DF91CF911F910C94B12589815B
:10361000823069F0833071F08130C9F40E94EF206C
:103620000E94D32C6A837B838C839D83E9CF0E9485
:10363000351AF6CF80E00E94C0118A8381E00E9493
:10364000C0118B8382E00E94C0118C83D9CF612F7F
:10365000CE010E94921AD4CF89818230C1F76A814B
:103660007B818C819D810E94D32C0E943E1AC8CF01
:103670004B816A8189810E94B51B982789279827E9
:103680009D838C83BDCF2C813D8132272327322718
:103690004B816A8189810E94CE1BB2CF0E94E31BBD
:1036A000AFCF0E94B71AACCF0E94961AA9CF0E9442
:1036B0005F16A6CF0E94761C8983A2CF0E94781C39
:1036C0009827892798279A8389839ACF6B8170E0FE
:1036D00089819A81AE014C5F5F4F9827892798278F
:1036E0000E947B1C8DCF6B8170E089819A81AE0135
:1036F0004C5F5F4F9827892798270E94A21C80CF94
:103700000E94CD1C7DCF0E94A31BD6CF6B8170E0A1
:1037100089819A81AE014C5F5F4F9827892798274E
:103720000E941B1C6DCF6B8170E089819A81AE0174
:103730004C5F5F4F9827892798270E94401C60CFD5
:103740008FEF88835DCF84E0089550E0440F551FCC
:103750009AE0699F400D511D11249EE1899F400D03
:10376000511D1124CA01879608950F931F93CF937B
:10377000DF930E94A51B8C010E94E72CC82FD0E08C
:10378000DC2FCC27C80101960E94E72C9E01282B34
:10379000C901DF91CF911F910F9108950F931F934E
:1037A000CF93DF93122F032F0E94A51BEC01602FF4
:1037B0000E94FB2C612FCE010196DF91CF911F91CA
:1037C0000F910C94FB2CAF92BF92CF92DF92EF92AD
:1037D000FF921F93CF93DF938CEAC82E80E0D82E00
:1037E000D0E07601C0E014C0F50125913491412F5D
:1037F0006C2F8D2F0E94CE1B82E0A80EB11C1F5F84
:10380000153091F78AE0E80EF11CCF5FC33019F054
:10381000570110E0E9CFDF5F8EE1C80ED11CD43034
:1038200001F7DF91CF911F91FF90EF90DF90CF9044
:10383000BF90AF900895EF92FF920F931F93CF9395
:10384000DF93EC018A017C01E60EF71ECE0187961C
:10385000CE15DF0539F4DF91CF911F910F91FF90C5
:10386000EF900895C837D10540F40E94E72CF80185
:1038700080830F5F1F4F2196E9CFF8011082F9CFA7
:10388000CF92DF92EF92FF920F931F93CF93DF932C
:103890007C016A018C01060F171FEC01CE0187968F
:1038A000C017D10749F4DF91CF911F910F91FF907D
:1038B000EF90DF90CF900895C837D10540F4FE0116
:1038C000EE19FF09EC0DFD1D60810E94FB2C219675
:1038D000E5CF462F843038F4733028F4653018F47F
:1038E000672F0C94B51B90E080E0089580E1089567
:1038F00081E693E00895EF92FF920F931F93CF9389
:10390000DF93EC018A017C01E60EF71ECE018156A1
:103910009F4FCE15DF0539F4DF91CF911F910F91A5
:10392000FF90EF900895C13623E0D20740F40E9443
:10393000E72CF80180830F5F1F4F2196E7CFF80136
:103940001082F9CFCF92DF92EF92FF920F931F93E5
:10395000CF93DF937C016A018C01060F171FEC01E6
:10396000CE0181569F4FC017D10749F4DF91CF9107
:103970001F910F91FF90EF90DF90CF900895C13687
:1039800023E0D20740F4FE01EE19FF09EC0DFD1D06
:1039900060810E94FB2C2196E3CFCF93DF93CFE988
:1039A000D0E060E0CE010E94FB2C2196C11584E09E
:1039B000D807B9F7DF91CF910895DF92EF92FF9288
:1039C0000F931F93CF93DF9300D000D0CDB7DEB716
:1039D000F82E8FE08F1540F08FEF93E00E94E72CD8
:1039E0000FE910E08823C1F00F900F900F900F9017
:1039F000DF91CF911F910F91FF90EF90DF9008958D
:103A0000011584E0180781F3C8010E94E72C811199
:103A100001C0FA940F5F1F4FF110F2CF19821A8282
:103A20001B821C82DD24D39478018FEFE81AF80AF8
:103A3000C8010E94E72C89831A828823A9F29FEF8C
:103A4000980F933078F48A83D9820E5F1F4FC70195
:103A50000E94E72C8B83882339F2CE0101960E94C5
:103A60009804E2CF8701F9CF0F931F93CF93DF9391
:103A7000C42FD22FFC0182818823C9F040935D02BC
:103A80000E94E32090935C0280935B0280E28C0FA3
:103A9000883008F050C0C77081E001C0880FCA9517
:103AA000EAF7DF91CF911F910F910C94F5051091DA
:103AB0005D02141335C080915B0290915C020E94FC
:103AC000FB20883C910560F5C0E2CD0F1D17B9F0D1
:103AD00080E2810F883040F4177081E001C0880FC8
:103AE0001A95EAF70E94FC05C83048F481E09D2F42
:103AF000977001C0880F9A95EAF70E94F505802F0C
:103B00000E94ED05C830B8F4D77081E001C0880F7D
:103B1000DA95EAF7DF91CF911F910F910C94FC0594
:103B200080E28C0F883038F4C77081E001C0880FC4
:103B3000CA95EAF7EFCFDF91CF911F910F910895CA
:103B40000F939C01CB01233F4CE5340759F1A8F4B6
:103B5000283DFCE53F0701F1293D4CE53407D1F153
:103B6000273D3C4591F406E221EE41EE67ED7CE510
:103B70000E94341D80E00F910895253FFCE53F072A
:103B8000E9F0B0F0263F3C45F9F0FC018281882342
:103B900039F110925D02EFCF07E225EE45EE68EDB8
:103BA0007CE5E6CF06E221EE40EE63EF7CE5E0CF78
:103BB00007E225EE44EE64EF7CE5DACF06E221EE83
:103BC00042EE65EF7CE5D4CF07E225EE46EE66EFE8
:103BD0007CE5CECF08E221E045EE69ED7CE5C8CF7B
:103BE00081E0C9CFCF93DF93EC01FB018281882371
:103BF00009F419C1C230FCE5DF07C0F1C6319CE50C
:103C0000D90730F09E012A5F3C452930310570F517
:103C10000E94F80D90938C0280938B02C031ECE5EA
:103C2000DE0709F4CFC008F05BC0C8308CE5D807C8
:103C300009F4B6C088F5C430ECE5DE0709F4A8C085
:103C4000C0F4C2308CE5D80709F49CC080918B0287
:103C50008260C330DC4509F498C080918B0290915A
:103C60008C020E94060E0E94490880E0DF91CF91ED
:103C7000089580918B028061C630ECE5DE0709F47F
:103C800084C080918B028860C730DC4508F47DC019
:103C900080918B02806279C0CC308CE5D80709F422
:103CA00089C070F480918B028C60CA30ECE5DE072D
:103CB00009F46BC008F478C080918B028E7F65C0D8
:103CC000CE308CE5D80709F479C080918B028B7FC8
:103CD000CF30DC4508F459C080918B028F7E55C0EF
:103CE000CB3FECE5DE0709F457C030F5C3318CE576
:103CF000D80709F46FC078F4C131ECE5DE0709F4A8
:103D000065C0C231DC4509F0A8CF0E944908809106
:103D10008B028F773AC0C5318CE5D80709F462C0B1
:103D200008F476C080918C028160CA3FDC4509F0BE
:103D300094CF80938C0291CFCF3FFCE5DF0709F44D
:103D40004DC088F480918C028D7FCD3F9CE5D907D2
:103D500081F380918C028E7FCE3FDC4550F38091C1
:103D60008C028360E6CFC130FDE5DF0709F459C05E
:103D700008F444C080E0C230DD4509F06ECF0E94F7
:103D80008B0E6BCF80918B02816080938B0265CF0D
:103D900080918B028460F9CF80918C028260C9CFC0
:103DA00080918B028064F1CF0E94490880918B0240
:103DB0008068EBCF80918B028D7FE7CF80918B0263
:103DC000877FE3CF80918B028F7DDFCF80918B0245
:103DD0008F7BDBCF80918B02837FD7CF80918C024A
:103DE0008C7FA7CF80918B0282FB992790F921E0ED
:103DF000922790FB82F990FB83F9C7CF80918C02C8
:103E0000982F909591708E7F892B90FB81F991CF9F
:103E10000E94490890918B02892F97FB87F980585F
:103E2000B4CF81E0ACCF81E021CFCF93DF93EB0122
:103E300086319C4511F50E94220D9A81992399F0B3
:103E40008A7A91E009F490E090935E02811109C0B2
:103E500089E20E94DC0C0E94720D80E0DF91CF911C
:103E6000089585E3F6CF80915E02811104C089E256
:103E70000E94E30CF0CF85E3FBCF81E0EFCF90937E
:103E80006402809363020895E0916302F0916402FA
:103E9000309721F00190F081E02D099480E00895A1
:103EA000E0916302F0916402309799F0209125012E
:103EB000222359F020918B0227FF07C0DC012C91AF
:103EC00011962C93119725E02C930280F381E02D1D
:103ED00009940895E0916302F0916402309739F0FB
:103EE00022E0DC012C930480F581E02D09940895F3
:103EF00020916102309162022817390771F0909386
:103F0000620280936102E0916302F0916402309753
:103F100021F00680F781E02D0994089520915F0239
:103F2000309160022817390771F0909360028093F6
:103F30005F02E0916302F0916402309721F0008407
:103F4000F185E02D09940895FC01329680912501B8
:103F5000882321F080918B029EE187FF96E080E02C
:103F6000915008F4089521912223D1F38F5FF8CF67
:103F7000662301F1209125012223F1F020918B028B
:103F800027FF1AC0462F4695469546954E3190F428
:103F9000677021E030E002C0220F331F6A95E2F71C
:103FA000840F911DFC01828190E02823392381E058
:103FB000232B69F480E00895FC0132960896219144
:103FC000261721F0E817F907D1F7F4CF81E008951B
:103FD0009C01FC0132969FEF80E04191461751F021
:103FE0009F3F19F4411101C0982F8F5F8630A9F7C8
:103FF0009F3F09F40895290F311D97FD3A95F90166
:1040000062830895FC01329608962191261303C01D
:10401000DF0111971C92E817F907B9F70895E62F09
:10402000E695E695E695EE3168F4E80FF92FF11D77
:10403000677021E030E001C0220F6A95EAF78281C3
:10404000822B82830895E62FE695E695E695EE317C
:1040500070F4E80FF92FF11D677021E030E001C026
:10406000220F6A95EAF720958281282322830895FA
:1040700020912501222329F020918B0227FD0C9409
:104080000F200C94E81F20912501222329F0209174
:104090008B0227FD0C9423200C940220FC01329605
:1040A00080912501882351F080918B0287FF06C003
:1040B0008EE1DF011D928A95E9F7089586E0F9CF38
:1040C0000895089508950C94622080919603843099
:1040D00049F10E94632080E00E94A30410926502CF
:1040E00088E190E020E40FB6F894A89580936000F2
:1040F0000FBE2093600083B7817F846083BF83B746
:10410000816083BF7894889583B78E7F83BF0FB615
:10411000F894A89580916000886180936000109267
:1041200060000FBE08950895CF930E9461200E9401
:104130007E120E949320C0E08C2F0E94C01181113A
:1041400005C0CF5FC330C1F7CF91089581E0FCCFA8
:1041500008950C94A8200E9449080E94441F0E94C0
:10416000A3040C94A9201F921FB61F9211248F93B1
:104170009F93AF93BF9380916502811113C080918B
:10418000A1029091A202A091A302B091A402419633
:10419000A11DB11D8093A1029093A202A093A3023E
:1041A000B093A402BF91AF919F918F911F901FBEBA
:1041B0001F90189582E084BD93E095BD9AEF97BD5E
:1041C00080936E0008952FB7F8948091A10290918A
:1041D000A202A091A302B091A4022FBF08952FB70D
:1041E000F8946091A1027091A2028091A302909133
:1041F000A4022FBF08959C014FB7F8948091A102AB
:104200009091A202A091A302B091A4024FBF821B81
:10421000930B089578941F921FB61F9211248F93C9
:104220009F93AF93BF938091A1029091A202A0911E
:10423000A302B091A4020196A11DB11D8093A10219
:104240009093A202A093A302B093A402BF91AF9156
:104250009F918F911F901FBE1F90189581E08093B2
:10426000E00080E28093D8001092C9008FE19EE4C4
:104270000197F1F700C0000087E090EBDC0180932C
:104280009F039093A003A093A103B093A20388E19E
:104290009CE00FB6F894A895809360000FBE9093B1
:1042A0006000FFCF9093C7018093C6010895881FD7
:1042B0008827881F089591E0883F08F490E0892FAF
:1042C0000895982F907F903BE9F040F49039D1F019
:1042D000903AC1F09038B1F080E00895903D19F027
:1042E00020F4903CC9F782E00895903E59F0903F49
:1042F00099F7815F8F3080F7E82FF0E0E855FE4FA7
:104300008081089583E00895FC017383628308959A
:10431000FC01758F648F0895CF93DF93EC011DA28C
:104320001FA21EA2BC01685D7F4F40EC88519F4FC9
:104330000E9497231B821A821D821C821F821E826A
:10434000198618861B861A861D861C861F861E8661
:10435000198A188A1B8A1A8A1D8A1C8A1F8A1E8A31
:10436000198E188E1B8E1A8E1D8E1C8E1F8E1E8E01
:1043700019A218A2DF91CF910895EF92FF920F93A7
:104380001F93CF93DF93EA018A01060F111D885115
:104390009F4F7C01C017D10739F4DF91CF911F9156
:1043A0000F91FF90EF9008956991C7010E949E239D
:1043B000F1CFFC01718360830895FC0171A360A3B8
:1043C0000895AF92BF92CF92DF92EF92FF920F9338
:1043D0001F93CF93DF9300D00F92CDB7DEB77C0150
:1043E0006B01142FB22EA02EDC0195968C9195971F
:1043F0008430A9F55A96ED91FC913097E9F1CB0103
:10440000019763E070E00E94A52CCB01880F991FF3
:10441000860F971F4983BA820B834C2D481B9E0140
:104420002F5F3F4FBC01C7010995D7015E96ED9103
:10443000FC91309731F00A2D2B2D412FB601C70189
:1044400009950F900F900F90DF91CF911F910F91D1
:10445000FF90EF90DF90CF90BF90AF9008956230C3
:10446000710509F455C06330710599F0613071052B
:1044700009F481C0D12CC12CD7015C96ED91FC913F
:10448000309799F20A2D2B2D412FB601C7010995BE
:10449000CCCF842F807F803A11F148F48038D1F05E
:1044A000803951F7D7011496ED91FC910AC0803EF6
:1044B000D9F0803FF1F0803BF9F6D7011296ED91EB
:1044C000FC913097C9F2123FE9F02A2D4B2D612F54
:1044D0006F701BC0D7011696ED91FC91F2CFD701FA
:1044E0001896ED91FC91EDCFD7011A96ED91FC91C4
:1044F000E8CF423F09F6D7011C96ED91FC91309729
:1045000009F4BACF2A2D4B2D62EFC70109958DCF43
:10451000842F807F803DB1F0803FC9F0803C09F05E
:10452000ABCFD7011E96ED91FC91309709F4A4CF43
:10453000812F8D7F4B2D612F6F70813F89F0C701D7
:10454000099573CFD7015096ED91FC91EECF433F83
:1045500051F4D7015296ED91FC91309709F48CCF2C
:104560004B2D612FECCF413F09F086CFD7015496F8
:10457000ED91FC91F2CF842F0E945B21882359F0AA
:10458000D7015696ED91FC91309709F475CF612FC4
:10459000C70109954ACF163F09F06ECFD70158964B
:1045A000ED91FC91F1CFFF920F931F93CF93DF9387
:1045B000EC01162F862F0E945B21882391F0FDA02D
:1045C00081E08DA300E020E0412F61E070E0CE01AA
:1045D0000E94E121FDA2DF91CF911F910F91FF90E9
:1045E0000895812F0E9457214DA1882309F443C0CB
:1045F000443029F01AA381E090E09FA38EA3812F7D
:104600000E946121813051F08823A9F0823089F025
:10461000833079F01DA21FA21EA2DDCF8DA300E082
:1046200020E0412F61E070E0CE010E94E1211DA257
:10463000D2CF8DA3D0CF103FB1F0173F59F72EA1A5
:104640003FA1C90163E070E00E94A52CFE01E80FC4
:10465000F91F12A3B9016F5F7F4F7FA36EA30CA157
:104660002BA14AA1E1CF84E08DA31AA381E090E0C1
:104670009FA38EA3B0CF442309F4ADCF2EA13FA1B9
:10468000C90163E070E00E94A52CFE01E80FF91F4C
:1046900012A3B9016F5F7F4F7FA36EA38130910595
:1046A00069F0029709F097CF0CA12BA14AA1CE0186
:1046B0000E94E1218DA18430C9F68DCF00E0423007
:1046C00009F089CFF2CFCF92DF92EF92FF920F9352
:1046D0001F93CF93DF93EC01E8A1F9A1309709F084
:1046E00009956E0188EEC80ED11CC6010E94CD232B
:1046F00010E000E0E82EF12C0E151F0548F0DF91C8
:10470000CF911F910F91FF90EF90DF90CF90089580
:1047100060E0C6010E94E123682FCE010E94D322EF
:1047200061E0C6010E94F1230F5F1F4FE5CFFC013E
:104730004283748363831182108208951F93CF9301
:10474000DF93EC01162F0E940824482F298130E0C6
:10475000C90101966A8170E00E94B92C58815817EE
:10476000190641F4842F0E940B2480E0DF91CF9141
:104770001F9108958B819C81280F391FF9011083A7
:10478000898190E001966A8170E00E94B92C89834A
:10479000842F0E940B2481E0E9CFCF93DF93EC01BB
:1047A0000E94082499812881921740F0C92FC21BCA
:1047B0000E940B248C2FDF91CF910895CA819C0F0A
:1047C000F5CFFC018081860F9927991F628170E0E7
:1047D0000E94B92C23813481280F391FF90180816F
:1047E00008951F93CF93DF93EC01162F0E940824A6
:1047F000282F8881810F9927991F6A8170E00E9474
:10480000B92C8883822FDF91CF911F910C940B24B8
:104810008FB7F89408958FBF0895089508950F9362
:104820001F93CF93DF9300D000D000D00F92CDB76D
:10483000DEB78C01CE0101960E94CB2681110BC000
:1048400027960FB6F894DEBF0FBECDBFDF91CF9194
:104850001F910F9108958A810E9461219A819D8301
:104860009B819E839C819F8381110AC089818430B2
:1048700079F0873069F0863069F08530D9F681E0CB
:10488000AE014B5F5F4F682FC8010E94BD21D2CFA0
:1048900083E0F6CF82E0F4CFDF92EF92FF920F93A6
:1048A0001F93CF93DF9300D000D0CDB7DEB77B014D
:1048B000142FD22E4A832B830C83842F0E946121D4
:1048C000811129C082E0E816F10401F183E0E816C5
:1048D000F10439F0EA94EF2869F485E0173F21F4F8
:1048E00004C087E0073F09F084E08983CE01019688
:1048F0000E94C6260F900F900F900F90DF91CF91DE
:104900001F910F91FF90EF90DF90089587EFD812DD
:10491000EBCF86E0EACF12951F701983E7CF85EAC7
:1049200092E00E948C216CE474E285EA92E00E949D
:10493000D9216FE074E285EA92E00E94DD216DE00A
:1049400074E285EA92E00E9488216EE074E285EAD2
:1049500092E00C9484219B01409196034430C1F471
:10496000FC0191819F709093E90050E040E064E089
:1049700070E0C9010E94C52781110BC09091E80029
:1049800095FD07C09091E8009E779093E800089508
:1049900082E0089520919603243091F4FC018181F6
:1049A0008F708093E9009091F3008091F200892B41
:1049B00049F08091E8008E778093E8000C94732989
:1049C00082E0089580E00895FC0180919603843090
:1049D00059F491819F709093E9008091E80080FFE5
:1049E00003C0CF010C94CA2408959B014091960303
:1049F000443011F080E00895FC0196819F709093FF
:104A0000E9008091E80082FFF5CF8091E80085FF02
:104A1000F1CF50E040E064E070E0C9010E9414284A
:104A20008091E80085FD05C08091E8008B77809338
:104A3000E80081E00895809189020895909196039D
:104A4000943029F580936602709368026093670240
:104A50009093E9008FEF9091E800815095FD06C09A
:104A600095ED9A95F1F700008111F5CF8091E8005E
:104A700085FF0DC050E040E063E070E086E692E024
:104A80000E94C5278091E8008E778093E800089502
:104A9000BC0184E00C941E25BC0183E00C941E250F
:104AA0009C0184E08093E9009FEF8091E8009150A1
:104AB00085FD06C085ED8A95F1F700009111F5CFCF
:104AC0008091E80085FF0CC050E040E066E070E0B7
:104AD000C9010E94C5278091E8008E778093E80085
:104AE0000895CF93DF93EC01809125018823B1F1E4
:104AF00080918B0287FF32C060E284E08093E900FE
:104B00008FEF9091E800815095FD06C095ED9A9544
:104B1000F1F700008111F5CF8091E80085FF1BC0FF
:104B20008091250170E050E040E0811104C050E028
:104B300040E068E070E0CE010E94C5278091E80067
:104B40008E778093E80080E2FE01A9E6B2E0019052
:104B50000D928A95E1F7DF91CF91089568E081E0A9
:104B6000CDCFCF93FC01603221F580919603843044
:104B700001F5C091E900CF702091EC00922F917067
:104B800020FD90E8C92B82E08093E9008091E80045
:104B900080FF0CC050E040E060E270E0CF010E9476
:104BA000C5278091E8008E778093E800CF70C0938E
:104BB000E900CF91089580919503811109C00E9469
:104BC000A4290E94012A8091E20084608093E2007F
:104BD000089510929503089508950895089542E068
:104BE00061EC81E00E94202942E261EC84E00E94B5
:104BF000202942E261EC82E00E94202942E260EC3E
:104C000083E00E94202942E361E885E00E94202998
:104C100042E361E886E00C94202980919803833078
:104C200009F461C030F48130D1F1823009F49DC0C3
:104C300008958A3009F489C08B3009F46FC0893037
:104C400009F050C080919703813209F04BC08091E8
:104C50009B0390919C03009719F0029709F042C0C2
:104C60008091E800877F8093E8008091E80082FFD0
:104C700035C09091F3008091F200029729F4809161
:104C8000F1008B7F813021F48091F10080938902C3
:104C90008091E8008B778093E8000C9454298091F0
:104CA0009703813AF9F48091E800877F8093E800C8
:104CB00080919B0390919C03892B61F460E289E6CB
:104CC00092E070E00E9463288091E8008B778093E7
:104CD000E800089560E090E080E0F3CF80919603D3
:104CE0008111C3CF089580919703813AD9F78091BC
:104CF0009B0390919C03892BA9F78091E800877F03
:104D00008093E8008091E80080FFFCCF809125012E
:104D10008093F1008091E8008E77BDCF809197035A
:104D2000813201F780919B0390919C03892BD1F6EE
:104D30008091E800877F8093E8000E945429809149
:104D40009903809325010C9449088091970381323F
:104D500049F68091E800877F8093E8000E945429FB
:104D600080919A0380938A02089580919703813AF3
:104D700009F0B8CF8091E800877F8093E8008091A8
:104D8000E80080FFFCCF80918A02C2CFBC018FE097
:104D900091E00C94AB24BC018FE091E00C94F524DD
:104DA0000E948F2484B7877F84BF0FB6F894A8959C
:104DB00080916000886180936000109260000FBE57
:104DC00080E890E00FB6F8948093610090936100C2
:104DD0000FBE0C94C40E0E94A4290E94012AE2EE88
:104DE000F0E080818460808378940E948A2C0E9405
:104DF000D80E8BE191E00C943F1FCF93DF93CDB79A
:104E0000DEB7A0970FB6F894DEBF0FBECDBF80917E
:104E10009603853031F4809196038530B1F10E947C
:104E2000AB200E94E40E8FE091E00E94E424809188
:104E30009603843009F583E08093E9008091E800CF
:104E400082FF1AC08091E80090E085FF09C050E021
:104E500040E060E270E0CE0101960E94142891E0EB
:104E60008091E8008B778093E800992329F060E235
:104E7000CE0101960E94EC1AA0960FB6F894DEBF00
:104E80000FBECDBFDF91CF9108950E946520809124
:104E90009403882309F4BFCF0E949420882309F447
:104EA000BACF0E94AF270E944908B5CF0C9458276B
:104EB000292F33272330310521F168F421303105C2
:104EC00009F443C02230310509F444C090E080E089
:104ED00030E020E026C02132310551F12232310587
:104EE000A9F76330710590F7FB01EE0FFF1FE65441
:104EF000FE4F2081318169547E4FFB01808190E01B
:104F000010C099278130910581F0009729F0029710
:104F1000E9F6E4EDF2E002C0E8EFF2E0849190E01F
:104F20009F01FA01318320830895E0EEF2E0F6CF8D
:104F30006330710558F6660F771FFB01E054FE4F92
:104F40002081318189E090E0ECCF82E190E02BEB91
:104F500033E0E7CF8FEB90E02CEF32E0E2CF80E15F
:104F600089BD82E189BD09B400FEFDCF8091D800E2
:104F70008F7D8093D8008091E00082608093E00074
:104F80008091E00081FDFCCF0895AF92BF92CF9257
:104F9000DF92FF920F931F93CF93DF936C01EB018E
:104FA0008A010E947329F82E811123C00115110571
:104FB00039F0F80180819181C81BD90BC80ED91E28
:104FC000B12CA12C2097A9F08091E80085FD22C08A
:104FD0008091E8008E778093E80001151105A1F01B
:104FE000F80180819181A80EB91EB182A08285E06E
:104FF000F82E8F2DDF91CF911F910F91FF90DF90B1
:10500000CF90BF90AF9008950E9473298823D1F26A
:10501000F82EEFCFF60181916F018093F100219777
:10502000FFEFAF1ABF0ACECFAF92BF92CF92DF92FF
:10503000FF920F931F93CF93DF936C01EB018A01D3
:105040000E947329F82E811123C00115110539F032
:10505000F80180819181C81BD90BC80ED91EB12CD3
:10506000A12C2097A9F08091E80085FD22C08091B5
:10507000E8008B778093E80001151105A1F0F80195
:1050800080819181A80EB91EB182A08285E0F82EA0
:105090008F2DDF91CF911F910F91FF90DF90CF90D7
:1050A000BF90AF9008950E9473298823D1F2F82E03
:1050B000EFCF8091F100F60181936F012197FFEF0F
:1050C000AF1ABF0ACECFFC0180919D0390919E0341
:1050D00086179707A0F06115710529F49091E800F3
:1050E0009E779093E80090E06115710551F491115D
:1050F00008C08091E80082FF34C080E00895BC01C0
:10510000F2CF809196038823C1F18530C1F180915F
:10511000E80083FD30C08091E80082FDEACF8091F5
:10512000E80080FFE1CF8091F3002091F200382F5A
:105130006115710519F02830310558F091E02830DB
:10514000310509F090E02091E8002E772093E800E7
:10515000CBCF81918093F100615071092F5F3F4F58
:10516000E7CF80919603882341F0853041F080910C
:10517000E80083FFBECF81E0089582E0089583E0D8
:105180000895FC0180919D0390919E0386179707D7
:10519000A0F06115710529F48091E8008E77809365
:1051A000E80090E06115710551F4911108C08091FB
:1051B000E80082FF35C080E00895BC01F2CF809105
:1051C00096038823C9F18530C9F18091E80083FDF9
:1051D00031C08091E80082FDEACF8091E80080FF35
:1051E000E1CF8091F3002091F200382F6115710515
:1051F00019F02830310558F091E02830310509F0D8
:1052000090E08091E8008E778093E800CBCF849186
:105210008093F1003196615071092F5F3F4FE6CFC7
:1052200080919603882341F0853041F08091E80019
:1052300083FFBDCF81E0089582E0089583E0089563
:10524000982F973028F08F708093E90081E00895BF
:105250009093E900242F762F50E0981731F0709149
:10526000EC002091ED005091F00021FD02C09F5F05
:10527000E8CF3091EB003E7F3093EB003091ED00B2
:105280003D7F3093ED003091EB0031603093EB00C7
:105290007093EC002093ED005093F0002091EE000D
:1052A00027FDE5CF80E008958091970387FF13C025
:1052B0008091E80082FF06C08091E8008B778093A0
:1052C000E80004C0809196038111F2CF0895809187
:1052D00096038823D9F38091E80080FFF8CF80916E
:1052E000E8008E77ECCF2091E4003091E50095E660
:1052F000A9012091EC00822F817020FF06C08091CF
:10530000E80080FF06C080E008952091E80022FDBB
:105310001AC080919603882389F0853089F08091A6
:10532000EB0085FD0FC02091E4003091E5004217AD
:105330005307F9F29150E1F684E0089582E0089570
:1053400083E0089581E008950E94122A0E941A2A9B
:10535000E0EEF0E0808181608083E8EDF0E0808124
:105360008F77808319BCA7EDB0E08C918E7F8C93F2
:1053700080818F7E80831092950308950F931F93F1
:10538000CF93DF930E94122A0E941A2AC8EDD0E020
:1053900088818F77888388818068888388818F7DE2
:1053A000888319BC10929603109292031092940372
:1053B0001092930300EE10E0F80180818B7F8083D0
:1053C00088818160888342E060E080E00E9420293B
:1053D000E1EEF0E080818E7F8083E2EEF0E080817C
:1053E00081608083808188608083F80180818E7FE6
:1053F0008083888180618883DF91CF911F910F9195
:105400000895E8EDF0E080818F7E8083E7EDF0E0A5
:1054100080818160808384E082BF81E080939503F6
:105420000C94BE29E8EDF0E080818E7F808310929D
:10543000E20008951092DA001092E10008951F92A0
:105440000F920FB60F9211242F933F934F935F93B8
:105450006F937F938F939F93AF93BF93EF93FF933C
:105460008091E10082FF0BC08091E20082FF07C0C3
:105470008091E1008B7F8093E1000E94892C8091D4
:10548000DA0080FF19C08091D80080FF15C080919C
:10549000DA008E7F8093DA008091D90080FF96C079
:1054A00080E189BD82E189BD09B400FEFDCF81E0C4
:1054B000809396030E94DB258091E10080FF19C054
:1054C0008091E20080FF15C08091E2008E7F809382
:1054D000E2008091E20080618093E2008091D80038
:1054E00080628093D80019BC85E0809396030E9467
:1054F000ED258091E10084FF2BC08091E20084FFC4
:1055000027C080E189BD82E189BD89B5982F91705E
:1055100080FFFBCF8091D8008F7D8093D800809151
:10552000E1008F7E8093E1008091E2008F7E809386
:10553000E2008091E20081608093E200809192031A
:10554000882309F449C084E0809396030E94EE25E5
:105550008091E10083FF29C08091E20083FF25C094
:105560008091E100877F8093E10082E08093960341
:10557000109292038091E1008E7F8093E1008091F0
:10558000E2008E7F8093E2008091E2008061809350
:10559000E20042E060E080E00E9420298091F0007B
:1055A00088608093F0000E94EC25FF91EF91BF91FD
:1055B000AF919F918F917F916F915F914F913F91AB
:1055C0002F910F900FBE0F901F90189519BC10923D
:1055D00096030E94E92570CF8091E30087FD93E058
:1055E00090939603B3CF1F920F920FB60F92112490
:1055F0002F933F934F935F936F937F938F939F93DB
:10560000AF93BF93CF93DF93EF93FF93D091E900D4
:10561000DF708091EC00C82FC17080FDC0E810924F
:10562000E9008091F000877F8093F00078940E94D9
:10563000372B1092E9008091F00088608093F00091
:10564000CD2BCF70C093E900FF91EF91DF91CF9107
:10565000BF91AF919F918F917F916F915F914F918A
:105660003F912F910F900FBE0F901F9018951F9391
:10567000CF93DF93CDB7DEB7AA970FB6F894DEBF0E
:105680000FBECDBF87E993E02091F100FC0121938B
:10569000CF01F3E08F399F07B9F70E940D26809163
:1056A000E80083FF1EC180919703909198039A3080
:1056B00008F017C1E92FF0E0EE59F24D0C94CD2C13
:1056C000803899F0823809F00CC180919B038F706B
:1056D000873008F006C18093E9008091EB0085FBDC
:1056E000882780F91092E90006C080919303909179
:1056F0009403911182609091E800977F9093E80065
:105700008093F1001092F1008091E8008E77E5C05F
:10571000882309F4D3C0823009F0E3C08091990353
:105720008111D6C080919B038F702FEF280F2630F8
:1057300008F0D7C08093E9002091EB0020FFC8C09B
:10574000933031F48091EB0080628093EB00C0C015
:105750009091EB0090619093EB0021E030E001C06C
:10576000220F8A95EAF72093EA001092EA008091CE
:10577000EB008860EACF8111B4C0109199031F77C4
:105780008091E3008078812B8093E3008091E80092
:10579000877F8093E8000E9454298091E80080FF71
:1057A000FCCF8091E30080688093E30082E01111D8
:1057B00083E08093960395C08058823008F091C0B2
:1057C0008091990390919A038C3D23E09207A1F573
:1057D00083E08A838AE289834FB7F894DE011396C7
:1057E00020E03EE051E2E32FF0E050935700E491D7
:1057F00020FF03C0E295EF703F5FEF708E2F90E0C7
:10580000EA30C0F0C7968D939D932F5F243159F7EE
:105810004FBF8091E800877F8093E8006AE270E0E4
:10582000CE0101960E9463288091E8008B778093D7
:10583000E80057C0C096E7CF60919B0370919C032E
:10584000AE014F5F5F4F0E945627BC01892B09F4C0
:1058500048C09091E800977F9093E80089819A81F1
:105860000E94C128E1CF8038E1F58091E800877F70
:105870008093E800809192038093F10045CF8111DD
:1058800030C090919903923060F58091E800877F55
:105890008093E800909392030E9454298091920390
:1058A000882311F084E005C08091E30087FDFACFE2
:1058B00081E0809396030E94EF2513C080919903A5
:1058C000813079F481E0933009F080E08093940393
:1058D0001092E9008091E800877F8093E8000E94A1
:1058E00054298091E80083FF0AC08091E800877FF7
:1058F0008093E8008091EB0080628093EB00AA9691
:105900000FB6F894DEBF0FBECDBFDF91CF911F91D0
:1059100008950895CF93809196038823A1F0C091B4
:10592000E900CF709091EC00892F817090FD80E8A4
:10593000C82B1092E9008091E80083FD0E94372B6C
:10594000CF70C093E900CF910895AA1BBB1B51E112
:1059500007C0AA1FBB1FA617B70710F0A61BB70BDF
:10596000881F991F5A95A9F780959095BC01CD0184
:10597000089597FB072E16F4009407D077FD09D001
:105980000E94A52C07FC05D03EF4909581959F4F71
:105990000895709561957F4F0895EE0FFF1F059054
:1059A000F491E02D0994692796276927782787279E
:1059B00078270895FB01DC0104C08D9101908019C6
:1059C00021F441505040C8F7881B990B0895F9996C
:1059D000FECF92BD81BDF89A992780B50895A6E1C2
:1059E000B0E044E050E00C94212DA8E1B0E042E0AA
:1059F00050E00C94212D262FF999FECF92BD81BD48
:105A0000F89A019700B4021639F01FBA20BD0FB6FC
:105A1000F894FA9AF99A0FBE08950396272F0E94D8
:105A2000FC2C0E94FB2C252F0E94FC2C242F0C9474
:105A3000FC2C0196272F0E94FC2C0C94FB2CDC01E3
:105A4000CB01FC01F999FECF06C0F2BDE1BDF89A89
:105A5000319600B40D9241505040B8F70895F89433
:105A6000FFCF370637068F068F06E106FD06640670
:105A7000640608076F077E077E07DA076406640678
:105A8000E30758085808610861086308610861085D
:105A90006108580858086808610861086808FD1A14
:105AA000071B2C1B381B431B4E1B511B541B571B26
:105AB000A01BA01B5A1B5E1B661B731B801B831B3A
:105AC000861B931B602B882B712C882B712CBB2B76
:085AD000DC2B712C332C3F2C60
