:100000000C9442060C945B310C9489060C9489067E
:100010000C9489060C9489060C9489060C94890624
:100020000C9489060C9489060C949A270C945627F4
:100030000C9480300C9489060C9489060C948906E3
:100040000C9489060C9489060C9489060C948906F4
:100050000C9489060C945C300C9489060C948906E7
:100060000C9489060C9489060C9489060C948906D4
:100070000C9489060C9489060C9489060C948906C4
:100080000C9489060C9489060C9489060C948906B4
:100090000C9489060C9489060C9489060C948906A4
:1000A0000C9489060C9489060C9489060631FF0984
:1000B00074A1010975150026FF00952075088102BD
:1000C0000976150026FF00952075089102C00501EC
:1000D0000980A101850319012AB700150126B7007F
:1000E000950175108100C0050C0901A10185041955
:1000F000012AA002150126A002950175108100C0F9
:100100000660FF0961A1010962150026FF00952024
:10011000750881020963150026FF00952075089176
:1001200002C005010906A101050719E029E715002C
:100130002501950875018102950175088101050762
:10014000190029FF150026FF009506750881000596
:10015000081901290595057501910295017503910D
:1001600001C00001010101010101010102020202BD
:100170000202020202030303030303030304040451
:10018000040404040505050505060606060607071A
:1001900007070708080808090909090A0A0A0B0BD2
:1001A0000B0C0C0C0D0D0D0E0E0E0F0F0F10101171
:1001B00011111212131314141515161617171818F7
:1001C00019191A1A1B1B1C1D1D1E1E1F202021225F
:1001D00022232424252626272829292A2B2C2D2DA5
:1001E0002E2F30313232333435363738393A3B3CC2
:1001F0003D3E3F404142434445464748494A4C4DB5
:100200004E4F50515354555658595A5B5D5E5F617D
:100210006264656668696B6C6D6F70727375777810
:100220007A7B7D7E8082838587888A8C8E8F91936E
:100230009596989A9C9EA0A2A3A5A7A9ABADAFB195
:10024000B3B5B7BABCBEC0C2C4C6C9CBCDCFD1D47A
:10025000D6D8DBDDDFE2E4E7E9EBEEF0F3F5F8FA20
:10026000FDFF7267626C69676874206D6F6465205A
:100270005B4E4F454550524F4D5D3A2025750A0063
:100280007267626C69676874206D6F6465205B4596
:100290004550524F4D5D3A2025750A007267626CD9
:1002A0006967687420656E61626C65205B454550C6
:1002B000524F4D5D3A207267626C696768745F6384
:1002C0006F6E6669672E656E61626C65203D2025E4
:1002D000750A007267626C6967687420646973618B
:1002E000626C65205B4E4F454550524F4D5D3A2044
:1002F0007267626C696768745F636F6E6669672EA8
:10030000656E61626C65203D2025750A007267622A
:100310006C696768742073657420687376205B4E1F
:100320004F454550524F4D5D3A2025752C25752C73
:1003300025750A007267626C69676874207365745A
:1003400020687376205B454550524F4D5D3A20251D
:10035000752C25752C25750A007267626C696768B3
:1003600074207261696E626F7720736574206873A0
:10037000763A2025642C25642C25642C25750A00EA
:10038000FFAA7F55400102030C0D0E0F0007060562
:10039000040B0A09087267626C69676874207469E3
:1003A0006D657220656E61626C65642E0A0072670D
:1003B000626C696768742074696D65722064697322
:1003C00061626C652E0A002223252628292A2C2DFD
:1003D0002F3032333536383A3B3D3E404243454775
:1003E000494A4C4E5051535557595A5C5E606264AD
:1003F0006668696B6D6F71737577797B7D7F8183BB
:100400008587898A8C8E90929496989A9C9E9FA1BB
:10041000A3A5A7A8AAACAEAFB1B3B4B6B8B9BBBCDC
:10042000BEBFC1C2C3C5C6C7C9CACBCCCDCED0D151
:10043000D2D2D3D4D5D6D7D7D8D9D9DADADBDBDB49
:10044000DCDCDCDCDCDDDDDDDDDCDCDCDCDCDBDBEA
:10045000DBDADAD9D9D8D7D7D6D5D4D3D2D2D1D03E
:10046000CECDCCCBCAC9C7C6C5C3C2C1BFBEBCBB3B
:10047000B9B8B6B4B3B1AFAEACAAA8A7A5A3A19FB3
:100480009E9C9A98969492908E8C8A898785838177
:100490007F7D7B79777573716F6D6B696866646258
:1004A000605E5C5A5957555351504E4C4A49474526
:1004B0004342403E3D3B3A3836353332302F2D2CC7
:1004C0002A2928262523226261636B6C6967687478
:1004D00020656E61626C650A00A800290035021E65
:1004E000001F0020002100220023003A003B002BC7
:1004F0000014001A0008001500170000003E003F1D
:1005000000390004001600070009000A000000403E
:10051000004100E10064001D001B000600190005F9
:100520000042004300E000E200E30001512C002CF7
:1005300000000024002500260027002D002E004C7E
:10054000002A004A001C0018000C00120013002FA3
:1005500000300031004D000B000D000E000F003385
:10056000003400320028004B001100100036003724
:100570000038000000E50052004E0001512C00E65A
:1005800000E400E7000000500051004F00010001AE
:1005900000165C3A003B003C003D003E003F00017D
:1005A000000100C35CC45C010052000100010000B6
:1005B000000100010001000100500051004F000146
:1005C0000000000100010001000100010001000124
:1005D00000010001000100010035020100010001DD
:1005E00000010001000000400041004200430044BF
:1005F0000045004C002A000100010001000100013B
:1006000000010001000100010001000100010001E2
:1006100000010001000100010001000100010001D2
:1006200000010001000100000001000100010001C3
:1006300000010001000100010000000100010001B3
:1006400000010001000100010001000100010001A2
:100650000001000100010001000100010001000192
:100660000001000000010001000100010001000183
:100670000001000100000001000100010001000173
:100680000001000100010001000100010001000162
:100690000001000100010001000000010001000153
:1006A0000001000100010001000100010001000142
:1006B0000001000100010001000100010001000132
:1006C0000001000100010001000100010001000122
:1006D0000001000100010001000100000001000113
:1006E0000001000100010001000100010000000103
:1006F00000010001000100010001000100010001F2
:1007000000010001000100010001000100010001E1
:1007100000010001000100000001000100010001D2
:1007200000010001000100010000000100010001C2
:1007300000010001000100010001000100010001B1
:1007400000010001000100010001000100000001A2
:100750000001000100010001000100010001000191
:100760000001000100010001000100010001000181
:100770000001000100010001000100010001000171
:100780000001000100010001000100010001000062
:100790000001000100010001000100010001000151
:1007A0000000000100010001000000000000000046
:1007B000000000000000000000000000007E0F00AC
:1007C000D4FFFFFFC7000000780000000000000019
:1007D000002A2B280000000000000000000000009C
:1007E0000000000029000000002C1E3420212224DB
:1007F000342627252E362D3738271E1F2021222369
:100800002425263333362E37381F040506070809FA
:100810000A0B0C0D0E0F10111213141516171819C0
:100820001A1B1C1D2F3130232D350405060708091E
:100830000A0B0C0D0E0F10111213141516171819A0
:100840001A1B1C1D2F3130354C6261636B6C69675C
:1008500068742064656372656173653A2025750A62
:10086000006261636B6C6967687420696E637265AE
:100870006173653A2025750A006261636B6C696774
:1008800068742064697361626C650A006261636BFD
:100890006C6967687420746F67676C653A202575AA
:1008A0000A006261636B6C696768742073746570B9
:1008B0003A2025750A007267626C69676874206463
:1008C000697361626C65205B454550524F4D5D3ADE
:1008D000207267626C696768745F636F6E666967D0
:1008E0002E656E61626C65203D2025750A00726779
:1008F000626C6967687420746F67676C65205B451C
:100900004550524F4D5D3A207267626C696768745A
:100910005F636F6E6669672E656E61626C65203D10
:100920002025750A0044454255473A2064697361A1
:10093000626C65642E0A0044454255473A20656E54
:1009400061626C65642E0A000A002530325820006E
:100950006B6579626F6172645F7265706F72743A11
:1009600020007267626C696768745F636F6E6669A6
:10097000672E7370656564203D2025640A007267E8
:10098000626C696768745F636F6E6669672E766113
:100990006C203D2025640A007267626C6967687488
:1009A0005F636F6E6669672E736174203D202564F6
:1009B0000A007267626C696768745F636F6E66696C
:1009C000672E687565203D2025640A007267686C93
:1009D000696768745F636F6E6669672E6D6F6465C3
:1009E000203D2025640A007267626C696768745F45
:1009F000636F6E6669672E656E61626C65203D206F
:100A000025640A007267626C696768745F636F6E61
:100A100066696720454550524F4D3A0A0072676239
:100A20006C696768745F696E6974207267626C696B
:100A30006768745F636F6E6669672E6D6F646520AB
:100A40003D20302E2057726974652064656661759B
:100A50006C742076616C75657320746F2045455009
:100A6000524F4D2E0A007267626C696768745F6945
:100A70006E6974206565636F6E66696720697320AF
:100A80006E6F7420656E61626C65642E0A00726719
:100A9000626C696768745F696E69742073746172EF
:100AA00074210A007267626C696768745F696E69B5
:100AB000742063616C6C65642E0A000A0025303175
:100AC0003662003A200025303258000A722F632027
:100AD0003031323334353637383941424344454674
:100AE0000A007267626C6967687420616E696D6183
:100AF00074696F6E207469636B207265706F7274B5
:100B000020746F20736C6176650A0032190A000444
:100B10007F3F1F643214643214783C1E1E140A0591
:100B20000A0025303258006B6579626F6172645F2C
:100B30007365745F6C65643A20007267626C696704
:100B4000687420656E61626C65205B4E4F45455050
:100B5000524F4D5D3A207267626C696768745F63DB
:100B60006F6E6669672E656E61626C65203D20253B
:100B7000750A007267626C69676874207365742017
:100B80007370656564205B4E4F454550524F4D5D17
:100B90003A2025750A005B735D004B6579626F61D1
:100BA00072642073746172742E0A005B435D005B93
:100BB000445D005B535D005B575D005B525D000967
:100BC000027B00040100A0FA0904000001030101F6
:100BD00000092111010001224000070581030800DE
:100BE0000A090401000203000000092111010001AB
:100BF00022220007058203200001070503032000CD
:100C00000109040200010300000009211101000193
:100C10002232000705840320000A090403000203AE
:100C200000000009211101000122220007058503AF
:100C3000200001070505032000011201100100003A
:100C4000000810CB573200030102000122035100BB
:100C5000750065006600720065006E006300790033
:100C600020005200650076002E00200033000000B6
:100C70000E034B0065006500620069006F00000014
:100C80000403090411241FBECFEFDAE0DEBFCDBF9D
:100C900004B603FE27C08091820390918303A09144
:100CA0008403B09185038730904BA740B04BD1F4BB
:100CB0001092820310928303109284031092850392
:100CC00014BE84B7877F84BF0FB6F894A89580912F
:100CD0006000886180936000109260000FBEE0E0C9
:100CE000F8E3099523E0A2EDB1E001C01D92A2381E
:100CF000B207E1F711E0A0E0B1E0E2E5F8E602C0FA
:100D000005900D92A23DB107D9F70E94CF280C940F
:100D1000DC330C940000FF93EF93E091D201F0914B
:100D2000D301309709F00995EF91FF910895FC01E7
:100D30008591803011F0EFDFFBCF0895FF27E0E2CF
:100D400030E247FF0CC0419597FF09C0EDE2609586
:100D5000709580959095611D711D811D911D27FFD6
:100D600002C0219530E350E2AA27660F771F881F43
:100D7000991FAA1FA41710F0A41B63955A95A9F7F1
:100D8000AA3008F0A95FA05DAF93F39561157105D6
:100D90008105910541F7ED3211F4EF93F395F217C8
:100DA00018F43F93F395FBCF8F91B5DFFA95E1F7F8
:100DB0000895E991F9918591803021F0853219F0FB
:100DC000AADFF9CF089520E0E89455915532C1F398
:100DD000503311F4689455915A3348F4505390F3BA
:100DE000220F022E220F220F200D250FF4CF0EF41A
:100DF000219589919991533619F3533729F1533538
:100E000059F1BC0188279927E8945C3621F489912F
:100E1000999168945591543639F446EF7EF077FFF6
:100E20000DC08FEF9FEF0AC055374AE039F05835B3
:100E300040E121F0523642E009F00895FF93EF932C
:100E40007DDFEF91FF91B7CFFF93EF93FC0181918D
:100E50008030B9F360DFFBCFFF93EF9368DFF1CF12
:100E6000DF93CF93CDB7DEB72596A3DFCF91DF9188
:100E70000895E8EDF0E080818E7F80831092E2009B
:100E80001092DA001092E100A0EEB0E08C91816047
:100E90008C9380818F77808319BCA7EDB0E08C9113
:100EA0008E7F8C9380818F7E808310926103089562
:100EB0002091E4003091E50095E6A9012091EC0035
:100EC000822F817020FF06C08091E80080FF06C05D
:100ED00080E008952091E80022FD1AC080916E0301
:100EE000882389F0853089F08091EB0085FD0FC063
:100EF0002091E4003091E50042175307F9F2915038
:100F0000E1F684E0089582E0089583E0089581E0A9
:100F10000895EF92FF920F931F93CF937C018B0163
:100F20000E945807C82F811117C08091E80085FDE5
:100F30000BC08091E8008E778093E8000E945807EC
:100F4000882399F3C82F08C0F70181917F0180930E
:100F5000F1000150110949F78C2FCF911F910F918A
:100F6000FF90EF9008958091700387FF13C08091E8
:100F7000E80082FF06C08091E8008B778093E8004C
:100F800004C080916E038111F2CF089580916E03A9
:100F90008823D9F38091E80080FFF8CF8091E800A2
:100FA0008E77ECCF982F9093E900242F762F50E086
:100FB000891731F07091EC002091ED005091F00014
:100FC00021FD07C09F5F973071F78093E90081E0B2
:100FD00008953091EB003E7F3093EB003091ED00AF
:100FE0003D7F3093ED003091EB0031603093EB00AA
:100FF0007093EC002093ED005093F0002091EE00F0
:1010000027FDE0CF80E00895CF92DF92EF92FF922C
:101010000F931F93CF93DF93C8EDD0E088818F7E2D
:101020008883E7EDF0E080818160808384E082BF87
:1010300081E08093610388818E7F888302EE10E0D7
:10104000F80110821092DA0081EEC82ED12CF60140
:10105000108288818F7788838881806888838881DF
:101060008F7D888319BC10926E0310926F031092CB
:101070006D0310926C0390EEE92EF12CF701808144
:101080008B7F808388818160888342E060E080E09C
:101090000E94D207F60180818E7F8083F8018081D3
:1010A00081608083808188608083F70180818E7F6A
:1010B0008083888180618883DF91CF911F910F9118
:1010C000FF90EF90DF90CF900895FC018091760320
:1010D0009091770386179707A0F06115710529F4A1
:1010E0009091E8009E779093E80090E0611571057B
:1010F00051F4911108C08091E80082FF34C080E073
:101100000895BC01F2CF80916E038823C1F1853030
:10111000C1F18091E80083FD30C08091E80082FD3C
:10112000EACF8091E80080FFE1CF8091F300209129
:10113000F200382F6115710519F02830310558F08B
:1011400091E02830310509F090E02091E8002E77F9
:101150002093E800CBCF81918093F1006150710919
:101160002F5F3F4FE7CF80916E03882341F085309A
:1011700041F08091E80083FFBECF81E0089582E0D6
:10118000089583E008950895089580916303089574
:101190009C014FB7F89480915B0390915C03A09100
:1011A0005D03B0915E034FBF821B930B08952FB771
:1011B000F89480915B0390915C03A0915D03B091E2
:1011C0005E032FBF08958091F70281111092F702FC
:1011D0000895E6EDF1E09191891303C0DF011197C5
:1011E0001C9291E0EC3DF907B1F70895A6EDB1E04E
:1011F000EFEF90E02D91821751F0EF3F19F421119C
:1012000001C0E92F9F5F9630A9F7EF3F09F40895D9
:101210000E2E000CFF0BEC52FE4F8283089529E046
:10122000929F800D1124982F9770869586958695AC
:1012300025E0829FF0011124E954FD4F50E040E089
:1012400080E0219130E0092E02C0369527950A945E
:10125000E2F721703327042E01C0220F0A94EAF727
:10126000822B4F5F5F4F4530510559F7089529E0B4
:10127000929F800D1124982F977041E001C0440F78
:101280009A95EAF786958695869595E0899FF0016F
:101290001124E954FD4F90E080E070E05191DF01AE
:1012A00011979B01082E02C0369527950A94E2F704
:1012B000217021952527242325272C9301968530FD
:1012C000910561F708958091B60290918502981377
:1012D00001C008958F5F8770FACF20917C02309112
:1012E0007D022817390771F090937D0280937C026C
:1012F000E0911703F0911803309721F00084F185F5
:10130000E02D0994089520917A0230917B022817EC
:10131000390771F090937B0280937A02E091170372
:10132000F0911803309721F00680F781E02D0994A1
:101330000895E0911703F0911803309721F0019080
:10134000F081E02D099480E00895CF92DF92EF9232
:10135000FF92843030F5811125C0909180009F77F5
:10136000909380002D98282F30E0AFEFBFEF0E94C0
:10137000CD3323E030E040E050E00E94AB33C901C0
:101380002C3764E13607A0F469E070E00E948432F3
:101390007093890060938800FF90EF90DF90CF906A
:1013A000089583E090918000906890938000DBCF57
:1013B0002A50374D4F4F5F4F942F832F722F662740
:1013C00025EF38E241E050E00E94AB3369017A0139
:1013D000CA01B9010E9468329B01AC01C701B60184
:1013E0000E946832672F782F892F99276115710520
:1013F00021E08207910561F66FEF7FEFC9CF282FBB
:10140000220F220F220F909140039770922B9093FE
:101410004003987F21E009F420E09091400320FBF5
:1014200090F9909340030C94A509FA01811101C031
:10143000FB01099480914203982F9E7F29F48170CB
:1014400082608093420308958635E8F38170846555
:10145000F8CFAF92BF92DF92EF92FF920F931F935C
:10146000CF93DF93082F162FE901E42FF0E0EE5918
:10147000FE4F611110C0E4915E2F4E2F4983E88327
:101480005A83DF91CF911F910F91FF90EF90DF90E2
:10149000BF90AF900895E62EF12C4491D42EE42F06
:1014A000F0E026E0829FC00111242FEF30E0B90167
:1014B0000E948432802F90E0880F991F55E5569F37
:1014C000D001579FB00D11248A1B9B0B982F990FA9
:1014D000890F5901AE18BF08AE9ED001AF9EB00D66
:1014E000BE9EB00D11245B2F189F80011124012F87
:1014F00011275901A01AB10AAE9E8001AF9E100DAE
:10150000BE9E100D11245901A81AB108AE9CC0014D
:10151000AF9C900DBE9C900D1124892F9927281BFC
:10152000390B2E9FC0012F9F900D3E9F900D1124CF
:10153000E92F62307105A1F050F46115710509F4CD
:101540009DCF6130710581F0EB2F512F97CF643023
:10155000710569F080F06630710509F48FCFF4CF22
:10156000E42F4B2F592F8ACFE42F412F87CFEB2F1A
:10157000542F492F83CF4B2F5D2DE12F7FCFF89430
:10158000E82FE295EF70F0E031A1282F2F7081E075
:1015900090E001C0880F2A95EAF7982F9095932341
:1015A00091A392A1892B82A378940895909113031B
:1015B00092FF06C0282F28712830F9F4877F8460B5
:1015C00093FF06C0282F28712831F1F4877E8461AB
:1015D0002091140320FF06C0382F38713830D9F419
:1015E000877F816021FF06C0282F28712831D1F420
:1015F000877E816194FD877E0895282F2471243091
:10160000F9F68B7F8860DCCF282F2471243101F715
:101610008B7E8861DDCF382F3171313019F78E7FA5
:101620008860E0CF282F2171213121F78E7E8861DB
:10163000E1CF90913A01992329F081FD02C02E9AC1
:1016400008952E980895829590E09C01220F331FF3
:10165000220F331F2C7C95958795959587958373DD
:10166000282B30E0C901880F991F8A7A3595279574
:101670002575822B0895CF9384E090E00E9431334A
:10168000C82F81E290E00E943133982F8C2FCF91A8
:1016900008950F931F93CF93DF93C42FD0E0CC0F07
:1016A000DD1F22E1629FC00DD11D112434EB839F09
:1016B000C00DD11D1124CE0187960E943133082F11
:1016C00010E0102F0027CE0188960E943133980138
:1016D000282BC901DF91CF911F910F910895462FBB
:1016E000843038F47A3028F4693018F4672F0C9479
:1016F000490B90E080E00895CF93DF930E946F0B39
:10170000EC0182389105A9F1D8F58133910509F4EE
:1017100096C048F58932910509F48AC08A9709F480
:1017200095C0C11522E5D20708F0B6C0C11531E554
:10173000D30708F026C1C83ED10508F09CC0C13EC1
:10174000D10560F5C83AD10508F087C0C53AD10582
:1017500008F0EFC0C130D10509F12097F9F0C4308D
:10176000D105E0F440C08533910509F45AC0C9970A
:10177000C1F680911303837089F0C0EED0E00EC0F3
:10178000833E910599F170F4803E910501F1823E0E
:10179000910539F68091130382FD21C0CE01DF91BE
:1017A000CF910895863E910561F1873E910571F1D3
:1017B000843E910509F0B5CF8091140381FFEECFEF
:1017C00080911303C7EED0E084FD0DC0E7CF809178
:1017D000130380FD07C19091140390FFDFCFC3EE88
:1017E000D0E084FFDBCFD0E0C0E0D8CF80911303FE
:1017F00082FDFBC09091140390FDBFCF84FFCECF3C
:10180000F2CF8091130383FDDDCFC8CF8091130306
:1018100083FDEEC09091140391FFF0CFC4EED0E0B1
:10182000BDCF8091130385FFB9CFC9E2D0E0B6CF19
:101830008091130385FFB2CFC5E3D0E0AFCF809195
:10184000130386FFABCFCAE2D0E0A8CF8091130389
:1018500086FFA4CFC1E3D0E0A1CFCF3BD10518F6DE
:10186000C85AD0E0CC0FDD1FC158DE4F0990D88197
:10187000C02DD46493CFC11540E5D40708F064C0EF
:10188000C11580E4D80708F05CC0CE019A95811597
:101890009F4108F483CFA7CFC11536E5D30718F5CC
:1018A000C11545E5D40708F084C0C11584E5D80703
:1018B00008F07AC09C2F969596959E012370332749
:1018C000C115D34508F462C0C1E0D0E002C0CC0F1E
:1018D000DD1F2A95E2F730E2939FC0011124C82B47
:1018E000D92BDA685BCFC1158AE5D80778F4C11522
:1018F00099E5D90708F068C0C11528E5D20708F4B2
:1019000072CFDC2FCC27C06FD06A48CFCE01905663
:101910008115904208F067CF8D2F8F710E94D60AF3
:1019200090E0982F882788279F719C012C2BE90134
:1019300049C0C55AD0E0C458DE4FC881D0E0D06459
:101940002DCFDF70D06A2ACFCE01E4E0969587953F
:10195000EA95E1F783702C2F26952695237040E2B7
:10196000249F90011124382B8C2F8370C1E0D0E08C
:1019700002C0CC0FDD1F8A95E2F7C22BD32BDC68A7
:101980000DCFDC2FCC27C16FD06A08CFC1E0D0E0EB
:1019900002C0CC0FDD1F2A95E2F720E2929FC00122
:1019A0001124C82BD92BEBCFDC2FCC27C46FD06AE6
:1019B000F5CE8C2F0E94D60AC82FD0E0DC2FCC2782
:1019C000CC27DF71D062EACE8C2F8F700E94D60AAE
:1019D00034E0D695C7953A95E1F7CF709C2FEC018E
:1019E000D069DCCEC9E3D0E0D9CEC2EED0E0D6CE0D
:1019F000C6EED0E0D3CEBF92CF92DF92EF92FF92AD
:101A00000F931F93CF93DF938C01C0907B03D090F3
:101A10007C03E0907D03F0907E038091F80290912A
:101A2000F902A091FA02B091FB02C82AD92AEA2A47
:101A3000FB2ACFE1D0E0BC2ED701C6010C2E04C09A
:101A4000B695A795979587950A94D2F780FD0EC015
:101A5000219788F7B12C8B2DDF91CF911F910F919A
:101A6000FF90EF90DF90CF90BF900895B8018C2F3A
:101A70000E947C0B019761F3EECFCF93DF93EC01D3
:101A80000E94FB0CBE01DF91CF910C947C0B0E9455
:101A90003D0D292F2F7092959F7092509E3078F4B3
:101AA000E92FF0E0E252FC4C0C94AC32803F19F08C
:101AB00020F4883E20F481E00895843FE1F380E043
:101AC0000895883EC0F3813FD1F7F5CF822F8695E8
:101AD0008695869508956F927F928F929F92AF928E
:101AE000BF92CF92DF92EF92FF920F931F93CF930B
:101AF000DF9389EDC82E84E0D82E9DEEE92EF12CDF
:101B0000E701C45BD10936011BC0F50185909490B3
:101B1000692DC8010E944533682DC80101960E94B5
:101B2000453382E0A80EB11C0E5F1F4FC017D107CE
:101B300061F782E1680E711C6296CE15DF0529F00F
:101B40008E01025111095301E0CF7E0184EBE80EB2
:101B5000F11C84EBC80ED11C8DEBE81683E0F8066F
:101B600079F6DF91CF911F910F91FF90EF90DF9069
:101B7000CF90BF90AF909F908F907F906F9008957F
:101B8000682F86E090E00C9445330E94FF09809115
:101B900040030C94C00DCF93DF93C7EFD2E060E019
:101BA000CE010E9445332196C11584E0D807B9F7CC
:101BB000DF91CF910895EF92FF920F931F93CF93F0
:101BC000DF938091F6029091F502892B9091F402B7
:101BD000892B8093D4019091F702992391F0892B5E
:101BE0008093D40120E086ED91E0FC013191CF019A
:101BF00031112F5FF1E08C3D9F07B9F721110E9451
:101C0000E308E0911703F09118033097C9F10280BF
:101C1000F381E02D84ED91E009958091410382FFED
:101C20002FC080FF04C080E599E00E949706C4EDB4
:101C3000D1E08CEDE82E81E0F82E0AE419E08091E5
:101C4000410380FF0BC088811F928F931F930F93D6
:101C50000E9430070F900F900F900F902196EC1676
:101C6000FD0669F78091410380FF0AC088E499E08E
:101C7000DF91CF911F910F91FF90EF900C949706F9
:101C8000DF91CF911F910F91FF90EF9008951092E7
:101C9000F5021092F4020E94DB0D90E080E00E94B9
:101CA000830990E080E00C946D0960937B0370934E
:101CB0007C0380937D0390937E030C94470E0F93D7
:101CC0001F9360917B0370917C0380917D039091C1
:101CD0007E038B019C0106701127222733270630D3
:101CE00011052105310529F468601F910F910C94AD
:101CF000550E677FFACF0F931F9341E050E060E0ED
:101D000070E004C0440F551F661F771F8A95D2F7F5
:101D1000CB01BA01609570958095909500917B03F9
:101D200010917C0320917D0330917E036023712309
:101D3000822393231F910F910C94550E9091F302DF
:101D4000809589238093F302282F277071F4282F20
:101D5000082E000C330B9217130639F085958595E4
:101D600085950E947B0E1092F30208950F931F93A6
:101D700041E050E060E070E004C0440F551F661F72
:101D8000771F8A95D2F780917B0390917C03A09175
:101D90007D03B0917E038A019B01082B192B2A2B0E
:101DA0003B2BC901B8011F910F910C94550E609304
:101DB000F8027093F9028093FA029093FB020C945C
:101DC000470E882341F080959091F60289238093F5
:101DD000F6020C94DB0D0895882339F09091F602F9
:101DE000982B9093F6020C94DB0D0895882309F448
:101DF00052C0823871F40E94990981FF4CC089E376
:101E00000E94F6080E94DB0D89E30E94E9080C9409
:101E1000DB0D833859F40E94990980FF3CC083E5AB
:101E20000E94F6080E94DB0D83E5EFCF843859F459
:101E30000E94990982FF2FC087E40E94F6080E9441
:101E4000DB0D87E4E2CF9CEF980F913AF0F290E23D
:101E5000980F983088F4877021E030E0A90102C023
:101E6000440F551F8A95E2F7CA0180959091F602BA
:101E700089238093F602CBCF9BE5980F933020F413
:101E800090E080E00C948309885A873120F490E038
:101E900080E00C946D0908958091400380FD1FC07F
:101EA000816080934003813019F489E0809340037E
:101EB000809140030E94C00D8091410380FF08C0C3
:101EC00087EC94E09F938F930E9430070F900F90C0
:101ED000809140038695869586950C94A509089572
:101EE00010922403809125038460809325038091C0
:101EF000410380FF08C08EEA93E09F938F930E9476
:101F000030070F900F9008959FB7F89410925F03D9
:101F10009FBF90916E03943009F048C02091E90072
:101F20002F703091EC00932F917030FD90E8922B40
:101F300025E02093E9002091EB0020FF34C02091A0
:101F4000EE0027FF30C02091FC02222321F02091D7
:101F5000E80025FF28C01092FC0226E03091E8003E
:101F600035FF14C08093F1008091E80085FD27C003
:101F70008091E80080FFFCCF8091E8008E7780930D
:101F8000E8009F709093E90080E0089530916E031F
:101F9000343049F43091EB0035FD05C0215041F457
:101FA00081E08093FC029F709093E9008FEF089589
:101FB000EFE9FFE03197F1F700C00000CFCF8FB716
:101FC000F89421E020935F038FBFDBCFCF93DF93A3
:101FD00000D00F92CDB7DEB790916E03943011F51B
:101FE00089837B836A839093E9008FEF9091E80067
:101FF000815095FD06C095ED9A95F1F7000081118D
:10200000F5CF8091E80085FF0DC050E040E063E02F
:1020100070E0CE0101960E9489078091E8008E77DA
:102020008093E8000F900F900F90DF91CF9108956B
:10203000BC0184E00C94E60FBC0183E00C94E60F35
:10204000CF93DF93EC0181E08093E9008FEF9091D3
:10205000E800815095FD06C095ED9A95F1F70000D6
:102060008111F5CF8091E80085FF14C050E040E079
:1020700068E070E0CE010E9489078091E8008E77C9
:102080008093E80088E0FE01A4E6B3E001900D92A1
:102090008A95E1F7DF91CF91089581E08093E00088
:1020A00080E28093D8001092C9008FE19EE40197EE
:1020B000F1F700C0000087E090EBDC018093820321
:1020C00090938303A0938403B093850388E19CE0FD
:1020D0000FB6F894A895809360000FBE90936000AF
:1020E000FFCFCF93C82F882309F488C08238C1F46A
:1020F0000E94990981FD82C089E30E94F6080E942E
:10210000DB0D2FEF81EE94E0215080409040E1F70D
:1021100000C0000089E30E94E908CF910C94DB0D18
:102120008338A1F40E94990980FD68C083E50E946C
:10213000F6080E94DB0D2FEF81EE94E021508040E5
:102140009040E1F700C0000083E5E5CF8438A1F4BA
:102150000E94990982FD52C087E40E94F6080E94FD
:10216000DB0D2FEF81EE94E0215080409040E1F7AD
:1021700000C0000087E4CFCF8CEF8C0F813A68F469
:10218000E6EDF1E08191C81799F121E0EC3DF2070D
:10219000C9F78C2F0E94F608C0CF80E28C0F8830E0
:1021A00068F4C77021E030E001C0220FCA95EAF759
:1021B0008091F602822B8093F602AFCFEBE5EC0F15
:1021C000E33040F4F0E0E458FE4F808190E0CF919E
:1021D0000C948309C85AC73188F4EC2FF0E0EE0F55
:1021E000FF1FE158FE4F80819181CF910C946D09C2
:1021F0008C2F0E94E9080E94DB0DCBCFCF91089570
:10220000CF93C82F0E947110C93349F42FEF87EE86
:1022100093E0215080409040E1F700C000008C2FF7
:10222000CF910C94F60E0F931F93CF93DF93C62F8D
:10223000D42F022FFC0182818823A1F060937A03BE
:102240000E94D7089093790380937803C77081E048
:1022500001C0880FCA95EAF7DF91CF911F910F91C6
:102260000C94EC0E80917A03681335C0809178034A
:10227000909179030E94C808883C910560F510E2AE
:102280001D0FCD17B9F080E28C0F883040F4C77075
:1022900081E001C0880FCA95EAF70E94E10E18306C
:1022A00048F481E09D2F977001C0880F9A95EAF756
:1022B0000E94EC0E802F0E940011183098F4D77005
:1022C00081E001C0880FDA95EAF7DF91CF911F9185
:1022D0000F910C94E10EC77081E001C0880FCA9580
:1022E000EAF7F3CFDF91CF911F910F910895CF922D
:1022F000DF92EF920F931F93CF93DF93CDB7DEB7AB
:10230000E0970FB6F894DEBF0FBECDBF609113010A
:102310008091420380FF4BC0E5E8F3E09E012F5F10
:102320003F4F8E010F5C1F4FC901A4914A2F50E00F
:10233000DA01AA0FBB1FA40FB51FA650BE4FCD9048
:10234000DD90EC90D901CD92DD92ED929D01319618
:10235000A017B10751F72091120143E0249F800D8F
:10236000911D11246E9A2EB12F7B3EB130645FB760
:10237000F894FC01649FE00DF11D1124BF01861744
:10238000970741F55FBFEFE5F4E03197F1F700C043
:102390000000E0960FB6F894DEBF0FBECDBFDF9110
:1023A000CF911F910F91EF90DF90CF900895809182
:1023B00014019091150123E0829FF0011124E65051
:1023C000FE4F891708F0A8CF1182108212828F5F0A
:1023D0003396F7CFDC014D91CD01E8E03EB9000026
:1023E00000C047FF2EB9440F000000C000C000C06D
:1023F0002EB900C0EA9591F7C2CF8F929F92AF920B
:10240000BF92CF92DF92EF92FF920F931F93CF93E1
:10241000DF93FC01B280948081E0848300E015E0CA
:102420005BE4A52E88248394EE24EA94F12C7BE4CB
:10243000C72ED12C80911601081770F0DF91CF9133
:102440001F910F91FF90EF90DF90CF90BF90AF90D2
:102450009F908F900C947711C02FD0E01C9FF001BB
:102460001D9FF00D1124E65DFD4F91101CC01382DD
:10247000128220911401CE01820F911D9C01220F26
:10248000331F280F391F26503E4F1C9FF0011D9F00
:10249000F00D1124E65DFD4F4281618180810E9433
:1024A000290A0F5FC7CF2381222379F1215023838B
:1024B00034818A2D821B311101C0822F1C9FF001B3
:1024C0001D9FF00D1124E65DFD4F90914503899FFE
:1024D000C0011124B6010E9484326283211104C01C
:1024E000332311F01482A38222E02B1510F21C9FDB
:1024F000F0011D9FF00D1124E65DFD4F8091430317
:102500008083809144038183B4CF0E94143382304E
:1025100091400CF0AECF82E08B1530F50E94143361
:10252000B7010E9498321C9FF0011D9FF00D1124ED
:10253000E65DFD4F808322E02B15C8F40E94143322
:10254000209144032695622F70E00E949832280F54
:102550001C9FF0011D9FF00D1124E65DFD4F2183AE
:102560001282A382848285CF80914303DCCF2091A5
:102570004403EECFEF92FF921F93CF93DF93EC01D2
:1025800010E0EE24EA94F12C60911601161770F019
:102590000E9477119A818C8190FF27C08F5F8C8376
:1025A000DF91CF911F91FF90EF900895209114013A
:1025B000422F410F5527551FCA019A01220F331F81
:1025C000280F391F26503E4F70E0C7010E949832F5
:1025D000962F8C814091450360914403199F800D93
:1025E00011240E94290A1F5FCFCF8150D8CF9F921C
:1025F000AF92BF92CF92DF92EF92FF920F931F9311
:10260000CF93DF93EC018A81BB24BA9480FD02C092
:10261000BB24B394A09016018C81811109C081E084
:10262000B81225C08FEF8A0D8093F70181E08C836B
:10263000F12CE12CEA14F0F00E9477118091F7015F
:1026400091E0B9125BC0811154C080911601815094
:102650008093F7011C82DF91CF911F910F91FF9022
:10266000EF90DF90CF90BF90AF909F900895109221
:10267000F701DCCF009114010E0D1F2D111DC801B3
:10268000880F991F080F191F06501E4FF80111825D
:102690001082128234E0C32ED12C912C8091F7014C
:1026A000890D813114F18F70082E000C990B8E1555
:1026B0009F0591F4809145038C9DA0018D9D500D47
:1026C0001124559547955595479598016091440378
:1026D000809143030E94290A9B0CF1E0CF1AD10894
:1026E000E9F68FEFE81AF80AA5CF87FFDDCF8A0D4C
:1026F000DBCF81508093F701BC82ADCF90E0019693
:102700006091160170E00E9498328093F7018C83EB
:10271000A2CFEF92FF920F931F93CF93DF93EC0121
:102720008C81811109C081E08C831092F80192E0C4
:102730009093100180930F018091140190911501E5
:1027400023E0829FF0011124E650FE4F891768F1C3
:1027500010E003E060911601161768F10E947711EE
:1027600080910F012091F801280F2093F80190919A
:102770001001980F90931001191654F4022E000CBA
:10278000330B409116014150550B2417350734F097
:10279000819580930F01813009F41C82DF91CF91E4
:1027A0001F910F91FF90EF90089511821082128275
:1027B0008F5F3396CBCFE12EF12C70E0C7010E94E2
:1027C000983220911401820F482F50E02091F80197
:1027D000022E000C330BE216F306BCF02091100120
:1027E000022E000C330B2E153F057CF0809F9001CC
:1027F000112426503E4F409145036091440380913F
:1028000043030E94290A1F5FA5CFFA01EE0FFF1FA5
:10281000E40FF51FE650FE4F118210821282F3CFB3
:102820008F929F92AF92BF92CF92DF92EF92FF92E0
:102830000F931F93CF93DF93EC014C81042F10E093
:102840009801D8010E94CD339B01AC010E949833BE
:102850004B015C01E0E2F0E0E01BF10BA5E5B0E02C
:10286000AC019B010E9498336B017C019F01DF0149
:102870000E94B9329B01AC010E94A3339B01AC01C1
:10288000280D391D4A1D5B1DC701B6010E94AB33DF
:10289000F22E822F90E039E23F1560F143E0249F51
:1028A0009001112435952795122F109500E085E5AC
:1028B000E82EEF1880911601081758F10E94771141
:1028C0009C8181E0992319F0903219F48FEF809365
:1028D000110180911101890F8C83DF91CF911F919C
:1028E0000F91FF90EF90DF90CF90BF90AF909F90AF
:1028F0008F90089525E530E0B901681B790B9B01A5
:10290000220F331F260F371F37FFCCCF2F5F3F4FCC
:10291000C9CF8E2D01FD8F2D20911401622F600FE4
:102920007727771F9B01220F331F260F371F265053
:102930003E4F412F609144030E94290A0F5FBACF96
:102940000F931F93CF93DF93EC0110E000E0909181
:1029500016019017110609F06CF40E9477118C8112
:1029600090E00196817099278C83DF91CF911F9120
:102970000F91089520911401A801420F511D9A0151
:10298000220F331F240F351F26503E4F4C8160917C
:1029900044038091430396959017110651F04CF033
:1029A000442349F0409145030E94290A0F5F1F4FBD
:1029B000CECF4423B9F340E0F7CF9091420390FF8C
:1029C00014C0909114012091150133E0939FF00100
:1029D0001124E650FE4F921710F00C94771181836A
:1029E000608342839F5F3396F6CF08950F931F93C2
:1029F000CF93DF9300D00F92CDB7DEB78C018091DB
:102A0000F90181110AC09E012F5F3F4F4FEF6FEF19
:102A10000E94290A8A818093F901F801648161305A
:102A200069F08091F90140E0662361F040E0623096
:102A300011F44091F90180E060E004C06091F90177
:102A400040E080E00E94DD14F801848190E001966E
:102A500063E070E00E94983284830F900F900F9093
:102A6000DF91CF911F910F910895CF93DF9300D005
:102A70000F92CDB7DEB79091420390FF0AC09E013E
:102A80002F5F3F4F0E94290A4B8169818A810E94F2
:102A9000DD140F900F900F90DF91CF910895CF9399
:102AA000DF93EC01EC81F0E0E953FC4F4491E2E468
:102AB000F3E0628181810E9435158C818F5F8C8368
:102AC000DF91CF910895CF93DF93EC01E2E4F3E03F
:102AD000438162818C810E9435158C818F5F8C834C
:102AE000DF91CF910895809142038E7F80934203BE
:102AF0008091410380FF0CC01F921F9283ED92E0F2
:102B00009F938F930E9430070F900F900F900F901C
:102B10000E94700F809125038160809325032FEF21
:102B200080E792E0215080409040E1F700C0000033
:102B30000C9477118091F601811111C08091D80019
:102B400080618093D8008AE18A95F1F700C0909166
:102B5000D900892F817090FF82E08093F60181E097
:102B60009091F601913009F080E0089590E080E0C6
:102B70000E943F3321E08C3E9E4F09F020E0822FDF
:102B80000895CF92DF92EF92FF926B017C010E9439
:102B90001A0AB701A60188E090E0FF90EF90DF905D
:102BA000CF900C9457334F925F926F927F928F9297
:102BB0009F92AF92BF92CF92DF92EF92FF920F93CC
:102BC0001F93CF93DF9300D00F92CDB7DEB7182FAE
:102BD000F62E042F722E9091420390FF57C0E92FDA
:102BE000E695AE2FB0E0AF5ABE4F8C918093230391
:102BF0009E7F923009F05EC09E012F5F3F4F812F74
:102C00000E94290A4B8169818A810E94DD1480918A
:102C10004303811308C0809144038F1104C0809145
:102C20004503801729F08091250382608093250356
:102C300010934303F092440300934503772009F473
:102C40009CC0609142037091430380914403909132
:102C500045030E94C1158091410380FF17C08091F8
:102C600045031F928F93809144031F928F9380910D
:102C700043031F928F9384E393E09F938F930E946B
:102C800030070FB6F894DEBF0FBECDBF0F900F9088
:102C90000F90DF91CF911F910F91FF90EF90DF90F8
:102CA000CF90BF90AF909F908F907F906F905F90EC
:102CB0004F900895823019F400914503A8CF8630D3
:102CC00019F410914303A3CF8930D9F3893109F066
:102CD0009ECFE9518E2F8170682E8E2F8095817046
:102CE000E82EE695F0E0E058FC4FC590D490412CDA
:102CF000DD2499E5A92E93E0B92E609116014616C0
:102D000018F00E94771183CF842C912C8C9CC001E9
:102D10008D9C900D9C9C900D112470E00E9484323B
:102D2000512E611028C0560E8091410380FF11C0C2
:102D3000DF92CF921F92EF921F925F921F924F925B
:102D4000BF92AF920E9430070FB6F894DEBF0FBE5D
:102D5000CDBF20911401820E911C9401220F331FCC
:102D6000280D391D26503E4F402F6F2D852D0E9476
:102D7000290A4394C2CF561AD7CF8091410380FFCE
:102D800085CF1F920F931F92FF921F921F938DE08A
:102D900093E073CFE2E4F3E0438121E1421B08F4C6
:102DA00040E021E0628181810C94D315E2E4F3E0FC
:102DB000438121E1420F08F44FEF21E062818181DC
:102DC0000C94D315E2E4F3E0628121E1621B08F484
:102DD00060E021E0438181810C94D315E2E4F3E0CB
:102DE000628121E1620F08F46FEF21E0438181816C
:102DF0000C94D315E2E4F3E0818121E04381628108
:102E000088500C94D315E2E4F3E0818121E0438102
:102E10006281885F0C94D31580914603882319F052
:102E200081508093460360914203709143038091E7
:102E30004403909145030C94C1158091460383305F
:102E400018F48F5F809346036091420370914303AF
:102E500080914403909145030C94C115E2E4F3E0A2
:102E600083E0808311828FEF828383831482A3E2C5
:102E7000B3E012968C911297836012968C936081C6
:102E80007181828193810C94C1151092F602E6ED56
:102E9000F1E086E0DF011D928A95E9F70C94470E78
:102EA0001F93CF93DF93CDB7DEB7AA970FB6F894F1
:102EB000DEBF0FBECDBF80E793E02091F100DC01C3
:102EC0002D93CD01B3E088379B07B9F7809171034B
:102ED000833009F471C0B8F4813009F448C08230FD
:102EE00009F4B2C08091E80083FF3AC18091700379
:102EF000909171039A3008F033C1E92FF0E0E4516A
:102F0000FC4C0C94AC328A3009F48DC08B3009F43F
:102F100070C0893039F780917003813219F7809140
:102F2000740390917503009711F00297D9F6809180
:102F3000E800877F8093E8008091E80082FF37C037
:102F40009091F3008091F200029729F48091F100B2
:102F50008B7F813021F48091F10080936303809115
:102F6000E8008B778093E8000E94B307BBCF809185
:102F70007003813A09F0B6CF8091E800877F809393
:102F8000E8008091740390917503892B61F468E0E7
:102F900084E693E070E00E9465088091E8008B77FA
:102FA0008093E8009FCF60E090E080E0F3CF8091D5
:102FB0006E038111C1CF96CF80917003813A09F0E1
:102FC00091CF8091740390917503892B09F08ACF7A
:102FD0008091E800877F8093E8008091E80080FF7F
:102FE000FCCF809147018093F1008091E8008E77BB
:102FF000B9CF80917003813209F074CF809174034E
:1030000090917503892B09F06DCF8091E800877F3F
:103010008093E8000E94B307809172038093470178
:103020000E9445175FCF80917003813209F05ACF1B
:103030008091E800877F8093E8000E94B307809129
:103040007303809362034ECF80917003813A09F03D
:1030500049CF8091E800877F8093E8008091E80065
:1030600080FFFCCF80916203BECF803899F0823818
:1030700009F076C0809174038F70873008F070C0BB
:103080008093E9008091EB0085FB882780F91092FE
:10309000E90006C080916C0390916D0391118260EC
:1030A0009091E800977F9093E8008093F100109250
:1030B000F1008091E8008E77BAC1882309F4A7C196
:1030C000823009F04DC0809172038111ABC18091B3
:1030D00074038F702FEF280F263008F041C08093C3
:1030E000E9002091EB0020FF9DC1933031F48091E5
:1030F000EB0080628093EB0095C19091EB009061B2
:103100009093EB0021E030E001C0220F8A95EAF7AE
:103110002093EA001092EA008091EB008860EACFE9
:1031200081111EC0109172031F778091E300807897
:10313000812B8093E3008091E800877F8093E800F3
:103140000E94B3078091E80080FFFCCF8091E300EC
:1031500080688093E30082E0111183E080936E0326
:103160008091E80083FF0AC08091E800877F809308
:10317000E8008091EB0080628093EB00AA960FB686
:10318000F894DEBF0FBECDBFDF91CF911F910895A0
:103190008058823028F720917203309173032C3DC0
:1031A000E3E03E07A1F583E08A838AE289834FB793
:1031B000F894DE01139620E03EE051E2E32FF0E0C8
:1031C00050935700E49120FF03C0E295EF703F5FFA
:1031D000EF708E2F90E0EA30C0F0C7968D939D93EC
:1031E0002F5F243159F74FBF8091E800877F80938C
:1031F000E8006AE270E0CE0101960E9465088091C5
:10320000E8008B778093E800ABCFC096E7CF809142
:10321000740390917503432F55274330510509F4EA
:103220004AC078F54130510509F47AC08BE790E047
:10323000EFEBFBE04230510509F092CF2091E8001E
:10324000277F2093E800209176033091770382173F
:10325000930708F49C0140E02115310509F065C091
:10326000411163C08091E80082FDC9CF80916E0357
:10327000882329F2853019F28091E80083FFF2CF8C
:10328000BECF4132510509F43CC04232510509F02C
:1032900067CF8430910508F063CFFC01EE0FFF1F6C
:1032A000EF53FE4F0190F081E02D83549E4FDC01DF
:1032B0008C9190E01AC0332721303105D1F02115CF
:1032C000310561F02230310509F04ACFECE4FCE031
:1032D000E4918E2F90E0ECE4FCE007C0E0E8FCE035
:1032E000E4918E2F90E0E0E8FCE0009709F438CFFD
:1032F000A5CFE0E7FCE0E4918E2F90E0E0E7FCE072
:10330000F4CF8430910508F02BCF880F991FFC0172
:10331000E753FE4F0190F081E02D89E090E08ECFE1
:1033200082E190E0EAE3FCE089CF80916E0388239C
:1033300009F465CF853009F462CF8091E80083FD00
:103340005ECF8091E80082FD8DCF8091E80080FF04
:1033500083CF9091F3008091F2002115310519F08F
:103360008830910550F041E0089709F040E08091E5
:10337000E8008E778093E8006FCF44914093F1008E
:103380003196215031090196E8CF803809F0E8CE16
:103390008091E800877F8093E80080916F0380939D
:1033A000F10087CE8111DCCE10917203123008F04B
:1033B000D7CE8091E800877F8093E80010936F0359
:1033C0000E94B307112311F084E005C08091E3004F
:1033D00087FDFACF81E080936E0342E061EC81E0EB
:1033E0000E94D20742E261EC84E00E94D20742E2EE
:1033F00061EC82E00E94D20742E260EC83E00E942E
:10340000D20742E261EC85E00E94D207A9CE80910A
:103410007203813009F0A4CE81E0933009F080E09E
:1034200080936D031092E9008091E800877F80937C
:10343000E8000E94B30794CE60914203669570E065
:103440004BE050E084E091E00E942433892B19F492
:1034500081E0809324030E94D70890931E038093F9
:103460001D0380912503846080932503809141038F
:1034700080FF08C085E993E09F938F930E943007F7
:103480000F900F9008959091420390FF5AC0917051
:10349000811141C092609093420380912503816025
:1034A000809325036623F1F16091420370914303F9
:1034B00080914403909145030E94C115809141037E
:1034C00080FF0FC08091420386951F928F9380E802
:1034D00092E09F938F930E9430070F900F900F9070
:1034E0000F9060914203669570E04BE050E084E0FD
:1034F00091E00E942433892B09F10E94700F81E032
:103500008093200320E04091450360914403809123
:1035100043030C94D3158B3210F09465BCCF880F05
:10352000982BB9CF8091410380FFDBCF809142037C
:1035300086951F928F9382E692E0CBCF0E941C1A51
:10354000DECF089580914203816080934203809191
:10355000410380FF0DC01F9281E08F938CE992E0C0
:103560009F938F930E9430070F900F900F900F90B2
:103570008091420361E086950C94431A6CEE7EEFD5
:1035800090E080E00E94633360E082E090E00E947F
:10359000453360E083E090E00E9445331092F802EA
:1035A0001092F9021092FA021092FB0260E084E09D
:1035B00090E00E94453360E081E290E00E94453354
:1035C00060E085E090E00E94453360E086E090E0B6
:1035D0000E9445336FEF87E090E00E94453340E062
:1035E00050E0BA0188E090E00E94573360E08DE03F
:1035F00090E00E94453340E050E0BA0188E190E05D
:103600000E94573360E087E190E00E94453340E03C
:1036100050E0BA018CE190E00E94573360E080E214
:1036200090E00E94453340E050E0BA0188E190E02C
:103630000E9457330E944C0F83E00E94C50D0E94E8
:10364000A21A21E04FEF6FEF80E00E94D31561E0F6
:103650008BE00E94431A40E050E0BA018FE090E016
:103660000E94573340E050E0BA0183E190E00C94AF
:1036700057330E94B615811102C00E94BE1A86E01F
:1036800090E00E94313380934003803220F08770B5
:1036900088618093400390914003892F817090FF4F
:1036A00004C0892F8695869586950C94A5098091EE
:1036B00042038695815009F48AE261E00C94431A32
:1036C0008091420386958F5F8B3208F081E061E044
:1036D0000C94431A9091420390FF07C09695981757
:1036E00020F0961710F40C94601B61E00C94431AC0
:1036F0003F924F925F926F927F928F929F92AF9282
:10370000BF92CF92DF92EF92FF920F931F93CF93CE
:10371000DF9300D000D00F92CDB7DEB77C01FC0163
:1037200083819481892B31F08081918189238F3F1E
:1037300009F0EDC60F900F900F900F900F90DF9152
:10374000CF911F910F91FF90EF90DF90CF90BF909E
:10375000AF909F908F907F906F905F904F903F9031
:1037600008950E94FB0C182F682F89819A810E946E
:10377000370969817A81812F0E946F0B8C01F701D3
:103780009281992309F49CC6980122513F4520312A
:10379000310508F01AC68FEF93E00E9431330251D1
:1037A00057EF852E52E0952E882381F18091F30208
:1037B000877009F4BFCFF7018281882309F4BACF5B
:1037C00082E00F900F900F900F900F90DF91CF91AC
:1037D0001F910F91FF90EF90DF90CF90BF90AF902F
:1037E0009F908F907F906F905F904F903F900C9440
:1037F0009E0E8114F4E09F06C9F2C4010E94313389
:10380000811101C001502FEF821A920A0111F1CFEC
:103810001C821B82662463944AE0542E84010F5F4D
:103820001F4FC4010E94313389831A82882309F40F
:10383000BDCF9FEF980F933008F58A83698232E0FD
:10384000830E911CC8010E9431338B83882309F4B5
:10385000ADCF8E010F5F1F4FF80120812223F1F2BF
:10386000213009F043C091818281913049F40E5F8B
:103870001F4F0E9400110F5F1F4FEECF4801E9CF8D
:10388000923029F40E5F1F4F0E947110F4CF9330D5
:1038900029F40E5F1F4F0E94F60EEDCF943019F001
:1038A0000F5F1F4FE8CF0E5F1F4F30E020E0B801E1
:1038B0006F5F7F4FF80141818053990B8A309105EA
:1038C00050F021503109B8F28FE99FE00197F1F7EC
:1038D00000C00000F6CF529EF001539EF00D11245F
:1038E0009C012E0F3F1F842F8B01E1CFE22FF0E0D0
:1038F000E753F84F7490822F86958695869590E0D1
:10390000FC01E754F84FA4902770B12C022E02C09E
:10391000B594A7940A94E2F7E1E0AE22BB24FC013F
:10392000E755F84FC490D12C02C0D594C7942A957E
:10393000E2F7F1E0CF22DD24A114B10419F081EE09
:103940000E947110C114D10419F086EE0E9471100A
:10395000872D0E940011CD2819F086EE0E94F60EE8
:10396000AB2809F488CF81EE96CF81E00E94B60E95
:103970000E945F0E1BCF81E00E947B0EF9CF82E098
:10398000F5CF82E0F9CF003CFCE51F0709F48DC0BC
:1039900008F466C0013C3CE5130709F032C590917C
:1039A0004003892F8695869586958F5F8F719770D6
:1039B000843008F0ABC0880F880F880F892B809364
:1039C000400380914003887F91E009F490E080916A
:1039D000400390FB80F9809340030E94C00D8091CA
:1039E000410380FF37C08091400386958695869578
:1039F0001F928F9382EA98E025C083E00E94C50D54
:103A0000D5CE80914003982F987F79F0885080938D
:103A10004003887F91E009F490E08091400390FB9F
:103A200080F9809340030E94C00D8091410380FF84
:103A300011C0809140038695869586951F928F933D
:103A400089E498E09F938F930E9430070F900F9026
:103A50000F900F908091400386958695869553C070
:103A600080914003982F969596959695933040F4C3
:103A70009F5F990F990F990F8770892B809340034F
:103A8000809140038160809340030E94C00D80912B
:103A9000410380FFDFCF8091400386958695869510
:103AA0001F928F9381E698E0CDCF10914003117063
:103AB0008091410380FF3CC51F921F938CE898E0E2
:103AC0009F938F930E9430070F900F900F900F904D
:103AD000112309F42FC58091400380FF67CE8091A8
:103AE00040038E7F809340030E94C00D809141036C
:103AF00080FF08C089E798E09F938F930E9430076A
:103B00000F900F9080E00E94A50950CE9093400343
:103B100058CF27E245EE65EEF6C426E241EE60EEB0
:103B2000F2C427E245EE64EEEEC426E241EE62EE18
:103B3000EAC428E241E0EFCF8091130380610630B0
:103B40003CE5130709F47FC008F484C08091130397
:103B5000806279C0809113038D7F0C309CE519073A
:103B600009F471C070F4809113038C600A30FCE595
:103B70001F0709F468C008F479C0809113038E7F91
:103B800062C080911303877F0E303CE5130709F470
:103B90005AC008F471C0809113038F7E54C00C3F4B
:103BA0009CE5190709F45AC030F50331FCE51F07FD
:103BB00009F472C078F401313CE5130709F468C0D8
:103BC00002311C4509F06CC40E9445178091130313
:103BD0008F7739C005319CE5190709F465C008F4F1
:103BE00079C08091140381600B3F1C4509F058C4D3
:103BF0008093140355C401152DE5120709F450C034
:103C000070F40E3F8CE51807D9F1809114038E7F74
:103C10000F3F1C4568F3809114038360E9CF0230A5
:103C2000EDE51E0709F45FC008F44AC060E0033008
:103C30001D4509F035C48EE090E00E94453330C444
:103C4000809113038160809313032AC4809113032E
:103C50008460F9CF809113038860F5CF80911403BD
:103C60008260C6CF809113038064EDCF0E94451718
:103C7000809113038068E7CF809113038B7FE3CF9C
:103C8000809114038D7FB4CF809113038F7DDBCFA0
:103C9000809113038F7BD7CF80911303837FD3CF82
:103CA000809114038C7FA4CF8091130382FB99270A
:103CB00090F921E0922790FB82F990FB83F9C3CF22
:103CC00080911403982F909591708E7F892B90FB93
:103CD00081F98ECF0E94451790911303892F97FB8E
:103CE00087F98058B0CF61E0A6CF06313CE51307D5
:103CF00009F023C48091F6028A7A91E009F490E0F9
:103D000090937E02811106C089E20E94F6080E940B
:103D1000DB0D4CCD85E3F9CF85E34CC480914103A5
:103D200080FF10C080914203809581701F928F9315
:103D30008EEE98E09F938F930E9430070F900F9024
:103D40000F900F908091420380FF33C08E7F80934D
:103D50004203609142037091430380914403909128
:103D600045030E94C1158091410380FF0FC08091DF
:103D7000420381701F928F9386EB98E09F938F93FD
:103D80000E9430070F900F900F900F900E94700FBD
:103D9000809125038160809325038FEF90E7E2E017
:103DA00081509040E040E1F700C000000E94771190
:103DB000FDCC0E94A21AFACC47E55BE160E67BE10C
:103DC0000E94150AF3CC40E65BE167E57BE1F8CFA2
:103DD0004AEF56E163E077E1F3CF43E057E16AEF62
:103DE00076E1EECF42EE56E16EEE76E1E9CF4EEEB1
:103DF00056E162EE76E1E4CF4AEC56E166ED76E11B
:103E0000DFCF46ED56E16AEC76E1DACF4CE057E1E0
:103E10006DE177E1D5CF4DE157E16CE077E1D0CFAF
:103E200061E081E00E94431AC1CC65E082E00E941B
:103E30006A1BBCCC68E086E0FACF6EE089E0F7CF81
:103E400064E18FE0F4CF67E185E1F1CF61E088E1E3
:103E5000E9CF62E289E1EBCF61E083E2E3CF9091C9
:103E60004103892F8E7F90FF81608093410380FF03
:103E700005C087E399E00E94970698CC85E299E017
:103E8000FACF0E94BE1A92CCF701008111819923CA
:103E900009F43EC0C8010E94FB0CD82E682FC8014F
:103EA0000E943709B8018D2D0E947C0BB82E192F66
:103EB000082FF701958092943FE09322A280A110F1
:103EC0001092F5028091F302877099F0AA2089F090
:103ED000812F807F803421F080E28B0D883048F084
:103EE00082E00E949E0E8091F30287703324339407
:103EF0008111312CD12ED2942FE0D222FBE0FD157E
:103F000008F441C0ED2DF0E0EA50FC4C0C94AC32CA
:103F1000C8010E940F09D82EC5CF212F2F70C22EA5
:103F2000107F19F0C29490EFC922AA20C9F0CC20CA
:103F300069F080E28B0D883010F001110BC0809188
:103F4000F602C82AC092F6020E94DB0D8B2D0E9459
:103F5000711019C08091F502C82AC092F502F4CF01
:103F60008B2D0E94F60ECC2071F0C09480E28B0D58
:103F7000883010F001113EC08091F602C822C09234
:103F8000F6020E94DB0DED2DE850FF0B349720F474
:103F90000E9499090E94190B332009F4CBCB809120
:103FA000F30280FDC7CBF701128285958595859533
:103FB0000E94B60EC7010E94781B8091F30285957E
:103FC000859585950F900F900F900F900F90DF9132
:103FD000CF911F910F91FF90EF90DF90CF90BF9006
:103FE000AF909F908F907F906F905F904F903F9099
:103FF0000C947B0E8091F502C822C092F502C1CFCD
:10400000312F3F70C32E107F103219F0C29480EF11
:10401000C822002369F0013061F1AA20B9F199208A
:1040200071F1F701858180FF91CF8F70858327C063
:10403000AA2091F09091F7028C2D892B911003C04A
:104040000E94EC0EA0CFE1E09E12FACF981709F47F
:104050009ACF8093F70297CF911006C00E94E30891
:104060008C2D0E94E10E8FCFF1E09F1609F48BCFCB
:10407000F5CFAA2031F025E0291508F484CF8C2D46
:10408000DFCF34E0391508F47ECFEACF992041F331
:10409000093349F4FFEF27EE33E0F1502040304080
:1040A000E1F700C000008B2D0E94F60E6CCF812F2F
:1040B00086958695837069F0813009F064CF8B2DE9
:1040C000912F9370A11002C090E080E00E946D09D2
:1040D0005ACF8B2D912F9370A11002C090E080E0F9
:1040E0000E94830950CF812F837009F06CC0A1100A
:1040F0004ACF8B2D829586958770880F880F6B2D00
:104100006F70462E512C712C612C082E04C0440C6B
:10411000551C661C771C0A94D2F740E050E0BA01A7
:10412000B4FE0FC04FE050E060E070E004C0440F08
:10413000551F661F771F8A95D2F740955095609559
:104140007095169516951370123019F1A8F5809098
:10415000F8029090F902A090FA02B090FB021130A0
:1041600069F04429552966297729CB01BA016821CC
:1041700079218A219B210E94D70E05CF842895287A
:10418000A628B728CB01BA01682979298A299B2951
:10419000F2CF44295529662977298090F80290901A
:1041A000F902A090FA02B090FB02CB01BA01682597
:1041B00079258A259B25DFCFCB01BA016429752992
:1041C00086299729D8CF8695AA2011F0812F817052
:1041D000882309F4D8CE8B2D829586958770880F19
:1041E000880F6B2D6F70462E512C712C612C082E70
:1041F00004C0440C551C661C771C0A94D2F740E09E
:1042000050E0BA01B4FE0FC04FE050E060E070E053
:1042100004C0440F551F661F771F8A95D2F740953B
:10422000509560957095169516951370123019F18A
:10423000A8F580907B0390907C03A0907D03B090C4
:104240007E03113069F04429552966297729CB016D
:10425000BA01682179218A219B210E94550E93CEB3
:1042600084289528A628B728CB01BA01682979297E
:104270008A299B29F2CF44295529662977298090DC
:104280007B0390907C03A0907D03B0907E03CB01D4
:10429000BA01682579258A259B25DFCFCB01BA0194
:1042A0006429752986299729D8CF1F70AA2029F05B
:1042B000812F0E94B60E8B2DC3CE8B2D0E94E10E56
:1042C000812F0E947B0E5FCE8B2D023F09F44AC0E6
:1042D00060F4003FF9F0013FE9F1AA2009F465C05C
:1042E000911034CE812F8F713AC0033F09F43FC043
:1042F000043F99F7AA2009F44DC01F71812F0E9435
:10430000B60EE8E01E9FC001112483608093F30283
:10431000812F25C0AA20C9F084E0891508F433CE86
:104320001F7161E070E080E090E004C0660F771FCD
:10433000881F991F1A95D2F780907B0390907C0379
:10434000A0907D03B0907E03A4CF95E0991508F46A
:104350001ACEE6CF812F8F71AA2009F4B2CF0E9426
:10436000B60E11CE812F8F71AA20C9F3AACF60E0BB
:1043700070E0CB01AA2009F470CF1F7161E070E0FA
:1043800080E090E004C0660F771F881F991F1A9580
:10439000D2F763CF81E00E949E0EF1E0F91508F09C
:1043A000F2CD82E00E949E0EEECD992059F0893325
:1043B00009F079CE2FEF37EE83E021503040804076
:1043C000E1F76FCE812F8F717CCF0031FFE51F07A2
:1043D00009F4CBCA01312FE5120709F4D0CA0E3B0C
:1043E0002CE5120709F40DCB08F0CDCA0C3B8CE587
:1043F000180709F402CB80E00D3BECE51E0709F439
:10440000FDCA043F3CE5130709F487CB08F0D5C08B
:10441000093DECE51E0709F47CCB0A3DFCE51F07CE
:1044200009F487CB083D2CE5120709F469C0109206
:104430007A0302308CE5180708F457CC0631ECE516
:104440001E0738F098012B5F3C452930310508F0F4
:104450004CCC0E943B0B90931403809313030031C8
:10446000FCE51F0709F410CC08F099CB08303CE5B7
:10447000130709F4F7CB08F06DCB04309CE519075E
:1044800009F4E4CB08F058CB0230FCE51F0709F42F
:10449000D7CB80911303826003301C4509F4D3CB42
:1044A000609113031091140384E090E00E9445335F
:1044B000612F81E290E00E9445330E94451776C942
:1044C00000313FE5130709F456CA01318FE518079B
:1044D00009F457CA043FECE51E0709F41ECB08F0A7
:1044E00055C0093D2CE5120709F413CB0A3D3CE504
:1044F000130709F41ECB083D8CE5180709F051C0DD
:1045000026E241EE61EEC7010E9413114FC985E01A
:10451000DE01119601900D928A95E1F7F701228153
:1045200089819A8121111DC90E940F09182F21C963
:104530001111D5CA0E944C0F39C901302CE5120760
:1045400009F48DCC0F3D3CE5130709F49ACC011515
:104550001C4509F099CC0E944517FFEF24E33CE08D
:10456000F15020403040E1F700C000000E944D10A3
:104570008091F6028272F801E35CFC45E431F105BA
:1045800008F082CCEE5FFB4C0C94AC32063FECE5BD
:104590001E0709F4CACA08F4C4CA073F2CE512076B
:1045A000C1F00631FCE51F0719F780917E028111E9
:1045B000B3CB89E20E94E908AACB063F3CE513078A
:1045C00009F4B3CA08F4ADCA073FECE51E0709F0C9
:1045D0002ECF27E245EE66EE96CF1F93CF93DF9363
:1045E00080918402807FA9F480918102882389F0E0
:1045F0008091B602D091850260917F027091800215
:10460000A0918202B0918302C62FC72316E0D8136F
:1046100004C0DF91CF911F91089590E0109711F0A1
:10462000CF3F19F401968770F2CF189F9001199F20
:10463000300D1124F901EA57FD4F41814713F2CFA4
:1046400040814613EFCF42814111ECCF4381548129
:104650004A1B5B0B483C510528F7809184028F7000
:10466000806180938402F901E557FD4F80818F704E
:10467000806180838FE792E00E94781BDF91CF9169
:104680001F910C946309AF92BF92CF92DF92EF9289
:10469000FF920F931F93CF93DF93CDB7DEB7619750
:1046A0000FB6F894DEBF0FBECDBF8C0185E0F801D8
:1046B000DE011D9601900D928A95E1F7F801808147
:1046C0009181E2802FE7A22E22E0B22E6091820239
:1046D000709183026115710509F43EC130917F022A
:1046E00040918002232F24232F3F09F435C1C3803A
:1046F000D480F0908102F601E61BF70BFF2009F44D
:10470000FBC020918402522F507FE83CF10508F055
:10471000BBC0511178C0FE2C491321C038131FC0F3
:10472000E1101DC02F70206120938402C5010E94FA
:10473000781B80918402F80185838F2D61960FB6D6
:10474000F894DEBF0FBECDBFDF91CF911F910F91C7
:10475000FF90EF90DF90CF90BF90AF900895CD285D
:1047600029F0282F29232F3F09F014C120E0F22F30
:10477000F170DF2E20FF3DC02091B60240918502EE
:1047800056E0241315C08D879E878D859E850E94D7
:104790003D0D292F22952F702230F8F0243020F57E
:1047A0009F70F9F0F8019581907FD9F4D12C1FC04A
:1047B00030E0529FF001539FF00D1124EA57FD4F56
:1047C0006181961306C06081861303C06281E61280
:1047D00010C02F5F3F4F2770D4CF9F7011F08823F8
:1047E00029F3805E883010F3C8010E94781BFD2CED
:1047F000A4CFEE2009F4A1CF809184028160809340
:104800008402F12C9ACF491312C0381310C0E11062
:104810000EC0F8012583C8010E94781B86E0F801CC
:10482000AFE7B2E001900D928A95E1F786CF8D87D0
:104830009E878D859E850E94470D882309F1EE2075
:10484000F9F080918402803270F020917F023091E3
:10485000800238872F831986DB86CA868C87CE0133
:1048600007960E94781B86E0F801AFE7B2E001905E
:104870000D928A95E1F70E94ED22FF24F3945DCF1B
:10488000C8010E94781BF9CF51110AC08FE792E04E
:104890000E94781B86E0F50111928A95E9F7B1CF65
:1048A00049130FC038130DC0E1100BC0F801258368
:1048B000C8010E94781B86E0F50111928A95E9F7FC
:1048C0003CCF8D879E878D859E850E94470D8823CE
:1048D000B9F2EE20A9F280918402803220F2209178
:1048E0007F02309180023A8329831B82DD82CC8251
:1048F0008E83CE010196B5CFE83CF105E0F6FE2CA3
:10490000EE2009F4BDCF491316C0381314C08091AE
:10491000840280FD83CF982F907F09F47FCFF80128
:104920008583903F09F477CF982F907F905F8F70A9
:10493000892B858370CF8D879E878D859E850E946C
:10494000470D811190CF8091840281608093840211
:10495000C8010E94781BF1CEEE2009F491CF8D871B
:104960009E878D859E850E94470DF82E882309F429
:1049700087CF86E0F801AFE7B2E001900D928A950B
:10498000E1F780917F02909180020E943D0D0E948C
:10499000ED22D3CE21E02E25EACE1F93CF93DF93D5
:1049A000CDB7DEB767970FB6F894DEBF0FBECDBFA9
:1049B0004B8B5C8B6D8B7E8B8F8B1A8A198A85E073
:1049C000FE017396DE011D9601900D928A95E1F726
:1049D00086E0FE013D96DE01179601900D928A95C4
:1049E000E1F7CE0107960E944323882389F016E061
:1049F0008091B60290918502891349C067960FB6DF
:104A0000F894DEBF0FBECDBFDF91CF911F91089507
:104A100086E0FE013796DE01119601900D928A958F
:104A2000E1F78A859B85892B11F38F8198858923EE
:104A30008F3FE9F22091850230E0C901019687702D
:104A400099274091B6024817190671F40E9445173C
:104A5000109285021092B60286E0EFE7F2E0DF01E5
:104A60001D928A95E9F7C3CF96E0929FD001939F5C
:104A7000B00D1124AA57BD4FFE01319601900D9241
:104A80009A95E1F7809385020E946309B0CF819FD8
:104A9000C00111248A579D4F0E944323882309F4A3
:104AA000ADCF8091B60290E00196877099278093F0
:104AB000B6029ECF962F40917B0350917C0360916C
:104AC0007D0370917E03411551056105710539F132
:104AD000769567955795479540FF21C081112EC067
:104AE0008091F602282F2272382F34748171992315
:104AF00059F031110C94031781110C94D616211121
:104B00000C94EE160C94601B31110C94FA16811162
:104B10000C94CA1621110C94E2160C94571B8111A7
:104B200006C089EA911101C08AEA0C940011813013
:104B300029F48EE49111F9CF8BE4F7CF08958F9289
:104B40009F92AF92BF92CF92DF92EF92FF920F931C
:104B50001F93CF93DF9390E3E92E91E0F92E0DEFB1
:104B600012E06801D0E0AA24A394B12CD7018D9162
:104B70007D01F894E82FE295EF70F0E021A18F70AD
:104B8000A50102C0440F551F8A95E2F7CA01922F72
:104B9000982B91A392A18095892382A3789450EABF
:104BA0005A95F1F7E7E2F1E030E020E0912C812C1A
:104BB0004191A42FA295AF70B0E090968C9190E0B7
:104BC0004F7002C0959587954A95E2F780FD4FC0DA
:104BD000C501022E02C0880F991F0A94E2F7882AA5
:104BE000992A2F5F3F4F2930310511F7F70131978F
:104BF00080810E94BF0AD6018D919C9111978816E1
:104C00009906C1F18D929C9281E0D82BB2E0CB0E37
:104C1000D11CE5E3EE16E1E0FE0609F0A7CFC09156
:104C20001203DD2349F181E08093DF010E94D70860
:104C30009093DE018093DD018091DD019091DE0192
:104C40000E94C8080697E0F0EC2FF0E0EE0FFF1F7F
:104C5000E95BFC4FD8018D919D918D0181939193DA
:104C6000B3E007301B07B1F71092DF0109C090E0F5
:104C700080E0B5CF80E0C9CF8091DF018111DCCF2A
:104C80000E949A15882309F4AFC0C0911103809146
:104C900025038823E9F085E0E2E4F3E0A0EEB1E04B
:104CA00001900D928A95E1F780912303909124035E
:104CB000A09125038093E5019093E601A093E7017D
:104CC00081E090E00E94EA31892B11F410922503D3
:104CD00090E080E00E94EA310097B1F08091F50108
:104CE0008F5F8093F501863008F057C08D2FDF91DC
:104CF000CF911F910F91FF90EF90DF90CF90BF90D9
:104D0000AF909F908F900895EC2FF0E0EE0FFF1F73
:104D1000E95BFC4FDC01AA0FBB1FA651BE4F2D91D2
:104D20003C912193319301968530910599F78091BB
:104D3000400380FF1CC08695869586958093E90187
:104D4000F09016030F2D10E00A5D1C4FC091F40186
:104D5000F8018081C81BEC2E1E145CF08C2FC7FD5F
:104D600080E0C81BC1110FC01092F501BFCF80E0D9
:104D7000E5CFEA94D8018C918F5F8C9360E08F2D02
:104D80000E945A25E9CFCF5FF8018081815080834E
:104D900061E08F2D0E945A25E5CF8091110390E0AC
:104DA000FC01EE0FFF1FE95BFC4F11821082FC013A
:104DB000EE0FFF1FE75BFC4F11821082FC01EE0F2C
:104DC000FF1FE55BFC4F11821082FC01EE0FFF1FFD
:104DD000E35BFC4F11821082880F991FFC01E15B9D
:104DE000FC4F1182108282CFC09112038091E801A2
:104DF000883099F58091E70180FF0FC08091E00134
:104E000080FF4EC080914203816080934203809175
:104E1000E00160E086950E94431A8091E70181FFDE
:104E200009C020E04091E3016091E2018091E1013D
:104E30000E94D3158091E70182FF06C08091E601B0
:104E4000882389F10E941C1A8091E70183FF03C027
:104E500081E0809320031092E801EC2FF0E0EE0F48
:104E6000FF1FE95BFC4F90E080E021913191DC0174
:104E7000AA0FBB1FA651BE4F11963C932E930196CD
:104E80008530910591F78091E9010E94A509E09193
:104E90002903F0E0EA5DFC4F80818093F40126CF86
:104EA0000E947315BACF0E94700FCECF1F920F923F
:104EB0000FB60F9211242F933F934F935F936F93ED
:104EC0007F938F939F93AF93BF93CF93DF93EF9392
:104ED000FF93D091E900DF708091EC00C82FC17082
:104EE00080FDC0E81092E9008091F000877F8093F8
:104EF000F00078940E9450171092E9008091F00021
:104F000088608093F000CD2BCF70C093E900FF91B3
:104F1000EF91DF91CF91BF91AF919F918F917F9151
:104F20006F915F914F913F912F910F900FBE0F9016
:104F30001F9018951F920F920FB60F9211242F9366
:104F40003F934F935F936F937F938F939F93AF9311
:104F5000BF93EF93FF938091E10082FF15C0809192
:104F6000E20082FF11C08091E1008B7F8093E1001D
:104F7000209160032F5F822F62E30E947832992391
:104F800009F4C6C0209360038091DA0080FF28C036
:104F90008091D80080FF24C08091DA008E7F8093BA
:104FA000DA008091D90080FFE9C080E189BD82E10B
:104FB00089BD09B400FEFDCF81E080936E038BEACA
:104FC0009BE00E94970680916103811109C00E94B5
:104FD00039070E9404088091E20084608093E20017
:104FE0008091E10080FF1BC08091E20080FF17C02C
:104FF0008091E2008E7F8093E2008091E2008061E8
:105000008093E2008091D80080628093D80019BC20
:1050100085E080936E0383EB9BE00E94970680916E
:10502000E10084FF35C08091E20084FF31C080E15F
:1050300089BD82E189BD89B5982F917080FFFBCF32
:105040008091D8008F7D8093D8008091E1008F7E81
:105050008093E1008091E2008F7E8093E200809156
:10506000E20081608093E20080916F03882309F45D
:105070008FC084E080936E0387EB9BE00E949706CD
:105080000E9445170E94391B0E9499090E94190B22
:105090008091E10083FF2BC08091E20083FF27C055
:1050A0008091E100877F8093E10082E080936E032E
:1050B00010926F038091E1008E7F8093E1008091D8
:1050C000E2008E7F8093E2008091E2008061809315
:1050D000E20042E060E080E00E94D2078091F000B0
:1050E00088608093F0008BEB9BE00E949706FF9115
:1050F000EF91BF91AF919F918F917F916F915F9150
:105100004F913F912F910F900FBE0F901F901895C8
:105110001092600380915F03882309F435CF80915A
:105120006E038430C1F49091E9009F702091EC00EF
:10513000822F817020FD80E8892B95E09093E90013
:105140009091EB0090FF04C09091EE0097FD08C095
:105150008F708093E90010925F0316CF1092F100D8
:105160009091E80095FDFACF9091E80090FFF0CF84
:105170009091E8009E779093E800EACF19BC1092D6
:105180006E038FEA9BE00E9497061092610328CF7E
:105190008091E30087FD93E090936E036DCFCDB7D0
:1051A000DEB7E1970FB6F894DEBF0FBECDBF84B770
:1051B000877F84BF0FB6F894A895809160008861BE
:1051C00080936000109260000FBE80E890E00FB600
:1051D000F89480936100909361000FBE85B780685A
:1051E00085BF85B7806885BF0E9439070E94040883
:1051F0008091E20084608093E20084E89FE09093D5
:10520000D3018093D201789480916E038823A1F01A
:105210001091E9001F709091EC00892F817090FD32
:1052200080E8182B1092E9008091E80083FD0E942D
:1052300050171F701093E90082E084BD93E095BD84
:105240009AEF97BD80936E0087988F988FB1881FD3
:105250008827881F80933A0180913A01882309F4B6
:105260009BC01092120188E0809313010E949A154E
:10527000882331F062E070E087E191E00E9408311C
:1052800080913A0181112FC0FE01359686E0DF0141
:105290001D928A95E9F783E3898382E38A8386E313
:1052A0008B8384E38C8387E98D833497A0E3B1E01B
:1052B000CE010B9621912D938E179F07D9F789E088
:1052C000E8E4F1E0DE01919601900D928A95E1F714
:1052D000FE01B196A7E2B1E0CE018A9621912D930D
:1052E0008E179F07D9F780913A0195E0811190E0E0
:1052F0009093120385E0891B8093110300E311E072
:10530000A5E3EA2EA1E0FA2EF80181918F010E9417
:10531000BF0AE016F106C1F707E211E0F0E3EF2E55
:10532000F1E0FF2ED8018D918D010E94BF0AE01699
:10533000F106C1F7EDEFF2E081E193E0A7E4B3E01D
:10534000119211921D921D928E179F07C9F70E940C
:105350009F25EFE3FCE93197F1F700C000000E94C0
:105360009F258091470380FF1BC06FEF82E290E092
:105370000E9445336FEF83E290E00E9445336FEF68
:1053800084E290E00E9445336FEF7FEF90E080E091
:105390000E9463330E944D1088E08093120164CF15
:1053A0000E94B615811102C00E94BE1A259A2D983E
:1053B00082E88093800089E1809381008FEF9FEFE6
:1053C00090938700809386000E94391B269A0E9442
:1053D0009A15811106C062E070E087E191E00E94B9
:1053E000113182E290E00E943133813209F046C6E9
:1053F00083E290E00E943133833009F03FC684E2BB
:1054000090E00E943133813209F038C60E94B6150F
:10541000811102C00E94BE1A82E090E00E943133E6
:10542000809341030E943B0B9093140380931303DA
:1054300083E090E00E943133682F70E090E080E0DC
:105440000E94D70E0E94391B809115038111E7C07D
:105450008091410380FF14C084EA9AE09F938F9368
:105460000E943007809141030F900F9080FF08C089
:105470008EE89AE09F938F930E9430070F900F90D1
:105480000E94B615811110C08091410380FF08C0B1
:1054900086E69AE09F938F930E9430070F900F90BB
:1054A0000E94BE1A0E942E1788E090E00E943933B5
:1054B00060934203709343038093440390934503A6
:1054C000809125038360809325036E7FD1F48091C2
:1054D000410380FF08C08DE19AE09F938F930E9463
:1054E00030070F900F900E942E1788E090E00E94E6
:1054F0003933609342037093430380934403909342
:1055000045030E941A0A8091410380FF76C084E01F
:105510009AE09F938F930E943007809141030F90F0
:105520000F9080FF6AC08091420381701F928F9319
:1055300087EE99E09F938F930E94300780914103FB
:105540000F900F900F900F9080FF57C080914203F3
:1055500086951F928F938CEC99E09F938F930E9476
:105560003007809141030F900F900F900F9080FFB4
:1055700044C0809143031F928F9382EB99E09F93E5
:105580008F930E943007809141030F900F900F90EE
:105590000F9080FF32C0809144031F928F9388E95F
:1055A00099E09F938F930E943007809141030F9061
:1055B0000F900F900F9080FF20C0809145031F92A5
:1055C0008F938EE799E09F938F930E94300780918D
:1055D00041030F900F900F900F9080FF0EC08091AD
:1055E00046031F928F9382E699E09F938F930E94C8
:1055F00030070F900F900F900F901092240380911E
:1056000025038460809325038091420380FF04C0BA
:1056100060E086950E94431A81E080931503809193
:105620003A01811106C086E980933C0184E98093A8
:105630003B0120913C01A22FA295AF70B0E0919662
:105640003C9191972F7081E090E0BC01022E01C047
:10565000660F0A94EAF7462F4095432391964C93A0
:10566000919792963C919297362B92963C93929773
:1056700040913B01E42FE295EF70F0E031A14F70D3
:10568000042E01C0880F0A94EAF7982F909593236F
:1056900091A392A1892B82A390968C9190E002C055
:1056A000959587952A95E2F7817020A130E002C098
:1056B000359527954A95E2F792E020FF90E0892BF7
:1056C00080932A0390913A0181E0982790932903CF
:1056D000891B809316038DE391E0909318038093C8
:1056E00017038AE99BE00E949706E4E02E2E312CF6
:1056F00080916E03853009F453C10E949F250E945A
:105700009A15811192C18FEF8AA78BA71CA60E94C0
:10571000D7088160782F9EA78DA74AA55BA56CA5A9
:105720008EA50E94CD2480912403882309F477C09C
:1057300080912303E0914203E695E81BE0931F0369
:10574000823009F004C2F0E0E45EF44FE4910E2FE1
:1057500010E02FE4E22E25E1F22E80912003882331
:1057600089F0109220030E94D70898012095309567
:10577000820F931F90931E0380931D0310922203A8
:105780001092210380911D0390911E030E94C8086E
:105790008017910708F443C080911C03882311F1FE
:1057A00010921C0380911A0390911B030E94C80859
:1057B00080339547B8F00E94D70890931B038093DD
:1057C0001A038091410380FF08C082EE9AE09F9304
:1057D0008F930E9430070F900F908091250388606F
:1057E00080932503C0902103D0902203E0911D03F4
:1057F000F0911E030E0F1F1F10931E0300931D0335
:105800008DE193E0F70109958091210390912203A6
:10581000892B29F4CD2819F081E080931C03809115
:105820002A03E82FEE0FEE0F20913C01A22FA29544
:10583000AF70B0E090968C9190E02F7002C095957B
:1058400087952A95E2F79C012170332780913B01CF
:10585000A82FA295AF70B0E090964C9150E08F7059
:1058600002C0559547958A95E2F7CA01817099273C
:1058700040FF02C082E090E0822B8E2B80932A03AF
:10588000109129038F70E82FF0E0E355FE4F8081DF
:1058900090912803890F8093280384306CF0E12FC6
:1058A000012E000CFF0BEA5DFC4F80818F5F80832F
:1058B00060E0812F0E945A25809128038D3F6CF46F
:1058C000E12F012E000CFF0BEA5DFC4F808181501F
:1058D000808361E0812F0E945A2580912803082E41
:1058E000000C990BB1010E949832809328030E940A
:1058F000990990912B03891751F10E949909182F4A
:1059000080932B038091410382FF1EC080FF1CC047
:1059100087E29BE00E9497068091410380FF14C0BC
:105920001F921F9382E29BE09F938F930E94300708
:10593000809141030F900F900F900F9080FF04C053
:1059400080E29BE00E949706812F0E94190B8091B4
:105950006E03843009F0CCCE83E08093E90080911F
:10596000E80082FFC5CE8091E80090E085FF06C088
:105970000E945807882309F456C191E08091E800FD
:105980008B778093E800992309F4B2CEE981E15046
:10599000E33108F0EBC1F0E0EA5EFB4C0C94AC3272
:1059A00086E99BE00E94970680916E03843051F156
:1059B00080E00E94A50980E00E94190B1092190353
:1059C00088E190E020E40FB6F894A89580936000F9
:1059D0000FBE2093600083B7817F846083BF83B74D
:1059E000816083BF7894889583B78E7F83BF0FB61D
:1059F000F894A8958091600088618093600010926F
:105A000060000FBE80916D03882309F471CE0E945F
:105A10009F25E7E4F3E081919191892B09F018C368
:105A200023E0EB35F207B9F763CE8CE293E098AB55
:105A30008FA777E4672E73E0772E10E000E0502EFA
:105A4000D301ED90FD903D01EFA5F8A9A190B19093
:105A5000F8ABEFA7AE14BF0431F40F5F1F4F0A304D
:105A6000110569F750CE8091410381FD2DC0AE2410
:105A7000BF2480E0CC24C394D12C96012A213B2161
:105A8000232B09F45DC089A35AA2EC20FD2081E0FC
:105A9000EF2809F480E08BA30E94D7088160782F5B
:105AA0009DA38CA349A15AA16BA18DA10E94CD24D5
:105AB000000F111FF801E45DFC4F80819181C82621
:105AC000D926D182C0822FCE8BEC9AE00E94970615
:105AD00057E4852E53E0952ED12CC12CDF92CF9226
