:100000000C949E0E0C94E50E0C94E50E0C94E50EEB
:100010000C94E50E0C94E50E0C94E50E0C94E50E94
:100020000C94E50E0C94E50E0C9482210C9459204E
:100030000C94F5330C94E50E0C94E50E0C94E50E3F
:100040000C94E50E0C94E50E0C94E50E0C94E50E64
:100050000C94E50E0C949D200C94E50E0C94E50E8A
:100060000C94E50E0C9418340C943A340C94E50E70
:100070000C94E50E0C94E50E0C94E50E0C94E50E34
:100080000C94E50E0C94E50E0C94E50E0C94E50E24
:100090000C94E50E0C94E50E0C94E50E0C94E50E14
:1000A0000C94E50E0C94E50E0C94E50E0501098008
:1000B000A101850319012AB700150126B700950192
:1000C00075108100C0050C0901A101850419012AE0
:1000D000A002150126A002950175108100C005013E
:1000E0000906A1018505050719E029E71500250185
:1000F0009508750181020507190029EF15002501F2
:1001000095F075018102050819012905950575010C
:100110009102950175039101C00660FF0961A1017B
:100120000962150026FF00952075088102096315F4
:100130000026FF00952075089102C005010906A15F
:1001400001050719E029E7150025019508750181CA
:10015000029501750881010507190029FF15002680
:10016000FF00950675088100050819012905950508
:1001700075019102950175039101C0000101010112
:100180000101010101020202020202020202030352
:100190000303030303030404040404040405050522
:1001A00005050606060606070707070708080808E4
:1001B000090909090A0A0A0B0B0B0C0C0C0D0D0D91
:1001C0000E0E0E0F0F0F1010111111121213131427
:1001D00014151516161717181819191A1A1B1B1C9F
:1001E0001D1D1E1E1F2020212222232424252626F9
:1001F000272829292A2B2C2D2D2E2F30313232332E
:100200003435363738393A3B3C3D3E3F4041424336
:100210004445464748494A4C4D4E4F50515354551A
:100220005658595A5B5D5E5F616264656668696BCA
:100230006C6D6F7072737577787A7B7D7E80828348
:100240008587888A8C8E8F91939596989A9C9EA08C
:10025000A2A3A5A7A9ABADAFB1B3B5B7BABCBEC099
:10026000C2C4C6C9CBCDCFD1D4D6D8DBDDDFE2E462
:10027000E7E9EBEEF0F3F5F8FAFDFFFFAA7F554052
:100280002223252628292A2C2D2F303233353638A3
:100290003A3B3D3E4042434547494A4C4E505153FC
:1002A0005557595A5C5E6062646668696B6D6F7120
:1002B000737577797B7D7F81838587898A8C8E9022
:1002C000929496989A9C9E9FA1A3A5A7A8AAACAE2B
:1002D000AFB1B3B4B6B8B9BBBCBEBFC1C2C3C5C66B
:1002E000C7C9CACBCCCDCED0D1D2D2D3D4D5D6D714
:1002F000D7D8D9D9DADADBDBDBDCDCDCDCDCDDDD52
:10030000DDDDDCDCDCDCDCDBDBDBDADAD9D9D8D741
:10031000D7D6D5D4D3D2D2D1D0CECDCCCBCAC9C7E3
:10032000C6C5C3C2C1BFBEBCBBB9B8B6B4B3B1AF1A
:10033000AEACAAA8A7A5A3A19F9E9C9A98969492BA
:10034000908E8C8A89878583817F7D7B7977757391
:10035000716F6D6B6968666462605E5C5A5957556F
:100360005351504E4C4A4947454342403E3D3B3A2B
:100370003836353332302F2D2C2A292826252322B2
:10038000000029001E001F00200021002200230081
:1003900024002500260027002D002E002A004A00F8
:1003A000A8002B0014001A000800150017001C00FC
:1003B00018000C00120013002F00300031004C0018
:1003C0006900390004001600070009000A000B004C
:1003D0000D000E000F0033003400000028004B0019
:1003E0006A00E1001D001B00060019000500110055
:1003F0001000360037003800E500000052004E00C3
:100400006B00E000E200E300000000002C000000B0
:1004100000000151E600E4005000000051004F00D0
:10042000000001003A003B003C003D003E003F0060
:1004300040004100420043004400450001004D00DF
:10044000C35C010001000100010001000100010086
:100450000100010001000100010001000100010094
:100460000100010001000100010001000100010084
:100470000100010001000100010000000100010075
:100480000100010001000100010001000100010064
:100490000100010001000100010000000100010055
:1004A0000100010001000100000000000100000047
:1004B0000000010001000100010000000100010036
:1004C00000AF00AE000000000000000000000000CF
:1004D00000000000000000007E0F00D4FFFFFFC7F7
:1004E0000000007800000000000000002A2B280017
:1004F00000000000000000000000000000000029D3
:10050000000000002C1E3420212224342627252E12
:10051000362D3738271E1F2021222324252633334A
:10052000362E37381F0405060708090A0B0C0D0E76
:100530000F101112131415161718191A1B1C1D2F42
:100540003130232D350405060708090A0B0C0D0E62
:100550000F101112131415161718191A1B1C1D2F22
:100560003130354C00DA0281FFD9F1DB20A4A62E10
:10057000AF00A0C000A1C800AED580A81FD3004026
:100580008D14200032190A00047F3F1F6432146466
:100590003214783C1E1E140A050000000000000002
:1005A00000804040E020100000F09060C48A1232C9
:1005B0004C000000000000000000000000000000EF
:1005C000000000000000008080000000000080406B
:1005D0004020202020101010100804020101020CFD
:1005E00030408000000000000000F8F8F8F800003B
:1005F00000000080800000000000000000000000FB
:1006000000000000000000000000000000000000EA
:10061000008080804040404020000000000000003A
:1006200000000000000306000003000000000000BE
:1006300000000000000000000000000000000000BA
:1006400000000000001EE100000101020281808024
:1006500000008080000000000000000000800030EA
:10066000300000010102040810204387070100B890
:10067000BCBE9F5F5F4F4C20202020201010101028
:100680000808080808040404020202020201010129
:100690000100000000000000000000000000000059
:1006A000000000000000000000000000000000004A
:1006B000000000000000000000000000000000003A
:1006C0000000000080700C0300001806018080808C
:1006D000437C414140402021221211111109080898
:1006E0000808040408081010101010110F013D7CB8
:1006F000FCFCFCFCFC3C0C000000000000000000C6
:1007000000000000000000000000000000000000E9
:1007100000000000000000000000000000000000D9
:1007200000000000000000000000008080804040C9
:100730004040402020201010101010080808040429
:10074000040404020302020101010101010000008E
:100750000000000000000000000000000000000099
:100760000000000000000000000000000000000089
:100770000001030300000000000000000000000072
:100780000000000000000000000000000000000069
:100790000000000000000000000000000000000059
:1007A0000000000000000000000000000000000049
:1007B0000000000000000000000000000000000039
:1007C00000000000000000000000000000000080A9
:1007D00080000000000080404020202020101010E9
:1007E000100804020101020C3040800000000000EB
:1007F00000000000000000000000000000000000F9
:1008000000000000000000000000000000000000E8
:100810000000000000000000008080804040404058
:100820002000000000000000000000000000402048
:10083000206090100000F0485030E0820E3B690FBD
:10084000060000000000000000000000001EE100A3
:100850000001010202010000000080800000000091
:10086000000000000080003030000001E11A0601A5
:10087000010101827C000080808080404040402057
:100880002020202010101010080808080804040474
:10089000020202020201010101000000000000004A
:1008A0000000000000000000000000000000000048
:1008B0000000030000000300000000000000000032
:1008C00000000000000000000000000080700C0329
:1008D0000000000000000000000001010040A02115
:1008E0002212111111090808080804040404040460
:1008F00002020201010101000000000000000000EE
:1009000000000000000000000000000000000000E7
:1009100000000000000000000000000000000000D7
:1009200000000000000000000000000000000000C7
:100930000000008080804040404040202020101077
:10094000101010080808040404040402037A7A79D9
:100950007979793931020204040808088888878087
:100960000000000000000000000000000000000087
:100970000000000000000000000000000000000077
:100980000000000000000000000000000000000067
:100990000000000000000000000000000000000057
:1009A0000000000000000000000000000000000047
:1009B0000000000000000000000000000000808037
:1009C00040404020202010101010080808080C0A91
:1009D000090909080404040408080808081010207C
:1009E0002020504080000000001C222121222C30B9
:1009F000D010112120408080000000000020202124
:100A0000121CF0101808080000010102040830C090
:100A10000000000000000000000080C0C0000000D6
:100A200000000000000000000000000000000000C6
:100A3000000000000000C020100804028101000036
:100A40004080008000000000182424241800C030DA
:100A50000E8040408000000000C020202040404028
:100A60002018000000018244784020101008080877
:100A70000704040202020101010101010101010157
:100A80000101010101818181820202020404080B3B
:100A9000101020602030180C04030100FF0000003B
:100AA0000000000000000000000000000000000046
:100AB0000000000000FE010000000888854E74E27E
:100AC0002121171868C4000000000000180700006A
:100AD0000003040404030000000100000000000003
:100AE000C020100C02010000000000000000000007
:100AF00000000000C06030100808080808103040EE
:100B000080000E03010100E0301907000000000022
:100B10000000000000000000000000C03F000000D6
:100B200000000000000000000000000000000000C5
:100B3000000000000000030408102020C000000096
:100B400001804040404080808080404040404040A4
:100B5000404040404040202010101010080834CF82
:100B600000000000003E63C1C1BE80000000000024
:100B7000008000001F2040C08E11190E038684C61D
:100B800063000000000000010600002000000000DB
:100B900000000000000000C0201807010000000055
:100BA0000000000000000000000000000000000045
:100BB000000000000000000000000000030002022E
:100BC0000100000000000000000000000000000024
:100BD0000000000000000000000000000000000114
:100BE00000000000000000030000000103000000FE
:100BF00000030000000000000001010101010000ED
:100C000000000000000000000000000000000000E4
:100C100000000000000101000000000000000000D2
:100C200000000000000000000000000000000000C4
:100C300000000000000000000000000000000000B4
:100C400000000000000000000080804040402020A4
:100C5000202020202010181414121211101010102F
:100C60001010102020202020406080808000000094
:100C70001C222121222C3050901111202040C00034
:100C800000000000101010090E7888040404000011
:100C900000000001020CF000000000000000000055
:100CA0000000000000000000000000000000000044
:100CB0000000000000000000000000000000000034
:100CC000C0201008080482010100408000808000DC
:100CD00000003048484830008060180480800000E0
:100CE0000000000080808080000080E0010102069A
:100CF0000810E01020202020211618305008080786
:100D000000000000000000000000010000000000E2
:100D1000008040300C0201000000000000000000D4
:100D200000000000000000000000000000000000C3
:100D3000000000000000000000000000000000FFB4
:100D400000000000088CC54E74E221211718688449
:100D5000040000000000300E010000070908090629
:100D60000000000700000001010101000000000078
:100D700080700F0000000000000000000000000074
:100D8000000000000000000000000000F804020263
:100D90000100000000000000000000000000000052
:100DA0000000000000000000000000000000000043
:100DB0000000000000000000000000000000000033
:100DC0000304081020E00000000081C04040C08003
:100DD0008080808080808080808080808080808013
:100DE000404040404020202010100808040A06051A
:100DF00004040404040202020202010101010101CF
:100E000001061860800000000080780700000000E4
:100E100000000000000000000000000000000000D2
:100E200000000000000000000000000000000000C2
:100E300000000000000000000000000000000000B2
:100E4000000000000003000202010000000000009A
:100E50000000000000000000000000000000000092
:100E60000000000000000000000000000000000082
:100E70000000000000000000000000000000000072
:100E8000000000000001020000030000000000005C
:100E90000000000000000000000000000000000052
:100EA0000000000000000000000000000000000042
:100EB0000000000000000000000000000000000032
:100EC0000000000000000000000000000000000022
:100ED00000000000000000000000000080404020F2
:100EE00010100804000201010100000000008080D1
:100EF000E080E00000000000003C222121232C3093
:100F00007051911010102060800000000008080847
:100F100004073CC40404020200000000000107FCB6
:100F200000000000000000000000000000000000C1
:100F300000000000000000000000000000000000B1
:100F400000000000000000000000000000000000A1
:100F500000000000000000000000F00C0300000092
:100F600000000000000000061820C0000000050678
:100F700003010701010100000000000000302020F3
:100F8000202021161C386804070000000000000023
:100F900000000000000000000080C020300C0700AE
:100FA0000000000000000000000000000000000041
:100FB0000000000000000000000000000000000031
:100FC0000000000000000000000000000000000021
:100FD000000000000000000000000F3040408000D2
:100FE00000000000000000000000000100001000F0
:100FF00000000000000000000000000000000000F1
:1010000000000000000000808080800000000000E0
:101010000000000000807E020101000000000000CE
:1010200000000000000000000000000000000000C0
:1010300000000000000000000000000000000000B0
:1010400000000000000000000000000000000000A0
:10105000000000000000000000000000000000018F
:101060000102020204040404040408080808080831
:101070000808080808080808040404040404040410
:1010800002020202010101000000010304183040C5
:1010900080000000C03F00000000000000000000D1
:1010A0000000000000000000000000000000000040
:1010B0000000000000000000000000000000000030
:1010C0000000000000000000000000000000000020
:1010D0000000000000000000000000000000000010
:1010E0000000000000000000000000000000000000
:1010F00000000000000000000000000000000000F0
:1011000000000000000000000000000000000000DF
:1011100001030002010000000000000000000000C8
:1011200000000000000000000000000000000000BF
:1011300000000000000000000000000000000000AF
:101140000000000000000001806010480824041422
:101150008414042888106080000004008060100857
:10116000080444840404040808106082000000009D
:10117000000000FC02010101010101010101010166
:10118000018141212121A16141C141C1818181812F
:10119000010101010101010101010101018141215F
:1011A0002121A2FC0000001000000000008040206F
:1011B0001010080804040404040404080810102093
:1011C00040840000000004001F608510400080067D
:1011D000070000000082601F000000001F608040C8
:1011E000202010935C1020204080601F0000000031
:1011F000000000FFC1020C70800000000000E01C35
:101200000300C038060180700C02031CE0010638A0
:10121000C1020C70800000000000E01C0300C03818
:10122000060180FF000000000000F00C0300000039
:101230000000000000000000C0300C0300000000AF
:101240000000030CF004008080888081810202127B
:1012500002828281818080000800008080908081ED
:1012600081020202028282010100008080000100EE
:10127000000000FF418EB0C0839C60A01807804032
:10128000300E0180601C03000000000000071820E1
:10129000418EB0C0839C60A018078040300E018052
:1012A000601C03FF000000000000071860900808A1
:1012B00004640402F25292131212F202046404084B
:1012C000089070180700001F129914121F000400E4
:1012D000001F101010101F000040001F10101010F1
:1012E0001F000000400D0D000C0C0001010000006B
:1012F0004000001F204040404041414141434242A4
:1013000042424140404040404040404040404040D8
:1013100040404040404141414143424242424140BD
:101320004040201F000008000000000000400102B3
:1013300004040808111212121212110808044402BF
:101340000100000000200000000000000000000478
:101350008060104808A404140414042888106080D5
:1013600000040000806010080804040404C4040899
:101370000810608002000004000000FC020101016E
:101380000101010101010101018141212121A1612D
:1013900041C141418101010101010101010101013D
:1013A00001010101018141212121A2FC0000400035
:1013B000000200000080402010100808048404048B
:1013C00004040408081010204280000010000000EF
:1013D0001F60851040008106060000000082601F2B
:1013E000000000001F608040202010509E1120202F
:1013F0004080601F00000000000000FFC0000000EF
:10140000000000000000E01C0300C03806010000DE
:101410000000031CE0010638C000000000000000CE
:101420000000E01C0300C038060100FF00000000BF
:101430000000F00C030000000000000000011EE0AE
:1014400000000000000000000000030CF00000801D
:1014500080908081810202020282828181808800E4
:101460000000008080808881810202020282820165
:101470008180000000000000001000FF418EB0C01D
:101480008080402018078040300E010000000000DE
:101490000000000000071820418EB0C0808040206E
:1014A00018078040300E0100000000FF000200001D
:1014B000000007186090080804640402F2129253B6
:1014C0009212F20204640408089070180700001FCA
:1014D000101010101F008000001F101010101F00AF
:1014E0000000001F1F1F1F1F1F0000004001018080
:1014F0000D0D000C0C0000000000001F20404040BB
:1015000040414141414140404040404040404040D6
:1015100040404040404040404040404040414141C8
:1015200041414040404040404040201F00000000FA
:101530000008000000000102040408081112121241
:101540001212110808040402010000040000000047
:10155000000000000000000080601448082404140B
:1015600004140428881060800000080080601008BF
:1015700008040404040404088810608000000400C7
:10158000000000FC02010101010101010101010152
:10159000018141212121212141810101010101011B
:1015A000010101010101010101010101018141214B
:1015B000212122FC000010000000000200804020D9
:1015C000101008080404040404040408081010207F
:1015D00040800004000000001F6085104404840661
:1015E000060000000082601F000000001F608040B5
:1015F00020201010181422214080601F00000000DD
:10160000000000FF00000000000000000000E01CDF
:1016100003000000000000000000031CE0000000C8
:1016200000000000000000000000E01C03000000BB
:10163000000000FF000000080000F00C03000000A4
:10164000000106083040800000000000000000009B
:101650000000030CF0000080808090818102120263
:1016600002828281818080000008008080808081E9
:101670008102020202020A018180008080080000CB
:10168000000100FF4080808080804020180700001B
:10169000000000000000000000000000000718200B
:1016A00040808080808040201807000000000000FB
:1016B000000000FF0000000000000718609008080C
:1016C00004640402F21213129252F2020464040837
:1016D000089070180700001F101010101F000080E5
:1016E000001F101616101F000000001F10101050D1
:1016F0001F000000000C0C000101000D0D00004057
:101700000000001F204040404040404040404040DA
:1017100040404040404040404040404040404040C9
:1017200040404040404040404040404040404040B9
:101730004040201F0080000000000008000001025F
:1017400004040808111212121212110808040402EB
:101750000110000000000000000000000000004E2A
:101760006F74205365740009025B00030100A0FA46
:1017700009040000010301010009211101000122F7
:1017800040000705810308000A0904010002030064
:101790000000092111010001222200070582032017
:1017A00000010705030320000109040200010300F2
:1017B0000000092111010001226D000705840320AA
:1017C000000A1201100100000008616E6060010053
:1017D000010200010E034E004900420042004C008D
:1017E0004500000012036E0075006C006C00620082
:1017F0006900740073000000040309040000000085
:1018000000003E5B4F5B3E003E6B4F6B3E001C3E5C
:101810007C3E1C00183C7E3C18001C577D571C0069
:101820001C5E7F5E1C0000183C180000FFE7C3E749
:10183000FF00001824180000FFE7DBE7FF00304836
:101840003A060E00262979292600407F0505070063
:10185000407F05253F005A3CE73C5A007F3E1C1C58
:101860000800081C1C3E7F0014227F2214005F5FCA
:10187000005F5F0006097F017F00006689956A00AE
:1018800060606060600094A2FFA2940008047E047F
:10189000080010207E20100008082A1C0800081CE0
:1018A0002A0808001E10101010000C1E0C1E0C0040
:1018B00030383E383000060E3E0E060000000000B4
:1018C000000000005F000000000700070000147F18
:1018D000147F1400242A7F2A120023130864620054
:1018E000364956205000000807030000001C224122
:1018F00000000041221C00002A1C7F1C2A0008084E
:101900003E08080000807030000008080808080041
:101910000000606000002010080402003E514945AC
:101920003E0000427F400000724949494600214183
:10193000494D33001814127F1000274545453900E2
:101940003C4A4949310041211109070036494949BA
:101950003600464949291E000000140000000040DE
:101960003400000000081422410014141414140060
:101970000041221408000201590906003E415D5948
:101980004E007C1211127C007F49494936003E41CD
:10199000414122007F4141413E007F494949410088
:1019A0007F09090901003E41415173007F08080881
:1019B0007F0000417F4100002040413F01007F083F
:1019C000142241007F40404040007F021C027F0003
:1019D0007F0408107F003E4141413E007F09090914
:1019E00006003E4151215E007F0919294600264923
:1019F0004949320003017F0103003F4040403F005E
:101A00001F2040201F003F4038403F00631408144F
:101A100063000304780403006159494D4300007FCB
:101A200041414100020408102000004141417F0073
:101A30000402010204004040404040000003070847
:101A400000002054547840007F2844443800384433
:101A500044442800384444287F0038545454180023
:101A600000087E09020018A4A49C78007F080404E2
:101A7000780000447D4000002040403D00007F1081
:101A80002844000000417F4000007C047804780076
:101A90007C0804047800384444443800FC182424AA
:101AA000180018242418FC007C080404080048547A
:101AB0005454240004043F4424003C4040207C0053
:101AC0001C2040201C003C4030403C004428102892
:101AD00044004C9090907C004464544C44000008B6
:101AE0003641000000007700000000413608000089
:101AF0000201020402003C2623263C0000000000F4
:101B00000000404040F0F8F8FF38FFF8F83FF8F8E0
:101B1000FF38FFF8F8F0404040000000000000806F
:101B2000C0C0C0800000C0C08000000080C0C000F5
:101B3000C0C0000080C0C00000000000C0C0C0C025
:101B4000C000C0C000000000000000000000000055
:101B50000000000000000000000000000000000085
:101B60000000000000000000000000000000000075
:101B70000000000000000000000000C0F0F8FC3E83
:101B80001E06010000007F4141417F007F4141412D
:101B90007F000080C0E07E5B4F5BFEC00000C000A5
:101BA000DCD7DEDEDED7DC00C00000000000000075
:101BB0000000000000000000000000000000000025
:101BC0000000494949FFFFFFFFE0DFBFBF00BFBF83
:101BD000DFE0FFFFFFFF49494900000000001F3F11
:101BE0006060E0BF1F007F7F071E381E077F7F00F9
:101BF0007F7F0E1F3B716000000000007F7F0C0C98
:101C00000C007E7E007F7E0303007F7E03037E7ECA
:101C100003037F7E000F3E703C063C703E0F003297
:101C20007B49493F7E007F7E0303001E3F69696F49
:101C30002600000000000000000000030F1F3F3CD2
:101C40007870600000007F4141417F007F41414149
:101C50007F00307B7F7830202030787F3B0003008E
:101C60000F7F0F0F0F7F0F00030000000000000028
:101C70000000000000000000000000000000000064
:101C80000000010101070F0F7F0F7F0F0F7E0F0F65
:101C90007F0F7F0F0F07010101000000000000000F
:101CA0000000000101000000000000000000000032
:101CB0000000000000000000000000000000000024
:101CC0000000000000000000000000000000000014
:101CD0000000000000000000000000000000000004
:101CE00000000000000000000000000000000000F4
:101CF00000000000000000000000000000000000E4
:101D000000000000000000000000000000000000D3
:101D100000000000000000000000000000000000C3
:101D200000000000000000000000000000000000B3
:101D300000000000000000000000000011241FBE91
:101D4000CFEFDAE0DEBFCDBF04B603FE27C080913F
:101D5000960690919706A0919806B09199068730C3
:101D6000904BA740B04BD1F4109296061092970674
:101D7000109298061092990614BE84B7877F84BF8C
:101D80000FB6F894A89580916000886180936000F8
:101D9000109260000FBEE0E0F8E3099526E0A2EBA8
:101DA000B1E001C01D92A639B207E1F711E0A0E051
:101DB000B1E0E6E3FEE602C005900D92A23BB1075A
:101DC000D9F70E946F2C0C94CE360C940000E8EDED
:101DD000F0E080818E7F80831092E2001092DA0022
:101DE0001092E100A0EEB0E08C9181608C93808134
:101DF0008F77808319BCA7EDB0E08C918E7F8C9398
:101E000080818F7E80831092500408952091E40099
:101E10003091E50095E6A9012091EC00822F8170B8
:101E200020FF06C08091E80080FF06C080E0089592
:101E30002091E80022FD1AC080917A04882389F05D
:101E4000853089F08091EB0085FD0FC02091E40082
:101E50003091E50042175307F9F29150E1F684E022
:101E6000089582E0089583E0089581E00895EF9257
:101E7000FF920F931F93CF937C018B010E94060F5B
:101E8000C82F811117C08091E80085FD0BC080919B
:101E9000E8008E778093E8000E94060F882399F36C
:101EA000C82F08C0F70181917F018093F100015094
:101EB000110949F78C2FCF911F910F91FF90EF904F
:101EC000089580917C0487FF13C08091E80082FF11
:101ED00006C08091E8008B778093E80004C0809171
:101EE0007A048111F2CF089580917A048823D9F37E
:101EF0008091E80080FFF8CF8091E8008E77ECCFEA
:101F0000982F9093E900242F762F50E0891731F015
:101F10007091EC002091ED005091F00021FD07C080
:101F20009F5F973071F78093E90081E008953091C9
:101F3000EB003E7F3093EB003091ED003D7F30931E
:101F4000ED003091EB0031603093EB007093EC00CA
:101F50002093ED005093F0002091EE0027FDE0CF9C
:101F600080E00895CF92DF92EF92FF920F931F933C
:101F7000CF93DF93C8EDD0E088818F7E8883E7ED33
:101F8000F0E080818160808384E082BF81E0809383
:101F9000500488818E7F888302EE10E0F801108261
:101FA0001092DA0081EEC82ED12CF60110828881C1
:101FB0008F77888388818068888388818F7D8883F4
:101FC00019BC10927A0410927B041092790410923A
:101FD000780490EEE92EF12CF70180818B7F8083CD
:101FE00088818160888342E060E080E00E94800F09
:101FF000F60180818E7F8083F801808181608083FB
:10200000808188608083F70180818E7F80838881D2
:1020100080618883DF91CF911F910F91FF90EF90A6
:10202000DF90CF900895FC01809182049091830409
:1020300086179707A0F06115710529F49091E800C3
:102040009E779093E80090E06115710551F491112D
:1020500008C08091E80082FF34C080E00895BC0190
:10206000F2CF80917A048823C1F18530C1F180914B
:10207000E80083FD30C08091E80082FDEACF8091C6
:10208000E80080FFE1CF8091F3002091F200382F2B
:102090006115710519F02830310558F091E02830AC
:1020A000310509F090E02091E8002E772093E800B8
:1020B000CBCF81918093F100615071092F5F3F4F29
:1020C000E7CF80917A04882341F0853041F08091F8
:1020D000E80083FFBECF81E0089582E0089583E0A9
:1020E0000895089508958091570408959C014FB76D
:1020F000F8948091ED039091EE03A091EF03B091DD
:10210000F0034FBF821B930B08952FB7F894609193
:10211000ED037091EE038091EF039091F0032FBFD8
:102120000895209124012223C9F02091FF0327FF65
:1021300015C0E62FE695E695E695EE31D8F4E80F62
:10214000F92FF11D677021E030E001C0220F6A9580
:10215000EAF720958281282322830895FC01329694
:1021600008962191621303C0DF0111971C92E817B2
:10217000F907B9F70895209124012223C1F0209195
:10218000FF0327FF14C0E62FE695E695E695EE31AE
:10219000F8F4E80FF92FF11D677021E030E001C07D
:1021A000220F6A95EAF78281822B82830895FC01CF
:1021B00032962FEF30E04191641751F02F3F19F420
:1021C000411101C0232F3F5F3630A9F72F3F09F49B
:1021D0000895820F911D27FD9A95FC016283089551
:1021E0008091E80381111092E803089580910A0418
:1021F0009091E703892B9091E603892B8093B2019C
:102200009091E8039923A1F0892B8093B2018091EA
:102210002401882341F18091FF0387FF24C08EE1D0
:10222000E4EBF1E090E0815000F591110E94F01094
:10223000E0910204F09103043097E1F080912401D1
:10224000882359F08091FF0387FF07C08091B20176
:102250008093B30185E08093B2010280F381E02D89
:1022600082EB91E0099486E0DBCF21912223D9F221
:102270009F5FD9CF08959295907F890F982F97707F
:1022800086958695869525E0829FF0011124ED5470
:10229000FC4F50E040E080E0219130E0092E02C088
:1022A000369527950A94E2F721703327042E01C052
:1022B000220F0A94EAF7822B4F5F5F4F453051059A
:1022C00059F708959295907F890F982F977041E064
:1022D00001C0440F9A95EAF786958695869595E014
:1022E000899FF0011124ED54FC4F30E020E070E0B4
:1022F0005191DF011197CB01022E02C0969587956F
:102300000A94E2F7817081958527842385278C9331
:102310002F5F3F4F2530310559F708958091B20363
:1023200090918103981301C008958F5F8770FACF51
:10233000882341F0809590910A04892380930A04B0
:102340000C94F6100895882339F090910A04982B84
:1023500090930A040C94F610089520917403309120
:1023600075032817390771F09093750380937403F0
:10237000E0910204F0910304309721F00084F1858C
:10238000E02D09940895209172033091730328176A
:10239000390771F09093730380937203E091020404
:1023A000F0910304309721F00680F781E02D099425
:1023B00008951092E7031092E6030E94F61090E051
:1023C00080E00E94C31190E080E00C94AD11609316
:1023D0008704709388048093890490938A040C94F2
:1023E000D9110F931F936091870470918804809195
:1023F000890490918A048B019C0106701127222781
:102400003327063011052105310529F468601F9135
:102410000F910C94E711677FFACF0F931F9341E060
:1024200050E060E070E004C0440F551F661F771F46
:102430008A95D2F7CB01BA016095709580959095F9
:1024400000918704109188042091890430918A04B6
:1024500060237123822393231F910F910C94E71122
:102460009091E503809589238093E503282F2770B9
:1024700071F4282F082E000C330B9217130639F035
:102480008595859585950E940D121092E503089516
:102490000F931F9341E050E060E070E004C0440FF0
:1024A000551F661F771F8A95D2F7809187049091F8
:1024B0008804A0918904B0918A048A019B01082BA9
:1024C000192B2A2B3B2BC901B8011F910F910C949A
:1024D000E7116093E9037093EA038093EB03909311
:1024E000EC030C94D911882379F19CEF980F913A61
:1024F00038F4682F82EB91E00E9491100C94F61052
:1025000090E2980F983088F4877021E030E0A901BC
:1025100002C0440F551F8A95E2F7CA018095909139
:102520000A04892380930A04E9CF9BE5980F93302E
:1025300020F490E080E00C94C311885A873120F495
:1025400090E080E00C94AD110895CF93C82F8823BC
:1025500009F467C08CEF8C0F813AC0F5809124019B
:10256000882311F18091FF0387FF1EC0EC2FE695B1
:10257000E695E695F0E0EE54FE4F828190E04C2F18
:10258000477021E030E002C0220F331F4A95E2F786
:1025900082239323892B91F06C2F82EB91E00E9490
:1025A00091100E94F6100AC0E4EBF1E08AEB91E092
:1025B0002191C21789F38E179F07D1F76C2F82EBF9
:1025C00091E00E94BB10CF910C94F61080E28C0F2A
:1025D000883068F4C77021E030E001C0220FCA954E
:1025E000EAF780910A04822B80930A04ECCFEBE592
:1025F000EC0FE33040F4F0E0E05BFE4F808190E0D0
:10260000CF910C94C311C85AC73158F4EC2FF0E0A5
:10261000EE0FFF1FED5AFE4F80819181CF910C94F8
:10262000AD11CF910895E0910204F0910304309729
:1026300021F00190F081E02D099480E00895CF937E
:10264000DF9320919406309195062E583440A901CD
:10265000460F571F4130524020F060E072E0621B8D
:10266000730B40918C0450918D04FC01C901620FE1
:10267000731FC1E0D0E08617970738F050938D04A0
:1026800040938C04DF91CF9108952491DC01A257EF
:10269000BB4F3C91321781F02C939C01A5E03695FD
:1026A0002795AA95E1F7DE0102C0AA0FBB1F2A9564
:1026B000E2F79D014A2B532B01963196DCCFFA01AC
:1026C000811101C0FB01099480915104982F9E7FD4
:1026D00029F4817082608093510408958635E8F36F
:1026E00081708465F8CFAF92BF92DF92EF92FF9234
:1026F0000F931F93CF93DF93082F162FE901E42F39
:10270000F0E0E558FE4F611110C0E4915E2F4E2FAE
:102710004983E8835A83DF91CF911F910F91FF90F6
:10272000EF90DF90BF90AF900895E62EF12C44918A
:10273000D42EE42FF0E026E0829FC00111242FEF79
:1027400030E0B9010E946035802F90E0880F991F1A
:1027500055E5569FD001579FB00D11248A1B9B0B46
:10276000982F990F890F5901AE18BF08AE9ED0015E
:10277000AF9EB00DBE9EB00D11245B2F189F80013F
:102780001124012F11275901A01AB10AAE9E800110
:10279000AF9E100DBE9E100D11245901A81AB1084C
:1027A000AE9CC001AF9C900DBE9C900D1124892F52
:1027B0009927281B390B2E9FC0012F9F900D3E9FFC
:1027C000900D1124E92F62307105A1F050F46115CC
:1027D000710509F49DCF6130710581F0EB2F512F08
:1027E00097CF6430710569F080F06630710509F4A7
:1027F0008FCFF4CFE42F4B2F592F8ACFE42F412FC7
:1028000087CFEB2F542F492F83CF4B2F5D2DE12FF7
:102810007FCF9091FF0392FF06C0282F28712830A8
:10282000F9F4877F846093FF06C0282F2871283130
:10283000F1F4877E84612091000420FF06C0382FC8
:1028400038713830D9F4877F816021FF06C0282F86
:1028500028712831D1F4877E816194FD877E0895A7
:10286000282F24712430F9F68B7F8860DCCF282F45
:102870002471243101F78B7E8861DDCF382F3171CF
:10288000313019F78E7F8860E0CF282F21712131F8
:1028900021F78E7E8861E1CF81FF03C08098889800
:1028A0000895809AFCCFCF92DF92EF92FF920F9320
:1028B0001F93CF93DF936C017B0164E670E088E7A0
:1028C0000E946334EC0197FD12C010E000E0F601B5
:1028D000E00FF11F849164E670E00E94BF34EC01C8
:1028E000892B29F40F5F1F4F0E151F0581F70E94DA
:1028F0004235CE01DF91CF911F910F91FF90EF9064
:10290000DF90CF9008958091360490913704911113
:1029100003C091E089270895882369F062E070E0A0
:1029200082EC94E00E945314892B19F080913604B4
:1029300008951092360480913604EBCF40917603CF
:102940005091770360917803709179032FB7F894D1
:102950008091ED039091EE03A091EF03B091F0030D
:102960002FBF841B950BA60BB70B81369A4EA10582
:10297000B10510F00C9483144091D2025091D3020F
:102980006091D4027091D5022FB7F8948091ED0335
:102990009091EE03A091EF03B091F0032FBF841B41
:1029A000950BA60BB70B8B3F9105A105B10568F000
:1029B0000E9485106093D2027093D3028093D40258
:1029C0009093D50281E080930F040895CF93C09136
:1029D0003604809137048823D1F00E948510605A14
:1029E00075418F4F9F4F60933204709333048093EF
:1029F000340490933504C11108C062E070E080ECAB
:102A000094E00E945314892B29F0C09136048C2F36
:102A1000CF91089581E080933604F7CF10920A0495
:102A200080912401E4EBF1E0882359F08091FF03C9
:102A300087FF07C08EE1DF011D928A95E9F70C94AC
:102A4000D91186E0F8CF1F93CF93DF93CDB7DEB7D0
:102A5000AA970FB6F894DEBF0FBECDBF8CE794E007
:102A60002091F100DC012D93CD01B4E084389B0767
:102A7000B9F780917D04833009F471C0B8F48130D6
:102A800009F448C0823009F4B2C08091E80083FFA5
:102A90003AC180917C0490917D049A3008F033C152
:102AA000E92FF0E0E053F94C0C9488358A3009F4B2
:102AB0008DC08B3009F470C0893039F780917C0467
:102AC000813219F78091800490918104009711F070
:102AD0000297D9F68091E800877F8093E800809183
:102AE000E80082FF37C09091F3008091F2000297D6
:102AF00029F48091F1008B7F813021F48091F100E5
:102B0000809357048091E8008B778093E8000E94BF
:102B1000610FBBCF80917C04813A09F0B6CF8091E0
:102B2000E800877F8093E800809180049091810481
:102B3000892B61F460E288E594E070E00E94131054
:102B40008091E8008B778093E8009FCF60E090E071
:102B500080E0F3CF80917A048111C1CF96CF80912C
:102B60007C04813A09F091CF809180049091810496
:102B7000892B09F08ACF8091E800877F8093E80055
:102B80008091E80080FFFCCF809124018093F100C8
:102B90008091E8008E77B9CF80917C04813209F072
:102BA00074CF8091800490918104892B09F06DCFBE
:102BB0008091E800877F8093E8000E94610F8091F8
:102BC0007E04809324010E940E155FCF80917C04C7
:102BD000813209F05ACF8091E800877F8093E80026
:102BE0000E94610F80917F04809356044ECF8091A4
:102BF0007C04813A09F049CF8091E800877F809377
:102C0000E8008091E80080FFFCCF80915604BECFA1
:102C1000803899F0823809F076C0809180048F70F6
:102C2000873008F070C08093E9008091EB0085FB4D
:102C3000882780F91092E90006C08091780490916D
:102C40007904911182609091E800977F9093E80059
:102C50008093F1001092F1008091E8008E77B5C169
:102C6000882309F4A2C1823009F04DC080917E040E
:102C70008111A6C1809180048F702FEF280F26301C
:102C800008F041C08093E9002091EB0020FF98C13B
:102C9000933031F48091EB0080628093EB0090C11F
:102CA0009091EB0090619093EB0021E030E001C047
:102CB000220F8A95EAF72093EA001092EA008091A9
:102CC000EB008860EACF81111EC010917E041F774F
:102CD0008091E3008078812B8093E3008091E8006D
:102CE000877F8093E8000E94610F8091E80080FF59
:102CF000FCCF8091E30080688093E30082E01111B3
:102D000083E080937A048091E80083FF0AC0809179
:102D1000E800877F8093E8008091EB0080628093D9
:102D2000EB00AA960FB6F894DEBF0FBECDBFDF91C1
:102D3000CF911F9108958058823028F720917E040A
:102D400030917F042C3DE3E03E07A1F583E08A83C8
:102D50008AE289834FB7F894DE01139620E03EE0C3
:102D600051E2E32FF0E050935700E49120FF03C0BD
:102D7000E295EF703F5FEF708E2F90E0EA30C0F089
:102D8000C7968D939D932F5F243159F74FBF809144
:102D9000E800877F8093E8006AE270E0CE01019648
:102DA0000E9413108091E8008B778093E800ABCFEE
:102DB000C096E7CF8091800490918104432F5527DE
:102DC0004330510509F44AC078F54130510509F402
:102DD0007AC08BE590E0E7E6F7E14230510509F073
:102DE00092CF2091E800277F2093E8002091820471
:102DF000309183048217930708F49C0140E0211569
:102E0000310509F065C0411163C08091E80082FD81
:102E1000C9CF80917A04882329F2853019F28091F4
:102E2000E80083FFF2CFBECF4132510509F43CC028
:102E30004232510509F067CF8330910508F063CF26
:102E4000FC01EE0FFF1FEB55FE4F0190F081E02DCE
:102E50008E559E4FDC018C9190E01AC033272130B3
:102E60003105D1F02115310561F02230310509F02D
:102E70004ACFE4EDF7E1E4918E2F90E0E4EDF7E145
:102E800007C0E8EFF7E1E4918E2F90E0E8EFF7E17B
:102E9000009709F438CFA5CFE4EEF7E1E4918E2F47
:102EA00090E0E4EEF7E1F4CF8330910508F02BCF0A
:102EB000880F991FFC01E555FE4F0190F081E02D30
:102EC00089E090E08ECF82E190E0E2ECF7E189CFFB
:102ED00080917A04882309F465CF853009F462CFA4
:102EE0008091E80083FD5ECF8091E80082FD8DCF68
:102EF0008091E80080FF83CF9091F3008091F200F1
:102F00002115310519F08830910550F041E00897FE
:102F100009F040E08091E8008E778093E8006FCF61
:102F200044914093F1003196215031090196E8CF48
:102F3000803809F0E8CE8091E800877F8093E80030
:102F400080917B048093F10087CE8111DCCE1091BB
:102F50007E04123008F0D7CE8091E800877F8093FE
:102F6000E80010937B040E94610F112311F084E0AC
:102F700005C08091E30087FDFACF81E080937A0459
:102F800042E061EC81E00E94800F42E261EC84E06B
:102F90000E94800F42E261EC82E00E94800F42E2D8
:102FA00060EC83E00E94800FAECE80917E04813081
:102FB00009F0A9CE81E0933009F080E08093790494
:102FC0001092E9008091E800877F8093E8000E94DA
:102FD000610F99CECF93DF93682F81E06A3019F0AB
:102FE0006D3029F480E0DF91CF910C946B188091C3
:102FF00094069091950626E0FC01AEE8B6E00190BB
:103000000D922A95E1F7603E08F45AC026E0FC01D3
:1030100011922A95E9F7C0919406D091950646E061
:1030200050E0BE018EE896E00E9416369E012E58B2
:103030003440892B41F1C90145E0969587954A9521
:10304000E1F741E050E0BA0102C0660F771F8A95B0
:10305000E2F7CB0160918C0470918D04862B972B45
:10306000B9016B5F7F4FE5E076956795EA95E1F7EB
:1030700002C0440F551F6A95E2F7842B952B90935D
:103080008D0480938C042A5F3F4F40918B04642F02
:1030900070E0C9010E946035481B463010F4240FCF
:1030A000311D211572E0370710F030E020E0225783
:1030B0003B4F3093950620939406DF91CF9108956E
:1030C000F6E06F9FB00111246450784E46E050E066
:1030D0000E940036A0CFCF93382FE0919406F09154
:1030E0009506EE58F44020918B04622F70E0CF01DA
:1030F0000E946035281B822F332361F066E00E9416
:103100004635C82FC15010F4CF91089580E20E9437
:10311000EA17F8CF9F01280F311D2115324018F012
:1031200080E0F0E0E0E08E0F9F2F911D82579B4FD3
:103130009093950680939406E7CFCF9384E090E038
:103140000E942336C82F81E290E00E942336982FF8
:103150008C2FCF9108950F931F93CF93DF9320E28D
:10316000629FE001112450E0440F551FC40FD51F8A
:1031700030EA839FC00DD11D1124CE0186960E9496
:103180002336082F10E0102F0027CE0187960E94CB
:1031900023369801282BC901DF91CF911F910F9100
:1031A0000895462F843038F4753028F4603118F4CF
:1031B000672F0C94AB1890E080E00895CF93DF93D5
:1031C0000E94D118EC0182389105A9F1D8F581331C
:1031D000910509F496C048F58932910509F48AC031
:1031E0008A9709F495C0C11522E5D20708F0B6C048
:1031F000C11531E5D30708F026C1C83ED10508F056
:103200009CC0C13ED10560F5C83AD10508F087C021
:10321000C53AD10508F0EFC0C130D10509F12097BA
:10322000F9F0C430D105E0F440C08533910509F4CC
:103230005AC0C997C1F68091FF03837089F0C0EE30
:10324000D0E00EC0833E910599F170F4803E910567
:1032500001F1823E910539F68091FF0382FD21C084
:10326000CE01DF91CF910895863E910561F1873EB1
:10327000910571F1843E910509F0B5CF809100046C
:1032800081FFEECF8091FF03C7EED0E084FD0DC03B
:10329000E7CF8091FF0380FD07C19091000490FF6C
:1032A000DFCFC3EED0E084FFDBCFD0E0C0E0D8CFEB
:1032B0008091FF0382FDFBC09091000490FDBFCF81
:1032C00084FFCECFF2CF8091FF0383FDDDCFC8CF47
:1032D0008091FF0383FDEEC09091000491FFF0CF39
:1032E000C4EED0E0BDCF8091FF0385FFB9CFC9E226
:1032F000D0E0B6CF8091FF0385FFB2CFC5E3D0E029
:10330000AFCF8091FF0386FFABCFCAE2D0E0A8CF5A
:103310008091FF0386FFA4CFC1E3D0E0A1CFCF3BD4
:10332000D10518F6C85AD0E0CC0FDD1FCD5ADE4FBC
:103330000990D881C02DD46493CFC11540E5D4073E
:1033400008F064C0C11580E4D80708F05CC0CE0165
:103350009A9581159F4108F483CFA7CFC11536E513
:10336000D30718F5C11545E5D40708F084C0C11589
:1033700084E5D80708F07AC09C2F969596959E0113
:1033800023703327C115D34508F462C0C1E0D0E0F3
:1033900002C0CC0FDD1F2A95E2F730E2939FC001F7
:1033A0001124C82BD92BDA685BCFC1158AE5D80761
:1033B00078F4C11599E5D90708F068C0C11528E56A
:1033C000D20708F472CFDC2FCC27C06FD06A48CF69
:1033D000CE0190568115904208F067CF8D2F8F71E6
:1033E0000E94091490E0982F882788279F719C01DC
:1033F0002C2BE90149C0C55AD0E0C05BDE4FC88123
:10340000D0E0D0642DCFDF70D06A2ACFCE01E4E0C7
:1034100096958795EA95E1F783702C2F269526954A
:10342000237040E2249F90011124382B8C2F83704D
:10343000C1E0D0E002C0CC0FDD1F8A95E2F7C22BBD
:10344000D32BDC680DCFDC2FCC27C16FD06A08CF1F
:10345000C1E0D0E002C0CC0FDD1F2A95E2F720E2E8
:10346000929FC0011124C82BD92BEBCFDC2FCC2786
:10347000C46FD06AF5CE8C2F0E940914C82FD0E0FB
:10348000DC2FCC27CC27DF71D062EACE8C2F8F7057
:103490000E94091434E0D695C7953A95E1F7CF70AC
:1034A0009C2FEC01D069DCCEC9E3D0E0D9CEC2EECE
:1034B000D0E0D6CEC6EED0E0D3CEBF92CF92DF9290
:1034C000EF92FF920F931F93CF93DF938C01C090E5
:1034D0008704D0908804E0908904F0908A04809159
:1034E000E9039091EA03A091EB03B091EC03C82AA1
:1034F000D92AEA2AFB2ACFE1D0E0BC2ED701C601A7
:103500000C2E04C0B695A795979587950A94D2F787
:1035100080FD0EC0219788F7B12C8B2DDF91CF91C4
:103520001F910F91FF90EF90DF90CF90BF90089583
:10353000B8018C2F0E94DE18019761F3EECFCF9374
:10354000DF93EC010E945D1ABE01DF91CF910C94D4
:10355000DE180E949F1A292F2F7092959F7092500B
:103560009E3078F4E92FF0E0E652F94C0C9488355F
:10357000803F19F020F4883E20F481E00895843FD4
:10358000E1F380E00895883EC0F3813FD1F7F5CFA5
:10359000822F86958695869508956F927F928F9259
:1035A0009F92AF92BF92CF92DF92EF92FF920F93D2
:1035B0001F93CF93DF9380E8C82E83E0D82E06EECA
:1035C00010E0E801C05AD10936011CC0F501859010
:1035D0009490692DC7010E943736682DC701019666
:1035E0000E94373682E0A80EB11C82E0E80EF11C82
:1035F000CE15DF0559F780E2680E711CA0960C17F6
:103600001D0731F07E0180E2E81AF1085301DECF98
:1036100000561F4F80EAC80ED11C063683E01807FB
:1036200081F6DF91CF911F910F91FF90EF90DF9086
:10363000CF90BF90AF909F908F907F906F900895A4
:10364000CF93DF93C6EAD2E060E0CE010E94373626
:103650002196C11584E0D807B9F7DF91CF9108957D
:10366000CF93DF9300D00F92CDB7DEB790917A045D
:10367000943011F589837B836A839093E9008FEFFF
:103680009091E800815095FD06C095ED9A95F1F76F
:1036900000008111F5CF8091E80085FF0DC050E05A
:1036A00040E063E070E0CE0101960E94370F809108
:1036B000E8008E778093E8000F900F900F90DF91D5
:1036C000CF910895BC0184E00C94301BBC0183E0D1
:1036D0000C94301BCF93DF93EC018091240188235D
:1036E000B1F18091FF0387FF32C060E284E08093F4
:1036F000E9008FEF9091E800815095FD06C095EDAF
:103700009A95F1F700008111F5CF8091E80085FFCF
:103710001BC08091240170E050E040E0811104C0A2
:1037200050E040E068E070E0CE010E94370F8091E9
:10373000E8008E778093E80080E2FE01A8E5B4E01F
:1037400001900D928A95E1F7DF91CF91089568E09D
:1037500081E0CDCF81E08093E00080E28093D800CB
:103760001092C9008FE19EE40197F1F700C00000BC
:1037700087E090EBDC018093960690939706A093E8
:103780009806B093990688E19CE00FB6F894A89546
:10379000809360000FBE90936000FFCFCF93C82F3F
:1037A0000E94A512C93349F42FEF87EE93E0215010
:1037B00080409040E1F700C000008C2FCF910C9426
:1037C00073128091510480FD0AC0E2E2F3E011829D
:1037D00010821282339653E0E034F507C1F76E9AF7
:1037E0003EB13F7B2EB120644FB7F89482E293E064
:1037F000FC015191CF0168E02EB9000000C057FFD5
:103800003EB9550F000000C000C000C03EB900C066
:103810006A9591F7F3E080349F0751F74FBF8FE52A
:1038200094E00197F1F700C000000895EF92FF9235
:103830001F93CF93DF93EC0182E2E82E83E0F82E12
:1038400010E08C8197014091540460915304810FE2
:103850000E947313175E83E0E80EF11C1A3F89F78C
:103860000E94E11B9A818C8190FF08C08F5F8C833E
:10387000DF91CF911F91FF90EF9008958150F7CF86
:10388000BF92CF92DF92EF92FF920F931F93CF934D
:10389000DF93FC018281DD24DA9480FD02C0DD2407
:1038A000D39402E213E0D0E0C0E02AE0B22EF801A7
:1038B00011821082128294E0E92EF12CC12C8091A9
:1038C0001F038C0D8B300CF43DC06B2D0E945235C4
:1038D000892F082E000C990B8C179D0791F480916D
:1038E00054048E9DA0018F9D500D11245595479530
:1038F00055954795980160915304809152040E9418
:103900007313CD0CF1E0EF1AF108C9F621960D5FA3
:103910001F4FCA30D10559F60E94E11B80911F0349
:1039200091E0D91215C0811111C089E080931F0365
:10393000DF91CF911F910F91FF90EF90DF90CF908B
:10394000BF90089587FFC5CF865FC3CF8150EECF6C
:1039500090E00196BE010E947435E8CF0F931F934B
:10396000CF93DF93C2E2D3E0FE0111821082128274
:10397000339683E0E034F807C1F710E000E080916F
:103980002003082E000C990B081719078CF1809161
:103990001001082E000C990B801791074CF19E0125
:1039A0004091540460915304809152040E94731317
:1039B0000F5F1F4F23960A30110509F70E94E11B84
:1039C00080910F0190912003980F909320032091F4
:1039D0001001280F20931001121614F499301CF0D6
:1039E000819580930F01DF91CF911F910F910895E1
:1039F000198218821A82DCCF8F929F92AF92BF9267
:103A0000CF92DF92EF92FF920F931F93CF93DF93AA
:103A1000EC014C81042F10E09801D8010E94BF36C0
:103A20009B01AC010E948A364B015C01E0E2F0E0B0
:103A3000E01BF10BA5E5B0E0AC019B010E948A36CA
:103A40006B017C019F01DF010E9495359B01AC0158
:103A50000E9495369B01AC01280D391D4A1D5B1D46
:103A6000C701B6010E949D36F22E822F90E039E206
:103A70003F15D8F143E0249F9001112435952795F7
:103A8000122F109592E2C92E93E0D92E00E085E521
:103A9000E82EEF188E2D01FD8F2D9601412F60919C
:103AA00053040E9473130F5F53E0C50ED11C0A30FC
:103AB00089F70E94E11B9C8181E0992319F09032E3
:103AC00019F48FEF8093110180911101890F8C837C
:103AD000DF91CF911F910F91FF90EF90DF90CF90EA
:103AE000BF90AF909F908F90089525E530E0A90199
:103AF000481B590BCA019A01220F331F280F391F87
:103B000037FFBCCF2F5F3F4FB9CFEF92FF920F939C
:103B10001F93CF93DF938C01C2E2D3E0F12CE12C11
:103B2000F80194816091530480915204F5E0EF16FE
:103B3000F104FCF49923F9F09E01409154040E9491
:103B400073132FEFE21AF20A23968AE0E816F104C3
:103B500039F70E94E11BF801848190E001968170A1
:103B600099278483DF91CF911F910F91FF90EF9060
:103B70000895992309F39E0140E0E1CF909151040B
:103B800090FF0CC0E2E2F3E08183608342833396CE
:103B900093E0E034F907C1F70C94E11B08950F930B
:103BA0001F93CF93DF9300D00F92CDB7DEB78C0178
:103BB0008091210381110AC09E012F5F3F4F4FEF7B
:103BC0006FEF0E9473138A8180932103F80164814F
:103BD000613069F08091210340E0662361F040E0AC
:103BE000623011F44091210380E060E004C06091F4
:103BF000210340E080E00E94BE1DF801848190E036
:103C0000019663E070E00E94743584830F900F90FA
:103C10000F90DF91CF911F910F910895CF93DF9374
:103C200000D00F92CDB7DEB79091510490FF0AC03B
:103C30009E012F5F3F4F0E9473134B8169818A81E0
:103C40000E94BE1D0F900F900F90DF91CF910895AD
:103C5000CF93DF93EC01EC81F0E0E058FD4F44910D
:103C6000E1E5F4E0628181810E940E1E8C818F5F0C
:103C70008C83DF91CF910895CF93DF93EC01E1E541
:103C8000F4E0438162818C810E940E1E8C818F5FE3
:103C90008C83DF91CF9108958F929F92AF92BF92C4
:103CA000CF92DF92EF92FF920F931F93CF93DF9308
:103CB000FC01B280948081E08483C0E4D3E002E21E
:103CC00013E08BE4A82E88248394EE24EA94F12C4C
:103CD0002BE4C22ED12C91101DC01B821A82980198
:103CE0004A81698188810E94731325960D5F1F4F59
:103CF00083E0C237D80779F7DF91CF911F910F91F9
:103D0000FF90EF90DF90CF90BF90AF909F908F90FB
:103D10000C94E11B2B81222309F121502B833C8140
:103D20008A2D821B311101C0822F90915404899FEA
:103D3000C0011124B6010E9460356A83211104C0BC
:103D4000332311F01C82AB8222E02B1540F28091CC
:103D500052048883809153048983C1CF0E94F03537
:103D6000823091400CF0BBCF82E08B15C0F40E94F2
:103D7000F035B7010E947435888322E02B1590F44A
:103D80000E94F035209153042695622F70E00E9426
:103D90007435280F29831A82AB828C82A0CF809140
:103DA0005204EACF20915304F5CF6CEE7EEF90E001
:103DB00080E00E94553660E082E090E00E94373655
:103DC00060E083E090E00E9437361092E9031092A1
:103DD000EA031092EB031092EC0360E084E090E0C1
:103DE0000E94373660E081E290E00E94373660E062
:103DF00085E090E00E94373660E086E090E00E9427
:103E000037366FEF87E090E00E94373640E050E0B1
:103E1000BA0188E090E00E94493660E08DE090E0D1
:103E20000E94373640E050E0BA0188E190E00E94FD
:103E3000493660E087E190E00E94373640E050E08C
:103E4000BA018CE190E00E94493660E080E290E0A7
:103E50000E94373640E050E0BA0188E190E00E94CD
:103E6000493640E050E0BA018FE090E00E944936C8
:103E700040E050E0BA0183E190E00C944936CF92E3
:103E8000DF92EF92FF926B017C010E946413B701F5
:103E9000A60188E090E0FF90EF90DF90CF900C9427
:103EA00049365F926F927F928F929F92AF92BF92AC
:103EB000CF92DF92EF92FF920F931F93CF93DF93F6
:103EC00000D00F92CDB7DEB7182F762E042F622EBA
:103ED0009091510490FF29C0E92FE695AE2FB0E0F4
:103EE000AB5DBE4F8C91809344049E7F923081F5F0
:103EF0009E012F5F3F4F812F0E9473134B81698179
:103F00008A810E94BE1D1093520470925304009344
:103F10005404662051F060915104709152048091D4
:103F20005304909154040E943F1F0F900F900F90E4
:103F3000DF91CF911F910F91FF90EF90DF90CF9085
:103F4000BF90AF909F908F907F906F905F900895FB
:103F5000823019F400915404D6CF863019F41091B0
:103F60005204D1CF8930D9F3893169F6E9518E2FC6
:103F70008170582EE695F0E0E558FD4FA590B4907D
:103F8000BB2482E2E82E83E0F82ED12CC12C9AE0EB
:103F9000892E912CC601B4010E946035812F5110E9
:103FA00013C0860F9701402F672D0E947313CA0C10
:103FB000DB1C83E0E80EF11C80E4E81683E0F806E1
:103FC00049F70E94E11B9FCF861BECCFE1E5F4E0AF
:103FD000438121E1421B08F440E021E062818181BC
:103FE0000C94511FE1E5F4E0438121E1420F08F414
:103FF0004FEF21E0628181810C94511FE1E5F4E0F3
:10400000628121E1621B08F460E021E0438181814B
:104010000C94511FE1E5F4E0628121E1620F08F4A4
:104020006FEF21E0438181810C94511FE1E5F4E0C1
:10403000818121E04381628188500C94511FE1E528
:10404000F4E0818121E043816281885F0C94511FFB
:1040500080915504882319F0815080935504609114
:1040600051047091520480915304909154040C9423
:104070003F1F80915504833018F48F5F809355045F
:1040800060915104709152048091530490915404B2
:104090000C943F1FE1E5F4E083E0808311828FEF11
:1040A00082838383148260817181828193810C94E5
:1040B0003F1F1F920F920FB60F9211242F933F9321
:1040C0004F935F936F937F938F939F93AF93BF9320
:1040D000CF93DF93EF93FF93D091E900DF7080914E
:1040E000EC00C82FC17080FDC0E81092E9008091FB
:1040F000F000877F8093F00078940E94231510923F
:10410000E9008091F00088608093F000CD2BCF70A3
:10411000C093E900FF91EF91DF91CF91BF91AF91F3
:104120009F918F917F916F915F914F913F912F91CF
:104130000F900FBE0F901F90189578941F921FB686
:104140001F9211248F939F93AF93BF938091ED03A0
:104150009091EE03A091EF03B091F0030196A11DA1
:10416000B11D8093ED039093EE03A093EF03B09302
:10417000F003BF91AF919F918F911F901FBE1F9031
:1041800018952FB7F8948091ED039091EE03A091CC
:10419000EF03B091F0032FBF08950F931F93CF93B8
:1041A000DF93C62FD42F022FFC0182818823A1F038
:1041B000609386040E94C1209093850480938404B8
:1041C000C77081E001C0880FCA95EAF7DF91CF91EF
:1041D0001F910F910C94A31180918604681335C030
:1041E00080918404909185040E947610883C91050A
:1041F00060F510E21D0FCD17B9F080E28C0F88300A
:1042000040F4C77081E001C0880FCA95EAF70E94A8
:104210009811183048F481E09D2F977001C0880FE5
:104220009A95EAF70E94A311802F0E94CE1B1830A6
:1042300098F4D77081E001C0880FDA95EAF7DF9132
:10424000CF911F910F910C949811C77081E001C01C
:10425000880FCA95EAF7F3CFDF91CF911F910F91A5
:10426000089560915104669570E04BE050E084E061
:1042700091E00E940936892B19F481E0809345046E
:104280000E94C120909305048093040408959091A6
:10429000510490FF36C09170811129C092609093B3
:1042A0005104662351F06091510470915204809141
:1042B0005304909154040E943F1F609151046695ED
:1042C00070E04BE050E084E091E00E940936892BD9
:1042D000A9F01092450481E08093070420E040910A
:1042E000540460915304809152040C94511F8B32FA
:1042F00010F09465D4CF880F982BD1CF0E94312134
:10430000EACF08951F920F920FB60F9211242F93A8
:104310003F934F935F936F937F938F939F93AF934D
:10432000BF93EF93FF938091E10082FF09C08091DA
:10433000E20082FF05C08091E1008B7F8093E10065
:104340008091DA0080FF24C08091D80080FF20C0D7
:104350008091DA008E7F8093DA008091D90080FF0F
:10436000A3C080E189BD82E189BD09B400FEFDCF13
:1043700081E080937A0480915004811109C00E94E9
:10438000E70E0E94B20F8091E20084608093E20009
:104390008091E10080FF17C08091E20080FF13C090
:1043A0008091E2008E7F8093E2008091E200806144
:1043B0008093E2008091D80080628093D80019BC7D
:1043C00085E080937A048091E10084FF31C0809180
:1043D000E20084FF2DC080E189BD82E189BD89B5FD
:1043E000982F917080FFFBCF8091D8008F7D8093B4
:1043F000D8008091E1008F7E8093E1008091E200FF
:104400008F7E8093E2008091E20081608093E200E1
:1044100080917B04882309F44DC084E080937A0462
:104420000E940E150E9413130E944C140E94312109
:104430008091E10083FF27C08091E20083FF23C0C9
:104440008091E100877F8093E10082E080937A048D
:1044500010927B048091E1008E7F8093E100809137
:10446000E2008E7F8093E2008091E2008061809381
:10447000E20042E060E080E00E94800F8091F00066
:1044800088608093F000FF91EF91BF91AF919F9171
:104490008F917F916F915F914F913F912F910F90ED
:1044A0000FBE0F901F90189519BC10927A041092AD
:1044B00050046ECF8091E30087FD93E090937A04DF
:1044C000AFCF809151048695815009F48AE261E072
:1044D0000C9447218091510486958F5F8B3208F0B0
:1044E00081E061E00C9447219091510490FF07C056
:1044F0009695981720F0961710F40C946A2261E0B4
:104500000C9447214F925F926F927F928F929F926D
:10451000AF92BF92CF92DF92EF92FF920F931F93D1
:10452000CF93DF9300D000D00F92CDB7DEB77C01E0
:10453000FC0183819481892B31F0808191818923D1
:104540008F3F09F0E3C50F900F900F900F900F90E1
:10455000DF91CF911F910F91FF90EF90DF90CF905F
:10456000BF90AF909F908F907F906F905F904F9093
:1045700008950E945D1A182F682F89819A810E94E0
:10458000621169817A81812F0E94D1188C01F70113
:104590008281882309F4AFC5C80182519F454097A5
:1045A00008F078C58FEF93E00E942336025156EA57
:1045B000852E52E0952E882371F18091E503877056
:1045C00011F2F7018281882309F4BDCF82E00F90B8
:1045D0000F900F900F900F90DF91CF911F910F913F
:1045E000FF90EF90DF90CF90BF90AF909F908F9013
:1045F0007F906F905F904F900C9430128114F4E094
:104600009F06D9F2C4010E942336811101C00150D6
:104610002FEF821A920A0111F1CF1C821B826624AD
:1046200063944AE0542E84010F5F1F4FC4010E941F
:10463000233689831A82882309F4BFCF9FEF980F0E
:10464000933008F58A83698232E0830E911CC80199
:104650000E9423368B83882309F4AFCF8E010F5F2E
:104660001F4FF80120812223F1F2213009F043C0CD
:1046700091818281913049F40E5F1F4F0E94CE1BC1
:104680000F5F1F4FEECF4801E9CF923029F40E5F44
:104690001F4F0E94A512F4CF933029F40E5F1F4FD5
:1046A0000E947312EDCF943019F00F5F1F4FE8CFC7
:1046B0000E5F1F4F30E020E0B8016F5F7F4FF801C1
:1046C00041818053990B8A30910550F02150310976
:1046D000B8F28FE99FE00197F1F700C00000F6CF34
:1046E000529EF001539EF00D11249C012E0F3F1F8E
:1046F000842F8B01E1CFE22FF0E0EC51FB4F74905F
:10470000822F86958695869590E0FC01EC52FB4FB2
:10471000A4902770B12C022E02C0B594A7940A94DD
:10472000E2F7E1E0AE22BB24FC01EC53FB4FC49066
:10473000D12C02C0D594C7942A95E2F7F1E0CF229C
:10474000DD24A114B10419F081EE0E94A512C11458
:10475000D10419F086EE0E94A512872D0E94CE1B6F
:10476000CD2819F086EE0E947312AB2809F488CF89
:1047700081EE96CF81E00E9448120E94F1111DCF78
:1047800081E00E940D12F9CF82E0F5CF063FFCE5F3
:104790001F0709F460C008F45AC027E245EE66EE30
:1047A000073F3CE5130709F4A2C4F701928199235E
:1047B00009F4BDC4109286040230FCE51F0708F41A
:1047C0002FC106312CE5120738F098012B5F3C45CC
:1047D0002930310508F024C10E949D1890930004EF
:1047E0008093FF0300313CE5130709F4E8C008F0AB
:1047F00076C008309CE5190709F4D7C008F045C019
:104800000430FCE51F0709F4C8C060F502303CE540
:10481000130709F4B8C003301C4509F4BAC060910D
:10482000FF031091000484E090E00E943736612F6E
:1048300081E290E00E9437360E940E15BECE27E23C
:1048400045EE65EE54C426E241EE60EE50C427E228
:1048500045EE64EE4CC426E241EE62EE48C428E226
:1048600041E0EFCF8091FF03806106309CE519079E
:1048700009F48CC08091FF03886007301C4508F460
:1048800085C08091FF03806281C08091FF038D7F8E
:104890000C30FCE51F0709F479C070F48091FF0328
:1048A0008C600A303CE5130709F470C008F481C03D
:1048B0008091FF038E7F6AC08091FF03877F0E3057
:1048C0009CE5190709F462C08091FF038B7F0F30CC
:1048D0001C4508F45BC08091FF038F7E57C00C3FDE
:1048E000FCE51F0709F45DC030F503313CE5130713
:1048F00009F46DC078F401319CE5190709F463C02F
:1049000002311C4509F08BCF0E940E158091FF03E8
:104910008F773CC00531FCE51F0709F460C008F43F
:1049200074C08091000481600B3F1C4509F077CF73
:104930008093000474CF01158DE5180709F44BC06E
:1049400088F4809100048D7F0E3FECE51E0781F313
:10495000809100048E7F0F3F1C4550F3809100042E
:104960008360E6CF02302DE5120709F457C008F442
:1049700042C060E003301D4509F051CF8EE090E069
:104980000E9437364CCF8091FF0381608093FF03F4
:1049900046CF8091FF038260F9CF8091FF0384604E
:1049A000F5CF809100048260C3CF8091FF038064C3
:1049B000EDCF0E940E158091FF038068E7CF8091B4
:1049C000FF038F7DE3CF8091FF038F7BDFCF80914B
:1049D000FF03837FDBCF809100048C7FA9CF809180
:1049E000FF0382FB992790F921E0922790FB82F93F
:1049F00090FB83F9CBCF80910004982F9095917014
:104A00008E7F892B90FB81F993CF0E940E15909198
:104A1000FF03892F97FB87F98058B8CF61E0AECFAD
:104A200080910A040631ECE51E0709F08EC38A7AEC
:104A300091E009F490E090937A0369E2811165E3D3
:104A400082EB91E00E94BB100E94F610B6CD8091DF
:104A5000510480FF1BC08E7F8093510460915104EC
:104A60007091520480915304909154040E943F1F0E
:104A700010924504FFEF20E732E0F1502040304033
:104A8000E1F700C000000E94E11B97CD8160809398
:104A9000510461E086950E9447218FCD41E652E2A4
:104AA0006AE672E20E945F1388CD4AE652E261E64E
:104AB00072E2F8CF46E150E26FE170E2F3CF4FE1EE
:104AC00050E266E170E2EECF4EEF5FE16AE070E245
:104AD000E9CF4AE050E26EEF7FE1E4CF46EE5FE1DE
:104AE00062EF7FE1DFCF42EF5FE166EE7FE1DACF99
:104AF00048E250E269E370E2D5CF49E350E268E270
:104B000070E2D0CF61E081E0C6CF65E082E00E9434
:104B1000742253CD68E086E0FACF6EE089E0F7CFEB
:104B200064E18FE0F4CF67E185E1F1CF61E088E1F6
:104B3000B2CF62E289E1EBCF61E083E2ACCF011555
:104B40008CE5180709F447C00F3D1C4509F450C017
:104B5000F70100811181992309F44DC0C8010E9419
:104B60005D1AD82E682FC8010E946211B8018D2DE0
:104B70000E94DE188C01882EF701A580A2943FE0E8
:104B8000A322D280D1101092E7038091E5038770B1
:104B900099F0DD2089F0812F807F803421F080E240
:104BA000800F883048F082E00E9430128091E50347
:104BB0008770CC24C3948111C12CB12EB2942FE004
:104BC000B222FBE0FB1508F450C0EB2DF0E0E851F9
:104BD000F94C0C9488350E940E15FFEF24E33CE05D
:104BE000F15020403040E1F700C000000E94AA1BB5
:104BF0000E94D51EE2CCC8010E943B11D82EB6CF30
:104C0000212F2F70A22E107F19F0A29490EFA922CD
:104C1000DD20C9F0AA2069F080E2800F883010F012
:104C200081100BC080910A04A82AA0920A040E9455
:104C3000F610802F0E94A51218C08091E703A82AC1
:104C4000A092E703F4CF802F0E947312AA2069F08C
:104C5000A094005E083010F081103DC080910A04DD
:104C6000A822A0920A040E94F610EB2DE850FF0B38
:104C7000349720F40E9413130E944C14CC2009F4A2
:104C800062CC8091E50380FD5ECCF70112828595B0
:104C9000859585950E944812C7010E9482228091C5
:104CA000E5038595859585950F900F900F900F9052
:104CB0000F90DF91CF911F910F91FF90EF90DF90B8
:104CC000CF90BF90AF909F908F907F906F905F90AC
:104CD0004F900C940D128091E703A822A092E70355
:104CE000C2CF312F3F70932E107F103219F0929463
:104CF00080EF9822882071F081E0881661F1DD2034
:104D0000B9F1AA2071F1F701858180FF92CF8F70F0
:104D1000858327C0DD2091F09091E803892D892BB0
:104D2000A11003C00E94A311A0CFE1E0AE12FACF00
:104D3000981709F49ACF8093E80397CFA11006C083
:104D40000E94F010892D0E9498118FCFF1E0AF16CC
:104D500009F48BCFF5CFDD2031F025E02A1508F4DA
:104D600084CF892DDFCF34E03A1508F47ECFEACF27
:104D7000AA2041F3F9E38F1286C12FEF37EE83E0CB
:104D8000215030408040E1F700C000007CC1812FFD
:104D900086958695837061F0813009F066CFC801F1
:104DA0009370D11002C090E080E00E94AD115DCF01
:104DB000C8019370D11002C090E080E00E94C3113E
:104DC00054CF812F837009F066C0D1104ECF802F51
:104DD000829586958770880F880F602F6F70462E9A
:104DE000512C712C612C082E04C0440C551C661CDF
:104DF000771C0A94D2F740E050E0BA0104FF0FC0DC
:104E00004FE050E060E070E004C0440F551F661FA3
:104E1000771F8A95D2F74095509560957095812FB0
:104E2000869586958370823019F1D8F40091E90354
:104E30001091EA032091EB033091EC03813069F08B
:104E40004429552966297729CB01BA0160237123AA
:104E5000822393230E94691208CF402A512A622A92
:104E6000732ACB01BA016429752986299729F2CFC3
:104E700044295529662977290091E9031091EA030D
:104E80002091EB033091EC03CB01BA01602771272D
:104E900082279327DFCF8695DD2011F0812F817047
:104EA000882309F4E2CE802F829586958770880F3B
:104EB000880F602F6F70462E512C712C612C082E9C
:104EC00004C0440C551C661C771C0A94D2F740E0C1
:104ED00050E0BA0104FF0FC04FE050E060E070E026
:104EE00004C0440F551F661F771F8A95D2F740955F
:104EF000509560957095812F869586958370823048
:104F000019F1D8F400918704109188042091890444
:104F100030918A04813069F044295529662977291E
:104F2000CB01BA0160237123822393230E94E711EE
:104F30009CCE402A512A622A732ACB01BA016429E5
:104F4000752986299729F2CF442955296629772979
:104F500000918704109188042091890430918A047B
:104F6000CB01BA016027712782279327DFCF1F70FB
:104F7000DD2029F0812F0E944812802FD3CE802F70
:104F80000E949811812F0E940D126FCE802F92EFF8
:104F9000891609F450C0981578F0E0EF8E1619F1D3
:104FA000F1EF8F1609F43FC0DD2009F467C0A110AE
:104FB00040CE812F8F713CC023EF821609F440C090
:104FC00034EF8312F1CFDD2009F44DC01F71812F22
:104FD0000E944812E8E01E9FC00111248360809364
:104FE000E503812F25C0DD20C9F084E08A1508F48F
:104FF0003CCE1F7161E070E080E090E004C0660F7D
:10500000771F881F991F1A95D2F700918704109176
:1050100088042091890430918A04A4CF95E09A15E0
:1050200008F423CEE6CF812F8F71DD2009F4ABCFBA
:105030000E9448121ACE812F8F71DD20C9F3A3CFB1
:1050400060E070E0CB01DD2009F470CF1F7161E0FA
:1050500070E080E090E004C0660F771F881F991F02
:105060001A95D2F763CF81E00E943012F1E0FA1571
:1050700008F0FBCD82E00E943012F7CDAA2039F073
:10508000893309F47ACE802F0E947312EECD812FDE
:105090008F7179CF0031FFE51F0709F46BCB013128
:1050A0002FE5120709F470CB0E94851060937603F8
:1050B000709377038093780390937903043F2CE5F2
:1050C000120709F4C0CB08F061CB093D8CE5180745
:1050D00009F4B5CB0A3D9CE5190709F4C0CB083D9E
:1050E000ECE51E0709F061CB26E241EE61EEC70157
:1050F0000E94CD2062CA00313FE5130709F440CB7E
:1051000001318FE5180781F682E03BCB85E0DE01B7
:10511000119601900D928A95E1F7F701228189811C
:105120009A81211126CA0E943B11182F2ACA0631E2
:105130001C4509F00DCD80917A0369E2811165E388
:1051400082EB91E00E9491107FCC8272F801E35CC7
:10515000FC45E431F10508F0F2CCEC50F94C0C942C
:1051600088351F93CF93DF9380918003807FA9F4CC
:1051700080917D03882389F08091B203D0918103CF
:1051800060917B0370917C03A0917E03B0917F03BB
:10519000C62FC72316E0D81304C0DF91CF911F910B
:1051A000089590E0109711F0CF3F19F401968770A1
:1051B000F2CF189F9001199F300D1124F901EE577D
:1051C000FC4F41814713F2CF40814613EFCF42811C
:1051D0004111ECCF438154814A1B5B0B483C510584
:1051E00028F7809180038F70806180938003F9019C
:1051F000E957FC4F80818F70806180838BE793E05B
:105200000E948222DF91CF911F910C948E11AF9258
:10521000BF92CF92DF92EF92FF920F931F93CF93A3
:10522000DF93CDB7DEB761970FB6F894DEBF0FBE40
:10523000CDBF8C0185E0F801DE011D9601900D9235
:105240008A95E1F7F80180819181E2802BE7A22E17
:1052500023E0B22E60917E0370917F03611571058A
:1052600009F43EC130917B0340917C03232F24231A
:105270002F3F09F435C1C380D480F0907D03F6013F
:10528000E61BF70BFF2009F4FBC020918003522F8F
:10529000507FE83CF10508F0BBC0511178C0FE2CEE
:1052A000491321C038131FC0E1101DC02F702061A9
:1052B00020938003C5010E94822280918003F8011F
:1052C00085838F2D61960FB6F894DEBF0FBECDBFDC
:1052D000DF91CF911F910F91FF90EF90DF90CF90D2
:1052E000BF90AF900895CD2829F0282F29232F3F74
:1052F00009F014C120E0F22FF170DF2E20FF3DC035
:105300002091B2034091810356E0241315C08D878C
:105310009E878D859E850E949F1A292F22952F702A
:105320002230F8F0243020F59F70F9F0F8019581D3
:10533000907FD9F4D12C1FC030E0529FF001539FD1
:10534000F00D1124EE57FC4F6181961306C0608169
:10535000861303C06281E61210C02F5F3F4F277093
:10536000D4CF9F7011F0882329F3805E883010F32A
:10537000C8010E948222FD2CA4CFEE2009F4A1CF07
:1053800080918003816080938003F12C9ACF491330
:1053900012C0381310C0E1100EC0F8012583C801F7
:1053A0000E94822286E0F801ABE7B3E001900D9203
:1053B0008A95E1F786CF8D879E878D859E850E9491
:1053C000A91A882309F1EE20F9F080918003803238
:1053D00070F020917B0330917C0338872F831986EE
:1053E000DB86CA868C87CE0107960E94822286E0E1
:1053F000F801ABE7B3E001900D928A95E1F70E94C6
:10540000B128FF24F3945DCFC8010E948222F9CF16
:1054100051110AC08BE793E00E94822286E0F501D9
:1054200011928A95E9F7B1CF49130FC038130DC017
:10543000E1100BC0F8012583C8010E94822286E09A
:10544000F50111928A95E9F73CCF8D879E878D856E
:105450009E850E94A91A8823B9F2EE20A9F28091B4
:105460008003803220F220917B0330917C033A83C9
:1054700029831B82DD82CC828E83CE010196B5CF3B
:10548000E83CF105E0F6FE2CEE2009F4BDCF49130F
:1054900016C0381314C08091800380FD83CF982FED
:1054A000907F09F47FCFF8018583903F09F477CF8F
:1054B000982F907F905F8F70892B858370CF8D8719
:1054C0009E878D859E850E94A91A811190CF80911B
:1054D0008003816080938003C8010E948222F1CE04
:1054E000EE2009F491CF8D879E878D859E850E9441
:1054F000A91AF82E882309F487CF86E0F801ABE7D4
:10550000B3E001900D928A95E1F780917B03909131
:105510007C030E949F1A0E94B128D3CE21E02E2541
:10552000EACE1F93CF93DF93CDB7DEB767970FB661
:10553000F894DEBF0FBECDBF4B8B5C8B6D8B7E8B2B
:105540008F8B1A8A198A85E0FE017396DE011D96FB
:1055500001900D928A95E1F786E0FE013D96DE010D
:10556000179601900D928A95E1F7CE0107960E9459
:105570000729882389F016E08091B2039091810376
:10558000891349C067960FB6F894DEBF0FBECDBF32
:10559000DF91CF911F91089586E0FE013796DE01DD
:1055A000119601900D928A95E1F78A859B85892B4A
:1055B00011F38F81988589238F3FE9F22091810330
:1055C00030E0C9010196877099274091B2034817CE
:1055D000190671F40E940E15109281031092B20305
:1055E00086E0EBE7F3E0DF011D928A95E9F7C3CF90
:1055F00096E0929FD001939FB00D1124AE57BC4FFF
:10560000FE01319601900D929A95E1F78093810306
:105610000E948E11B0CF819FC00111248E579C4FE4
:105620000E940729882309F4ADCF8091B20390E04E
:105630000196877099278093B2039ECF5F926F92F5
:105640007F928F929F92AF92BF92CF92DF92EF9212
:10565000FF920F931F93CF93DF9390E080E0C0E021
:1056600001E010E0812C912C540183946FEF662EA1
:1056700063E0762EA6E8B1E050E040E02D91E22F05
:10568000E295EF70F0E02F70B80102C0660F771F4F
:105690002A95E2F79B01B801042E02C0660F771F1E
:1056A0000A94E2F768237923042E02C07595679562
:1056B0000A94E2F732A1662309F48BC0232B22A3BC
:1056C0004F5F5F4F44305105C9F67AE17A95F1F7A3
:1056D00000C0B501A401082E04C0440F551F661F69
:1056E000771F0A94D2F76A019A0120953095E5EF69
:1056F000F3E041E8E42E41E0F42ED0E041915191F5
:10570000D7015D907D01A52DA295AF70B0E0909678
:105710006C9170E0A52DAF7002C075956795AA9544
:10572000E2F7DF01129760FD57C0BA016C297D29AD
:1057300011967C936E936D917C914617570709F0F3
:10574000D1E06E167F06D1F6CD2B01968031910502
:1057500009F090CFCC2309F443C081E08093D802B4
:105760000E94C1209093D7028093D6028091D602E6
:105770009091D7020E9476100B97B0F18091F503BB
:105780009091F60390934704809346048091F70329
:105790009091F80390934904809348048091F90311
:1057A0009091FA0390934B0480934A048091FB03F9
:1057B0009091FC0390934D0480934C048091FD03E1
:1057C0009091FE0390934F0480934E041092D80260
:1057D0000BC02095232373CFBA0162237323A8CF74
:1057E0008091D8028111C2CF80911201882349F0A3
:1057F0008091F1039091F203891708F46EC0891B20
:1058000089F48C2FDF91CF911F910F91FF90EF9032
:10581000DF90CF90BF90AF909F908F907F906F90D0
:105820005F90089580911E03E82FF0E02091F1032E
:105830009091F2032917D1F39091F2039F5F903476
:1058400008F090E0A92FB0E0A752BD4F2C919093A3
:10585000F203E75EFC4F2083811107C0909119038A
:105860009936B9F110921E03C3CF843091F530E020
:1058700020E089E193E0FC014191CF01240F311D2B
:10588000F3E08D319F07B9F780911903893651F7FD
:1058900080911D038213E6CF80911A0390911B0320
:1058A0008F3E2FEF920758F00E9485106093760389
:1058B000709377038093780390937903D3CF2091EB
:1058C0001C03222319F00E94A512CCCF0E94731250
:1058D000C9CF8F5F80931E038BCF805C90CFCDB7F5
:1058E000DEB7AC970FB6F894DEBF0FBECDBF84B75E
:1058F000877F84BF0FB6F894A89580916000886177
:1059000080936000109260000FBE80E890E00FB6B8
:10591000F89480936100909361000FBE85B7806812
:1059200085BF85B7806885BF0E94E70E0E94B20FD1
:105930008091E20084608093E200789480917A0400
:105940008823A1F01091E9001F709091EC00892F3D
:10595000817090FD80E8182B1092E9008091E8009A
:1059600083FD0E9423151F701093E90082E084BD1F
:1059700093E095BD9AEF97BD80936E00A6E8B1E0E5
:105980002AE831E0AD0161E070E0FA018191AF01F8
:10599000E82FE295EF70F0E091A18F708B0101C0CC
:1059A000000F8A95EAF7892F802B81A324173507EA
:1059B00061F741E050E09D91E92FE295EF70F0E052
:1059C00062A19F708A0102C0000F111F9A95E2F731
:1059D000C8018095862382A32A173B0761F7A1E8B7
:1059E000B1E026E831E041E050E08D91E82FE2950A
:1059F000EF70F0E011A18F70BA0101C0660F8A95B7
:105A0000EAF7962F9095912391A382A1862B82A3EA
:105A10002A173B0751F71092F6031092F5031092E4
:105A20004704109246041092F8031092F703109264
:105A30004904109248041092FA031092F90310924C
:105A40004B0410924A041092FC031092FB03109234
:105A50004D0410924C041092FE031092FD0310921C
:105A60004F0410924E040E941E2B1FEF29EF30E0CE
:105A7000115020403040E1F700C000000E941E2B72
:105A80008091460480FF17C06FEF82E290E00E9491
:105A900037366FEF83E290E00E9437366FEF84E293
:105AA00090E00E9437366FEF7FEF90E080E00E9439
:105AB00055360E94AA1B90E080E00E9431368C3E51
:105AC0009E4F11F00E94D51EF8948CE08093CC007C
:105AD00082E08093C80088E98093C90086E08093C3
