:100000000C9417040C945E040C945E040C945E042F
:100010000C945E040C945E040C945E040C945E04D8
:100020000C945E040C945E040C94DD150C94B414D2
:100030000C94AF270C945E040C945E040C945E0444
:100040000C945E040C945E040C945E040C945E04A8
:100050000C945E040C94F8140C945E040C945E04EE
:100060000C945E040C94D2270C94F4270C945E0438
:100070000C945E040C945E040C945E040C945E0478
:100080000C945E040C945E040C945E040C945E0468
:100090000C945E040C945E040C945E040C945E0458
:1000A0000C945E040C945E040C945E0405010980BB
:1000B000A101850319012AB700150126B700950192
:1000C00075108100C0050C0901A101850419012AE0
:1000D000A002150126A002950175108100C005013E
:1000E0000906A1018505050719E029E71500250185
:1000F0009508750181020507190029EF15002501F2
:1001000095F075018102050819012905950575010C
:100110009102950175039101C00660FF0961A1017B
:100120000962150026FF00952075088102096315F4
:100130000026FF00952075089102C005010906A15F
:1001400001050719E029E7150025019508750181CA
:10015000029501750881010507190029FF15002680
:10016000FF00950675088100050819012905950508
:1001700075019102950175039101C0000101010112
:100180000101010101020202020202020202030352
:100190000303030303030404040404040405050522
:1001A00005050606060606070707070708080808E4
:1001B000090909090A0A0A0B0B0B0C0C0C0D0D0D91
:1001C0000E0E0E0F0F0F1010111111121213131427
:1001D00014151516161717181819191A1A1B1B1C9F
:1001E0001D1D1E1E1F2020212222232424252626F9
:1001F000272829292A2B2C2D2D2E2F30313232332E
:100200003435363738393A3B3C3D3E3F4041424336
:100210004445464748494A4C4D4E4F50515354551A
:100220005658595A5B5D5E5F616264656668696BCA
:100230006C6D6F7072737577787A7B7D7E80828348
:100240008587888A8C8E8F91939596989A9C9EA08C
:10025000A2A3A5A7A9ABADAFB1B3B5B7BABCBEC099
:10026000C2C4C6C9CBCDCFD1D4D6D8DBDDDFE2E462
:10027000E7E9EBEEF0F3F5F8FAFDFFFFAA7F554052
:100280002223252628292A2C2D2F303233353638A3
:100290003A3B3D3E4042434547494A4C4E505153FC
:1002A0005557595A5C5E6062646668696B6D6F7120
:1002B000737577797B7D7F81838587898A8C8E9022
:1002C000929496989A9C9E9FA1A3A5A7A8AAACAE2B
:1002D000AFB1B3B4B6B8B9BBBCBEBFC1C2C3C5C66B
:1002E000C7C9CACBCCCDCED0D1D2D2D3D4D5D6D714
:1002F000D7D8D9D9DADADBDBDBDCDCDCDCDCDDDD52
:10030000DDDDDCDCDCDCDCDBDBDBDADAD9D9D8D741
:10031000D7D6D5D4D3D2D2D1D0CECDCCCBCAC9C7E3
:10032000C6C5C3C2C1BFBEBCBBB9B8B6B4B3B1AF1A
:10033000AEACAAA8A7A5A3A19F9E9C9A98969492BA
:10034000908E8C8A89878583817F7D7B7977757391
:10035000716F6D6B6968666462605E5C5A5957556F
:100360005351504E4C4A4947454342403E3D3B3A2B
:100370003836353332302F2D2C2A292826252322B2
:10038000000029001E001F00200021002200230081
:1003900024002500260027002D002E002A004A00F8
:1003A000A8002B0014001A000800150017001C00FC
:1003B00018000C00120013002F00300031004C0018
:1003C0006900390004001600070009000A000B004C
:1003D0000D000E000F0033003400000028004B0019
:1003E0006A00E1001D001B00060019000500110055
:1003F0001000360037003800E500000052004E00C3
:100400006B00E000E200E300000000002C000000B0
:1004100000000151E600E4005000000051004F00D0
:10042000000001003A003B003C003D003E003F0060
:1004300040004100420043004400450001004D00DF
:10044000C35C010001000100010001000100010086
:100450000100010001000100010001000100010094
:100460000100010001000100010001000100010084
:100470000100010001000100010000000100010075
:100480000100010001000100010001000100010064
:100490000100010001000100010000000100010055
:1004A0000100010001000100000000000100000047
:1004B0000000010001000100010000000100010036
:1004C00000AF00000000000000000000000000007D
:1004D0000000000000007E0F00D4FFFFFFC70000F7
:1004E000007800000000000000002A2B2800000017
:1004F00000000000000000000000000000290000D3
:1005000000002C1E3420212224342627252E362DAF
:100510003738271E1F202122232425263333362E49
:1005200037381F0405060708090A0B0C0D0E0F10BB
:100530001112131415161718191A1B1C1D2F313000
:10054000232D350405060708090A0B0C0D0E0F10A4
:100550001112131415161718191A1B1C1D2F3130E0
:10056000354C00DA0281FFD9F1DB20A4A62EAF00C2
:10057000A0C000A1C800AED580A81FD300408D1434
:10058000200032190A00047F3F1F643214643214C1
:10059000783C1E1E140A05FFFFFFFFFFFFFFFFFF51
:1005A000FFFFFFFFFFFFFFFFFFFFFFFFFFFFFFFF5B
:1005B000FFFFFFFFFFFFFFFFFFFFFFFFFFFFFFFF4B
:1005C000FFFFFFFFFFFFFFFFFFFFFFFFFFFFFFFF3B
:1005D000FFFFCFC7C7FFFFFFFF0F070FFFFFFFFFA3
:1005E000FFFFFFFFFFFFFFFFFFFFFFFFFFFFFFFF1B
:1005F000FFFFFFFFFFFFFFFFFF1F1F1FFFFFFFFFAB
:10060000FFFFFFFFFFFFFFFFFFFFFFFFFFFFFFFFFA
:10061000FFFFFFFFFFFFFFFFFFFFFFFFFFFFFFFFEA
:10062000FFFFFFFFFFFFFFFFFFFFFFFFFFFFFFFFDA
:10063000FFCFC7C3F1F9F9F9F971630307FFFFFFB2
:10064000FFFF010107E7F3F1F9F9F1E103071FFFEC
:10065000FFFF030101FFFFFFFF0000007F3F1F0FAF
:1006600087C3E3F1F9FFFFFF1F0F07E3F1F1F9F98A
:10067000F1F3E3070F3FFFFBF9000000F1F9FBFF87
:10068000FFFFFFFFFFFFFFFFFFFFFFFFFFFFFFFF7A
:10069000FFFFFFFFFFFFFFFFFFFFFFFFFFFFFFFF6A
:1006A000FFFFFFFFFFFFFFFFFFFFFFFFFFFFFFFF5A
:1006B000C7030138787C7C7C7C3E8E00007F7FFF06
:1006C000FFFF000000FFFFFFFFFFFFFF000000FF34
:1006D000FFFF000000FFFFFFFF000000F8FCFCF838
:1006E000E081071F3FFFFFFFC080043C7C7C7C7CD7
:1006F0007C3C1C0C8CFCFFFFFFC000003F7F7FFF99
:10070000FFFFFFFFFFFFFFFFFFFFFFFFFFFFFFFFF9
:10071000FFFFFFFFFFFFFFFFFFFFFFFFFFFFFFFFE9
:10072000FFFFFFFFFFFFFFFFFFFFFFFFFFFFFFFFD9
:10073000FFFFFEFEFEFEFEFEFEFFFFFEFEFEFEFFD4
:10074000FFFFFEFEFEFFFFFFFFFFFFFFFEFEFEFFBF
:10075000FFFFFEFEFEFFFFFFFFFEFEFEFFFFFFFFAF
:10076000FFFFFFFEFEFEFFFFFFFFFFFEFEFEFCFEA3
:10077000FEFEFFFFFFFFFFFFFFFFFEFEFEFEFEFF90
:10078000FFFFFFFFFFFFFFFFFFFFFFFFFFFFFFFF79
:10079000FFFFFFFFFFFFFF00AE09025B0003010048
:1007A000A0FA090400000103010100092111010060
:1007B000012240000705810308000A090401000224
:1007C0000300000009211101000122220007058217
:1007D00003200001070503032000010904020001B2
:1007E00003000000092111010001226D00070584AA
:1007F0000320000A1201100100000008616E606011
:100800000100010200010E034E00490042004200B7
:100810004C004500000012036E0075006C006C0077
:1008200062006900740073000000040309041124CD
:100830001FBECFEFDAE0DEBFCDBF04B603FE27C098
:100840008091860690918706A0918806B0918906CE
:100850008730904BA740B04BD1F41092860610928F
:100860008706109288061092890614BE84B7877F87
:1008700084BF0FB6F894A89580916000886180933A
:100880006000109260000FBEE0E0F8E3099526E0FA
:10089000A2EBB1E001C01D92A638B207E1F711E06A
:1008A000A0E0B1E0EEE7F5E502C005900D92A23BB5
:1008B000B107D9F70E94CE200C94722A0C94000044
:1008C000E8EDF0E080818E7F80831092E20010924C
:1008D000DA001092E100A0EEB0E08C9181608C9380
:1008E00080818F77808319BCA7EDB0E08C918E7FDB
:1008F0008C9380818F7E808310924B060895209187
:10090000E4003091E50095E6A9012091EC00822FEA
:10091000817020FF06C08091E80080FF06C080E063
:1009200008952091E80022FD1AC080917506882361
:1009300089F0853089F08091EB0085FD0FC0209112
:10094000E4003091E50042175307F9F29150E1F6C7
:1009500084E0089582E0089583E0089581E0089599
:10096000EF92FF920F931F93CF937C018B010E9414
:100970007F04C82F811117C08091E80085FD0BC04E
:100980008091E8008E778093E8000E947F0488239E
:1009900099F3C82F08C0F70181917F018093F1007E
:1009A0000150110949F78C2FCF911F910F91FF90A2
:1009B000EF9008958091770687FF13C08091E8003B
:1009C00082FF06C08091E8008B778093E80004C026
:1009D000809175068111F2CF089580917506882364
:1009E000D9F38091E80080FFF8CF8091E8008E77FE
:1009F000ECCF982F9093E900242F762F50E08917A1
:100A000031F07091EC002091ED005091F00021FD4B
:100A100007C09F5F973071F78093E90081E00895E8
:100A20003091EB003E7F3093EB003091ED003D7F45
:100A30003093ED003091EB0031603093EB00709318
:100A4000EC002093ED005093F0002091EE0027FD84
:100A5000E0CF80E00895CF92DF92EF92FF920F9364
:100A60001F93CF93DF93C8EDD0E088818F7E88837A
:100A7000E7EDF0E080818160808384E082BF81E0E7
:100A800080934B0688818E7F888302EE10E0F80108
:100A900010821092DA0081EEC82ED12CF60110825D
:100AA00088818F77888388818068888388818F7D1B
:100AB000888319BC109275061092760610927406FF
:100AC0001092730690EEE92EF12CF70180818B7F56
:100AD000808388818160888342E060E080E00E94BA
:100AE000F904F60180818E7F8083F8018081816026
:100AF0008083808188608083F70180818E7F8083FE
:100B0000888180618883DF91CF911F910F91FF9041
:100B1000EF90DF90CF900895FC0180917D06909139
:100B20007E0686179707A0F06115710529F490914C
:100B3000E8009E779093E80090E06115710551F40C
:100B4000911108C08091E80082FF34C080E00895D0
:100B5000BC01F2CF809175068823C1F18530C1F1C7
:100B60008091E80083FD30C08091E80082FDEACFEB
:100B70008091E80080FFE1CF8091F3002091F200A6
:100B8000382F6115710519F02830310558F091E0C2
:100B90002830310509F090E02091E8002E7720936D
:100BA000E800CBCF81918093F100615071092F5FF4
:100BB0003F4FE7CF80917506882341F0853041F0A3
:100BC0008091E80083FFBECF81E0089582E0089520
:100BD00083E00895089508958091520608959C0138
:100BE0004FB7F8948091E5039091E603A091E70355
:100BF000B091E8034FBF821B930B08952FB7F89471
:100C00006091E5037091E6038091E7039091E8031A
:100C10002FBF0895209124012223C9F02091F703CA
:100C200027FF15C0E62FE695E695E695EE31D8F458
:100C3000E80FF92FF11D677021E030E001C0220FAD
:100C40006A95EAF720958281282322830895FC0182
:100C5000329608962191621303C0DF0111971C920E
:100C6000E817F907B9F70895209124012223C1F06C
:100C70002091F70327FF14C0E62FE695E695E69549
:100C8000EE31F8F4E80FF92FF11D677021E030E044
:100C900001C0220F6A95EAF78281822B8283089530
:100CA000FC0132962FEF30E04191641751F02F3F55
:100CB00019F4411101C0232F3F5F3630A9F72F3FB0
:100CC00009F40895820F911D27FD9A95FC01628316
:100CD00008958091E00381111092E00308958091BE
:100CE00002049091DF03892B9091DE03892B80937E
:100CF000B2019091E0039923A1F0892B8093B20176
:100D000080912401882341F18091F70387FF24C05B
:100D10008EE1E4EBF1E090E0815000F591110E944A
:100D20006906E091FA03F091FB033097E1F08091BE
:100D30002401882359F08091F70387FF07C0809131
:100D4000B2018093B30185E08093B2010280F38108
:100D5000E02D82EB91E0099486E0DBCF2191222304
:100D6000D9F29F5FD9CF08959295907F890F982FE0
:100D7000977086958695869525E0829FF0011124CF
:100D8000E555FC4F50E040E080E0219130E0092E35
:100D900002C0369527950A94E2F721703327042E76
:100DA00001C0220F0A94EAF7822B4F5F5F4F453054
:100DB000510559F708959295907F890F982F977054
:100DC00041E001C0440F9A95EAF78695869586958D
:100DD00095E0899FF0011124E555FC4F30E020E0BB
:100DE00070E05191DF011197CB01022E02C0969560
:100DF00087950A94E2F7817081958527842385275A
:100E00008C932F5F3F4F2530310559F7089580911E
:100E1000AA0390917903981301C008958F5F87709A
:100E2000FACF882341F08095909102048923809322
:100E300002040C946F060895882339F090910204FF
:100E4000982B909302040C946F06089520917003E0
:100E5000309171032817390771F0909371038093D3
:100E60007003E091FA03F091FB03309721F00084C6
:100E7000F185E02D0994089520916E0330916F0360
:100E80002817390771F090936F0380936E03E091F8
:100E9000FA03F091FB03309721F00680F781E02DF3
:100EA000099408951092DF031092DE030E946F06EA
:100EB00090E080E00E943C0790E080E00C942607E0
:100EC00060938206709383068093840690938506D0
:100ED0000C9452070F931F936091820670918306C2
:100EE00080918406909185068B019C0106701127E4
:100EF00022273327063011052105310529F46860C2
:100F00001F910F910C946007677FFACF0F931F9387
:100F100041E050E060E070E004C0440F551F661FE0
:100F2000771F8A95D2F7CB01BA01609570958095AD
:100F3000909500918206109183062091840630914D
:100F4000850660237123822393231F910F910C94B4
:100F500060079091DD03809589238093DD03282F1E
:100F6000277071F4282F082E000C330B92171306EC
:100F700039F08595859585950E9486071092DD0349
:100F800008950F931F9341E050E060E070E004C0CB
:100F9000440F551F661F771F8A95D2F780918206EE
:100FA00090918306A0918406B09185068A019B01E9
:100FB000082B192B2A2B3B2BC901B8011F910F912C
:100FC0000C9460076093E1037093E2038093E30362
:100FD0009093E4030C945207882379F19CEF980FC7
:100FE000913A38F4682F82EB91E00E940A060C9443
:100FF0006F0690E2980F983088F4877021E030E017
:10100000A90102C0440F551F8A95E2F7CA018095D5
:1010100090910204892380930204E9CF9BE5980F05
:10102000933020F490E080E00C943C07885A87319C
:1010300020F490E080E00C9426070895CF93C82F09
:10104000882309F467C08CEF8C0F813AC0F580913A
:101050002401882311F18091F70387FF1EC0EC2F34
:10106000E695E695E695F0E0EE54FE4F828190E03D
:101070004C2F477021E030E002C0220F331F4A9509
:10108000E2F782239323892B91F06C2F82EB91E07E
:101090000E940A060E946F060AC0E4EBF1E08AEBA8
:1010A00091E02191C21789F38E179F07D1F76C2F1A
:1010B00082EB91E00E943406CF910C946F0680E29F
:1010C0008C0F883068F4C77021E030E001C0220F37
:1010D000CA95EAF780910204822B80930204ECCF38
:1010E000EBE5EC0FE33040F4F0E0E05BFE4F808195
:1010F00090E0CF910C943C07C85AC73158F4EC2FBC
:10110000F0E0EE0FFF1FED5AFE4F80819181CF91ED
:101110000C942607CF910895E091FA03F091FB0318
:10112000309721F00190F081E02D099480E008953E
:10113000FA01811101C0FB01099480914C06982F9E
:101140009E7F29F48170826080934C0608958635D5
:10115000E8F381708465F8CFAF92BF92DF92EF928F
:10116000FF920F931F93CF93DF93082F162FE90160
:10117000E42FF0E0E558FE4F611110C0E4915E2FBE
:101180004E2F4983E8835A83DF91CF911F910F91AE
:10119000FF90EF90DF90BF90AF900895E62EF12C76
:1011A0004491D42EE42FF0E026E0829FC001112468
:1011B0002FEF30E0B9010E941A29802F90E0880FAC
:1011C000991F55E5569FD001579FB00D11248A1BDA
:1011D0009B0B982F990F890F5901AE18BF08AE9E2F
:1011E000D001AF9EB00DBE9EB00D11245B2F189F95
:1011F00080011124012F11275901A01AB10AAE9EB6
:101200008001AF9E100DBE9E100D11245901A81A29
:10121000B108AE9CC001AF9C900DBE9C900D1124F6
:10122000892F9927281B390B2E9FC0012F9F900DC6
:101230003E9F900D1124E92F62307105A1F050F40A
:101240006115710509F49DCF6130710581F0EB2FB7
:10125000512F97CF6430710569F080F066307105C9
:1012600009F48FCFF4CFE42F4B2F592F8ACFE42FDF
:10127000412F87CFEB2F542F492F83CF4B2F5D2D3D
:10128000E12F7FCF9091F70392FF06C0282F28719E
:101290002830F9F4877F846093FF06C0282F2871D7
:1012A0002831F1F4877E84612091F80320FF06C085
:1012B000382F38713830D9F4877F816021FF06C01C
:1012C000282F28712831D1F4877E816194FD877E93
:1012D0000895282F24712430F9F68B7F8860DCCFA5
:1012E000282F2471243101F78B7E8861DDCF382FC0
:1012F0003171313019F78E7F8860E0CF282F21714E
:10130000213121F78E7E8861E1CF81FF03C0809873
:1013100088980895809AFCCF29E62093150390932E
:101320001703809316036093180330E020E085E1F3
:1013300093E0FC014191CF01240F311DF3E089318D
:101340009F07B9F720931903E5E1F3E098EB2191AA
:101350008091EB038F5F3091EC03831303C00FB6D2
:1013600007FE0DC03091EC038317E1F3A82FB0E026
:10137000AE52BE4F2C938093EB039093C90043E091
:10138000EA31F40721F70895CF92DF92EF92FF92AE
:101390000F931F93CF93DF936C017B0164E670E0A2
:1013A00088E70E941D28EC0197FD12C010E000E0C4
:1013B000F601E00FF11F849164E670E00E94792845
:1013C000EC01892B29F40F5F1F4F0E151F0581F7C4
:1013D0000E94FC28CE01DF91CF911F910F91FF90C9
:1013E000EF90DF90CF900895CF93C0913106809118
:1013F00032068823D1F00E94FE05605A75418F4F56
:101400009F4F60932D0670932E0680932F06909326
:101410003006C11108C062E070E080EC94E00E94E8
:10142000C409892B29F0C09131068C2FCF910895E2
:1014300081E080933106F7CFCF9384E090E00E9463
:10144000C729C82F81E290E00E94C729982F8C2FCE
:10145000CF9108950F931F93CF93DF9320E2629F64
:10146000E001112450E0440F551FC40FD51F30EA8E
:10147000839FC00DD11D1124CE0186960E94C729DD
:10148000082F10E0102F0027CE0187960E94C72951
:101490009801282BC901DF91CF911F910F910895D9
:1014A000462F843038F4753028F4603118F4672FF3
:1014B0000C942A0A90E080E00895CF93DF930E9475
:1014C000500AEC0182389105A9F1D8F581339105D4
:1014D00009F496C048F58932910509F48AC08A97C3
:1014E00009F495C0C11522E5D20708F0B6C0C115B0
:1014F00031E5D30708F026C1C83ED10508F09CC0ED
:10150000C13ED10560F5C83AD10508F087C0C53A9B
:10151000D10508F0EFC0C130D10509F12097F9F0ED
:10152000C430D105E0F440C08533910509F45AC0B8
:10153000C997C1F68091F703837089F0C0EED0E0BF
:101540000EC0833E910599F170F4803E910501F142
:10155000823E910539F68091F70382FD21C0CE01CC
:10156000DF91CF910895863E910561F1873E910507
:1015700071F1843E910509F0B5CF8091F80381FFA8
:10158000EECF8091F703C7EED0E084FD0DC0E7CF2A
:101590008091F70380FD07C19091F80390FFDFCFA2
:1015A000C3EED0E084FFDBCFD0E0C0E0D8CF8091A5
:1015B000F70382FDFBC09091F80390FDBFCF84FF3D
:1015C000CECFF2CF8091F70383FDDDCFC8CF8091DE
:1015D000F70383FDEEC09091F80391FFF0CFC4EEC6
:1015E000D0E0BDCF8091F70385FFB9CFC9E2D0E04D
:1015F000B6CF8091F70385FFB2CFC5E3D0E0AFCF80
:101600008091F70386FFABCFCAE2D0E0A8CF8091EC
:10161000F70386FFA4CFC1E3D0E0A1CFCF3BD10534
:1016200018F6C85AD0E0CC0FDD1FCD5ADE4F099016
:10163000D881C02DD46493CFC11540E5D40708F0FC
:1016400064C0C11580E4D80708F05CC0CE019A954B
:1016500081159F4108F483CFA7CFC11536E5D30785
:1016600018F5C11545E5D40708F084C0C11584E517
:10167000D80708F07AC09C2F969596959E01237006
:101680003327C115D34508F462C0C1E0D0E002C0E1
:10169000CC0FDD1F2A95E2F730E2939FC0011124A1
:1016A000C82BD92BDA685BCFC1158AE5D80778F447
:1016B000C11599E5D90708F068C0C11528E5D2071A
:1016C00008F472CFDC2FCC27C06FD06A48CFCE0190
:1016D00090568115904208F067CF8D2F8F710E9430
:1016E000420990E0982F882788279F719C012C2B16
:1016F000E90149C0C55AD0E0C05BDE4FC881D0E0E7
:10170000D0642DCFDF70D06A2ACFCE01E4E0969569
:101710008795EA95E1F783702C2F269526952370FF
:1017200040E2249F90011124382B8C2F8370C1E05C
:10173000D0E002C0CC0FDD1F8A95E2F7C22BD32B7D
:10174000DC680DCFDC2FCC27C16FD06A08CFC1E099
:10175000D0E002C0CC0FDD1F2A95E2F720E2929F75
:10176000C0011124C82BD92BEBCFDC2FCC27C46FA1
:10177000D06AF5CE8C2F0E944209C82FD0E0DC2F12
:10178000CC27CC27DF71D062EACE8C2F8F700E94DD
:10179000420934E0D695C7953A95E1F7CF709C2F72
:1017A000EC01D069DCCEC9E3D0E0D9CEC2EED0E006
:1017B000D6CEC6EED0E0D3CEBF92CF92DF92EF92DC
:1017C000FF920F931F93CF93DF938C01C0908206FB
:1017D000D0908306E0908406F09085068091E10326
:1017E0009091E203A091E303B091E403C82AD92ABF
:1017F000EA2AFB2ACFE1D0E0BC2ED701C6010C2E8D
:1018000004C0B695A795979587950A94D2F780FD61
:101810000EC0219788F7B12C8B2DDF91CF911F91AE
:101820000F91FF90EF90DF90CF90BF900895B80197
:101830008C2F0E945D0A019761F3EECFCF93DF9367
:10184000EC010E94DC0BBE01DF91CF910C945D0A8C
:101850000E941E0C292F2F7092959F7092509E30DF
:1018600078F4E92FF0E0EC58F54D0C944229803FD4
:1018700019F020F4883E20F481E00895843FE1F3DC
:1018800080E00895883EC0F3813FD1F7F5CF822FE5
:1018900086958695869508956F927F928F929F92F6
:1018A000AF92BF92CF92DF92EF92FF920F931F936E
:1018B000CF93DF9380E8C82E83E0D82E06EE10E0A9
:1018C000E801C05AD10936011CC0F50185909490F9
:1018D000692DC7010E94DB29682DC70101960E946E
:1018E000DB2982E0A80EB11C82E0E80EF11CCE15C7
:1018F000DF0559F780E2680E711CA0960C171D07D2
:1019000031F07E0180E2E81AF1085301DECF005683
:101910001F4F80EAC80ED11C063683E0180781F6F7
:10192000DF91CF911F910F91FF90EF90DF90CF90BB
:10193000BF90AF909F908F907F906F900895CF93BE
:10194000DF93C6EAD2E060E0CE010E94DB29219657
:10195000C11584E0D807B9F7DF91CF910895CF93EF
:10196000DF9300D00F92CDB7DEB79091750694301B
:1019700011F589837B836A839093E9008FEF9091BF
:10198000E800815095FD06C095ED9A95F1F70000AD
:101990008111F5CF8091E80085FF0DC050E040E057
:1019A00063E070E0CE0101960E94B0048091E800EF
:1019B0008E778093E8000F900F900F90DF91CF917A
:1019C0000895BC0184E00C94AF0CBC0183E00C943E
:1019D000AF0CCF93DF93EC01809124018823B1F108
:1019E0008091F70387FF32C060E284E08093E900D2
:1019F0008FEF9091E800815095FD06C095ED9A9586
:101A0000F1F700008111F5CF8091E80085FF1BC040
:101A10008091240170E050E040E0811104C050E06A
:101A200040E068E070E0CE010E94B0048091E800E0
:101A30008E778093E80080E2FE01A3E5B6E0019096
:101A40000D928A95E1F7DF91CF91089568E081E0EA
:101A5000CDCF81E08093E00080E28093D8001092A7
:101A6000C9008FE19EE40197F1F700C0000087E014
:101A700090EBDC018093860690938706A0938806FE
:101A8000B093890688E19CE00FB6F894A8958093FE
:101A900060000FBE90936000FFCFCF93C82F0E94CD
:101AA0001E08C93349F42FEF87EE93E021508040A0
:101AB0009040E1F700C000008C2FCF910C94EC0710
:101AC00080914C0680FD0AC0EEE1F3E011821082A5
:101AD0001282339653E0EC33F507C1F76E9A3EB1AC
:101AE0003F7B2EB120644FB7F8948EE193E0FC0168
:101AF0005191CF0168E02EB9000000C057FF3EB9F8
:101B0000550F000000C000C000C03EB900C06A957B
:101B100091F7F3E08C339F0751F74FBF8FE594E0C7
:101B20000197F1F700C000000895EF92FF921F9314
:101B3000CF93DF93EC018EE1E82E83E0F82E10E0E6
:101B40008C81970140914F0660914E06810F0E9453
:101B5000AC08175E83E0E80EF11C1A3F89F70E947B
:101B6000600D9A818C8190FF08C08F5F8C83DF911C
:101B7000CF911F91FF90EF9008958150F7CFBF92C2
:101B8000CF92DF92EF92FF920F931F93CF93DF9349
:101B9000FC018281DD24DA9480FD02C0DD24D3942F
:101BA0000EE113E0D0E0C0E02AE0B22EF80111828D
:101BB0001082128294E0E92EF12CC12C80911B033B
:101BC0008C0D8B300CF43DC06B2D0E940C29892F9D
:101BD000082E000C990B8C179D0791F480914F06ED
:101BE0008E9DA0018F9D500D1124559547955595BB
:101BF0004795980160914E0680914D060E94AC0871
:101C0000CD0CF1E0EF1AF108C9F621960D5F1F4FD8
:101C1000CA30D10559F60E94600D80911B0391E0F6
:101C2000D91215C0811111C089E080931B03DF9187
:101C3000CF911F910F91FF90EF90DF90CF90BF90C9
:101C4000089587FFC5CF865FC3CF8150EECF90E068
:101C50000196BE010E942E29E8CF0F931F93CF93C8
:101C6000DF93CEE1D3E0FE0111821082128233961F
:101C700083E0EC33F807C1F710E000E080911C032B
:101C8000082E000C990B081719078CF18091100190
:101C9000082E000C990B801791074CF19E01409182
:101CA0004F0660914E0680914D060E94AC080F5F72
:101CB0001F4F23960A30110509F70E94600D80918D
:101CC0000F0190911C03980F90931C032091100119
:101CD000280F20931001121614F499301CF08195EE
:101CE00080930F01DF91CF911F910F910895198279
:101CF00018821A82DCCF8F929F92AF92BF92CF92BE
:101D0000DF92EF92FF920F931F93CF93DF93EC013B
:101D10004C81042F10E09801D8010E94632A9B0196
:101D2000AC010E942E2A4B015C01E0E2F0E0E01BD6
:101D3000F10BA5E5B0E0AC019B010E942E2A6B01DE
:101D40007C019F01DF010E944F299B01AC010E9491
:101D5000392A9B01AC01280D391D4A1D5B1DC701A5
:101D6000B6010E94412AF22E822F90E039E23F15FF
:101D7000D8F143E0249F9001112435952795122F27
:101D800010959EE1C92E93E0D92E00E085E5E82E5E
:101D9000EF188E2D01FD8F2D9601412F60914E067B
:101DA0000E94AC080F5F53E0C50ED11C0A3089F7C2
:101DB0000E94600D9C8181E0992319F0903219F402
:101DC0008FEF8093110180911101890F8C83DF9136
:101DD000CF911F910F91FF90EF90DF90CF90BF9028
:101DE000AF909F908F90089525E530E0A901481BA2
:101DF000590BCA019A01220F331F280F391F37FFD1
:101E0000BCCF2F5F3F4FB9CFEF92FF920F931F933D
:101E1000CF93DF938C01CEE1D3E0F12CE12CF801DC
:101E2000948160914E0680914D06F5E0EF16F10425
:101E3000FCF49923F9F09E0140914F060E94AC08F2
:101E40002FEFE21AF20A23968AE0E816F10439F736
:101E50000E94600DF801848190E0019681709927BD
:101E60008483DF91CF911F910F91FF90EF900895A0
:101E7000992309F39E0140E0E1CF90914C0690FF39
:101E80000CC0EEE1F3E0818360834283339693E0FC
:101E9000EC33F907C1F70C94600D08950F931F936D
:101EA000CF93DF9300D00F92CDB7DEB78C01809136
:101EB0001D0381110AC09E012F5F3F4F4FEF6FEF4F
:101EC0000E94AC088A8180931D03F801648161300F
:101ED00069F080911D0340E0662361F040E06230CC
:101EE00011F440911D0380E060E004C060911D0387
:101EF00040E080E00E943D0FF801848190E001966F
:101F000063E070E00E942E2984830F900F900F9061
:101F1000DF91CF911F910F910895CF93DF9300D060
:101F20000F92CDB7DEB790914C0690FF0AC09E018C
:101F30002F5F3F4F0E94AC084B8169818A810E94CC
:101F40003D0F0F900F900F90DF91CF910895CF9399
:101F5000DF93EC01EC81F0E0E058FD4F4491ECE4BC
:101F6000F6E0628181810E948D0F8C818F5F8C836E
:101F7000DF91CF910895CF93DF93EC01ECE4F6E08D
:101F8000438162818C810E948D0F8C818F5F8C8355
:101F9000DF91CF9108951092020480912401E4EB27
:101FA000F1E0882359F08091F70387FF07C08EE1A5
:101FB000DF011D928A95E9F70C94520786E0F8CF6D
:101FC0001F93CF93DF93CDB7DEB7AA970FB6F894E0
:101FD000DEBF0FBECDBF87E796E02091F100DC01A8
:101FE0002D93CD01B6E08F379B07B9F78091780626
:101FF000833009F471C0B8F4813009F448C08230EC
:1020000009F4B2C08091E80083FF3AC1809177065D
:10201000909178069A3008F033C1E92FF0E0EE573E
:10202000F54D0C9442298A3009F48DC08B3009F4A7
:1020300070C0893039F780917706813219F7809125
:102040007B0690917C06009711F00297D9F680915B
:10205000E800877F8093E8008091E80082FF37C026
:102060009091F3008091F200029729F48091F100A1
:102070008B7F813021F48091F10080935206809112
:10208000E8008B778093E8000E94DA04BBCF809150
:102090007706813A09F0B6CF8091E800877F809378
:1020A000E80080917B0690917C06892B61F460E2C8
:1020B00083E596E070E00E948C058091E8008B77C4
:1020C0008093E8009FCF60E090E080E0F3CF8091C4
:1020D00075068111C1CF96CF80917706813A09F0BC
:1020E00091CF80917B0690917C06892B09F08ACF55
:1020F0008091E800877F8093E8008091E80080FF6E
:10210000FCCF809124018093F1008091E8008E77CC
:10211000B9CF80917706813209F074CF80917B0628
:1021200090917C06892B09F06DCF8091E800877F24
:102130008093E8000E94DA0480917906809324015C
:102140000E94CB0F5FCF80917706813209F05ACF82
:102150008091E800877F8093E8000E94DA048091F4
:102160007A06809351064ECF80917706813A09F026
:1021700049CF8091E800877F8093E8008091E80054
:1021800080FFFCCF80915106BECF803899F0823815
:1021900009F076C080917B068F70873008F070C0A0
:1021A0008093E9008091EB0085FB882780F91092ED
:1021B000E90006C0809173069091740691118260C7
:1021C0009091E800977F9093E8008093F10010923F
:1021D000F1008091E8008E77B5C1882309F4A2C18F
:1021E000823009F04DC0809179068111A6C180919D
:1021F0007B068F702FEF280F263008F041C08093A8
:10220000E9002091EB0020FF98C1933031F48091D8
:10221000EB0080628093EB0090C19091EB009061A5
:102220009093EB0021E030E001C0220F8A95EAF79D
:102230002093EA001092EA008091EB008860EACFD8
:1022400081111EC0109179061F778091E30080787C
:10225000812B8093E3008091E800877F8093E800E2
:102260000E94DA048091E80080FFFCCF8091E300B7
:1022700080688093E30082E0111183E0809375060B
:102280008091E80083FF0AC08091E800877F8093F7
:10229000E8008091EB0080628093EB00AA960FB675
:1022A000F894DEBF0FBECDBFDF91CF911F9108958F
:1022B0008058823028F72091790630917A062C3D9B
:1022C000E3E03E07A1F583E08A838AE289834FB782
:1022D000F894DE01139620E03EE051E2E32FF0E0B7
:1022E00050935700E49120FF03C0E295EF703F5FE9
:1022F000EF708E2F90E0EA30C0F0C7968D939D93DB
:102300002F5F243159F74FBF8091E800877F80937A
:10231000E8006AE270E0CE0101960E948C0580918F
:10232000E8008B778093E800ABCFC096E7CF809131
:102330007B0690917C06432F55274330510509F4C5
:102340004AC078F54130510509F47AC08BE590E038
:10235000E9E9F7E04230510509F092CF2091E80019
:10236000277F2093E80020917D0630917E0682171A
:10237000930708F49C0140E02115310509F065C080
:10238000411163C08091E80082FDC9CF809175063C
:10239000882329F2853019F28091E80083FFF2CF7B
:1023A000BECF4132510509F43CC04232510509F01B
:1023B00067CF8330910508F063CFFC01EE0FFF1F5C
:1023C000EB55FE4F0190F081E02D8E559E4FDC01C4
:1023D0008C9190E01AC0332721303105D1F02115BE
:1023E000310561F02230310509F04ACFE6E0F8E02E
:1023F000E4918E2F90E0E6E0F8E007C0EAE2F8E032
:10240000E4918E2F90E0EAE2F8E0009709F438CFEB
:10241000A5CFE6E1F8E0E4918E2F90E0E6E1F8E068
:10242000F4CF8330910508F02BCF880F991FFC0162
:10243000E555FE4F0190F081E02D89E090E08ECFD0
:1024400082E190E0E4EFF7E089CF80917506882380
:1024500009F465CF853009F462CF8091E80083FDEF
:102460005ECF8091E80082FD8DCF8091E80080FFF3
:1024700083CF9091F3008091F2002115310519F07E
:102480008830910550F041E0089709F040E08091D4
:10249000E8008E778093E8006FCF44914093F1007D
:1024A0003196215031090196E8CF803809F0E8CE05
:1024B0008091E800877F8093E80080917606809382
:1024C000F10087CE8111DCCE10917906123008F030
:1024D000D7CE8091E800877F8093E800109376063E
:1024E0000E94DA04112311F084E005C08091E3001A
:1024F00087FDFACF81E08093750642E061EC81E0D0
:102500000E94F90442E261EC84E00E94F90442E294
:1025100061EC82E00E94F90442E260EC83E00E94F8
:10252000F904AECE80917906813009F0A9CE81E020
:10253000933009F080E0809374061092E900809156
:10254000E800877F8093E8000E94DA0499CE8F929A
:102550009F92AF92BF92CF92DF92EF92FF920F9332
:102560001F93CF93DF93FC01B280948081E084833A
:10257000CCE3D3E00EE113E08BE4A82E882483940F
:10258000EE24EA94F12C2BE4C22ED12C91101DC024
:102590001B821A8298014A81698188810E94AC0855
:1025A00025960D5F1F4F83E0CE36D80779F7DF9170
:1025B000CF911F910F91FF90EF90DF90CF90BF9040
:1025C000AF909F908F900C94600D2B81222309F186
:1025D00021502B833C818A2D821B311101C0822F17
:1025E00090914F06899FC0011124B6010E941A29BB
:1025F0006A83211104C0332311F01C82AB8222E0D4
:102600002B1540F280914D06888380914E06898378
:10261000C1CF0E94AA29823091400CF0BBCF82E04A
:102620008B15C0F40E94AA29B7010E942E29888325
:1026300022E02B1590F40E94AA2920914E0626959F
:10264000622F70E00E942E29280F29831A82AB8204
:102650008C82A0CF80914D06EACF20914E06F5CF17
:102660006CEE7EEF90E080E00E94F92960E082E06D
:1026700090E00E94DB2960E083E090E00E94DB298B
:102680001092E1031092E2031092E3031092E4032C
:1026900060E084E090E00E94DB2960E081E290E06D
:1026A0000E94DB2960E085E090E00E94DB2960E089
:1026B00086E090E00E94DB296FEF87E090E00E94C7
:1026C000DB2940E050E0BA0188E090E00E94ED296B
:1026D00060E08DE090E00E94DB2940E050E0BA012C
:1026E00088E190E00E94ED2960E087E190E00E949F
:1026F000DB2940E050E0BA018CE190E00E94ED2936
:1027000060E080E290E00E94DB2940E050E0BA0106
:1027100088E190E00E94ED2940E050E0BA018FE0AE
:1027200090E00E94ED2940E050E0BA0183E190E0A2
:102730000C94ED29CF92DF92EF92FF926B017C0116
:102740000E949D08B701A60188E090E0FF90EF90FD
:10275000DF90CF900C94ED295F926F927F928F92D1
:102760009F92AF92BF92CF92DF92EF92FF920F9320
:102770001F93CF93DF9300D00F92CDB7DEB7182F02
:10278000762E042F622E90914C0690FF29C0E92FDF
:10279000E695AE2FB0E0AB5DBE4F8C9180933F06C7
:1027A0009E7F923081F59E012F5F3F4F812F0E94C7
:1027B000AC084B8169818A810E943D0F10934D06C0
:1027C00070924E0600934F06662051F060914C06C1
:1027D00070914D0680914E0690914F060E949A137B
:1027E0000F900F900F90DF91CF911F910F91FF905D
:1027F000EF90DF90CF90BF90AF909F908F907F90A1
:102800006F905F900895823019F400914F06D6CFF3
:10281000863019F410914D06D1CF8930D9F3893122
:1028200069F6E9518E2F8170582EE695F0E0E55853
:10283000FD4FA590B490BB248EE1E82E83E0F82EE6
:10284000D12CC12C9AE0892E912CC601B4010E9492
:102850001A29812F511013C0860F9701402F672D21
:102860000E94AC08CA0CDB1C83E0E80EF11C8CE370
:10287000E81683E0F80649F70E94600D9FCF861B9B
:10288000ECCFECE4F6E0438121E1421B08F440E0A8
:1028900021E0628181810C94AC13ECE4F6E0438189
:1028A00021E1420F08F44FEF21E0628181810C9415
:1028B000AC13ECE4F6E0628121E1621B08F460E015
:1028C00021E0438181810C94AC13ECE4F6E0628159
:1028D00021E1620F08F46FEF21E0438181810C94C4
:1028E000AC13ECE4F6E0818121E043816281885001
:1028F0000C94AC13ECE4F6E0818121E04381628129
:10290000885F0C94AC1380915006882319F0815095
:102910008093500660914C0670914D0680914E0652
:1029200090914F060C949A1380915006833018F4BE
:102930008F5F8093500660914C0670914D06809198
:102940004E0690914F060C949A13ECE4F6E083E067
:10295000808311828FEF82838383148260817181EF
:10296000828193810C949A131F920F920FB60F924B
:1029700011242F933F934F935F936F937F938F9384
:102980009F93AF93BF93CF93DF93EF93FF93D09138
:10299000E900DF708091EC00C82FC17080FDC0E8B5
:1029A0001092E9008091F000877F8093F000789486
:1029B0000E94E00F1092E9008091F00088608093FF
:1029C000F000CD2BCF70C093E900FF91EF91DF9124
:1029D000CF91BF91AF919F918F917F916F915F91B7
:1029E0004F913F912F910F900FBE0F901F90189510
:1029F00078941F921FB61F9211248F939F93AF93C9
:102A0000BF938091E5039091E603A091E703B09115
:102A1000E8030196A11DB11D8093E5039093E603A1
:102A2000A093E703B093E803BF91AF919F918F917B
:102A30001F901FBE1F9018952FB7F8948091E50343
:102A40009091E603A091E703B091E8032FBF0895AA
:102A50000F931F93CF93DF93C62FD42F022FFC0128
:102A600082818823A1F0609381060E941C159093B7
:102A7000800680937F06C77081E001C0880FCA95E9
:102A8000EAF7DF91CF911F910F910C941C07809171
:102A90008106681335C080917F06909180060E9460
:102AA000EF05883C910560F510E21D0FCD17B9F0D8
:102AB00080E28C0F883040F4C77081E001C0880F3D
:102AC000CA95EAF70E941107183048F481E09D2F5B
:102AD000977001C0880F9A95EAF70E941C07802F13
:102AE0000E944D0D183098F4D77081E001C0880F16
:102AF000DA95EAF7DF91CF911F910F910C941107AE
:102B0000C77081E001C0880FCA95EAF7F3CFDF9163
:102B1000CF911F910F91089560914C06669570E0DA
:102B20004BE050E084E091E00E94BA29892B19F42F
:102B300081E0809340060E941C159093FD038093D2
:102B4000FC03089590914C0690FF36C0917081115E
:102B500029C0926090934C06662351F060914C0618
:102B600070914D0680914E0690914F060E949A13E7
:102B700060914C06669570E04BE050E084E091E097
:102B80000E94BA29892BA9F01092400681E0809317
:102B9000FF0320E040914F0660914E0680914D0664
:102BA0000C94AC138B3210F09465D4CF880F982B13
:102BB000D1CF0E948C15EACF08951F920F920FB6C5
:102BC0000F9211242F933F934F935F936F937F93B3
:102BD0008F939F93AF93BF93EF93FF938091E10007
:102BE00082FF09C08091E20082FF05C08091E10070
:102BF0008B7F8093E1008091DA0080FF24C0809178
:102C0000D80080FF20C08091DA008E7F8093DA00A8
:102C10008091D90080FFA3C080E189BD82E189BD98
:102C200009B400FEFDCF81E08093750680914B06CC
:102C3000811109C00E9460040E942B058091E2006E
:102C400084608093E2008091E10080FF17C0809152
:102C5000E20080FF13C08091E2008E7F8093E2004B
:102C60008091E20080618093E2008091D8008062D0
:102C70008093D80019BC85E0809375068091E100AF
:102C800084FF31C08091E20084FF2DC080E189BDC6
:102C900082E189BD89B5982F917080FFFBCF80912B
:102CA000D8008F7D8093D8008091E1008F7E809343
:102CB000E1008091E2008F7E8093E2008091E2004B
:102CC00081608093E20080917606882309F44DC0EC
:102CD00084E0809375060E94CB0F0E948C080E94AE
:102CE00085090E948C158091E10083FF27C08091A7
:102CF000E20083FF23C08091E100877F8093E100A1
:102D000082E080937506109276068091E1008E7FB6
:102D10008093E1008091E2008E7F8093E2008091B9
:102D2000E20080618093E20042E060E080E00E9487
:102D3000F9048091F00088608093F000FF91EF919A
:102D4000BF91AF919F918F917F916F915F914F91C3
:102D50003F912F910F900FBE0F901F90189519BCA7
:102D60001092750610924B066ECF8091E30087FD9E
:102D700093E090937506AFCF80914C068695815075
:102D800009F48AE261E00C94A21580914C068695C4
:102D90008F5F8B3208F081E061E00C94A215909176
:102DA0004C0690FF07C09695981720F0961710F4E0
:102DB0000C94C51661E00C94A2154F925F926F922D
:102DC0007F928F929F92AF92BF92CF92DF92EF92BB
:102DD000FF920F931F93CF93DF9300D000D00F92F9
:102DE000CDB7DEB77C01FC0183819481892B31F062
:102DF0008081918189238F3F09F0E7C50F900F9063
:102E00000F900F900F90DF91CF911F910F91FF9036
:102E1000EF90DF90CF90BF90AF909F908F907F907A
:102E20006F905F904F9008950E94DC0B182F682FD1
:102E300089819A810E94DB0669817A81812F0E94B3
:102E4000500A8C01F7016281662309F4B4C58251EE
:102E50009F45409708F078C58FEF93E00E94C729FF
:102E6000025156EA852E52E0952E882371F1809109
:102E7000DD03877019F2F7018281882309F4BECF40
:102E800082E00F900F900F900F900F90DF91CF91F5
:102E90001F910F91FF90EF90DF90CF90BF90AF9078
:102EA0009F908F907F906F905F904F900C94A907A8
:102EB0008114F4E09F06D9F2C4010E94C729811150
:102EC00001C001502FEF821A920A0111F1CF1C822A
:102ED0001B82662463944AE0542E84010F5F1F4FC7
:102EE000C4010E94C72989831A82882309F4BFCFAD
:102EF0009FEF980F933008F58A83698232E0830E42
:102F0000911CC8010E94C7298B83882309F4AFCF85
:102F10008E010F5F1F4FF80120812223F1F2213033
:102F200009F043C091818281913049F40E5F1F4FB7
:102F30000E944D0D0F5F1F4FEECF4801E9CF923039
:102F400029F40E5F1F4F0E941E08F4CF933029F41E
:102F50000E5F1F4F0E94EC07EDCF943019F00F5F0A
:102F60001F4FE8CF0E5F1F4F30E020E0B8016F5FCA
:102F70007F4FF80141818053990B8A30910550F0C1
:102F800021503109B8F28FE99FE00197F1F700C0B5
:102F90000000F6CF529EF001539EF00D11249C01CB
:102FA0002E0F3F1F842F8B01E1CFE22FF0E0EE5177
:102FB000FB4F7490822F86958695869590E0FC0154
:102FC000EE52FB4FA4902770B12C022E02C0B59494
:102FD000A7940A94E2F7E1E0AE22BB24FC01EE5391
:102FE000FB4FC490D12C02C0D594C7942A95E2F728
:102FF000F1E0CF22DD24A114B10419F081EE0E948A
:103000001E08C114D10419F086EE0E941E08872DF7
:103010000E944D0DCD2819F086EE0E94EC07AB28DA
:1030200009F488CF81EE96CF81E00E94C1070E940B
:103030006A071DCF81E00E948607F9CF82E0F5CFB5
:10304000063F2CE5120709F460C008F45AC027E2D5
:1030500045EE66EE073F8CE5180709F4A8C4F701B2
:103060009281992309F4C2C4109281060230FCE5D2
:103070001F0708F42FC106312CE5120738F098011C
:103080002B5F3C452930310508F024C10E941C0A01
:103090009093F8038093F70300313CE5130709F49C
:1030A000E8C008F076C008309CE5190709F4D7C0DD
:1030B00008F045C00430FCE51F0709F4C8C060F5FE
:1030C00002303CE5130709F4B8C003301C4509F48D
:1030D000BAC06091F7031091F80384E090E00E9479
:1030E000DB29612F81E290E00E94DB290E94CB0F57
:1030F000BECE27E245EE65EE5AC426E241EE60EE12
:1031000056C427E245EE64EE52C426E241EE62EE7A
:103110004EC428E241E0EFCF8091F7038061063092
:103120009CE5190709F48CC08091F703886007308B
:103130001C4508F485C08091F703806281C08091AE
:10314000F7038D7F0C30FCE51F0709F479C070F49C
:103150008091F7038C600A303CE5130709F470C0D6
:1031600008F481C08091F7038E7F6AC08091F703D5
:10317000877F0E309CE5190709F462C08091F70340
:103180008B7F0F301C4508F45BC08091F7038F7E66
:1031900057C00C3FFCE51F0709F45DC030F5033153
:1031A0003CE5130709F46DC078F401319CE519077B
:1031B00009F463C002311C4509F08BCF0E94CB0F8C
:1031C0008091F7038F773CC00531FCE51F0709F4B8
:1031D00060C008F474C08091F80381600B3F1C4507
:1031E00009F077CF8093F80374CF01158DE51807A8
:1031F00009F44BC088F48091F8038D7F0E3FECE515
:103200001E0781F38091F8038E7F0F3F1C4550F31A
:103210008091F8038360E6CF02302DE5120709F4B0
:1032200057C008F442C060E003301D4509F051CF9B
:103230008EE090E00E94DB294CCF8091F703816003
:103240008093F70346CF8091F7038260F9CF809196
:10325000F7038460F5CF8091F8038260C3CF80913B
:10326000F7038064EDCF0E94CB0F8091F703806855
:10327000E7CF8091F7038F7DE3CF8091F7038F7BBA
:10328000DFCF8091F703837FDBCF8091F8038C7FC2
:10329000A9CF8091F70382FB992790F921E092272B
:1032A00090FB82F990FB83F9CBCF8091F803982FA4
:1032B000909591708E7F892B90FB81F993CF0E941E
:1032C000CB0F9091F703892F97FB87F98058B8CFE0
:1032D00061E0AECF809102040631ECE51E0709F0F3
:1032E00093C38A7A91E009F490E09093720369E2C3
:1032F000811165E382EB91E00E9434060E946F0623
:10330000B6CD80914C0680FF1BC08E7F80934C060B
:1033100060914C0670914D0680914E0690914F063B
:103320000E949A1310924006FFEF20E732E0F1501E
:1033300020403040E1F700C000000E94600D97CDB2
:10334000816080934C0661E086950E94A2158FCD26
:103350004CEB56E165EC76E10E94980888CD45EC8F
:1033600056E16CEB76E1F8CF41E754E16AE774E1AE
:10337000F3CF4AE754E161E774E1EECF49E554E168
:1033800065E674E1E9CF45E654E169E574E1E4CF2F
:1033900041E454E16DE474E1DFCF4DE454E161E4D4
:1033A00074E1DACF43E854E164E974E1D5CF44E94C
:1033B00054E163E874E1D0CF61E081E0C6CF65E01D
:1033C00082E00E94CF1653CD68E086E0FACF6EE02F
:1033D00089E0F7CF64E18FE0F4CF67E185E1F1CFD9
:1033E00061E088E1B2CF62E289E1EBCF61E083E2A4
:1033F000ACCF01158CE5180709F447C00F3D1C45FB
:1034000009F450C0F70100811181992309F44DC0DE
:10341000C8010E94DC0BD82E682FC8010E94DB0671
:10342000B8018D2D0E945D0A8C01882EF701A580C0
:10343000A2943FE0A322D280D1101092DF038091AA
:10344000DD03877099F0DD2089F0812F807F803443
:1034500021F080E2800F883048F082E00E94A907C6
:103460008091DD038770CC24C3948111C12CB12ECF
:10347000B2942FE0B222FBE0FB1508F450C0EB2D14
:10348000F0E0E457F54D0C9442290E94CB0FFFEF7A
:1034900024E33CE0F15020403040E1F700C0000060
:1034A0000E94290D0E943013E2CCC8010E94B4068C
:1034B000D82EB6CF212F2F70A22E107F19F0A294F4
:1034C00090EFA922DD20C9F0AA2069F080E2800FE8
:1034D000883010F081100BC080910204A82AA092BD
:1034E00002040E946F06802F0E941E0818C080915F
:1034F000DF03A82AA092DF03F4CF802F0E94EC07FD
:10350000AA2069F0A094005E083010F081103DC040
:1035100080910204A822A09202040E946F06EB2D63
:10352000E850FF0B349720F40E948C080E94850914
:10353000CC2009F463CC8091DD0380FD5FCCF701E2
:1035400012828595859585950E94C107C7010E94C5
:10355000DD168091DD038595859585950F900F90FB
:103560000F900F900F90DF91CF911F910F91FF90CF
:10357000EF90DF90CF90BF90AF909F908F907F9013
:103580006F905F904F900C9486078091DF03A82284
:10359000A092DF03C2CF312F3F70932E107F1032E5
:1035A00019F0929480EF9822882071F081E08816BB
:1035B00061F1DD20B9F1AA2071F1F701858180FF69
:1035C00092CF8F70858327C0DD2091F09091E0032A
:1035D000892D892BA11003C00E941C07A0CFE1E018
:1035E000AE12FACF981709F49ACF8093E00397CFE1
:1035F000A11006C00E946906892D0E9411078FCF75
:10360000F1E0AF1609F48BCFF5CFDD2031F025E0E6
:103610002A1508F484CF892DDFCF34E03A1508F459
:103620007ECFEACFAA2041F3F9E38F1286C12FEFB4
:1036300037EE83E0215030408040E1F700C00000C9
:103640007CC1812F86958695837061F0813009F069
:1036500066CFC8019370D11002C090E080E00E9454
:1036600026075DCFC8019370D11002C090E080E0C2
:103670000E943C0754CF812F837009F066C0D1109F
:103680004ECF802F829586958770880F880F602F88
:103690006F70462E512C712C612C082E04C0440CE6
:1036A000551C661C771C0A94D2F740E050E0BA0122
:1036B00004FF0FC04FE050E060E070E004C0440F32
:1036C000551F661F771F8A95D2F7409550956095D4
:1036D0007095812F869586958370823019F1D8F484
:1036E0000091E1031091E2032091E3033091E403A0
:1036F000813069F04429552966297729CB01BA011F
:1037000060237123822393230E94E20708CF402A7B
:10371000512A622A732ACB01BA01642975298629A4
:103720009729F2CF44295529662977290091E10389
:103730001091E2032091E3033091E403CB01BA013D
:103740006027712782279327DFCF8695DD2011F030
:10375000812F8170882309F4E2CE802F829586958F
:103760008770880F880F602F6F70462E512C712C38
:10377000612C082E04C0440C551C661C771C0A944E
:10378000D2F740E050E0BA0104FF0FC04FE050E034
:1037900060E070E004C0440F551F661F771F8A95D4
:1037A000D2F74095509560957095812F86958695B6
:1037B0008370823019F1D8F400918206109183064B
:1037C0002091840630918506813069F0442955297D
:1037D00066297729CB01BA016023712382239323C1
:1037E0000E9460079CCE402A512A622A732ACB018C
:1037F000BA016429752986299729F2CF44295529C8
:10380000662977290091820610918306209184060B
:1038100030918506CB01BA01602771278227932753
:10382000DFCF1F70DD2029F0812F0E94C107802F7C
:10383000D3CE802F0E941107812F0E9486076FCE62
:10384000802F92EF891609F450C0981578F0E0EFB8
:103850008E1619F1F1EF8F1609F43FC0DD2009F43F
:1038600067C0A11040CE812F8F713CC023EF82161C
:1038700009F440C034EF8312F1CFDD2009F44DC0CC
:103880001F71812F0E94C107E8E01E9FC001112413
:1038900083608093DD03812F25C0DD20C9F084E0A3
:1038A0008A1508F43CCE1F7161E070E080E090E082
:1038B00004C0660F771F881F991F1A95D2F70091D1
:1038C0008206109183062091840630918506A4CF4C
:1038D00095E09A1508F423CEE6CF812F8F71DD2075
:1038E00009F4ABCF0E94C1071ACE812F8F71DD2062
:1038F000C9F3A3CF60E070E0CB01DD2009F470CF05
:103900001F7161E070E080E090E004C0660F771FF7
:10391000881F991F1A95D2F763CF81E00E94A907EB
:10392000F1E0FA1508F0FBCD82E00E94A907F7CD7F
:10393000AA2039F0893309F47ACE802F0E94EC074F
:10394000EECD812F8F7179CF0031FFE51F0709F48C
:103950006BCB01312FE5120709F470CB8091120176
:1039600081110CC0C80101978E3F910520F00F3ED8
:103970002FEF120718F0C8010E948C09043F3CE5A4
:10398000130709F4BACB08F05BCB093D9CE5190796
:1039900009F4AFCB0A3DECE51E0709F4BACB083DAC
:1039A000FCE51F0709F05BCB26E241EE61EEC701A3
:1039B0000E9428155CCA80319F4509F43BCB013138
:1039C0008FE5180759F682E036CB85E0DE011196C7
:1039D00001900D928A95E1F7F701228189819A8100
:1039E000211122CA0E94B406182F26CA06311C458E
:1039F00009F008CD8091720369E2811165E382EBE1
:103A000091E00E940A067ACC8272F801E35CFC45E0
:103A1000E431F10508F0EDCCE856F54D0C9442295F
:103A20001F93CF93DF9380917803807FA9F48091D7
:103A30007503882389F08091AA03D091790360915E
:103A4000730370917403A0917603B0917703C62F2E
:103A5000C72316E0D81304C0DF91CF911F910895BA
:103A600090E0109711F0CF3F19F401968770F2CFD4
:103A7000189F9001199F300D1124F901E658FC4F51
:103A800041814713F2CF40814613EFCF428141116C
:103A9000ECCF438154814A1B5B0B483C510528F70E
:103AA000809178038F70806180937803F901E158E9
:103AB000FC4F80818F708061808383E793E00E9458
:103AC000DD16DF91CF911F910C940707AF92BF9243
:103AD000CF92DF92EF92FF920F931F93CF93DF93DA
:103AE000CDB7DEB761970FB6F894DEBF0FBECDBF7E
:103AF0008C0185E0F801DE011D9601900D928A95FA
:103B0000E1F7F80180819181E28023E7A22E23E092
:103B1000B22E60917603709177036115710509F4F7
:103B20003EC13091730340917403232F24232F3F10
:103B300009F435C1C380D480F0907503F601E61B0B
:103B4000F70BFF2009F4FBC020917803522F507F20
:103B5000E83CF10508F0BBC0511178C0FE2C4913B8
:103B600021C038131FC0E1101DC02F7020612093A9
:103B70007803C5010E94DD1680917803F8018583E2
:103B80008F2D61960FB6F894DEBF0FBECDBFDF91CB
:103B9000CF911F910F91FF90EF90DF90CF90BF904A
:103BA000AF900895CD2829F0282F29232F3F09F021
:103BB00014C120E0F22FF170DF2E20FF3DC02091D4
:103BC000AA034091790356E0241315C08D879E8780
:103BD0008D859E850E941E0C292F22952F702230E4
:103BE000F8F0243020F59F70F9F0F8019581907F6E
:103BF000D9F4D12C1FC030E0529FF001539FF00D3B
:103C00001124E658FC4F6181961306C0608186132B
:103C100003C06281E61210C02F5F3F4F2770D4CFE0
:103C20009F7011F0882329F3805E883010F3C8015B
:103C30000E94DD16FD2CA4CFEE2009F4A1CF8091C7
:103C40007803816080937803F12C9ACF491312C0D6
:103C5000381310C0E1100EC0F8012583C8010E947E
:103C6000DD1686E0F801A3E7B3E001900D928A9596
:103C7000E1F786CF8D879E878D859E850E94280CD3
:103C8000882309F1EE20F9F080917803803270F0FA
:103C9000209173033091740338872F831986DB8654
:103CA000CA868C87CE0107960E94DD1686E0F80151
:103CB000A3E7B3E001900D928A95E1F70E94101DF1
:103CC000FF24F3945DCFC8010E94DD16F9CF511196
:103CD0000AC083E793E00E94DD1686E0F5011192A9
:103CE0008A95E9F7B1CF49130FC038130DC0E11021
:103CF0000BC0F8012583C8010E94DD1686E0F5019E
:103D000011928A95E9F73CCF8D879E878D859E8598
:103D10000E94280C8823B9F2EE20A9F28091780342
:103D2000803220F220917303309174033A83298307
:103D30001B82DD82CC828E83CE010196B5CFE83C1A
:103D4000F105E0F6FE2CEE2009F4BDCF491316C0B4
:103D5000381314C08091780380FD83CF982F907F13
:103D600009F47FCFF8018583903F09F477CF982F2E
:103D7000907F905F8F70892B858370CF8D879E8712
:103D80008D859E850E94280C811190CF80917803AB
:103D9000816080937803C8010E94DD16F1CEEE2089
:103DA00009F491CF8D879E878D859E850E94280C72
:103DB000F82E882309F487CF86E0F801A3E7B3E063
:103DC00001900D928A95E1F78091730390917403AD
:103DD0000E941E0C0E94101DD3CE21E02E25EACE9B
:103DE0001F93CF93DF93CDB7DEB767970FB6F894E5
:103DF000DEBF0FBECDBF4B8B5C8B6D8B7E8B8F8BF5
:103E00001A8A198A85E0FE017396DE011D960190DB
:103E10000D928A95E1F786E0FE013D96DE01179648
:103E200001900D928A95E1F7CE0107960E94661DDA
:103E3000882389F016E08091AA0390917903891371
:103E400049C067960FB6F894DEBF0FBECDBFDF91B5
:103E5000CF911F91089586E0FE013796DE011196FD
:103E600001900D928A95E1F78A859B85892B11F344
:103E70008F81988589238F3FE9F22091790330E083
:103E8000C9010196877099274091AA03481719061E
:103E900071F40E94CB0F109279031092AA0386E06E
:103EA000E3E7F3E0DF011D928A95E9F7C3CF96E0DF
:103EB000929FD001939FB00D1124A658BC4FFE01D4
:103EC000319601900D929A95E1F7809379030E94C3
:103ED0000707B0CF819FC001112486589C4F0E94D4
:103EE000661D882309F4ADCF8091AA0390E0019666
:103EF000877099278093AA039ECF5F926F927F92DB
:103F00008F929F92AF92BF92CF92DF92EF92FF92E9
:103F10000F931F93CF93DF9390E080E0C0E001E028
:103F200010E0812C912C5401839467EF662E63E09E
:103F3000762EA6E8B1E050E040E02D91E22FE29528
:103F4000EF70F0E02F70B80102C0660F771F2A955E
:103F5000E2F79B01B801042E02C0660F771F0A9496
:103F6000E2F768237923042E02C0759567950A94B9
:103F7000E2F732A1662309F48BC0232B22A34F5F03
:103F80005F4F44305105C9F67AE17A95F1F700C0E8
:103F9000B501A401082E04C0440F551F661F771FEA
:103FA0000A94D2F76A019A0120953095EDEEF3E07C
:103FB00041E8E42E41E0F42ED0E041915191D70147
:103FC0005D907D01A52DA295AF70B0E090966C91AB
:103FD00070E0A52DAF7002C075956795AA95E2F7C0
:103FE000DF01129760FD57C0BA016C297D29119637
:103FF0007C936E936D917C914617570709F0D1E041
:104000006E167F06D1F6CD2B01968031910509F011
:1040100090CFCC2309F443C081E08093D4020E9466
:104020001C159093D3028093D2028091D20290917A
:10403000D3020E94EF050B97B0F18091ED039091B0
:10404000EE0390934206809341068091EF03909196
:10405000F00390934406809343068091F10390917E
:10406000F20390934606809345068091F303909166
:10407000F40390934806809347068091F50390914E
:10408000F60390934A06809349061092D4020BC01F
:104090002095232373CFBA0162237323A8CF809185
:1040A000D4028111C2CF80911201882349F08091FE
:1040B000E9039091EA03891708F46EC0891B89F41B
:1040C0008C2FDF91CF911F910F91FF90EF90DF9098
:1040D000CF90BF90AF909F908F907F906F905F90A8
:1040E000089580911A03E82FF0E02091E903909160
:1040F000EA032917D1F39091EA039F5F903408F007
:1041000090E0A92FB0E0AB52BD4F2C919093EA0301
:10411000EB5EFC4F2083811107C090911503993607
:10412000B9F110921A03C3CF843091F530E020E04A
:1041300085E193E0FC014191CF01240F311DF3E0B3
:1041400089319F07B9F780911503893651F780911E
:1041500019038213E6CF80911603909117032091E3
:1041600018038F3E3FEF930758F030911201311141
:10417000D8CF61E0211101C060E00E948C09D1CF4D
:10418000222319F00E941E08CCCF0E94EC07C9CF51
:104190008F5F80931A038BCF805C90CFCDB7DEB753
:1041A000AC970FB6F894DEBF0FBECDBF84B7877F44
:1041B00084BF0FB6F894A8958091600088618093C1
:1041C0006000109260000FBE80E890E00FB6F89497
:1041D00080936100909361000FBE85B7806885BFB2
:1041E00085B7806885BF0E9460040E942B0580917E
:1041F000E20084608093E2007894809175068823C1
:10420000A1F01091E9001F709091EC00892F81704E
:1042100090FD80E8182B1092E9008091E80083FD62
:104220000E94E00F1F701093E90082E084BD93E0CC
:1042300095BD9AEF97BD80936E00A6E8B1E02AE89D
:1042400031E0AD0161E070E0FA018191AF01E82F4A
:10425000E295EF70F0E091A18F708B0101C0000F2B
:104260008A95EAF7892F802B81A32417350761F7F8
:1042700041E050E09D91E92FE295EF70F0E062A1FE
:104280009F708A0102C0000F111F9A95E2F7C801C2
:104290008095862382A32A173B0761F7A1E8B1E046
:1042A00026E831E041E050E08D91E82FE295EF7093
:1042B000F0E011A18F70BA0101C0660F8A95EAF78C
:1042C000962F9095912391A382A1862B82A32A17E2
:1042D0003B0751F71092EE031092ED031092420645
:1042E000109241061092F0031092EF0310924406D0
:1042F000109243061092F2031092F10310924606B8
:10430000109245061092F4031092F303109248069F
:10431000109247061092F6031092F50310924A0687
:10432000109249060E947D1F1FEF29EF30E01150C7
:1043300020403040E1F700C000000E947D1F8091C6
:10434000410680FF17C06FEF82E290E00E94DB29F8
:104350006FEF83E290E00E94DB296FEF84E290E050
:104360000E94DB296FEF7FEF90E080E00E94F92947
:104370000E94290D90E080E00E94D5298C3E9E4F3E
:1043800011F00E943013F8948CE08093CC0082E00E
:104390008093C80088E98093C90086E08093CA00B2
:1043A0001092EC031092EB031092EA031092E903CF
:1043B00078948091D80080618093D80065E36A95F5
:1043C000F1F700008091D90081708093120182E2A0
:1043D00090E00E94C729813209F09FC583E290E0F6
:1043E0000E94C729833009F098C584E290E00E94BA
:1043F000C729853009F091C51092290680E880937D
:1044000006040E9417286DE070E085E795E00E94A1
:10441000C409892BE9F58091290663E070E081FDEC
:1044200086C282E795E00E94C409892B89F56DE078
:1044300070E082E695E00E94C409892B49F50E944C
:10444000FE05605A75418F4F9F4F60932D06709304
:104450002E0680932F0690933006E9E2F4E080E088
:1044600092E0DF018C011D9201501040E1F7F093C2
:104470000804E09307048FEF9FEF90932C0680933E
:104480002B0681E0809332068093310610922A0633
:1044900090E080E00E94D5298C3E9E4F11F00E9452
:1044A000301382E090E00E94C729809334060E9476
:1044B0001C0A9093F8038093F70383E090E00E9436
:1044C000C729682F70E090E080E00E94E2078091A9
:1044D000F903811136C090E080E00E94D5298C3E1E
:1044E0009E4F21F00E9430130E94A51488E090E0B6
:1044F0000E94CF2960934C0670934D0680934E0620
:1045000090934F066E7F71F40E94A51488E090E0AE
:104510000E94CF2960934C0670934D0680934E06FF
:1045200090934F060E949D081092400680914C0681
:1045300080FF04C060E086950E94A21581E0809310
:10454000F90325982D9A24982C9A83B185FB882706
:1045500080F91C99EFC190E0892B809305048AE1D2
:1045600091E09093FB038093FA0344244394512CED
:104570000E947D1FD82EA1E4B6E0E5E3F6E010E04E
:1045800000E0702F8D919D9121913191281739076D
:1045900009F4D8C12827392760E0EE24E394F12CF0
:1045A000A9014E215F21452B09F4C6C169A37AA355
:1045B00097012823392391E0232B09F490E09BA352
:1045C0000E941C158160782F9DA38CA349A15AA13C
:1045D0006BA18DA10E94F01E000F111FF801EB5C72
:1045E000F94F80819181E826F926F182E08280915D
:1045F0004006882309F441C080913F06E0914C06B3
:10460000E695E81BE093FE03823009F0B2C1F0E0CA
:10461000ED56FA4FE4910E2F10E0F7EAEF2EFFE08F
:10462000FF2E8091FF03882389F01092FF030E94E0
:104630001C15980120953095820F931F9093FD03D0
:104640008093FC0310920104109200048091FC03FB
:104650009091FD030E94EF058017910770F0E091A3
:10466000FC03F091FD030E0F1F1F1093FD03009339
:10467000FC038CEF93E0F7010995E0910504EE0F40
:10468000EE0FE093050483B185FB662460F81C9966
:10469000DCC180E08629E82BE0930504EF70F0E0B0
:1046A000E657FE4F808190910404890F80930404A3
:1046B000843004F1809103048F5F80930304809120
:1046C000820690918306A0918406B091850600979A
:1046D000A105B10509F4CAC1B695A7959795879527
:1046E00080FFC4C180910204982F947409F4B0C172
:1046F0000E947114809104048D3F04F5809103049D
:104700008150809303048091820690918306A0914A
:104710008406B09185060097A105B10509F4B8C1DA
:10472000B695A7959795879580FFB2C180910204B1
:10473000982F947409F49EC10E947A148091040405
:10474000082E000C990B64E070E00E942E298093E3
:10475000040480913206882309F4B1C089E294E010
:10476000909308048093070420912B0630912C0627
:10477000DC0190E080E0FC01E956FA4F64914D9134
:104780006417A1F0AD0141505109FA016083AC01F9
:10479000F5E056954795FA95E1F7820102C0000FC2
:1047A000111F4A95E2F7A801202B352B01968115A0
:1047B00012E0910701F730932C0620932B06211568
:1047C000310509F457C080912A06811153C0082F82
:1047D00010E07201082E02C0EE0CFF1C0A94E2F7F2
:1047E000A9014E215F21452B09F456C1909129065C
:1047F00090FD54C18295880F8076809315019801B1
:10480000369527953695279520931801815E8093DC
:1048100016011092190124E630E047E050E063E110
:1048200071E088E70E94A828892B21F5A80175E08E
:10483000440F551F7A95E1F78091290680FD3CC110
:10484000475D5B4F04E610E020E230E060E488E77B
:104850000E94CF28892B71F40E94F409E094F0940F
:1048600080912B0690912C06E822F922F0922C06DA
:10487000E0922B0680913106882309F10E94FE0503
:1048800000912D0610912E0620912F0630913006B2
:10489000601B710B820B930B6F3F7F4F8F4F9F47B6
:1048A00070F480913206882351F062E070E087E96D
:1048B00097E00E94C409892B11F410923106D1109F
:1048C0000E94F4090E948C0890913306891731F0F8
:1048D0000E948C08809333060E948509809175069A
:1048E000843009F045CE83E08093E9008091E800B0
:1048F00082FF3ECE8091E80090E085FF06C00E94D6
:104900007F04882309F43BC191E08091E8008B7714
:104910008093E800992309F42BCEE981E150E3313B
:1049200008F0C2C1F0E0E455F54D0C9442298FE641
:1049300095E079CD92E010CE6F5FEE0CFF1C6031F8
:1049400009F02ECE0F5F1F4F0530110509F019CE6B
:104950008FEF8EA38FA318A60E941C158160782F5D
:104960009AA789A74EA15FA168A58AA50E94F01EFB
:104970003ECE863059F4F0E0E057FA4FE4910E2F26
:1049800010E0EBEBEE2EEFE0FE2E4BCE893061F423
:10499000E695F0E0E357FA4FE4910E2F10E075E949
:1049A000E72E7DE0F72E3DCE8F3061F4E695F0E006
:1049B000E657FA4FE4910E2F10E06FEBE62E6DE014
:1049C000F62E2FCE853159F4F0E0E957FA4FE491F5
:1049D0000E2F10E05DE2E52E5EE0F52E22CE08E21D
:1049E00010E02BE7E22E2EE0F22E883109F419CEEA
:1049F000833249F4E5E8F5E0059114914EE4E42EA4
:104A00004FE0F42E0ECE04EF11E094E0E92E9FE08B
:104A1000F92E843209F405CE853281F48E2F63E0BD
:104A20000E940029E92FF0E0EE57FA4FE4910E2F93
:104A300010E037EAE32E32E1F32EF3CD00ED17E07C
:104A40008AEEE82E85E0F82EECCD82E090E022CED2
:104A5000982F917119F00E9441144CCE827219F076
:104A60000E94591447CE0E94BC1644CE8AEA0E9486
:104A70004D0D40CE982F917119F00E944D145ECECD
:104A8000827219F00E94651459CE0E94C51656CE46
:104A900089EA0E944D0D52CE8F5F99CE880F880F04
:104AA000880F8093150110921801895F8093160179
:104AB00083E080931901AFCEE9E0F4E080E2DF010A
:104AC0001D928A95E9F7EEE9F1E0FCA7EBA70AE968
:104AD00011E0ABA5BCA52D91BCA7ABA7F801219017
:104AE0008F01240E352E311CB101675D7B4F1B01F8
:104AF000E22FF0E0E75FFB4F30E020E067E0962E2A
:104B0000921AC42C022E01C0CC0C0A94EAF751016F
:104B100090E0D5018D915D018C21692D691B677035
:104B2000862E062E000C770BB82F01C0BB0F8A947F
:104B3000EAF78B2E7195619571096770772701C02F
:104B400086956A95EAF7882A8081882A80829F5F05
:104B50009830F9F62F5F3F4F31962830310571F6C6
:104B6000E2EAF1E02BA53CA5E217F30709F0B1CF8B
:104B700004E610E020E230E049E054E067CE00E2D5
:104B800010E0BE016F5F7F4F7B018091E80085FDE3
:104B90000AC08091E8008B778093E8000E947F0430
:104BA000882399F3B1CE8091F100D7018D937D01D7
:104BB0000150110951F7A8CE1A8289E08B8311C0E8
:104BC0008A81823009F4C2C1833091F1813009F0C9
:104BD0006BC00E94FE050E9448296B837C838D83F5
:104BE0009E8380917506843009F0C2CC1091E90053
:104BF0001F709091EC00892F817090FD80E8182B38
:104C000082E08093E9008091E80080FF0DC050E0D1
:104C100040E060E270E0CE0101960E94B004809115
:104C2000E8008E778093E8001F701093E900A0CC15
:104C300080914106909142069827892798279C8366
:104C40008B83809143069091440698278927982763
:104C50009E838D83809145069091460698278927EB
:104C6000982798878F8380914706909148069827C8
:104C7000892798279A8789878091490690914A06C3
:104C80009827892798279C878B87ABCF8A8182308A
:104C900059F46B817C818D819E810E94482985E237
:104CA00090E00E94DB299DCF8FEF89839ACF4C81C2
:104CB0006B818A810E942A0A9827892798279E83D8
:104CC0008D838FCFED80FE80FE24EF24FE248A8129
:104CD0000B81B0E20B9F80011124E0EA8E9F000D52
:104CE000111D11248C8190E0880F991F080F191F46
:104CF0006F2DC80186960E94DB296E2DC80187960C
:104D0000D0CF0E944C0C6DCF8A818138C1F060F405
:104D1000803809F066CF20E04B8160914E0680918B
:104D20004D060E94AC135DCF823859F1833809F0EB
:104D300058CF20E040914F066C818B81F2CF60E02C
:104D40008B810E94A2159B8180914C06911111C00C
:104D50008E7F80934C0610924006FFEF00E712E032
:104D6000F15000401040E1F700C000000E94600DCB
:104D700038CF816080934C0660E086950E94A21532
:104D800030CF8B81809350062CCF8A81813899F067
:104D900030F4803809F025CF80914F060FCF82384C
:104DA00091F0833809F01DCF80914D068B8380915F
:104DB0004E068C8316CF80914C0680FF02C08695EC
:104DC000FDCE80E0FBCE80915006F8CE60914C067F
:104DD00070914D0680914E0690914F060E949A1355
:104DE00000CF80E18A83FDCE81E08A838AE5E6CE2A
:104DF000EA80FB80FE24EF24FE248E010F5F1F4F0C
:104E0000CC80C00ED12ED11CC7018A559D4F0C15E8
:104E10001D0509F4E6CE2AE5E21621E0F20658F473
:104E20000E94C729D80114968C93FFEFEF1AFF0A4E
:104E30000F5F1F4FE9CFF8011482F7CF0A811B8162
:104E40001027012710279E012F5F3F4F6901EC803B
:104E5000E00EF12EF11CC8018A559D4FE016F106B7
:104E600009F4BFCE0A3531E0130728F4D6011496B1
:104E70006C910E94DB29BFEFCB1ADB0A0F5F1F4F3B
:104E8000EACF0E949F0CADCE84E0ACCFEA80FB80DD
:104E9000FE24EF24FE248E010F5F1F4FCC80C00E36
:104EA000D12ED11CC70186960C151D0509F499CE8B
:104EB000E0E8EE16E2E0FE0658F40E94C729D801A9
:104EC00014968C93FFEFEF1AFF0A0F5F1F4FEACF84
:104ED000F8011482F7CF0A811B81102701271027C0
:104EE0009E012F5F3F4F6901EC80E00EF12EF11C17
:104EF000C80186960E151F0509F473CE003832E0FE
:104F0000130728F4D60114966C910E94DB29BFEF99
:104F1000CB1ADB0A0F5F1F4FEBCF60E085E290E01A
:104F20000E94DB290E944C0C0E949F0C61E282E2ED
:104F300090E00E94DB2963E083E290E00E94DB299D
:104F400065E084E290E00E94DB2956CA85E290E0A9
:104F50000E94C7291B821C821D828E8342CE1F9213
:104F60001FB61F9211248F939F93AF93BF9380918D
:104F7000E5039091E603A091E703B091E803419621
:104F8000A11DB11D8093E5039093E603A093E70371
:104F9000B093E803BF91AF919F918F911F901FBE77
:104FA0001F9018952F932FB72F938F939F93EF9365
:104FB000FF939091CE008091E9038F5F803408F0D9
:104FC00080E02091EA03281739F0E82FF0E0EB5257
:104FD000FD4F90838093E903FF91EF919F918F9113
:104FE0002F912FBF2F9118958F938FB78F939F93EA
:104FF000EF93FF939091EB038091EC0398130AC019
:1050000088E98093C900FF91EF919F918F918FBFA5
:105010008F9118958091EC038F5FE82FF0E0EE52AE
:10502000FE4F90819093CE008093EC03ECCF1092D2
:10503000B9008CE08093B8000895EF92FF920F932F
:105040001F93CF93DF93182FEB011092BC0084EADB
:105050008093BC000E941C157C018091BC0087FFDE
:1050600027C08091B900887F883029F08091B900ED
:10507000887F8031D9F51093BB0084E88093BC0011
:105080000E941C158C018091BC0087FF24C02091D8
:10509000B900287F90E080E02831B1F081E090E015
:1050A000203411F490E080E09195819591090CC035
:1050B000CF3FDC0791F20E941C158E199F098C17B7
:1050C0009D0758F28EEF9FEFDF91CF911F910F91C7
:1050D000FF90EF900895CF3FDC07A9F20E941C15C6
:1050E000801B910B8C179D0770F2ECCF8FEF9FEF19
:1050F000EBCF0F931F93CF93DF93EB018093BB0014
:1051000084E88093BC000E941C158C018091BC0037
:1051100087FF11C02091B900287F81E090E02832FC
:1051200011F490E080E0919581959109DF91CF9104
:105130001F910F910895CF3FDC0741F30E941C158A
:10514000801B910B8C179D0708F38EEF9FEFEECF1E
:10515000CF92DF92EF92FF920F931F93CF93DF9343
:105160006B018A017901B9010E941D28E6010C0D2D
:105170001D1DC017D10761F424E92093BC00DF9105
:10518000CF911F910F91FF90EF90DF90CF900895F6
:1051900097FDF2CFB70189910E947928EACFCF928B
:1051A000DF92EF92FF920F931F93CF93DF93C62F5F
:1051B0006A017901B8010E941D2897FD0CC0B80151
:1051C0008C2F0E947928E601EC0CFD1CCE15DF0522
:1051D00011F097FF0CC024E92093BC00DF91CF9120
:1051E0001F910F91FF90EF90DF90CF900895B8013D
:1051F00089910E947928EACF84E98093BC000895C0
:10520000991B79E004C0991F961708F0961B881F18
:105210007A95C9F78095089587FB082E062687FDA5
:10522000819567FD61950E9400290EF4919507FC18
:1052300081950895AA1BBB1B51E107C0AA1FBB1F84
:10524000A617B70710F0A61BB70B881F991F5A9512
:10525000A9F780959095BC01CD01089597FB072E85
:1052600016F4009407D077FD09D00E941A2907FC94
:1052700005D03EF4909581959F4F08957095619566
:105280007F4F0895EE0FFF1F0590F491E02D0994D4
:1052900069279627692778278727782708950E9406
:1052A000632A332312F48A1B9B0B0C9459290E9406
:1052B000632AB7FF0895821B930B08958F929F92E4
:1052C000AF92BF92CF92DF92EF92FF92CF93DF9394
:1052D000EC01688179818A819B8161157105810565
:1052E000910521F464E279ED8BE597E02DE133EF50
:1052F00041E050E00E940F2A49015A019B01AC0194
:10530000A7EAB1E40E942E2A6B017C01ACEEB4EF57
:10531000A50194010E943C2ADC01CB018C0D9D1D4E
:10532000AE1DBF1DB7FF03C00197A109B048888318
:105330009983AA83BB839F77DF91CF91FF90EF90F2
:10534000DF90CF90BF90AF909F908F9008950E9474
:105350005E29089580E091E00E945E290895B0E002
:10536000A0E08093000190930101A0930201B0930B
:1053700003010895FC014150504030F001900616A1
:10538000D1F73197CF010895882799270895F99982
:10539000FECF92BD81BDF89A992780B50895A6E108
:1053A000B0E044E050E00C94012AA8E1B0E042E013
:1053B00050E00C94012A262FF999FECF92BD81BDB1
:1053C000F89A019700B4021639F01FBA20BD0FB643
:1053D000F894FA9AF99A0FBE08950396272F0E941F
:1053E000DC290E94DB29252F0E94DC29242F0C9424
:1053F000DC290196272F0E94DC290C94DB29DC0193
:10540000CB01FC01F999FECF06C0F2BDE1BDF89ACF
:10541000319600B40D9241505040B8F70895052ED2
:1054200097FB1EF400940E94262A57FD07D00E9485
:10543000412A07FC03D04EF40C94262A509540953F
:10544000309521953F4F4F4F5F4F08959095809530
:10545000709561957F4F8F4F9F4F08950E94632AEB
:10546000A59F900DB49F900DA49F800D911D1124B8
:105470000895B7FF0C942E2A0E942E2A821B930BAC
:105480000895A1E21A2EAA1BBB1BFD010DC0AA1F85
:10549000BB1FEE1FFF1FA217B307E407F50720F09D
:1054A000A21BB30BE40BF50B661F771F881F991F18
:1054B0001A9469F760957095809590959B01AC0161
:1054C000BD01CF010895A29FB001B39FC001A39F6A
:1054D000700D811D1124911DB29F700D811D11242D
:1054E000911D0895F894FFCF370C370C400C400CF9
:1054F000420C400C400C400C370C370C470C400C55
:10550000400C470CC510ED104011ED10401120115A
:1055100058114011551262125A1A5A1ACB1ACB1A44
:10552000211B8F1A8F1A8F1A3B1B111C201C201C49
:105530008119A819AF19B419B919BE19C319C81915
:10554000CD19D219D719DC19DF19E419E719EA19AD
:10555000ED19F019F319F619DC25E0254626572632
:10556000622681268426C526E62654265426F12660
:0E557000F426F8261E274127442746276B27DE
:10557E000100000001191A1B1C1D1E1F20212201F3
:10558E000201010021007F220003EC05E90CEB056E
:10559E00E50CE10C010001020202020606060909F1
:1055AE00090909090F0F0F0F0F0F151515181919E6
:1055BE0019191919191919192324252525252525F0
:1055CE00818283E200E900EA00B500B600B700CDA3
:1055DE00008301CC008A019201940121022302244E
:1055EE00022502260227022A02B300B4006F0070C1
:1055FE00003133323694F4F5F6F700FF0100010066
:10560E0000FFFF0000010001FF0000081018181035
:10561E00080040226D3B011901AC00AB07C407E442
:02562E00070073
:00000001FF
