:100000000C940D080C9454080C9454080C94540847
:100010000C9454080C9454080C9454080C945408F0
:100020000C9454080C9454080C94A0240C945C2454
:100030000C94B3260C9454080C9454080C94540853
:100040000C9454080C9454080C9454080C945408C0
:100050000C9454080C9477250C9454080C94540870
:100060000C9454080C9454080C9454080C945408A0
:100070000C9454080C9454080C9454080C94540890
:100080000C9454080C9454080C9454080C94540880
:100090000C9454080C9454080C9454080C94540870
:1000A0000C9454080C9454080C94540805010980CD
:1000B000A101850319012AB700150126B700950192
:1000C00075108100C0050C0901A101850419012AE0
:1000D000A002150126A002950175108100C005013E
:1000E0000906A1018505050719E029E71500250185
:1000F0009508750181020507190029EF15002501F2
:1001000095F075018102050819012905950575010C
:100110009102950175039101C00660FF0961A1017B
:100120000962150026FF00952075088102096315F4
:100130000026FF00952075089102C005010906A15F
:1001400001050719E029E7150025019508750181CA
:10015000029501750881010507190029FF15002680
:10016000FF00950675088100050819012905950508
:1001700075019102950175039101C0000000000016
:10018000000000000000000000000000000000006F
:100190000000000000000000000000000000007EE1
:1001A0000F00D4FFFFFFC700000078000000000030
:1001B0000000002A2B2800000000000000000000C2
:1001C00000000000000029000000002C1E34202147
:1001D0002224342627252E362D3738271E1F20218E
:1001E00022232425263333362E37381F04050607ED
:1001F00008090A0B0C0D0E0F101112131415161707
:1002000018191A1B1C1D2F3130232D350405060724
:1002100008090A0B0C0D0E0F1011121314151617E6
:1002200018191A1B1C1D2F3130354C00DA0281FFC2
:10023000D9F1DB20A4A62EAF00A0C000A1C800AE5B
:10024000D580A81FD300408D1420000000000000BE
:10025000000000000000000000000000000000009E
:10026000000000000000000000000000000000008E
:10027000000000000000000000000000000000007E
:10028000000000000000000000000000000000006E
:10029000000000000000000000000000000000005E
:1002A000000000000000000000000000000000004E
:1002B00000000000000000000000808080C040C0FE
:1002C000000000000000000000000000000000002E
:1002D000000000000000D020505090101020C000FE
:1002E000000000000000008080808080404040408E
:1002F000201010F01010080808040404FCFCFC0492
:10030000040404040404FC7C7E7E7F81818181FFDF
:1003100001010101010101010101FFFFE7E7E7E739
:10032000E7E7E7E7010101F901F901F901F9010145
:1003300001E7E7E7E7E7E7E7E7E7E6E6E6E6E6FF20
:100340008C525252DE840884080000000000000035
:10035000000000000000010204040405050205007D
:100360000000000000000000000000000101010189
:100370000204040704040808081010101F1F1F10AF
:100380001010101010101F102020407F7F7F7F7FE3
:10039000404040404040404040407F7F5C5C5C5C6F
:1003A0005C5C5C5C4040404A444A404F404F4040A7
:1003B000405C5C5C5C5C5C5C5C5C9C9C9C9C1CFF36
:1003C000314A4A4A7B102110210000000000000041
:1003D000000000000000000000000000000000001D
:1003E000000000000000000000000000000000000D
:1003F00000000000000000000000000000000000FD
:1004000000000000000000000000000000000000EC
:1004100000000000000000000000000000000000DC
:1004200000000000000000000000000000000000CC
:1004300000000000000000000000000000010101B9
:1004400000000000000000000000000000000000AC
:10045000000000000000000000000000000000009C
:10046000000000000000000000000000000000008C
:10047000000000000000000000000000000000007C
:10048000000000000000000000000000000000006C
:10049000000000000000000000000000000000005C
:1004A000000000000000000000000000000000004C
:1004B000000000000000000020204040808000007C
:1004C000000000000000000000000000000000002C
:1004D000000000000000D020505090101020C000FC
:1004E000000000000000000000000000000000000C
:1004F000000000E010C8282828C810B010202020D4
:100500004040408080804040402020201010100853
:100510000808040404020202A109E1F3290585E5A3
:10052000E5C58992E408F00000000000000000002A
:1005300000000000000000008888444422E21111FD
:1005400000000000000000000000000000000000AB
:10055000000000000000010204040405050205007B
:10056000000000000000000000000000000000008B
:100570000000000304090B0B0B090406040202022D
:10058000010101000000010101020202040404084B
:100590000808101010202020424843664E53515145
:1005A0005353492413080700000000000000000016
:1005B00000000000000000001010919152533434EC
:1005C000000000000000000000000000000000002B
:1005D000000000000000000000000000000000001B
:1005E000000000000000000000000000000000000B
:1005F00000000000000000000000000000000000FB
:1006000000000000000000000000000000000000EA
:1006100000000000000000000000000000000000DA
:1006200000000000000000000000000000000000CA
:1006300000000000000000000303020202020202A8
:1006400000000000000000000000000000000000AA
:10065000000000000000000000000000000000009A
:10066000000000000000000000000000000000008A
:10067000000000000000000000000000000000403A
:1006800080000000000080809C80808000000000CE
:10069000008040000000000000000000000000009A
:1006A000000000000000000000000000000000004A
:1006B000000000000000000000808080404040807A
:1006C000000000000000000000000000000000002A
:1006D000000000000000D020505090101020C000FA
:1006E000000000000000000000000000000000000A
:1006F000000000000000000000000080808000007A
:10070000E019046211090404000000000101020460
:10071000191010F00000F000F0E0C0000000000030
:1007200000000000000000000000000000000000C9
:100730000000000000000000C7240407E42424C7D0
:1007400000000000000000000000000000000000A9
:100750000000000000000102040404050502050079
:100760000000000000000000000000000000000089
:100770000000000000000000000000000000000079
:10078000078830404080800000000080804060305A
:100790009808080F00000F000F070300000000007A
:1007A0000000000000000000000000000000000049
:1007B0000000000000000000C1222424C4442221C3
:1007C0000000000000000000000000000000000029
:1007D0000000000000000000000000000000000019
:1007E0000000000000000000000000000000000009
:1007F00000000000000000000000000000000002F7
:1008000001000000000000011D01010000000000C7
:1008100000010200000000000000000000000000D5
:1008200000000000000000000000000000000000C8
:1008300000000000000000000302020203020202A6
:10084000000000000000000000000020554E4400A1
:1008500000AE0001010101010101010102020202D9
:10086000020202020203030303030303030404045A
:100870000404040405050505050606060606070723
:1008800007070708080808090909090A0A0A0B0BDB
:100890000B0C0C0C0D0D0D0E0E0E0F0F0F1010117A
:1008A0001111121213131414151516161717181800
:1008B00019191A1A1B1B1C1D1D1E1E1F2020212268
:1008C00022232424252626272829292A2B2C2D2DAE
:1008D0002E2F30313232333435363738393A3B3CCB
:1008E0003D3E3F404142434445464748494A4C4DBE
:1008F0004E4F50515354555658595A5B5D5E5F6187
:100900006264656668696B6C6D6F70727375777819
:100910007A7B7D7E8082838587888A8C8E8F919377
:100920009596989A9C9EA0A2A3A5A7A9ABADAFB19E
:10093000B3B5B7BABCBEC0C2C4C6C9CBCDCFD1D483
:10094000D6D8DBDDDFE2E4E7E9EBEEF0F3F5F8FA29
:10095000FDFF625D54005500A8005F00600061006B
:1009600056005C005D005E00570059005A005B00B5
:1009700058006200620063005800625D530000008E
:10098000A8004A0052004B000000500000004F0039
:1009900000004D0051004E005800490049004C0035
:1009A0005800625D00000000C25CC65CC55C0000CF
:1009B000CD5CC85CC75C0000C35CCA5CC95C00005D
:1009C0000000005C005C0000000000AF0902BF00F6
:1009D000050100A0FA09040000010301010009213A
:1009E000110100012240000705810308000A0904E3
:1009F0000100020300000009211101000122220070
:100A000007058203200001070503032000010904F4
:100A100002000103000000092111010001226D0004
:100A20000705840320000A080B03020101000009E6
:100A30000403000001010000092401000109000174
:100A4000040904040002010300000724010001411D
:100A50000006240201010006240202020009240308
:100A6000010301020100092403020401010100093C
:100A70000506024000050000052501010109058564
:100A800002400005000005250101031201000200DB
:100A90000000084455504C99990102000116034C7E
:100AA00000610075006E0063006800200050006166
:100AB00000640000001E0355006E0067006F0064B4
:100AC000006C007900200044006500730069006735
:100AD000006E0000000403090407087F0807003EB9
:100AE0005B4F5B3E003E6B4F6B3E001C3E7C3E1CF2
:100AF00000183C7E3C18001C577D571C001C5E7F74
:100B00005E1C0000183C180000FFE7C3E7FF000070
:100B10001824180000FFE7DBE7FF0030483A060E14
:100B200000262979292600407F05050700407F051A
:100B3000253F005A3CE73C5A007F3E1C1C08000839
:100B40001C1C3E7F0014227F2214005F5F005F5F49
:100B50000006097F017F00006689956A0060606079
:100B600060600094A2FFA2940008047E04080010B4
:100B7000207E20100008082A1C0800081C2A0808EB
:100B8000001E10101010000C1E0C1E0C0030383E01
:100B9000383000060E3E0E06000000000000000087
:100BA000005F000000000700070000147F147F149E
:100BB00000242A7F2A120023130864620036495653
:100BC000205000000807030000001C224100000024
:100BD00041221C00002A1C7F1C2A0008083E08082D
:100BE000000080703000000808080808000000605D
:100BF0006000002010080402003E5149453E0000FC
:100C0000427F4000007249494946002141494D3325
:100C1000001814127F10002745454539003C4A4909
:100C2000493100412111090700364949493600463A
:100C30004949291E00000014000000004034000053
:100C4000000008142241001414141414000041225E
:100C50001408000201590906003E415D594E007C0E
:100C60001211127C007F49494936003E4141412220
:100C7000007F4141413E007F49494941007F0909C8
:100C80000901003E41415173007F0808087F0000C0
:100C9000417F4100002040413F01007F0814224174
:100CA000007F40404040007F021C027F007F04081C
:100CB000107F003E4141413E007F09090906003E88
:100CC0004151215E007F09192946002649494932D0
:100CD0000003017F0103003F4040403F001F2040D0
:100CE000201F003F4038403F006314081463000396
:100CF00004780403006159494D4300007F4141419C
:100D000000020408102000004141417F000402015C
:100D1000020400404040404000000307080000205B
:100D200054547840007F28444438003844444428D0
:100D300000384444287F0038545454180000087E7A
:100D400009020018A4A49C78007F0804047800001D
:100D5000447D4000002040403D00007F10284400BA
:100D60000000417F4000007C04780478007C080487
:100D7000047800384444443800FC1824241800182F
:100D8000242418FC007C080404080048545454240B
:100D90000004043F4424003C4040207C001C2040D0
:100DA000201C003C4030403C004428102844004CAB
:100DB0009090907C004464544C44000008364100FC
:100DC0000000007700000000413608000002010228
:100DD0000402003C2623263C0000000000000040E6
:100DE0004040F0F8F8FF38FFF8F83FF8F8FF38FF18
:100DF000F8F8F040404000000000000080C0C0C093
:100E0000800000C0C08000000080C0C000C0C000E2
:100E10000080C0C00000000000C0C0C0C0C000C052
:100E2000C000000000000000000000000000000002
:100E300000000000000000000000000000000000B2
:100E400000000000000000000000000000000000A2
:100E50000000000000000000C0F0F8FC3E1E06018B
:100E60000000007F4141417F007F4141417F000000
:100E700080C0E07E5B4F5BFEC00000C000DCD7DEC0
:100E8000DEDED7DC00C00000000000000000000033
:100E90000000000000000000000000000000004909
:100EA0004949FFFFFFFFE0DFBFBF00BFBFDFE0FF3B
:100EB000FFFFFF49494900000000001F3F6060E05C
:100EC000BF1F007F7F071E381E077F7F007F7F0EBA
:100ED0001F3B716000000000007F7F0C0C0C007E47
:100EE0007E007F7E0303007F7E03037E7E03037FFD
:100EF0007E000F3E703C063C703E0F00327B49493D
:100F00003F7E007F7E0303001E3F69696F2600005D
:100F10000000000000000000030F1F3F3C787060DD
:100F20000000007F4141417F007F4141417F00300F
:100F30007B7F7830202030787F3B0003000F7F0FCD
:100F40000F0F7F0F000300000000000000000000F2
:100F50000000000000000000000000000000000190
:100F60000101070F0F7F0F7F0F0F7E0F0F7F0F7F86
:100F70000F0F070101010000000000000000000049
:100F8000010100000000000000000000000000005F
:100F90000000000000000000000000000000000051
:100FA0000000000000000000000000000000000041
:100FB0000000000000000000000000000000000031
:100FC0000000000000000000000000000000000021
:100FD0000000000000000000000000000000000011
:100FE0000000000000000000000000000000000001
:100FF00000000000000000000000000000000000F1
:1010000000000000000000000000000000000000E0
:101010000000000000000000000011241FBECFEF00
:10102000DAE0DEBFCDBF04B603FE27C08091EB0639
:101030009091EC06A091ED06B091EE068730904BB2
:10104000A740B04BD1F41092EB061092EC06109230
:10105000ED061092EE0614BE84B7877F84BF0FB6EC
:10106000F894A89580916000886180936000109248
:1010700060000FBEE0E0F8E3099511E0A0E0B1E008
:10108000EEEAF1E602C005900D92A63FB107D9F74E
:1010900026E0A6EFB1E001C01D92AB3EB207E1F73A
:1010A0000E94DA260C9497300C940000CF93DF93C3
:1010B0004091E9065091EA06495E54409A013E5F2C
:1010C00021303240C0F020E032E0241B350B60912B
:1010D000E7047091E804FC01CA01240F351FC1E048
:1010E000D0E08217930750F07093E8046093E70410
:1010F000DF91CF91089520E032E0E9CF4491DC0107
:10110000A751BB4F5C91451781F04C93AC01A5E012
:1011100056954795AA95E1F7DE0102C0AA0FBB1FBD
:101120004A95E2F7AD016A2B752B01963196D9CF1E
:101130000F93262F042F0F77482F406BE091FA036F
:10114000F091FB0363E070E08AEF93E009950F9163
:1011500008959091EC03937051F0811109C094604F
:101160009093EC031092230181E08093EB030895A8
:10117000873010F09861F4CF880F880F982BF0CF4C
:101180000F931F939B01305E8901000F012F001FF9
:10119000110B11952F77482F406EE091FA03F091D3
:1011A000FB0363E070E08AEF93E009951F910F91D4
:1011B0000895CF92DF92EF92FF920F931F93CF93F8
:1011C000DF9300D00F92CDB7DEB77C01162FD42E5F
:1011D000C22E80911F048430B9F5E0911404F0917F
:1011E0001504309709F440C0C701019763E070E02F
:1011F0000E94E52FCB01880F991F860F971F198337
:101200004A83CB824E2D481B9E012F5F3F4FBC016E
:101210008AEF93E00995E0911804F0911904309752
:1012200039F00C2D2D2D412FB7018AEF93E0099550
:101230000F900F900F90DF91CF911F910F91FF9022
:10124000EF90DF90CF90089582E0E816F10409F462
:101250005AC083E0E816F104A9F081E0E816F10431
:1012600009F484C0F12CE12CE0911604F0911704EC
:10127000309789F20C2D2D2D412FB7018AEF93E085
:101280000995C9CF862F807F803A11F188F4803884
:10129000D1F0E091FE03F091FF03803929F73097F8
:1012A00019F3123F49F12C2D4D2D612F6F7027C07E
:1012B000803E99F0803FB1F0E091FC03F091FD0396
:1012C000803B91F6ECCFE0910004F0910104E7CF70
:1012D000E0910204F0910304E2CFE0910404F09164
:1012E0000504DDCF623F09F0BFCFE0910604F09125
:1012F0000704309709F4B8CF2C2D4D2D62EF8AEFFB
:1013000093E0099588CF862F807F803DB9F0803F9C
:10131000D1F0E0910804F0910904803C09F0A4CFD9
:10132000309709F4A1CF812F8D7F4D2D612F6F70E4
:10133000813FC9F08AEF93E009956DCFE0910A04EF
:10134000F0910B04EDCFE0910C04F0910D04633F9C
:1013500039F0613F09F088CFE0910E04F0910F045D
:10136000309709F481CF4D2D612FE4CFE091100427
:10137000F0911104683F38F4663F09F075CFE091B1
:101380001204F0911304309709F46ECF612F8AEFA5
:1013900093E0099540CF9091EC03937061F08093B6
:1013A000ED036093EE03433308F042E34093EF0311
:1013B00081E08093EB030895E8EDF0E080818E7F7B
:1013C00080831092E2001092DA001092E100A0EE09
:1013D000B0E08C9181608C9380818F77808319BC81
:1013E000A7EDB0E08C918E7F8C9380818F7E80837F
:1013F0001092B70308952091E4003091E50095E63E
:10140000A9012091EC00822F817020FF06C08091FD
:10141000E80080FF06C080E008952091E80022FDEA
:101420001AC08091DD03882389F0853089F080918E
:10143000EB0085FD0FC02091E4003091E5004217DC
:101440005307F9F29150E1F684E0089582E008959F
:1014500083E0089581E00895EF92FF920F931F9328
:10146000CF937C018B010E94FB09C82F811117C00B
:101470008091E80085FD0BC08091E8008E77809315
:10148000E8000E94FB09882399F3C82F08C0F701E0
:1014900081917F018093F1000150110949F78C2F50
:1014A000CF911F910F91FF90EF900895EF92FF92CF
:1014B0000F931F93CF937C018B010E94FB09C82FD0
:1014C000811117C08091E80085FD0BC08091E80074
:1014D0008B778093E8000E94FB09882399F3C82F3B
:1014E00008C08091F100F70181937F01015011093B
:1014F00049F78C2FCF911F910F91FF90EF90089596
:101500008091DF0387FF13C08091E80082FF06C04F
:101510008091E8008B778093E80004C08091DD0320
:101520008111F2CF08958091DD038823D9F3809152
:10153000E80080FFF8CF8091E8008E77ECCF982FFD
:101540009093E900242F762F50E0891731F07091A5
:10155000EC002091ED005091F00021FD07C09F5F4D
:10156000973071F78093E90081E008953091EB00A6
:101570003E7F3093EB003091ED003D7F3093ED00E6
:101580003091EB0031603093EB007093EC002093CE
:10159000ED005093F0002091EE0027FDE0CF80E0B9
:1015A0000895CF92DF92EF92FF920F931F93CF9304
:1015B000DF93C8EDD0E088818F7E8883E7EDF0E08F
:1015C00080818160808384E082BF81E08093B70363
:1015D00088818E7F888302EE10E0F80110821092DD
:1015E000DA0081EEC82ED12CF601108288818F7727
:1015F000888388818068888388818F7D888319BCEF
:101600001092DD031092DE031092DC031092DB03D4
:1016100090EEE92EF12CF70180818B7F8083888109
:101620008160888342E060E080E00E949F0AF601CA
:1016300080818E7F8083F8018081816080838081BA
:1016400088608083F70180818E7F808388818061BC
:101650008883DF91CF911F910F91FF90EF90DF90E2
:10166000CF900895FC018091E5039091E6038617E1
:101670009707A0F06115710529F49091E8009E7715
:101680009093E80090E06115710551F4911108C044
:101690008091E80082FF34C080E00895BC01F2CF61
:1016A0008091DD038823C1F18530C1F18091E8008C
:1016B00083FD30C08091E80082FDEACF8091E80090
:1016C00080FFE1CF8091F3002091F200382F611567
:1016D000710519F02830310558F091E028303105B6
:1016E00009F090E02091E8002E772093E800CBCF1E
:1016F00081918093F100615071092F5F3F4FE7CFD7
:101700008091DD03882341F0853041F08091E8002D
:1017100083FFBECF81E0089582E0089583E00895BD
:1017200008958091BA03089508950895982F907FA1
:10173000903BE9F040F49039D1F0903AC1F0903804
:10174000B1F080E00895903D19F020F4903CC9F785
:1017500082E00895903E59F0903F99F7815F8F3075
:1017600080F7E82FF0E0EF57FE4F8081089583E087
:101770000895FF920F931F93CF93DF9300D000D073
:1017800000D00F92CDB7DEB78C0108511F4F80916A
:10179000DD03843009F06CC0809119018F70809353
:1017A000E9008091E80082FF63C08091E80085FF36
:1017B0005FC050E040E064E070E0CE0101960E941E
:1017C000560A8091E80085FD05C08091E8008B777E
:1017D0008093E800FA808F2D0E94960B282FFD82BF
:1017E0008B818E838C818F8321110AC08981843003
:1017F00039F1873029F1863029F121E0853039F639
:1018000030E0E5E0F0E0EC0FFD1FE30FF11DF080AC
:101810004FB7F894D8011196EC911197F0E0CF01F1
:10182000019612966C9170E00E940530D8015C918F
:101830005817190649F44FBF3F5F321710F3A7CF6F
:1018400023E0DECF22E0DCCF13968D919C9114979C
:10185000E80FF91FF08211968C91119790E0019694
:1018600012966C9170E00E940530F8018183E3CFFD
:1018700027960FB6F894DEBF0FBECDBFDF91CF9194
:101880001F910F91FF900895DF92EF92FF920F93B7
:101890001F93CF93DF9300D000D0CDB7DEB77B018D
:1018A000142FD22E4A832B830C83842F0E94960BF5
:1018B000811141C082E0E816F104C1F183E0E8162D
:1018C000F10439F0EA94EF2829F5173F29F485E06F
:1018D00004C087E0073F09F084E089838091DD033D
:1018E0008430C1F4809114018F708093E90050E03E
:1018F00040E064E070E0CE0101960E942C0A811164
:1019000009C08091E80085FD05C08091E8008E77D0
:101910008093E8000F900F900F900F90DF91CF9180
:101920001F910F91FF90EF90DF90089587EFD812ED
:10193000D3CF86E0D2CF12951F701983CFCF2FB7A8
:10194000F8946091AE037091AF038091B0039091D1
:10195000B1032FBF089520911F012223C9F02091C8
:10196000B20327FF15C0E62FE695E695E695EE3122
:10197000D8F4E80FF92FF11D677021E030E001C0C5
:10198000220F6A95EAF72095828128232283089501
:10199000FC01329608962191621303C0DF01119772
:1019A0001C92E817F907B9F708952091AB0330911D
:1019B000AC032817390771F09093AC038093AB0305
:1019C000E091A903F091AA03309721F00084F185FA
:1019D000E02D099408952091A7033091A8032817BA
:1019E000390771F09093A8038093A703E091A903AE
:1019F000F091AA03309721F00680F781E02D099439
:101A00000895E091A903F091AA03309721F0019085
:101A1000F081E02D099480E00895FA01811101C060
:101A2000FB010994EFE5F3E0818360834283339601
:101A300093E0E13AF907C1F70895FC01EE0FFF1FAB
:101A4000E80FF91FE15AFC4F618340832283089518
:101A5000ECEEF3E024813AE0231B08F420E0248339
:101A600081E08093EB030895ECEEF3E024813AE00B
:101A7000230F08F42FEF248381E08093EB03089574
:101A8000ECEEF3E0438128E0421B08F440E0818162
:101A9000628190E00C94CB09ECEEF3E0438128E006
:101AA000420F08F44FEF8181628190E00C94CB09E2
:101AB000ECEEF3E0628128E0621B08F460E08181D3
:101AC000438190E00C94CB09ECEEF3E0628128E0D6
:101AD000620F08F46FEF8181438190E00C94CB0991
:101AE000ECEEF3E08181438162818850990B0C9484
:101AF000CB09ECEEF3E0818190E0438162810896AE
:101B00000C94CB098091EC0386958695815009F45D
:101B100086E00C94A9088091EC03869586958F5FEA
:101B2000873008F081E00C94A908E42FF0E0EE0F74
:101B3000FF1FED54FE4F9081921B97FD9195292F29
:101B400038E1239F212D1124620F08950C94120D6A
:101B50000C941D0D0F93CF93DF93D72FC82F211512
:101B6000310529F460E857FD1DC060E01BC0F90194
:101B700037FF04C0EE27FF27E21BF30BBA016E0FFD
:101B80007F1F57FD16C04E1B5F0BCA01E5E0880F93
:101B9000991FEA95E1F70E940530862F60E2681BE5
:101BA00037FD6195600F7D2F8C2FDF91CF910F91C5
:101BB0000895CB0165E0880F991F6A95E1F7BF0191
:101BC000641B750B0E940530862F60E6E8CFE82F76
:101BD00086FDE0952E2F2F7086FD2F5FE695E6950A
:101BE000E695E670F0E0E758FE4F9181929F902DC8
:101BF000212D112492959F702295207F922B208178
:101C0000920F87FD919580E8890F08950F931F9398
:101C1000CF93DF938B01D82FC42F822F0E94E70D23
:101C2000EC2FF0E0EE0FFF1FED54FE4F9081905827
:101C3000890F87FD8195880F682F2CE0629F612DA9
:101C40001124600F712F8D2FDF91CF911F910F9174
:101C50000895AF92BF92CF92DF92FF920F931F939E
:101C6000CF93DF93362F472FE82FF0E0EE5AF74F50
:101C700071110FC0E4918E2F2E2F6E2F722FDF91D6
:101C8000CF911F910F91FF90DF90CF90BF90AF90B9
:101C90000895C72FD0E02491F22E022F10E056E0D5
:101CA000659FC0011124EFEFF0E0BF010E94E52F16
:101CB000832F90E0880F991F35E5369FD001379F1D
:101CC000B00D11248A1B9B0B982F990F980F6F0151
:101CD000CC1ADD0AC09ED001C19EB00DD09EB00DC1
:101CE00011248B2F499FA0011124452F55276F01E7
:101CF000C41AD50AC09EA001C19E500DD09E500DA1
:101D000011245F01A91AB108AC9E6001AD9ED00CF0
:101D1000BC9ED00C1124CD2CDD24EC19FD09E09FD4
:101D2000E001E19FD00DF09FD00D1124ED2F623026
:101D30007105A1F050F46115710509F49ECF613071
:101D4000710581F0EB2F852F98CF6430710569F014
:101D500080F06630710509F490CFF4CFE22F2B2F7D
:101D60008D2F8BCFE22F252F88CFEB2F822F2D2F7A
:101D700084CF2B2F8F2DE52F80CFDF92EF92FF9214
:101D80000F931F93CF93DF938C0180912001C82F75
:101D9000CC0FCC0FC80F95E0E92EEC0EDE2C86E1BF
:101DA0008E1510F486E1D82E3091F00336953695D5
:101DB00021E0320F08F43FEF4091E7035091E80330
:101DC00090E080E0439F812D539F800D911D112451
:101DD000F82ED0E0CD1568F081E095E19E1508F46D
:101DE00080E0DF91CF911F910F91FF90EF90DF90F6
:101DF0000895FE01E152FE4F8081909121018923D7
:101E000091F06091ED037091EE038091EF032F2D1F
:101E10004C2FF80109950E94290E462F282F672F75
:101E2000CE010E94A80D2196D5CFBF92CF92DF920E
:101E3000EF92FF920F931F93CF93DF93182F809110
:101E40001201811323C09091EC0393702091110132
:101E500030E081E09217130609F480E081708093EE
:101E600022018091F10390912101981739F080931C
:101E7000210140E060E080E00E94A60D173090F460
:101E8000E12FF0E0E756FF4C0C94193081E0E6CFEB
:101E900080912201882309F4A7C040E060E080E03F
:101EA0000E94A60D80E0A0C080912001C82FCC0F19
:101EB000CC0FC80F05E00C0FF02E073110F0B6E183
:101EC000FB2E6091ED037091EE038091EF030E9471
:101ED000290EE62ED72EC82ED0E0CF1528F081E0AF
:101EE000063108F481C0DECFFE01E152FE4F808151
:101EF00090912101892331F02C2D4E2D6D2DCE0195
:101F00000E94A80D2196E9CF80912001C82FCC0F07
:101F1000CC0FC80F05E00C0FE02E073110F0A6E142
:101F2000EA2ED090EE03C090EF032091F003F0E48E
:101F3000FF2E3F2D329F312D1124F32ED0E0CE15F0
:101F400070F6FE01E152FE4F8081909121018923BC
:101F5000D9F0FE01EE0FFF1FE156FE4F6489F69E99
:101F6000B0011124E5E075956795EA95E1F7809158
:101F7000ED03680F7D2D8C2D0E94290E462F282FF2
:101F8000672FCE010E94A80D2196D9CF8091200104
:101F9000C82FCC0FCC0FC80F45E0D42EDC0ECD2CB3
:101FA00096E19D1510F436E1C32E4091E703509160
:101FB000E8032091F003269590E080E0429F812D78
:101FC000529F800D911D1124B82ED0E0CE01880FB4
:101FD000991FFC01E156FE4F7F01CC1510F181E005
:101FE00035E13D1508F45ECF909120019F5F9093FD
:101FF000200181110CC082E0809323018091220195
:10200000811105C0111103C083E080932301DF918A
:10201000CF911F910F91FF90EF90DF90CF90BF90E5
:102020000895FE01E152FE4F8081909121018923A4
:10203000C1F0F70125892052330B44894057550BD5
:102040006091ED037091EE038091EF030B2D0E94E0
:10205000AA0D0E94290E462F282F672FCE010E941D
:10206000A80DF2E0EF0EF11C2196B7CF8091200170
:10207000C82FCC0FCC0FC80F05E00C0FF02E073186
:1020800010F086E1F82ED090EE03E090EF03D091AF
:10209000ED034091E7035091E8032091F00326956A
:1020A0002695269590E080E0429F812D529F800DDD
:1020B000911D11240E94E70D805887FD8195880F9E
:1020C000682F2CE0629F612D11246D0F7D2D8E2DC8
:1020D0000E94290EE62ED72EC82ED0E0CF1508F08C
:1020E000FECEFE01E152FE4F8081909121018923B5
:1020F00031F02C2D4E2D6D2DCE010E94A80D219674
:10210000EDCF86E09EE00E94BD0E6ECF85E99DE09A
:10211000FACF80E00895F894E82FE295EF70F0E0B0
:1021200031A1282F2F7081E090E001C0880F2A95FF
:10213000EAF7982F9095932391A392A1892B82A3DC
:10214000789408959091B20392FF06C0282F2871C9
:102150002830F9F4877F846093FF06C0282F287108
:102160002831F1F4877E84612091B30320FF06C0FB
:10217000382F38713830D9F4877F816021FF06C04D
:10218000282F28712831D1F4877E816194FD877EC4
:102190000895282F24712430F9F68B7F8860DCCFD6
:1021A000282F2471243101F78B7E8861DDCF382FF1
:1021B0003171313019F78E7F8860E0CF282F21717F
:1021C000213121F78E7E8861E1CFCF93DF93EC013F
:1021D00082389105A9F1D8F58133910509F496C0AB
:1021E00048F58932910509F48AC08A9709F495C0A7
:1021F000C11522E5D20708F0B6C0C11531E5D307F5
:1022000008F026C1C83ED10508F09CC0C03ED105EB
:1022100060F5C83AD10508F087C0C53AD10508F085
:10222000EFC0C130D10509F12097F9F0C430D105D4
:10223000E0F440C08533910509F45AC0C997C1F64E
:102240008091B203837089F0C0EED0E00EC0833E6F
:10225000910599F170F4803E910501F1823E91055E
:1022600039F68091B20382FD21C0CE01DF91CF917A
:102270000895863E910561F1873E910571F1843E96
:10228000910509F0B5CF8091B30381FFEECF809126
:10229000B203C7EED0E084FD0DC0E7CF8091B2035A
:1022A00080FD07C19091B30390FFDFCFC3EED0E074
:1022B00084FFDBCFD0E0C0E0D8CF8091B20382FDB5
:1022C000FBC09091B30390FDBFCF84FFCECFF2CF80
:1022D0008091B20383FDDDCFC8CF8091B20383FD2F
:1022E000EEC09091B30391FFF0CFC4EED0E0BDCF2C
:1022F0008091B20385FFB9CFC9E2D0E0B6CF80911B
:10230000B20385FFB2CFC5E3D0E0AFCF8091B20377
:1023100086FFABCFCAE2D0E0A8CF8091B20386FFA0
:10232000A4CFC1E3D0E0A1CFCF3BD10518F6C85A66
:10233000D0E0CC0FDD1FC65DDE4F0990D881C02DE7
:10234000D46493CFC11540E5D40708F064C0C1152B
:1023500080E4D80708F05CC0CE019A9581159F41B2
:1023600008F483CFA7CFC11536E5D30718F5C115FB
:1023700045E5D40708F084C0C11584E5D80708F006
:102380007AC09C2F969596959E0123703327C11590
:10239000D34508F462C0C1E0D0E002C0CC0FDD1F1D
:1023A0002A95E2F730E2939FC0011124C82BD92B64
:1023B000DA685BCFC1158AE5D80778F4C11599E5CD
:1023C000D90708F068C0C11528E5D20708F472CF14
:1023D000DC2FCC27C06FD06A48CFCE019056811534
:1023E000904208F067CF8D2F8F710E94A21090E06D
:1023F000982F882788279F719C012C2BE90149C0C1
:10240000C55AD0E0C95DDE4FC881D0E0D0642DCF81
:10241000DF70D06A2ACFCE01E4E096958795EA95E1
:10242000E1F783702C2F26952695237040E2249F98
:1024300090011124382B8C2F8370C1E0D0E002C0B2
:10244000CC0FDD1F8A95E2F7C22BD32BDC680DCFB2
:10245000DC2FCC27C16FD06A08CFC1E0D0E002C02A
:10246000CC0FDD1F2A95E2F720E2929FC0011124D4
:10247000C82BD92BEBCFDC2FCC27C46FD06AF5CE7D
:102480008C2F0E94A210C82FD0E0DC2FCC27CC27A5
:10249000DF71D062EACE8C2F8F700E94A21034E0E0
:1024A000D695C7953A95E1F7CF709C2FEC01D0698E
:1024B000DCCEC9E3D0E0D9CEC2EED0E0D6CEC6EEB7
:1024C000D0E0D3CE80915D02811110925D0208951B
:1024D0008091B80390915C02892B90915B02892BCB
:1024E0008093F80190915D029923A1F0892B80934C
:1024F000F80180911F01882341F18091B20387FF89
:1025000024C08EE1EAEFF1E090E0815000F59111F6
:102510000E946212E091A903F091AA033097E1F0C2
:1025200080911F01882359F08091B20387FF07C073
:102530008091F8018093F90185E08093F801028091
:10254000F381E02D88EF91E0099486E0DBCF2191C3
:102550002223D9F29F5FD9CF08958091590290919B
:102560002802981301C008958F5F8770FACF990FE2
:10257000990F890F982F977086958695869523E0F9
:10258000829FF0011124E75EFD4F50E040E080E0C3
:10259000219130E0092E02C0369527950A94E2F782
:1025A00021703327042E01C0220F0A94EAF7822BF0
:1025B0004F5F5F4F4330510559F70895990F990FB9
:1025C000890F982F977041E001C0440F9A95EAF760
:1025D00086958695869593E0899FF0011124E75EA4
:1025E000FD4F30E020E070E05191DF011197CB0109
:1025F000022E02C0969587950A94E2F78170819524
:102600008527842385278C932F5F3F4F2330310507
:1026100059F7089590E080E00E94EB0C90E080E094
:102620000E94D50C10925C0210925B020C9468120E
:102630008093F2030C940A138091F203982F967002
:10264000963019F488600C941813877FFCCF21E032
:1026500030E001C0220F8A95EAF720958091F203BD
:1026600082230C94181390915A02809589238093A9
:102670005A02282F277039F4282F082E000C330B0C
:102680009217130621F49091B30392FF07C085952A
:10269000859585950E94271310925A02089521E08E
:1026A00030E001C0220F8A95EAF78091F203822B75
:1026B0000C94181380935E020C940A13882341F043
:1026C00080959091B80389238093B8030C94681285
:1026D0000895882339F09091B803982B9093B8030C
:1026E0000C9468120895882379F19CEF980F913A21
:1026F00038F4682F88EF91E00E94AB0C0C946812BC
:1027000090E2980F983088F4877021E030E0A901BA
:1027100002C0440F551F8A95E2F7CA018095909137
:10272000B80389238093B803E9CF9BE5980F9330D2
:1027300020F490E080E00C94EB0C885A873120F470
:1027400090E080E00C94D50C0895CF93C82F882397
:1027500009F497C08CEF8C0F813A08F067C0809124
:102760001F018823E9F18091B20387FF39C0EC2F64
:10277000E695E695E695F0E0E850FE4F828190E020
:102780004C2F477021E030E002C0220F331F4A95E2
:10279000E2F782239323892B61F06C2F88EF91E07D
:1027A0000E94AB0C0E94681225C08091B20387FF83
:1027B00025C0AC2FA695A695A695B0E0A850BE4F13
:1027C000C77021E030E001C0220FCA95EAF71296E7
:1027D0008C911297822B12968C93CF910C94681245
:1027E000EAEFF1E080E092E02191C217B1F28E179A
:1027F0009F07D1F780911F018111D7CFAAEFB1E0D8
:10280000EFEF80E09D91C91741F3EF3F19F491116B
:1028100001C0E82F8F5F8630A9F7EF3FF1F20E2E4F
:10282000000CFF0BE850FE4FC283D7CF80E28C0F25
:10283000883068F4C77021E030E001C0220FCA95EB
:10284000EAF78091B803822B8093B803C6CFEBE5FB
:10285000EC0FE33040F4F0E0E95DFE4F808190E062
:10286000CF910C94EB0CC85AC73158F4EC2FF0E020
:10287000EE0FFF1FE65DFE4F80819181CF910C949A
:10288000D50CCF910895982F92959F7011F0892FB4
:1028900094E0282F2695269511F09E5F822F86952D
:1028A00009F09F5F892F089580911F01EAEFF1E001
:1028B000882359F08091B20387FF07C08EE1DF01C2
:1028C0001D928A95E9F70C940A1386E0F8CF1F93BE
:1028D000CF93DF93CDB7DEB7AA970FB6F894DEBFDC
:1028E0000FBECDBF8FED93E02091F100DC012D9361
:1028F000CD01B3E0873E9B07B9F78091E0038330B9
:1029000009F471C0B8F4813009F448C0823009F488
:10291000B4C08091E80083FF3CC18091DF039091B7
:10292000E0039A3008F035C1E92FF0E0E056FF4CA3
:102930000C9419308A3009F48FC08B3009F470C0C0
:10294000893039F78091DF03813219F78091E303F1
:102950009091E403009711F00297D9F68091E80076
:10296000877F8093E8008091E80082FF37C09091D4
:10297000F3008091F200029729F48091F1008B7F9F
:10298000813021F48091F1008093BA038091E800B6
:102990008B778093E8000E94800ABBCF8091DF0391
:1029A000813A09F0B6CF8091E800877F8093E800F4
:1029B0008091E3039091E403892B61F460E28BEB57
:1029C00093E070E00E94320B8091E8008B77809357
:1029D000E8009FCF60E090E080E0F3CF8091DD03DE
:1029E0008111C1CF96CF8091DF03813A09F091CF59
:1029F0008091E3039091E403892B09F08ACF8091C1
:102A0000E800877F8093E8008091E80080FFFCCF9A
:102A100080911F018093F1008091E8008E77B9CFFB
:102A20008091DF03813209F074CF8091E3039091AC
:102A3000E403892B09F06DCF8091E800877F8093B4
:102A4000E8000E94800A8091E10380931F011092A8
:102A5000B8030E9454145DCF8091DF03813209F0E6
:102A600058CF8091E800877F8093E8000E94800A19
:102A70008091E2038093B9034CCF8091DF03813AC8
:102A800009F047CF8091E800877F8093E80080912C
:102A9000E80080FFFCCF8091B903BCCF803899F06B
:102AA000823809F076C08091E3038F70873008F098
:102AB00070C08093E9008091EB0085FB882780F946
:102AC0001092E90006C08091DB039091DC03911124
:102AD00082609091E800977F9093E8008093F100E6
:102AE0001092F1008091E8008E77BFC1882309F42D
:102AF000ACC1823009F04DC08091E1038111B0C1B9
:102B00008091E3038F702FEF280F263008F041C02B
:102B10008093E9002091EB0020FFA2C1933031F4B3
:102B20008091EB0080628093EB009AC19091EB0062
:102B300090619093EB0021E030E001C0220F8A9574
:102B4000EAF72093EA001092EA008091EB00886097
:102B5000EACF81111EC01091E1031F778091E3003D
:102B60008078812B8093E3008091E800877F8093B9
:102B7000E8000E94800A8091E80080FFFCCF8091ED
:102B8000E30080688093E30082E0111183E080938A
:102B9000DD038091E80083FF0AC08091E800877F11
:102BA0008093E8008091EB0080628093EB00AA960E
:102BB0000FB6F894DEBF0FBECDBFDF91CF911F914E
:102BC00008958058823028F72091E1033091E20384
:102BD0002C3DE3E03E07A1F583E08A838AE2898306
:102BE0004FB7F894DE01139620E03EE051E2E32F68
:102BF000F0E050935700E49120FF03C0E295EF709E
:102C00003F5FEF708E2F90E0EA30C0F0C7968D9353
:102C10009D932F5F243159F74FBF8091E800877F44
:102C20008093E8006AE270E0CE0101960E94320BC8
:102C30008091E8008B778093E800ABCFC096E7CF18
:102C40008091E3039091E403432F552743305105CE
:102C500009F44AC078F54130510509F47AC08FEB88
:102C600090E0ECECF9E04230510509F092CF209170
:102C7000E800277F2093E8002091E5033091E603E8
:102C80008217930708F49C0140E02115310509F0F3
:102C900065C0411163C08091E80082FDC9CF809179
:102CA000DD03882329F2853019F28091E80083FF43
:102CB000F2CFBECF4132510509F43CC0423251053A
:102CC00009F067CF8330910508F063CFFC01EE0F68
:102CD000FF1FED56FE4F0190F081E02D80579E4F73
:102CE000DC018C9190E01AC0332721303105D1F0FE
:102CF0002115310561F02230310509F04ACFEDE9A7
:102D0000FAE0E4918E2F90E0EDE9FAE007C0E5EDFE
:102D1000FAE0E4918E2F90E0E5EDFAE0009709F4F7
:102D200038CFA5CFE5EBFAE0E4918E2F90E0E5EB0C
:102D3000FAE0F4CF8330910508F02BCF880F991F6C
:102D4000FC01E756FE4F0190F081E02D89E090E014
:102D50008ECF82E190E0EBE8FAE089CF8091DD034D
:102D6000882309F465CF853009F462CF8091E800AB
:102D700083FD5ECF8091E80082FD8DCF8091E800D9
:102D800080FF83CF9091F3008091F20021153105EF
:102D900019F08830910550F041E0089709F040E0C3
:102DA0008091E8008E778093E8006FCF4491409344
:102DB000F1003196215031090196E8CF803809F0B1
:102DC000E8CE8091E800877F8093E8008091DE0361
:102DD0008093F10087CE8111DCCE1091E103123097
:102DE00008F0D7CE8091E800877F8093E8001093A9
:102DF000DE030E94800A112311F084E005C0809157
:102E0000E30087FDFACF81E08093DD0342E061ECCF
:102E100081E00E949F0A42E261EC84E00E949F0AE6
:102E200042E261EC82E00E949F0A42E260EC83E0B1
:102E30000E949F0A42E361E885E00E949F0A42E304
:102E400061E886E00E949F0AA4CE8091E103813070
:102E500009F09FCE81E0933009F080E08093DC039D
:102E60001092E9008091E800877F8093E8000E943B
:102E7000800A8FCECF93DF93682F81E06A3019F0FC
:102E80006D3029F480E0DF91CF910C94BB178091D5
:102E9000E9069091EA0626E0FC01A4EFB3E0019078
:102EA0000D922A95E1F7603E08F45AC026E0FC0135
:102EB00011922A95E9F7C091E906D091EA0646E019
:102EC00050E0BE0184EF93E00E942F309E01295E06
:102ED0003440892B41F1C90145E0969587954A9583
:102EE000E1F741E050E0BA0102C0660F771F8A9512
:102EF000E2F7CB016091E7047091E804862B972BF1
:102F0000B9016B5F7F4FE5E076956795EA95E1F74C
:102F100002C0440F551F6A95E2F7842B952B9093BE
:102F2000E8048093E7042A5F3F4F4091F303642F46
:102F300070E0C9010E94E52F481B463010F4240FB1
:102F4000311D211572E0370710F030E020E02751E5
:102F50003B4F3093EA062093E906DF91CF91089525
:102F6000F6E06F9FB00111246752754F46E050E0C4
:102F70000E942630A0CFCF93382FE091E906F09140
:102F8000EA06E95EF4402091F303622F70E0CF017E
:102F90000E94E52F281B822F332361F066E00E94F8
:102FA000F92FC82FC15010F4CF91089580E20E94EC
:102FB0003A17F8CF9F01280F311D2115324018F024
:102FC00080E0F0E0E0E08E0F9F2F911D87519B4F36
:102FD0009093EA068093E906E7CFCF92DF92EF92D3
:102FE000FF920F931F93CF93DF936C017B0164E6F5
:102FF00070E088E70E94E42EEC0197FD12C010E01B
:1030000000E0F601E00FF11F849164E670E00E9499
:103010005E2FEC01892B29F40F5F1F4F0E151F0542
:1030200081F70E94E12FCE01DF91CF911F910F9187
:10303000FF90EF90DF90CF900895CF93C091A503BC
:103040008091A6038823D1F00E949F0C605A75419D
:103050008F4F9F4F6093A1037093A2038093A303AC
:103060009093A403C11108C062E070E08AEC99E07B
:103070000E94ED17892B29F0C091A5038C2FCF91C9
:10308000089581E08093A503F7CF9091DD039430FC
:1030900029F58093B4037093B6036093B5039093BE
:1030A000E9008FEF9091E800815095FD06C095ED05
:1030B0009A95F1F700008111F5CF8091E80085FF26
:1030C0000DC050E040E063E070E084EB93E00E94CC
:1030D0002C0A8091E8008E778093E8000895BC0167
:1030E00084E00C944518BC0183E00C944518CF9300
:1030F000DF93EC0180911F018823B1F18091B2032D
:1031000087FF32C060E284E08093E9008FEF909106
:10311000E800815095FD06C095ED9A95F1F7000005
:103120008111F5CF8091E80085FF1BC080911F01C0
:1031300070E050E040E0811104C050E040E068E001
:1031400070E0CE010E942C0A8091E8008E77809377
:10315000E80080E2FE01ABEBB3E001900D928A95AE
:10316000E1F7DF91CF91089568E081E0CDCF81E074
:103170008093E00080E28093D8001092C9008FE134
:103180009EE40197F1F700C0000087E090EBDC01BE
:103190008093EB069093EC06A093ED06B093EE06B9
:1031A00088E19CE00FB6F894A895809360000FBE6C
:1031B00090936000FFCF879A31B33F7721B32068A7
:1031C0004FB7F8948FE593E0FC015191CF0168E08F
:1031D00021BB000000C057FF31BB550F000000C0ED
:1031E00000C000C031BB00C06A9591F7F3E0813A9E
:1031F0009F0751F74FBF8FE594E00197F1F700C0AB
:10320000000008951F93CF93DF93182FD0E0C0E004
:10321000893311F4C0E5D0E0812F0E94A5132097D7
:1032200031F4812FDF91CF911F910C9473138FE9AB
:103230009FE00197F1F700C000002197F0CFCF93F6
:10324000DF93C7ECD0E060E0CE010E94733021969E
:10325000C11584E0D807B9F7DF91CF9108956F9237
:103260007F928F929F92AF92BF92CF92DF92EF9216
:10327000FF920F931F93CF93DF9382E5C82E89E0CF
:10328000D82E07E510E0E801A89736011CC0F5012B
:1032900085909490692DC7010E947330682DC701F5
:1032A00001960E94733082E0A80EB11C82E0E80E05
:1032B000F11CCE15DF0559F788E0680E711C2896C1
:1032C0000C171D0731F07E0188E0E81AF108530160
:1032D000DECF085D1F4F88E2C80ED11C073F1105E5
:1032E00091F6DF91CF911F910F91FF90EF90DF90BA
:1032F000CF90BF90AF909F908F907F906F900895E8
:10330000CF93C82F6FEF811161E283E290E00E94BA
:1033100073306FEFC11169E084E290E00E94733076
:103320006FEFC11167E285E290E0CF910C947330AA
:1033300080E00E94801960E086E290E00E94733095
:103340000E942F190E941F1981E00C948019CF93BD
:10335000C091B303C2FB992790F9981781F080FBC5
:10336000C2F9C093B3036091B20384E090E00E947D
:1033700073306C2F82E290E0CF910C947330CF9138
:1033800008950F931F93CF93DF9328E0629FE0018E
:10339000112450E0440F551FC40FD51F38E2839FFE
:1033A000C00DD11D1124CE0187960E945530082FE3
:1033B00010E0102F0027CE0188960E94553098010A
:1033C000282BC901DF91CF911F910F910895462FAE
:1033D000843038F4753028F4643018F4672F0C9476
:1033E000C11990E080E00895CF92DF92FF920F9391
:1033F0001F93CF93DF936C010091F20380915E02E3
:10340000082BC7E0D0E010E0FC2EC8010C2E02C053
:10341000959587950A94E2F780FD0CC02197A0F757
:10342000F12C8F2DDF91CF911F910F91FF90DF90A5
:10343000CF900895B6018C2F0E94E7190E94E510E5
:10344000019761F3EECFCF93DF93EC010E94F41963
:10345000BE010E94E719DF91CF910C94E510FC01A9
:10346000808191810E94231A292F2F7092959F703D
:1034700092509E3078F4E92FF0E0E655FF4C0C9422
:103480001930803F19F020F4883E20F481E008953F
:10349000843FE1F380E00895883EC0F3813FD1F797
:1034A000F5CF822F869586958695089583E290E0E4
:1034B0000E945530813289F484E290E00E945530B8
:1034C000893059F485E290E00E94553091E08732CE
:1034D00009F090E0892F8170089580E0FCCFECEE38
:1034E000F3E08DE080838091240190912501A091EB
:1034F000260181839283A3838FE784838FEF858363
:1035000046E050E06CE170E0CF010C94633090E055
:1035100080E00E945D30893E9E4F11F40C94561A53
:1035200080E0089569EE7EEF90E080E00E949130A7
:1035300060E082E090E00E94733060E083E090E021
:103540000E94733010925E0260E084E090E00E947E
:10355000733060E082E290E00E94733060E085E0CA
:1035600090E00E94733060E086E090E00E9473304B
:103570006FEF87E090E00E94733040E050E0BA01C6
:1035800088E090E00E94853060E08DE090E00E944D
:10359000733040E050E0BA0188E190E00E9485304D
:1035A00060E087E190E00E94733040E050E0BA01B3
:1035B0008CE190E00E94853070E060E080E290E075
:1035C0000E94913040E050E0BA0188E190E00E9412
:1035D000853080E00E9480190E94981940E050E0F8
:1035E000BA018FE090E00E94853040E050E0BA01DF
:1035F00083E190E00C9485303F924F925F926F92FE
:103600007F928F929F92AF92BF92CF92DF92EF9272
:10361000FF920F931F93CF93DF9300D000D00F92B0
:10362000CDB7DEB77C01FC0183819481892B31F019
:103630008081918189238F3F09F0CCC60F900F9034
:103640000F900F900F90DF91CF911F910F91FF90EE
:10365000EF90DF90CF90BF90AF909F908F907F9032
:103660006F905F904F903F9008950E94F419182F2B
:10367000682F89819A810E94DE1269817A81812F67
:103680000E94E7198C01F7019281992309F496C6EB
:10369000980122513F452031310508F0E5C58FEFF3
:1036A00093E00E945530025157EC852E912C8823CF
:1036B00081F180915A02877009F4C0CFF7018281AD
:1036C000882309F4BBCF82E00F900F900F900F90EA
:1036D0000F90DF91CF911F910F91FF90EF90DF90AE
:1036E000CF90BF90AF909F908F907F906F905F90A2
:1036F0004F903F900C9433138114F4E09F06C9F26D
:10370000C4010E945530811101C001502FEF821A6F
:10371000920A0111F1CF1C821B82442443944AE097
:10372000342E84010F5F1F4FC4010E9455308983DE
:103730001A82882309F4BDCF9FEF980F9330F8F4D5
:103740008A83498232E0830E911CC8010E94553061
:103750008B83882309F4ADCF8E010F5F1F4FF801D3
:1037600020812223F1F2213009F043C0918182812E
:10377000913039F40E5F1F4F0E94021908C04801B2
:10378000EBCF923039F40E5F1F4F0E94A5130F5FED
:103790001F4FE5CF933029F40E5F1F4F0E94731324
:1037A000F6CF943019F00F5F1F4FF1CF0E5F1F4F10
:1037B00030E020E0B8016F5F7F4FF8014181805316
:1037C000990B8A30910550F02150310900F38FE9AF
:1037D0009FE00197F1F700C00000F6CF329EF001A4
:1037E000339EF00D11249C012E0F3F1F842F8B015F
:1037F000E1CFE22FF0E0E555FE4F5490822F869501
:103800008695869590E0FC01E556FE4F6490277002
:10381000712C022E02C0759467940A94E2F7E1E0DD
:103820006E227724FC01E557FE4FA490B12C022EA6
:1038300002C0B594A7940A94E2F7F1E0AF22BB244A
:10384000FC01E558FE4FC490D12C02C0D594C7941A
:103850002A95E2F721E0C222DD246114710419F0F7
:1038600081EE0E94A513A114B10419F086EE0E9406
:10387000A513852D0E940219AB2819F086EE0E942F
:103880007313672819F081EE0E947313CD2809F491
:103890007ECF8CE271CF81E00E944F130E941C13F7
:1038A00008CF81E00E942713F9CF82E0F5CF99235A
:1038B00009F4FFCE80911802823051F41092180260
:1038C00080E00E941813809118020E944F13F1CEDD
:1038D0008F5F80931802F4CF992309F4EACE809188
:1038E0001802811102C082E0F4CF8150F2CF01387A
:1038F0007CE5170709F438C102388CE5180709F090
:10390000EAC4992309F4D5CE80914D03982F9F7076
:10391000993008F0CECE9F5F32C10C39ECE51E071E
:10392000A0F50239FCE51F0708F04DC100392CE570
:10393000120709F435C101393CE5130709F0CBC47E
:10394000992309F4B6CE80914D03982F95959595BE
:103950009595959596300CF0ACCE21E0290F2295E7
:10396000207F2595259525952595322F3295307FF9
:103970008F70832B80934D0319160CF09ACE27FF7E
:1039800098CE9295907F8F70FCC00C396CE516072D
:1039900009F429C10D397CE5170709F09CC4992366
:1039A00009F487CE80914E03982F9F779F3709F4B3
:1039B00080CE982F9F77933708F02EC1935F26C152
:1039C000043B8CE5180709F480C1B0F5003BFCE529
:1039D0001F0709F453C1D8F40E3A3CE5130709F464
:1039E00030C10F3A6CE5160709F075C4992309F444
:1039F00060CE20914E03322F331F3327331F909117
:103A00004F03892F8770880F832B8F5F2AC1809186
:103A10004E0320914F03023B7CE5170709F44BC18D
:103A200008F43CC140E091114FE7881F8827881FA8
:103A30002770220F62E43BC1073BFCE51F0709F436
:103A400052C180F4053B3CE5130709F43EC1063B37
:103A50006CE5160709F03FC48FEF911181E0809368
:103A60004C0327CE093B7CE5170709F471C108F424
:103A70005AC10A3BECE51E0709F02DC480914E03A4
:103A8000282F221F2227221F80914F038770880F23
:103A9000822B6FEF7FE1992309F469C10E94C0086E
:103AA00008CE80914E03282F221F2227221F4091EB
:103AB0004F034770440F422B8F7721ED200F30E0EA
:103AC000B9016D597D4F6B01992341F110914D035F
:103AD000912F9F7015951595159515951F527CE0A2
:103AE000979F100D1124100F212F2F774069E0911F
:103AF000FA03F091FB03082F63E070E08AEF93E094
:103B00000995F601E85BFF4F80818F5F8083F601A6
:103B100080818F3F09F0CDCD1083CBCDFB0120817B
:103B2000E85BFF4F9081915090839111C2CD2F7728
:103B30004068E091FA03F091FB03082F63E070E026
:103B40008AEF93E009958FEFF6018083B2CD992338
:103B500009F4AFCD0757802F8F7000914D03007F80
:103B6000082B00934D03A5CD992309F4A2CD809194
:103B70004D03982F9F7009F49CCD9FE0980F9F7084
:103B8000807F892B80934D0394CD992309F491CDA7
:103B90000958802F8295807F00914D030F70E0CFF0
:103BA000992309F486CD80914D038595859585955A
:103BB00085958B3F0CF47DCD815F8295807F9091C0
:103BC0004D039F70DECF992309F473CD02598EE027
:103BD000089F802D11248F7700914E030078082BC9
:103BE00000934E0366CD992309F463CD80914E0373
:103BF000982F9F7709F45DCD9F3729F480788567EA
:103C000080934E0356CD9D3028F09D509F7780784D
:103C1000892BF6CF8078F4CF8F67F2CF992309F400
:103C200048CD0E5980914E0300FB87F980934E03D7
:103C30000695077080914F03887F082B00934F03F0
:103C400038CD992309F435CD20914E03322F331FFF
:103C50003327331F90914F03892F8770880F832B51
:103C6000815F382F3F7080FB27F920934E03832F0D
:103C70008695987F982B90934F031BCD992309F439
:103C800018CD90914E03991F9927991F80914F034A
:103C90008770880F40E06BE7892B0AC040E09111E4
:103CA0004FE7881F8827881F2770220F60E4822B28
:103CB0000E949808FECC40E091114FE7881F8827AA
:103CC000881F2770220F61E4F2CF40E091114FE787
:103CD00090914E03991F9927991F80914F038770E8
:103CE000880F63E4D9CF992309F4E3CC90914F0373
:103CF000292F2695269526952F7081E0820F8F70AB
:103D0000880F880F880F9778892B80934F03982FFF
:103D1000987709F0CECC220F220F220F8778822BC2
:103D200080934F03C6CC992309F4C3CC80914F03F1
:103D3000982F987709F4BDCC982F969596959695DF
:103D4000915F9F70990F990F990F8778892BE8CF12
:103D500080914E03282F221F2227221F80914F037C
:103D60008770880F822B60E070EE911197CE70E023
:103D700060E094CE073CFCE51F0709F45AC008F444
:103D800053C0083C3CE5130709F458C0093C6CE5F6
:103D9000160709F0BFC240E45DE06CE47DE037C087
:103DA000003D7CE5170798F40E3C9CE5190708F0E8
:103DB00080CC0C3CECE51E0709F44AC048E25DE00B
:103DC00064E37DE00D3C1C4510F181E009C0063D37
:103DD0002CE5120740F483E0013D1C4508F069CC56
:103DE0000E94A90866CC0D35100709F462CC92C276
:103DF0008091EC0391E089278093EC0310922301DA
:103E00009093EB0356CC42E85DE06BE87DE00E94C6
:103E10000D0D4FCC4BE85DE062E87DE0F8CF40E768
:103E20005DE069E77DE0F3CF49E75DE060E77DE0D5
:103E3000EECF48E55DE064E67DE0E9CF44E65DE095
:103E400068E57DE0E4CF4CE45DE060E47DE0DFCF59
:103E500044E35DE068E27DE0DACF0B35FDE51F0766
:103E600011F10C351D4509F065C28091B30382FB49
:103E7000882780F991E089270E94A7195BC21092D8
:103E8000B8030E9454143FEF64E37CE0315060407B
:103E90007040E1F700C000000E94B7180E94921A1B
:103EA00008CC81E0E9CF80E0E7CFC8010E94B712DB
:103EB000D82E4FC2212F2F70C22E107F19F0C2941E
:103EC00090EFC922DD20C9F0CC2069F080E2800F9C
:103ED000883010F081100BC08091B803C82AC092BE
:103EE000B8030E946812802F0E94A51318C0809109
:103EF0005C02C82AC0925C02F4CF802F0E94731328
:103F0000CC2069F0C094005E083010F081103DC0F4
:103F10008091B803C822C092B8030E946812292D6C
:103F20002850330B2430310510F40E94010DAA20D3
:103F300009F484CB80915A0280FD80CBF701128274
:103F40008595859585950E944F13C7010E94FC1A9F
:103F500080915A028595859585950F900F900F90C9
:103F60000F900F90DF91CF911F910F91FF90EF90E5
:103F7000DF90CF90BF90AF909F908F907F906F9089
:103F80005F904F903F900C94271380915C02C82261
:103F9000C0925C02C2CF312F3F70B32E107F10321F
:103FA00019F0B29480EFB822882071F061E0861693
:103FB00081F1DD20D9F1CC2091F1F701858180FFDD
:103FC00092CF8F7085832BC0DD20B1F090915D0280
:103FD0008B2D892BC11003C00E946913A0CF71E003
:103FE000C712FACF2091B30322FD99CF891709F4A4
:103FF00096CF80935D0293CFC11006C00E946212DB
:104000008B2D0E945E138BCF81E0C81609F487CFF9
:10401000F5CFDD2031F095E09C1508F480CF8B2D95
:10402000DBCFE4E0EC1508F47ACFEACFCC2041F303
:10403000F9E38F1209C02FEF37EE63E021503040D3
:104040006040E1F700C00000802F0E94731367CF2B
:10405000812F86958695837061F0813009F05FCF5E
:10406000C8019370D11002C090E080E00E94D50C8E
:1040700056CFC8019370D11002C090E080E00E943A
:10408000EB0C4DCF812F837089F5D11048CF402F95
:10409000429546954770440F440F802F8F70042E31
:1040A00001C0880F0A94EAF7202F207104FF07C08F
:1040B0002FE030E001C0220F4A95EAF720951695CF
:1040C00016951370123069F050F430915E02113081
:1040D00029F0822B83230E945A1321CF832B822B1A
:1040E000FACF282B80915E028227F5CF8695DD20BE
:1040F00011F0812F8170882309F411CF402F429550
:1041000046954770440F440F802F8F70042E01C0D6
:10411000880F0A94EAF7202F207104FF07C02FE0D0
:1041200030E001C0220F4A95EAF7209516951695C2
:104130001370123069F050F43091F203113029F00D
:10414000822B83230E941813EACE832B822BFACF73
:10415000282B8091F2038227F5CF1F70DD2029F0F4
:10416000812F0E944F13802F37CF802F0E945E1324
:10417000812F0E942713D3CE802F72EF871609F468
:1041800048C0781570F090EF891629F1E1EF8E168E
:10419000C1F1DD2009F458C0C110A5CE812F8F7167
:1041A00035C0F3EF8F16D1F124EF8212F2CFDD206C
:1041B00009F43FC01F71812F0E944F138091B303F8
:1041C00082FD07C078E0179FC001112483608093AF
:1041D0005A02812F1BC0DD2079F034E03C1508F431
:1041E0009ECE1F7181E090E001C0880F1A95EAF71A
:1041F0009091F2038927A6CF65E06C1508F48FCE65
:10420000F0CF812F8F71DD2009F4B3CF0E944F13BF
:1042100086CE812F8F71DD20C9F3ABCF80E0DD200A
:1042200009F490CF1F7181E001C0880F1A95EAF759
:1042300089CF81E00E94331381E08C1508F06FCEA6
:1042400082E00E9433136BCECC2059F0893309F001
:10425000FBCE9FEFE7EEF3E09150E040F040E1F756
:10426000F1CE812F8F7185CF0031FFE51F0709F453
:1042700012CB01312FE5120709F417CB02363DE5C9
:10428000130709F414CB03366DE5160709F424CBA4
:104290000E3A7CE5170708F093CB0E398CE518072A
:1042A00008F0BCCC0039ECE51E0708F036CB03382B
:1042B000FCE51F0708F069CC01382CE5120708F06F
:1042C00016CB07373CE5130708F041CC0F326CE5FD
:1042D000160708F0E6CB992369F18091B803827242
:1042E0000A3CFCE51F0709F4AECD08F059CD053CAA
:1042F0003CE5130709F493CD08F03CCD033C7CE585
:10430000170709F480CD08F085CD023CECE51E07C7
:1043100009F46ECD0A357DE5170709F4C2CD08F022
:104320009CCD01159CE5190709F4A9CD0E3D1C454E
:1043300009F4B4CDF701828100811181882309F449
:10434000B4CDC8010E94F419D82E682FC8010E946C
:10435000DE12B8018D2D0E94E7190E94E5108C0134
:10436000882EF701D280C580C2943FE0C32280919D
:104370005A028770A1F0AD2CDD2091F0812F807F53
:10438000803421F080E2800F883048F082E00E9483
:10439000331380915A028770AA24A3948111A12C0F
:1043A000912E92942FE09222FBE0F91508F4B7CDFC
:1043B000E92DF0E0E854FF4C0C94193000313FE552
:1043C000130709F46ECA01316FE5160709F056CFDD
:1043D00082E068CA85E0DE01119601900D928A950F
:1043E000E1F7F701228189819A8121113EC90E945A
:1043F000B712182F42C91F93CF93DF9380912702E2
:10440000807FA9F480912402882389F08091590249
:10441000D09128026091220270912302A09125027E
:10442000B0912602C62FC72316E0D81304C0DF912F
:10443000CF911F91089590E0109711F0CF3F19F49C
:1044400001968770F2CF189F9001199F300D1124AB
:10445000F901E75DFD4F41814713F2CF40814613DB
:10446000EFCF42814111ECCF438154814A1B5B0B5A
:10447000483C510528F7809127028F708061809316
:104480002702F901E25DFD4F80818F70806180839A
:1044900082E292E00E94FC1ADF91CF911F910C946E
:1044A000AD12AF92BF92CF92DF92EF92FF920F9335
:1044B0001F93CF93DF93CDB7DEB761970FB6F89414
:1044C000DEBF0FBECDBF8C0185E0F801DE011D9679
:1044D00001900D928A95E1F7F801E28082E2A82E20
:1044E00082E0B82E60912502709126026115710557
:1044F00009F432C19091220240912302892F842332
:104500008F3F09F429C120813181C380D480F0908C
:104510002402F601E61BF70BFF2009F4E8C08091A6
:104520002702582F507FE83CF10508F0ABC051112D
:1045300077C0FE2C431321C092131FC0E1101DC091
:104540008F70806180932702C5010E94FC1A8091C0
:104550002702F80185838F2D61960FB6F894DEBF90
:104560000FBECDBFDF91CF911F910F91FF90EF90C4
:10457000DF90CF90BF90AF900895CD2829F0822F83
:1045800083238F3F09F003C180E0F82FF170DF2E05
:1045900080FF3CC0809159024091280256E084136C
:1045A00015C02D873E878D859E850E94231A292F51
:1045B00022952F702230F0F0243018F59F70F1F022
:1045C000F8019581907FD1F4D12C1EC090E0589FC6
:1045D000F001599FF00D1124E75DFD4F6181361305
:1045E00006C06081261303C06281E6120FC00196E7
:1045F0008770D5CF9F7011F0882331F3805E8830AB
:1046000018F3C8010E94FC1AFD2CA5CFEE2009F476
:10461000A2CF80912702816080932702F12C9BCF4B
:10462000431306C0921304C0F801EE2009F479C0C8
:10463000C8010E942F1A882309F1EE20F9F0809119
:104640002702803270F020912202309123023887B5
:104650002F831986DB86CA868C87CE0107960E9437
:10466000FC1A86E0F801A2E2B2E001900D928A9570
:10467000E1F70E94FB21FF24F3946DCFC8010E9453
:10468000FC1AF9CF51110AC082E292E00E94FC1A92
:1046900086E0F50111928A95E9F7C0CF43130FC068
:1046A00092130DC0E1100BC0F8018583C8010E9470
:1046B000FC1A86E0F50111928A95E9F74CCFC80102
:1046C0000E942F1A8823D1F2EE20C1F28091270296
:1046D000803238F220912202309123023A832983DA
:1046E0001B82DD82CC828E83CE010196B8CFE83C5E
:1046F000F105F8F6FE2CEE2009F243131FC09213C9
:104700001DC08091270280FD10C0982F907F69F016
:10471000F8018583903F31F0982F907F905F8F70E4
:10472000892B8583C8010E94FC1A86E0F801A2E269
:10473000B2E001900D928A95E1F70DCFC8010E9479
:104740002F1A81118ECF80912702816080932702DA
:10475000C8010E94FC1AFFCEEE2009F48FCFC801D9
:104760000E942F1AF82E882309F488CF86E0F801DA
:10477000A2E2B2E001900D928A95E1F780912202C7
:10478000909123020E94231A0E94FB21E4CE81E033
:104790008E25FBCE1F93CF93DF93CDB7DEB7679700
:1047A0000FB6F894DEBF0FBECDBF4B8B5C8B6D8B0D
:1047B0007E8B8F8B611110925C021A8A198A85E0B8
:1047C000FE017396DE011D9601900D928A95E1F728
:1047D00086E0FE013D96DE01179601900D928A95C6
:1047E000E1F7CE0107960E945122882389F016E056
:1047F000809159029091280289134BC067960FB699
:10480000F894DEBF0FBECDBFDF91CF911F91089509
:1048100086E0FE013796DE01119601900D928A9591
:10482000E1F78A859B85892B11F38F8198858923F0
:104830008F3FE9F22091280230E0C901019687708C
:104840009927409159024817190681F41092B8032C
:104850000E945414109228021092590286E0E2E25B
:10486000F2E0DF011D928A95E9F7C1CF96E0929FB1
:10487000D001939FB00D1124A75DBD4FFE0131966D
:1048800001900D929A95E1F7809328020E94AD1253
:10489000AECF819FC0011124875D9D4F0E945122A0
:1048A000882309F4ABCF8091590290E0019687707C
:1048B0009927809359029CCF1F920F920FB60F92A7
:1048C00011242F933F934F935F936F937F938F9315
:1048D0009F93AF93BF93CF93DF93EF93FF93D091C9
:1048E000E900DF708091EC00C82FC17080FDC0E846
:1048F0001092E9008091F000877F8093F000789417
:104900000E9467141092E9008091F0008860809303
:10491000F000CD2BCF70C093E900FF91EF91DF91B4
:10492000CF91BF91AF919F918F917F916F915F9147
:104930004F913F912F910F900FBE0F901F901895A0
:104940001F920F920FB60F9211242F933F934F9304
:104950005F936F937F938F939F93AF93BF93EF93E7
:10496000FF938091E10082FF09C08091E20082FF05
:1049700005C08091E1008B7F8093E1008091DA0097
:1049800080FF24C08091D80080FF20C08091DA0091
:104990008E7F8093DA008091D90080FF9BC080E1F8
:1049A00089BD82E189BD09B400FEFDCF81E080931D
:1049B000DD038091B703811109C00E94DC090E94C8
:1049C000D10A8091E20084608093E2008091E1004E
:1049D00080FF17C08091E20080FF13C08091E20049
:1049E0008E7F8093E2008091E20080618093E200FC
:1049F0008091D80080628093D80019BC85E08093B4
:104A0000DD038091E10084FF29C08091E20084FFF2
:104A100025C080E189BD82E189BD89B5982F91705B
:104A200080FFFBCF8091D8008F7D8093D80080914C
:104A3000E1008F7E8093E1008091E2008F7E809381
:104A4000E2008091E20081608093E2008091DE03C9
:104A5000882309F445C084E08093DD038091E10060
:104A600083FF27C08091E20083FF23C08091E10093
:104A7000877F8093E10082E08093DD031092DE0364
:104A80008091E1008E7F8093E1008091E2008E7F33
:104A90008093E2008091E20080618093E20042E036
:104AA00060E080E00E949F0A8091F000886080931F
:104AB000F000FF91EF91BF91AF919F918F917F9106
:104AC0006F915F914F913F912F910F900FBE0F907B
:104AD0001F90189519BC1092DD031092B70376CF82
:104AE0008091E30087FD93E09093DD03B7CF789446
:104AF0001F921FB61F9211248F939F93AF93BF9362
:104B00008091AE039091AF03A091B003B091B10337
:104B10000196A11DB11D8093AE039093AF03A093A6
:104B2000B003B093B103BF91AF919F918F911F904C
:104B30001FBE1F9018959C014FB7F8948091AE034B
:104B40009091AF03A091B003B091B1034FBF821B0E
:104B5000930B08952FB7F8948091AE039091AF0313
:104B6000A091B003B091B1032FBF08959F92AF926F
:104B7000BF92CF92DF92EF92FF920F931F93CF934A
:104B8000DF9300D000D00F92CDB7DEB78E010F5F5C
:104B90001F4F85E0F80111928A95E9F738E5C32E99
:104BA00031E0D32EF12CE12CAA24A394B12CF601F0
:104BB00081916F018F3F09F449C0F894E82FE29585
:104BC000EF70F0E021A18F70A50102C0440F551FC6
:104BD0008A95E2F7CA01922F982B91A392A1809512
:104BE000892382A3789400C0EDE5F1E030E020E075
:104BF000912C41914F3F09F46FC0A42FA295AF7043
:104C0000B0E090968C9190E04F7002C0959587959A
:104C10004A95E2F780FD60C08A2D022E01C0880F00
:104C20000A94EAF7982A2F5F3F4F2430310509F79D
:104C3000F601319780818F3F11F00E948B1050EA6E
:104C40005A95F1F7F801EE0DFF1D90828FEFE81AEB
:104C5000F80AE5E0EE16F10409F0A9CF45E050E0CE
:104C6000B80183EF92E00E942F30FF24F394009765
:104C700009F4F12C892B91F185E0F801A3EFB2E062
:104C800001900D928A95E1F781E0809361020E9484
:104C9000AA259093600280935F0280915F029091B9
:104CA00060020E949B250597E8F08091F3028093B3
:104CB0005A038091F40280935B038091F502809304
:104CC0005C038091F60280935D038091F7028093EC
:104CD0005E031092610206C080E0A4CF8091610261
:104CE0008111DBCF8091620291E0980F9093620274
:104CF000811127C086E880937A0080E880937B004A
:104D000086E480937C0080917A00806480937A00AE
:104D100080917A0086FDFCCF809178002091790007
:104D200090917A009F7790937A00922F23E0959547
:104D300087952A95E1F74FE7481B6EE382E00E94D2
:104D400098088F2D0F900F900F900F900F90DF917C
:104D5000CF911F910F91FF90EF90DF90CF90BF9078
:104D6000AF909F9008951F921FB61F9211248F93AA
:104D70009F93AF93BF938091AD03811113C0809136
:104D8000AE039091AF03A091B003B091B1034196EF
:104D9000A11DB11D8093AE039093AF03A093B00308
:104DA000B093B103BF91AF919F918F911F901FBEA0
:104DB0001F901895CDB7DEB7E1970FB6F894DEBF18
:104DC0000FBECDBF84E080934D038FE780934E03E9
:104DD00080914F038078806480934F03E3E6F2E094
:104DE0008BEA92E02FEF2193DF01A95BBF4F1C926A
:104DF0008E179F07C1F710924B0310924C0310922D
:104E000052031092510310921F0410922104109229
:104E1000200480EC8093E40482E294E09093E60422
:104E20008093E5041092E3041092E2041092FF03D1
:104E30001092FE03109201041092000410920304D9
:104E400010920204109205041092040410920704B8
:104E500010920604109209041092080410920B0498
:104E600010920A0410920D0410920C0410920F0478
:104E700010920E0410921104109210041092130458
:104E80001092120410921504109214041092190436
:104E90001092180484E49CE09093FB038093FA033F
:104EA00089EB9BE090931B0480931A0485E99BE0B7
:104EB000909317048093160484E99BE09093FD037C
:104EC0008093FC0384B7877F84BF0FB6F894A895BE
:104ED00080916000886180936000109260000FBE36
:104EE00080E890E00FB6F8948093610090936100A1
:104EF0000FBE85B7806885BF85B7806885BF89E8A4
:104F000090E19093F7018093F6010E94DC090E94E2
:104F1000D10A8091E20084608093E20078948091CD
:104F2000DD038823A1F01091E9001F709091EC003F
:104F3000892F817090FD80E8182B1092E9008091F4
:104F4000E80083FD0E9467141F701093E90082E05F
:104F500084BD93E095BD9AEF97BD80936E000E944B
:104F6000561A811102C00E94981908E511E0D80173
:104F70008D918D018F3F11F00E948B10B1E00D35A6
:104F80001B07A9F780E30E948B1081E30E948B101E
:104F900082E30E948B1083E30E948B101092F30235
:104FA00010925A031092F40210925B031092F502D1
:104FB00010925C031092F60210925D031092F702B9
:104FC00010925E030E94871A811102C00E94921AF9
:104FD00082E090E00E9455308093540384E090E09A
:104FE0000E945530182F82E290E00E945530982F91
:104FF000812F9093B3038093B2030E94B625EFE311
:10500000FCE93197F1F700C000000E94B6258091BD
:105010005A0380FF08C06FEF7FEF90E080E00E94AE
:1050200091300E94B71883E090E00E9455300E94B2
:105030005A131092F8028FEF9FEF90931203809310
:10504000110390931403809313039093160380939A
:105050001503909318038093170390931A0380937A
:10506000190390931C0380931B0390931E0380935A
:105070001D039093200380931F030E94871A8111C0
:1050800004C00E94921A0E946F1A46E050E06CE140
:1050900070E08CEE93E00E9445308091EC038C7FB1
:1050A00011F40E946F1A0E94010D80FD03C083E578
:1050B0000E94021982E08093490380E88093F30301
:1050C0000E94DE2E6DE070E08EE392E00E94ED170C
:1050D000892BE9F58091490363E070E081FD9BC273
:1050E0008BE392E00E94ED17892B89F56DE070E06B
:1050F0008BE292E00E94ED17892B49F50E949F0CEC
:10510000605A75418F4F9F4F6093A1037093A20324
:105110008093A3039093A403E9EEF4E080E092E08F
:10512000DF018C011D9201501040E1F7F093EA0677
:10513000E093E9068FEF9FEF9093E8048093E704F4
:1051400081E08093A6038093A50310924A033E98C2
:10515000469A26982E9A86B186FB882780F91E9952
:105160005DC290E0892B8093280380E091E09093CA
:10517000AA038093A9038AE593E015E0180F19AB01
:1051800043E0842E912C8091DD03853099F400E476
:10519000FF24F39433E0E32E10E18091DD038530AA
:1051A00009F43EC21092B8030E9454140E94010DEB
:1051B000109225030E94B625B82E81110E949F0CE3
:1051C000EAE5F3E0A5E5B3E010E000E0902FD19030
:1051D0008D918D1509F489C28D25F12CEE24E3946F
:1051E000282F2E2109F47CC2F9A29AA3DE2081E0A7
:1051F00009F480E08BA30E94AA258160782F9DA3EB
:105200008CA349A15AA16BA18DA10E94CA23F801C8
:10521000EB5AFC4F8081E826E082DD2081F0F80126
:10522000EE0FFF1FEE0FFF1FE156FE4FEF0DF11DBA
:105230008081D12C8F3F19F0A82EDD24D3940D2D21
:1052400010E08091F802800F912F911D09976CF169
:1052500088E090E07C01E01AF10AB80167507D4FC8
:10526000A70189EF92E00E943C30B8016F5F7C4F4C
:10527000A70181E093E00E943C30A701440F551F35
:10528000B801660F771F6F5E7C4F81E193E00E944B
:105290003C30B801675F7C4FA70189E093E00E9432
:1052A0003C3088E08D198093F8028091F80290E0FC
:1052B000AA2DB0E09D01220F331F2D543E4FAA0F9F
:1052C000BB1FBD016C547E4F41E0480F9D1508F493
:1052D000F2C18093F802C0902103D0902203E090A5
:1052E0002303F09024038FB7F8944090AE035090BE
:1052F000AF036090B0037090B1038FBFD301C201C0
:105300008C199D09AE09BF098DA79EA7AFA7B8ABA1
:105310000E949F0C609321037093220380932303C8
:1053200090932403A091F802E8EFF2E02A2F30E0F6
:10533000BFEFCB0EDB1EE11CF11CC418D508E6083C
:10534000F708A313E9C12093F8022091250330E068
:10535000211108C02091EC03322F337019F0322F45
:105360003695369520912301213009F4F8C1222386
:1053700009F4E7C1223009F4F6C1233009F4FEC173
:10538000E0912803EE0FEE0FE093280386B186FB31
:10539000882780F98BA71CA61E991DC280E02BA52B
:1053A0003CA5822BE82BE0932803EF70F0E0EF5947
:1053B000FE4F808190912703890F80932703D12C82
:1053C000823054F0809126038F5F809326038AEA0F
:1053D0000E940219DD24D394809127038F3F54F457
:1053E0008091260381508093260389EA0E94021946
:1053F000DD24D39480912703082E000C990B62E0E2
:1054000070E00E94053080932703D1100E949F0C0A
:105410008091A603882309F445C089EE94E0909317
:10542000EA068093E9068091F2030E9443148130DA
:1054300009F43CC2882309F4D1C1823009F439C28D
:10544000EBE4F8E084918F01811136C281E00E9483
:10545000BB178091A6038111C5C18091A503882344
:1054600009F10E949F0C0091A1031091A2032091C9
:10547000A3033091A403601B710B820B930B6F3F4E
:105480007F4F8F4F9F4770F48091A603882351F080
:1054900062E070E080E598E00E94ED17892B11F43E
:1054A0001092A503B11001C0D1100E941D18E09107
:1054B0001A04F0911B04309719F08AEF93E00995D4
:1054C0009FB7F8940091E3048091E204081708F470
:1054D0006EC2081B9FBFF12CE12C10E0CC24C394BA
:1054E000D12C44E0642E55245394E016F10608F4C0
:1054F00062C280915103909152030E949B2520919A
:105500004F032695269526952F702817190609F022
:1055100060F50E94AA2590935203809351038091D5
:105520004C03882311F190914E03991F9927991FDD
:1055300080914F038770880F40914B0361E0892B66
:105540000E94980880914C0390914B0387FFE8C21A
:10555000A82FBB27A1950CF4B0959A171B060CF049
:10556000DFC210924B0310924C030E94010D9091E8
:105570005303891721F00E94010D809353038091FA
:10558000DD038430E1F4809114018F708093E90091
:105590009091E80090FF13C09091DD03943079F46E
:1055A0008093E9009091F3008091F200892B39F00B
:1055B0008091E8008E778093E8000E94FB0980913B
:1055C000DD03843009F0DFCD83E08093E900809132
:1055D000E80082FFD8CD8091E80090E085FF09C007
:1055E00050E040E060E270E0CE0101960E94560A71
:1055F00091E08091E8008B778093E800992309F48B
:10560000C2CDE981E150E33108F0ECC2F0E0EC53A7
:10561000FF4C0C94193088E392E064CD92E0A2CD67
:105620008091DD03843009F436C080912503811117
:105630000DC00E94150F109212018091EC0383702F
:10564000809311010E94DB18E0922301F092250360
:105650001092AD0328E130E00FB6F894A89520939E
:1056600060000FBE0093600083B7817F846083BFBA
:1056700083B7816083BF7894889583B78E7F83BF1B
:105680000FB6F894A89580916000886180936000BF
:10569000109260000FBE8091DC03882309F47DCD59
:1056A0000E94B625EAE5F3E08191811165C339A92D
:1056B0003E13FACF72CD90E0FC01E850FD4FD901C6
:1056C0005C915183DB015C915187A18A880F991FFE
:1056D000FC01E850FD4F128E118E91E0842FF4CD25
:1056E000F394EE0C24E0F2127BCD0F5F1F4F0530D8
:1056F000110509F06BCD8FEF8EA38FA318A60E9422
:10570000AA258160782F9AA789A74EA15FA168A5D5
:105710008AA50E94CA23DFCD418D528D2A01712CAA
:10572000612CC414D504E604F70420F421503F5F33
:10573000329607CE0DA51EA5400F511F528F418FE7
:10574000F6CF109220016093E7037093E8038093F3
:10575000E9039093EA0381E08093230111CE832F24
:105760000E94150F0DCE309312018091EC038370CF
:10577000809311010E94DB1883E0EECF8091EB0350
:10578000882341F046E050E06CE170E08CEE93E05D
:105790000E9463301092EB034091E7035091E803BD
:1057A0006091E9037091EA032FB7F8948091AE03FA
:1057B0009091AF03A091B003B091B1032FBF841BB0
:1057C000950BA60BB70B4097A105B10508F4D8CDF2
:1057D00010922301D5CD82E090E0E1CD8BE492E000
:1057E0000E9456082091E7043091E8042115310504
:1057F00009F433CE80914A0361E070E081112DCE2F
:10580000082F10E07B01082E02C0EE0CFF1C0A944A
:10581000E2F7A9014E215F21452B09F454C0909174
:10582000490390FD52C08295880F807680930C01C9
:105830009801369527953695279520930F01815E1F
:1058400080930D011092100124E630E047E050E013
:105850006AE071E088E70E948D2F892B09F0FDCD69
:10586000A80175E0440F551F7A95E1F7809149032F
:1058700080FD39C047515B4F04E610E020E230E084
:1058800060E488E70E94B42F892B09F0E6CD0E94DE
:105890001D18E094F0948091E7049091E804E822C8
:1058A000F922F092E804E092E704D7CD8BE494E08B
:1058B00097CF8BE496E094CF0E943A170F5F1F4F6B
:1058C000F8018491C1CD8F5F9BCF880F880F880F1F
:1058D00080930C0110920F01895F80930D0183E08A
:1058E00080931001B1CFE9E2F3E080E2DF011D9285
:1058F0008A95E9F7E5E7F1E0FEA7EDA701E711E0FA
:10590000ADA5BEA52D91BEA7ADA7F80121908F0131
:10591000240E352E311CC10187519B4F1C01E22FF3
:10592000F0E0E75DFC4F30E020E067E0462E421AF1
:10593000CC24C394022E01C0CC0C0A94EAF73101A6
:1059400090E0D3018D913D018C21642D691B67701E
:10595000562E062E000C770BB82F01C0BB0F5A94A1
:10596000EAF75B2E7195619571096770772701C021
:1059700086956A95EAF7582A8081582A50829F5F57
:105980009830F9F62F5F3F4F31962830310569F690
:10599000E9E7F1E02DA53EA5E217F30709F0B0CF46
:1059A00004E610E020E230E049E253E069CF2091C4
:1059B000E404020F8ECD8091E20490E06091E40453
:1059C00070E00E9405302091E5043091E604280F34
:1059D000391FD901BC9070901F04B7EFBB15E8F4D4
:1059E00050921F0420E040E06B2D81E090E00E9487
:1059F000D90870921F042FB7F8948091E20490E0C8
:105A000001966091E40470E00E9405308093E20406
:105A10002FBF4FEFE41AF40A68CDB7FE52C0E4E09E
:105A20007E1631F0B0921C04D0922104C092200462
:105A30008B2D0E94960B813069F08823D1F0823043
:105A4000A9F0833099F010921F0410922104109253
:105A50002004D1CF80931F0420E040E06B2D81E033
:105A600090E00E94D90810921F04C5CF80931F04B4
:105A7000C2CFF0EFBF16E1F027EFB212E4CF2091D2
:105A8000200430912104C901B4010E94E52FFC01DA
:105A9000E650FC4FB2A2C901019690932104809375
:105AA000200420911E0440911D0460911C04D9CF54
:105AB00060921F04B0921C04D0922104C092200472
:105AC0009ACF772009F497CF2091200430912104B8
:105AD000C901B4010E94E52FAC01FC01E650FC4F66
