:100000000C9494070C94DB070C94DB070C94DB072F
:100010000C94DB070C94DB070C94DB070C94DB07D8
:100020000C94DB070C94DB070C941F230C94DB224D
:100030000C9432250C94DB070C94DB070C94DB0743
:100040000C94DB070C94DB070C94DB070C94DB07A8
:100050000C94DB070C94F6230C94DB070C94DB0761
:100060000C94DB070C94DB070C94DB070C94DB0788
:100070000C94DB070C94DB070C94DB070C94DB0778
:100080000C94DB070C94DB070C94DB070C94DB0768
:100090000C94DB070C94DB070C94DB070C94DB0758
:1000A0000C94DB070C94DB070C94DB07635D5400B6
:1000B00055002A425F006000610056005C005D0050
:1000C0005E00570059005A005B0058006200620051
:1000D00063005800635D5300000000004A005200B6
:1000E0004B000000500000004F0000004D00510088
:1000F0004E005800490049004C005800635D000064
:100100000000C35CC75CC65C0000CE5CC95CC85C18
:100110000000C45CCB5CCA5C00000000005C005CBA
:100120000000000000DA0281FFD9F1DB20A4A62E36
:10013000AF00A0C000A1C800AED580A81FD300406A
:100140008D142000000000000000000000000000EE
:10015000000000000000000000000000000000009F
:10016000000000000000000000000000000000008F
:10017000000000000000000000000000000000007F
:10018000000000000000000000000000000000006F
:10019000000000000000000000000000000000005F
:1001A000000000000000000000000000000000004F
:1001B000000000808080C040C000000000000000FF
:1001C000000000000000000000000000000000D05F
:1001D00020505090101020C00000000000000000CF
:1001E000808080808040404040201010F010100837
:1001F0000808040404FCFCFC04040404040404FCD7
:100200007C7E7E7F81818181FF01010101010101ED
:10021000010101FFFFE7E7E7E7E7E7E7E7010101A2
:10022000F901F901F901F9010101E7E7E7E7E7E77A
:10023000E7E7E7E6E6E6E6E6FF8C525252DE8408A0
:100240008408000000000000000000000000000121
:10025000020404040505020500000000000000007F
:100260000000000000010101010204040704040869
:1002700008081010101F1F1F101010101010101F52
:10028000102020407F7F7F7F7F40404040404040A3
:100290004040407F7F5C5C5C5C5C5C5C5C40404000
:1002A0004A444A404F404F4040405C5C5C5C5C5C70
:1002B0005C5C5C9C9C9C9C1CFF314A4A4A7B1021E4
:1002C00010210000000000000000000000000000FD
:1002D000000000000000000000000000000000001E
:1002E000000000000000000000000000000000000E
:1002F00000000000000000000000000000000000FE
:1003000000000000000000000000000000000000ED
:1003100000000000000000000000000000000000DD
:1003200000000000000000000000000000000000CD
:1003300000000000000001010100000000000000BA
:1003400000000000000000000000000000000000AD
:10035000000000000000000000000000000000009D
:10036000000000000000000000000000000000008D
:10037000000000000000000000000000000000007D
:10038000000000000000000000000000000000006D
:10039000000000000000000000000000000000005D
:1003A000000000000000000000000000000000004D
:1003B000002020404080800000000000000000007D
:1003C000000000000000000000000000000000D05D
:1003D00020505090101020C00000000000000000CD
:1003E000000000000000000000000000E010C8282D
:1003F0002828C810B0102020204040408080804035
:1004000040402020201010100808080404040202B4
:1004100002A109E1F3290585E5E5C58992E408F023
:1004200000000000000000000000000000000000CC
:10043000008888444422E2111100000000000000FE
:1004400000000000000000000000000000000001AB
:10045000020404040505020500000000000000007D
:100460000000000000000000000000000304090B71
:100470000B0B090406040202020101010000000145
:1004800001010202020404040808081010102020D0
:1004900020424843664E5351515353492413080791
:1004A000000000000000000000000000000000004C
:1004B00000101091915253343400000000000000ED
:1004C000000000000000000000000000000000002C
:1004D000000000000000000000000000000000001C
:1004E000000000000000000000000000000000000C
:1004F00000000000000000000000000000000000FC
:1005000000000000000000000000000000000000EB
:1005100000000000000000000000000000000000DB
:1005200000000000000000000000000000000000CB
:1005300000030302020202020200000000000000A9
:1005400000000000000000000000000000000000AB
:10055000000000000000000000000000000000009B
:10056000000000000000000000000000000000008B
:10057000000000000000000040800000000000803B
:10058000809C80808000000000008040000000000F
:10059000000000000000000000000000000000005B
:1005A000000000000000000000000000000000004B
:1005B000000080808040404080000000000000007B
:1005C000000000000000000000000000000000D05B
:1005D00020505090101020C00000000000000000CB
:1005E000000000000000000000000000000000000B
:1005F000000000008080800000E0190462110904FE
:10060000040000000001010204191010F00000F0C5
:1006100000F0E0C00000000000000000000000004A
:1006200000000000000000000000000000000000CA
:1006300000C7240407E42424C700000000000000D1
:1006400000000000000000000000000000000001A9
:10065000020404040505020500000000000000007B
:10066000000000000000000000000000000000008A
:10067000000000000000000000078830404080803B
:100680000000000080804060309808080F00000FD4
:10069000000F070300000000000000000000000041
:1006A000000000000000000000000000000000004A
:1006B00000C1222424C444222100000000000000C4
:1006C000000000000000000000000000000000002A
:1006D000000000000000000000000000000000001A
:1006E000000000000000000000000000000000000A
:1006F00000000000000000000201000000000000F7
:10070000011D0101000000000000010200000000C6
:1007100000000000000000000000000000000000D9
:1007200000000000000000000000000000000000C9
:1007300000030202020302020200000000000000A7
:100740000000000020554E440000AE0001010101F0
:10075000010101010102020202020202020203037C
:10076000030303030303040404040404040505054C
:10077000050506060606060707070707080808080E
:10078000090909090A0A0A0B0B0B0C0C0C0D0D0DBB
:100790000E0E0E0F0F0F1010111111121213131451
:1007A00014151516161717181819191A1A1B1B1CC9
:1007B0001D1D1E1E1F202021222223242425262623
:1007C000272829292A2B2C2D2D2E2F303132323358
:1007D0003435363738393A3B3C3D3E3F4041424361
:1007E0004445464748494A4C4D4E4F505153545545
:1007F0005658595A5B5D5E5F616264656668696BF5
:100800006C6D6F7072737577787A7B7D7E80828372
:100810008587888A8C8E8F91939596989A9C9EA0B6
:10082000A2A3A5A7A9ABADAFB1B3B5B7BABCBEC0C3
:10083000C2C4C6C9CBCDCFD1D4D6D8DBDDDFE2E48C
:10084000E7E9EBEEF0F3F5F8FAFDFF00AF0501097B
:1008500080A101850319012AB700150126B700956B
:100860000175108100C0050C0901A1018504190161
:100870002AA002150126A002950175108100C0056D
:10088000010906A1018505050719E029E7150025DD
:10089000019508750181020507190029EF1500254A
:1008A0000195F07501810205081901290595057565
:1008B000019102950175039101C005010906A1018D
:1008C000050719E029E71500250195087501810242
:1008D0009501750881010507190029FF150026FFFC
:1008E000009506750881000508190129059505750B
:1008F000019102950175039101C009029F00040155
:1009000000A0FA09040000010301010009211101FE
:1009100000012240000705810308000A09040100C4
:100920000103000000092111010001226D000705EB
:10093000820320000A080B020201010000090402E0
:100940000000010100000924010001090001030960
:100950000403000201030000072401000141000616
:1009600024020101000624020202000924030103FB
:100970000102010009240302040101010009050428
:100980000240000500000525010101090583024020
:10099000000500000525010103120100020000000E
:1009A000084455504C99990102000116034C00610E
:1009B0000075006E00630068002000500061006454
:1009C0000000001E0355006E0067006F0064006C9D
:1009D0000079002000440065007300690067006E24
:1009E0000000000403090407087F0807003E5B4F6E
:1009F0005B3E003E6B4F6B3E001C3E7C3E1C001875
:100A00003C7E3C18001C577D571C001C5E7F5E1C02
:100A10000000183C180000FFE7C3E7FF000018249F
:100A2000180000FFE7DBE7FF0030483A060E00261B
:100A30002979292600407F05050700407F05253FCD
:100A4000005A3CE73C5A007F3E1C1C0800081C1C56
:100A50003E7F0014227F2214005F5F005F5F00066C
:100A6000097F017F00006689956A006060606060B0
:100A70000094A2FFA2940008047E04080010207EC7
:100A800020100008082A1C0800081C2A0808001E5C
:100A900010101010000C1E0C1E0C0030383E3830A8
:100AA00000060E3E0E060000000000000000005F81
:100AB000000000000700070000147F147F140024CA
:100AC0002A7F2A12002313086462003649562050F8
:100AD00000000807030000001C2241000000412222
:100AE0001C00002A1C7F1C2A0008083E0808000081
:100AF00080703000000808080808000000606000EE
:100B0000002010080402003E5149453E0000427F8B
:100B10004000007249494946002141494D330018BF
:100B200014127F10002745454539003C4A49493198
:100B30000041211109070036494949360046494913
:100B4000291E0000001400000000403400000000D6
:100B50000814224100141414141400004122140833
:100B6000000201590906003E415D594E007C1211F8
:100B7000127C007F49494936003E41414122007FB5
:100B80004141413E007F49494941007F090909012E
:100B9000003E41415173007F0808087F0000417FFB
:100BA0004100002040413F01007F08142241007FA6
:100BB00040404040007F021C027F007F0408107FFD
:100BC000003E4141413E007F09090906003E415176
:100BD000215E007F09192946002649494932000350
:100BE000017F0103003F4040403F001F2040201F85
:100BF000003F4038403F006314081463000304784A
:100C00000403006159494D4300007F414141000206
:100C10000408102000004141417F00040201020449
:100C200000404040404000000307080000205454AA
:100C30007840007F28444438003844444428003831
:100C40004444287F0038545454180000087E090298
:100C50000018A4A49C78007F080404780000447D58
:100C60004000002040403D00007F1028440000006C
:100C7000417F4000007C04780478007C08040478FC
:100C800000384444443800FC182424180018242454
:100C900018FC007C08040408004854545424000440
:100CA000043F4424003C4040207C001C2040201C89
:100CB000003C4030403C004428102844004C9090B8
:100CC000907C004464544C4400000836410000000D
:100CD0000077000000004136080000020102040213
:100CE000003C2623263C000000000000004040405D
:100CF000F0F8F8FF38FFF8F83FF8F8FF38FFF8F899
:100D0000F040404000000000000080C0C0C08000F3
:100D100000C0C08000000080C0C000C0C0000080D3
:100D2000C0C00000000000C0C0C0C0C000C0C00003
:100D300000000000000000000000000000000000B3
:100D400000000000000000000000000000000000A3
:100D50000000000000000000000000000000000093
:100D6000000000000000C0F0F8FC3E1E060100007C
:100D7000007F4141417F007F4141417F000080C0B1
:100D8000E07E5B4F5BFEC00000C000DCD7DEDEDE35
:100D9000D7DC00C0000000000000000000000000E0
:100DA0000000000000000000000000000049494968
:100DB000FFFFFFFFE0DFBFBF00BFBFDFE0FFFFFFC0
:100DC000FF49494900000000001F3F6060E0BF1F6D
:100DD000007F7F071E381E077F7F007F7F0E1F3B2F
:100DE000716000000000007F7F0C0C0C007E7E0014
:100DF0007F7E0303007F7E03037E7E03037F7E00EE
:100E00000F3E703C063C703E0F00327B49493F7EEE
:100E1000007F7E0303001E3F69696F26000000000B
:100E2000000000000000030F1F3F3C7870600000CE
:100E3000007F4141417F007F4141417F00307B7F06
:100E40007830202030787F3B0003000F7F0F0F0F9A
:100E50007F0F000300000000000000000000000001
:100E6000000000000000000000000000000101017F
:100E7000070F0F7F0F7F0F0F7E0F0F7F0F7F0F0F5B
:100E80000701010100000000000000000000010156
:100E90000000000000000000000000000000000052
:100EA0000000000000000000000000000000000042
:100EB0000000000000000000000000000000000032
:100EC0000000000000000000000000000000000022
:100ED0000000000000000000000000000000000012
:100EE0000000000000000000000000000000000002
:100EF00000000000000000000000000000000000F2
:100F000000000000000000000000000000000000E1
:100F100000000000000000000000000000000000D1
:100F2000000000000000000011241FBECFEFDAE037
:100F3000DEBFCDBF04B603FE27C08091E7069091C7
:100F4000E806A091E906B091EA068730904BA740E9
:100F5000B04BD1F41092E7061092E8061092E90621
:100F60001092EA0614BE84B7877F84BF0FB6F89448
:100F7000A895809160008861809360001092600065
:100F80000FBEE0E0F8E3099511E0A0E0B1E0E2E790
:100F9000FCE502C005900D92A63EB107D9F726E008
:100FA000A6EEB1E001C01D92A73EB207E1F70E9494
:100FB00059250C940C2E0C940000CF93DF93409194
:100FC000E5065091E606455E54409A013E5F2130A9
:100FD0003240C0F020E032E0241B350B6091E30486
:100FE0007091E404FC01CA01240F351FC1E0D0E078
:100FF0008217930750F07093E4046093E304DF9149
:10100000CF91089520E032E0E9CF4491DC01AB516B
:10101000BB4F5C91451781F04C93AC01A5E0569510
:101020004795AA95E1F7DE0102C0AA0FBB1F4A95BA
:10103000E2F7AD016A2B752B01963196D9CF0F934C
:10104000262F042F0F77482F406BE091F603F09185
:10105000F70363E070E086EF93E009950F91089540
:101060009091E903937051F0811109C094609093BD
:10107000E9031092230181E08093E803089587300B
:1010800010F09861F4CF880F880F982BF0CF0F9352
:101090001F939B01305E8901000F012F001F110B70
:1010A00011952F77482F406EE091F603F091F703EA
:1010B00063E070E086EF93E009951F910F9108952A
:1010C000CF92DF92EF92FF920F931F93CF93DF9314
:1010D00000D00F92CDB7DEB77C01162FD42EC22ED2
:1010E00080911B048430B9F5E0911004F091110453
:1010F000309709F440C0C701019763E070E00E9497
:10110000612DCB01880F991F860F971F19834A8382
:10111000CB824E2D481B9E012F5F3F4FBC0186EFB7
:1011200093E00995E0911404F0911504309739F09B
:101130000C2D2D2D412FB70186EF93E009950F90CF
:101140000F900F90DF91CF911F910F91FF90EF9033
:10115000DF90CF90089582E0E816F10409F45AC0B8
:1011600083E0E816F104A9F081E0E816F10409F43F
:1011700084C0F12CE12CE0911204F091130430971B
:1011800089F20C2D2D2D412FB70186EF93E00995A3
:10119000C9CF862F807F803A11F188F48038D1F052
:1011A000E091FA03F091FB03803929F7309719F3A6
:1011B000123F49F12C2D4D2D612F6F7027C0803EBD
:1011C00099F0803FB1F0E091F803F091F903803B92
:1011D00091F6ECCFE091FC03F091FD03E7CFE091B5
:1011E000FE03F091FF03E2CFE0910004F0910104CF
:1011F000DDCF623F09F0BFCFE0910204F09103041C
:10120000309709F4B8CF2C2D4D2D62EF86EF93E087
:10121000099588CF862F807F803DB9F0803FD1F03F
:10122000E0910404F0910504803C09F0A4CF3097CC
:1012300009F4A1CF812F8D7F4D2D612F6F70813FDC
:10124000C9F086EF93E009956DCFE0910604F09127
:101250000704EDCFE0910804F0910904633F39F0F1
:10126000613F09F088CFE0910A04F0910B043097B8
:1012700009F481CF4D2D612FE4CFE0910C04F09162
:101280000D04683F38F4663F09F075CFE0910E0415
:10129000F0910F04309709F46ECF612F86EF93E041
:1012A000099540CF9091E903937061F08093EA0330
:1012B0006093EB03433308F042E34093EC0381E097
:1012C0008093E8030895E8EDF0E080818E7F8083CD
:1012D0001092E2001092DA001092E100A0EEB0E06D
:1012E0008C9181608C9380818F77808319BCA7ED6E
:1012F000B0E08C918E7F8C9380818F7E8083109262
:10130000B40308952091E4003091E50095E6A90129
:101310002091EC00822F817020FF06C08091E800B0
:1013200080FF06C080E008952091E80022FD1AC0E9
:101330008091DA03882389F0853089F08091EB0071
:1013400085FD0FC02091E4003091E500421753075E
:10135000F9F29150E1F684E0089582E0089583E087
:10136000089581E00895EF92FF920F931F93CF931A
:101370007C018B010E948209C82F811117C08091C6
:10138000E80085FD0BC08091E8008E778093E8002F
:101390000E948209882399F3C82F08C0F701819120
:1013A0007F018093F1000150110949F78C2FCF91F3
:1013B0001F910F91FF90EF9008958091DC0387FFBC
:1013C00013C08091E80082FF06C08091E8008B770F
:1013D0008093E80004C08091DA038111F2CF089570
:1013E0008091DA038823D9F38091E80080FFF8CF59
:1013F0008091E8008E77ECCF982F9093E900242F0E
:10140000762F50E0891731F07091EC002091ED00BB
:101410005091F00021FD07C09F5F973071F78093D6
:10142000E90081E008953091EB003E7F3093EB00BE
:101430003091ED003D7F3093ED003091EB00316055
:101440003093EB007093EC002093ED005093F0008C
:101450002091EE0027FDE0CF80E00895CF92DF924B
:10146000EF92FF920F931F93CF93DF93C8EDD0E0DD
:1014700088818F7E8883E7EDF0E0808181608083C2
:1014800084E082BF81E08093B40388818E7F88836B
:1014900002EE10E0F80110821092DA0081EEC82E00
:1014A000D12CF601108288818F77888388818068AB
:1014B000888388818F7D888319BC1092DA0310920B
:1014C000DB031092D9031092D80390EEE92EF12C91
:1014D000F70180818B7F808388818160888342E0EF
:1014E00060E080E00E94FC09F60180818E7F8083AD
:1014F000F801808181608083808188608083F7012A
:1015000080818E7F8083888180618883DF91CF9105
:101510001F910F91FF90EF90DF90CF900895FC0105
:101520008091E2039091E30386179707A0F061157D
:10153000710529F49091E8009E779093E80090E07F
:101540006115710551F4911108C08091E80082FF86
:1015500034C080E00895BC01F2CF8091DA03882383
:10156000C1F18530C1F18091E80083FD30C08091E8
:10157000E80082FDEACF8091E80080FFE1CF809112
:10158000F3002091F200382F6115710519F0283011
:10159000310558F091E02830310509F090E02091B4
:1015A000E8002E772093E800CBCF81918093F10063
:1015B000615071092F5F3F4FE7CF8091DA03882395
:1015C00041F0853041F08091E80083FFBECF81E09B
:1015D000089582E0089583E0089508958091B70307
:1015E000089508950895982F907F903BE9F040F476
:1015F0009039D1F0903AC1F09038B1F080E0089580
:10160000903D19F020F4903CC9F782E00895903E97
:1016100059F0903F99F7815F8F3080F7E82FF0E025
:10162000EF57FE4F8081089583E00895CF92DF92B7
:10163000EF92FF920F931F93CF93DF9300D000D0D0
:1016400000D00F92CDB7DEB78C0108511F4F8091AB
:10165000DA03843009F087C0809119018F7080937C
:10166000E9008091E80082FF7EC08091E80085FF5C
:101670007AC00E948209811113C084E0E82EF12C07
:10168000CE0101966C018091E80085FD61C08091DA
:10169000E8008B778093E8000E948209882399F301
:1016A0008091E80085FD05C08091E8008B778093EC
:1016B000E800FA808F2D0E94F30A282FFD828B818B
:1016C0008E838C818F8321110BC08981843041F1FD
:1016D000873031F1863031F121E0853009F0B7CF24
:1016E00030E0E5E0F0E0EC0FFD1FE30FF11DF080CE
:1016F0004FB7F894D8011196EC911197F0E0CF0113
:10170000019612966C9170E00E94812DD8015C9137
:101710005817190649F44FBF3F5F321710F397CFA0
:1017200023E0DECF22E0DCCF13968D919C911497BD
:10173000E80FF91FF08211968C91119790E00196B5
:1017400012966C9170E00E94812DF8018183E3CFA5
:101750008091F100D6018D936D01B1E0EB1AF10893
:1017600009F091CF9DCF27960FB6F894DEBF0FBE3C
:10177000CDBFDF91CF911F910F91FF90EF90DF9040
:10178000CF900895DF92EF92FF920F931F93CF9324
:10179000DF9300D000D0CDB7DEB77B01142FD22E5F
:1017A0004A832B830C83842F0E94F30A811141C04A
:1017B00082E0E816F104C1F183E0E816F10439F0A3
:1017C000EA94EF2829F5173F29F485E004C087E063
:1017D000073F09F084E089838091DA038430C1F403
:1017E000809114018F708093E90050E040E064E044
:1017F00070E0CE0101960E94B309811109C0809169
:10180000E80085FD05C08091E8008E778093E800B0
:101810000F900F900F900F90DF91CF911F910F912C
:10182000FF90EF90DF90089587EFD812D3CF86E036
:10183000D2CF12951F701983CFCF2FB7F894609134
:10184000AB037091AC038091AD039091AE032FBFB9
:10185000089520911F012223C9F02091AF0327FF93
:1018600015C0E62FE695E695E695EE31D8F4E80F3B
:10187000F92FF11D677021E030E001C0220F6A9559
:10188000EAF720958281282322830895FC0132966D
:1018900008962191621303C0DF0111971C92E8178B
:1018A000F907B9F708952091A8033091A9032817E3
:1018B000390771F09093A9038093A803E091A603E0
:1018C000F091A703309721F00084F185E02D099471
:1018D00008952091A4033091A5032817390771F0CA
:1018E0009093A5038093A403E091A603F091A7032E
:1018F000309721F00680F781E02D09940895E0915A
:10190000A603F091A703309721F00190F081E02D1C
:10191000099480E00895FA01811101C0FB01099446
:10192000ECE5F3E0818360834283339693E0EE3904
:10193000F907C1F70895FC01EE0FFF1FE80FF91F2B
:10194000E45AFC4F6183408322830895E9EEF3E07B
:1019500024813AE0231B08F420E0248381E0809373
:10196000E8030895E9EEF3E024813AE0230F08F458
:101970002FEF248381E08093E8030895E9EEF3E0FC
:10198000438128E0421B08F440E08181628190E0BD
:101990000C945209E9EEF3E0438128E0420F08F489
:1019A0004FEF8181628190E00C945209E9EEF3E0FF
:1019B000628128E0621B08F460E08181438190E04D
:1019C0000C945209E9EEF3E0628128E0620F08F41A
:1019D0006FEF8181438190E00C945209E9EEF3E0CE
:1019E0008181438162818850990B0C945209E9EE00
:1019F000F3E0818190E04381628108960C94520962
:101A00008091E90386958695815009F486E00C94CF
:101A100030088091E903869586958F5F873008F0BE
:101A200081E00C943008E42FF0E0EE0FFF1FEC553E
:101A3000FE4F9081921B97FD9195292F38E1239FAE
:101A4000212D1124620F08950C94900C0C949B0C82
:101A50000F93CF93DF93D72FC82F2115310529F48A
:101A600060E857FD1DC060E01BC0F90137FF04C0EE
:101A7000EE27FF27E21BF30BBA016E0F7F1F57FD06
:101A800016C04E1B5F0BCA01E5E0880F991FEA954F
:101A9000E1F70E94812D862F60E2681B37FD61957A
:101AA000600F7D2F8C2FDF91CF910F910895CB0187
:101AB00065E0880F991F6A95E1F7BF01641B750BFC
:101AC0000E94812D862F60E6E8CFE82F86FDE09505
:101AD0002E2F2F7086FD2F5FE695E695E695E67032
:101AE000F0E0E758FE4F9181929F902D212D112417
:101AF00092959F702295207F922B2081920F87FDD7
:101B0000919580E8890F08950F931F93CF93DF93EA
:101B10008B01D82FC42F822F0E94650DEC2FF0E08F
:101B2000EE0FFF1FEC55FE4F90819058890F87FDF7
:101B30008195880F682F2CE0629F612D1124600F22
:101B4000712F8D2FDF91CF911F910F910895AF923B
:101B5000BF92CF92DF92FF920F931F93CF93DF93A9
:101B6000362F472FE82FF0E0E55BF84F71110FC0DB
:101B7000E4918E2F2E2F6E2F722FDF91CF911F9118
:101B80000F91FF90DF90CF90BF90AF900895C72F37
:101B9000D0E02491F22E022F10E056E0659FC001A4
:101BA0001124EFEFF0E0BF010E94612D832F90E040
:101BB000880F991F35E5369FD001379FB00D11244E
:101BC0008A1B9B0B982F990F980F6F01CC1ADD0A77
:101BD000C09ED001C19EB00DD09EB00D11248B2FA0
:101BE000499FA0011124452F55276F01C41AD50A1A
:101BF000C09EA001C19E500DD09E500D11245F01CA
:101C0000A91AB108AC9E6001AD9ED00CBC9ED00C50
:101C10001124CD2CDD24EC19FD09E09FE001E19FAA
:101C2000D00DF09FD00D1124ED2F62307105A1F081
:101C300050F46115710509F49ECF6130710581F092
:101C4000EB2F852F98CF6430710569F080F06630F6
:101C5000710509F490CFF4CFE22F2B2F8D2F8BCF6E
:101C6000E22F252F88CFEB2F822F2D2F84CF2B2FE4
:101C70008F2DE52F80CFDF92EF92FF920F931F936E
:101C8000CF93DF938C0180912001C82FCC0FCC0F14
:101C9000C80F95E0E92EEC0EDE2C86E18E1510F4CF
:101CA00086E1D82E3091ED033695369521E0320F3E
:101CB00008F43FEF4091E4035091E50390E080E0A9
:101CC000439F812D539F800D911D1124F82ED0E04C
:101CD000CD1568F081E095E19E1508F480E0DF9174
:101CE000CF911F910F91FF90EF90DF900895FE012B
:101CF000E053FE4F808190912101892391F0609102
:101D0000EA037091EB038091EC032F2D4C2FF80127
:101D100009950E94A70D462F282F672FCE010E94FC
:101D2000260D2196D5CFBF92CF92DF92EF92FF92F0
:101D30000F931F93CF93DF93182F8091120181137C
:101D400023C09091E90393702091110130E081E06C
:101D50009217130609F480E081708093220180912C
:101D6000EE0390912101981739F08093210140E012
:101D700060E080E00E94240D173090F4E12FF0E045
:101D8000E25FF14D0C94952D81E0E6CF8091220128
:101D9000882309F4A7C040E060E080E00E94240DA1
:101DA00080E0A0C080912001C82FCC0FCC0FC80FBD
:101DB00005E00C0FF02E073110F0B6E1FB2E60911C
:101DC000EA037091EB038091EC030E94A70DE62ECD
:101DD000D72EC82ED0E0CF1528F081E0063108F4C8
:101DE00081C0DECFFE01E053FE4F80819091210142
:101DF000892331F02C2D4E2D6D2DCE010E94260D04
:101E00002196E9CF80912001C82FCC0FCC0FC80FAD
:101E100005E00C0FE02E073110F0A6E1EA2ED0907D
:101E2000EB03C090EC032091ED03F0E4FF2E3F2D77
:101E3000329F312D1124F32ED0E0CE1570F6FE0125
:101E4000E053FE4F8081909121018923D9F0FE015A
:101E5000EE0FFF1FE057FE4F6489F69EB00111247C
:101E6000E5E075956795EA95E1F78091EA03680FDB
:101E70007D2D8C2D0E94A70D462F282F672FCE0178
:101E80000E94260D2196D9CF80912001C82FCC0F1A
:101E9000CC0FC80F45E0D42EDC0ECD2C96E19D155D
:101EA00010F436E1C32E4091E4035091E5032091F4
:101EB000ED03269590E080E0429F812D529F800D9A
:101EC000911D1124B82ED0E0CE01880F991FFC017E
:101ED000E057FE4F7F01CC1510F181E035E13D1553
:101EE00008F45ECF909120019F5F909320018111B3
:101EF0000CC082E08093230180912201811105C0F2
:101F0000111103C083E080932301DF91CF911F91D2
:101F10000F91FF90EF90DF90CF90BF900895FE015A
:101F2000E053FE4F8081909121018923C1F0F70198
:101F300025892052330B44894057550B6091EA03A1
:101F40007091EB038091EC030B2D0E94280D0E94F1
:101F5000A70D462F282F672FCE010E94260DF2E0F5
:101F6000EF0EF11C2196B7CF80912001C82FCC0F26
:101F7000CC0FC80F05E00C0FF02E073110F086E1F2
:101F8000F82ED090EB03E090EC03D091EA0340915F
:101F9000E4035091E5032091ED03269526952695BF
:101FA00090E080E0429F812D529F800D911D112471
:101FB0000E94650D805887FD8195880F682F2CE061
:101FC000629F612D11246D0F7D2D8E2D0E94A70D16
:101FD000E62ED72EC82ED0E0CF1508F0FECEFE019B
:101FE000E053FE4F808190912101892331F02C2D07
:101FF0004E2D6D2DCE010E94260D2196EDCF84E849
:102000009DE00E943B0E6ECF83E19DE0FACF80E021
:102010000895F894E82FE295EF70F0E031A1282FB1
:102020002F7081E090E001C0880F2A95EAF7982F81
:102030009095932391A392A1892B82A378940895DC
:102040009091AF0392FF06C0282F28712830F9F431
:10205000877F846093FF06C0282F28712831F1F410
:10206000877E84612091B00320FF06C0382F38712D
:102070003830D9F4877F816021FF06C0282F28716E
:102080002831D1F4877E816194FD877E0895282FC1
:1020900024712430F9F68B7F8860DCCF282F2471DF
:1020A000243101F78B7E8861DDCF382F31713130DB
:1020B00019F78E7F8860E0CF282F2171213121F719
:1020C0008E7E8861E1CFCF93DF93EC01823891055A
:1020D000A9F1D8F58133910509F496C048F5893204
:1020E000910509F48AC08A9709F495C0C11522E5C3
:1020F000D20708F0B6C0C11531E5D30708F026C1F4
:10210000C83ED10508F09CC0C03ED10560F5C83A74
:10211000D10508F087C0C53AD10508F0EFC0C1303D
:10212000D10509F12097F9F0C430D105E0F440C0A1
:102130008533910509F45AC0C997C1F68091AF0360
:10214000837089F0C0EED0E00EC0833E910599F116
:1021500070F4803E910501F1823E910539F680913F
:10216000AF0382FD21C0CE01DF91CF910895863E5D
:10217000910561F1873E910571F1843E910509F069
:10218000B5CF8091B00381FFEECF8091AF03C7EE52
:10219000D0E084FD0DC0E7CF8091AF0380FD07C183
:1021A0009091B00390FFDFCFC3EED0E084FFDBCF90
:1021B000D0E0C0E0D8CF8091AF0382FDFBC090910A
:1021C000B00390FDBFCF84FFCECFF2CF8091AF039D
:1021D00083FDDDCFC8CF8091AF0383FDEEC090912A
:1021E000B00391FFF0CFC4EED0E0BDCF8091AF033C
:1021F00085FFB9CFC9E2D0E0B6CF8091AF0385FFAC
:10220000B2CFC5E3D0E0AFCF8091AF0386FFABCFB5
:10221000CAE2D0E0A8CF8091AF0386FFA4CFC1E38C
:10222000D0E0A1CFCF3BD10518F6C85AD0E0CC0FF3
:10223000DD1FC65DDE4F0990D881C02DD46493CFD9
:10224000C11540E5D40708F064C0C11580E4D80783
:1022500008F05CC0CE019A9581159F4108F483CFA8
:10226000A7CFC11536E5D30718F5C11545E5D40745
:1022700008F084C0C11584E5D80708F07AC09C2F07
:10228000969596959E0123703327C115D34508F482
:1022900062C0C1E0D0E002C0CC0FDD1F2A95E2F79A
:1022A00030E2939FC0011124C82BD92BDA685BCF91
:1022B000C1158AE5D80778F4C11599E5D90708F062
:1022C00068C0C11528E5D20708F472CFDC2FCC27EF
:1022D000C06FD06A48CFCE0190568115904208F069
:1022E00067CF8D2F8F710E94201090E0982F882744
:1022F00088279F719C012C2BE90149C0C55AD0E069
:10230000C95DDE4FC881D0E0D0642DCFDF70D06AC8
:102310002ACFCE01E4E096958795EA95E1F78370A0
:102320002C2F26952695237040E2249F900111249E
:10233000382B8C2F8370C1E0D0E002C0CC0FDD1FA2
:102340008A95E2F7C22BD32BDC680DCFDC2FCC278C
:10235000C16FD06A08CFC1E0D0E002C0CC0FDD1F52
:102360002A95E2F720E2929FC0011124C82BD92BB5
:10237000EBCFDC2FCC27C46FD06AF5CE8C2F0E9418
:102380002010C82FD0E0DC2FCC27CC27DF71D06203
:10239000EACE8C2F8F700E94201034E0D695C7951E
:1023A0003A95E1F7CF709C2FEC01D069DCCEC9E300
:1023B000D0E0D9CEC2EED0E0D6CEC6EED0E0D3CEBD
:1023C0008091530281111092530208958091B503B8
:1023D00090915202892B90915102892B8093E801B0
:1023E000909153029923A1F0892B8093E801809169
:1023F0001F01882341F18091AF0387FF24C08EE144
:10240000EAEEF1E090E0815000F591110E94E011B8
:10241000E091A603F091A7033097E1F080911F01AE
:10242000882359F08091AF0387FF07C08091E801AE
:102430008093E90185E08093E8010280F381E02D3B
:1024400088EE91E0099486E0DBCF21912223D9F236
:102450009F5FD9CF089580914F0290911E029813EB
:1024600001C008958F5F8770FACF8F929F92AF92CD
:10247000BF92CF92DF92EF92FF920F931F93CF9371
:10248000DF938090270390902803A0902903B090B9
:102490002A03409154025091550260915602709166
:1024A0005702842A952AA62AB72ACFE1D0E0E92E3E
:1024B000F12C25E0C22E082F10E0DC2ED501C4013E
:1024C0000C2E04C0B695A795979587950A94D2F7D8
:1024D00080FD11C0219788F7D12C8D2DDF91CF91F0
:1024E0001F910F91FF90EF90DF90CF90BF90AF9032
:1024F0009F908F900895CC9EF001CD9EF00D1124F9
:10250000EE0DFF1DEE0FFF1FEE0FFF1FE00FF11F7F
:10251000EE0FFF1FE455FF4F859194910E946310C9
:102520000197C1F2DACFCF93DF93EC010E9435120D
:1025300095E0899FF0011124ED0FF11DEE0FFF1FB3
:10254000EE0FFF1FEC0FF11DEE0FFF1FE455FF4FC5
:1025500085919491DF91CF910C946310990F990F0D
:10256000890F982F977086958695869525E0829F8E
:10257000F0011124E75FFD4F50E040E080E0219141
:1025800030E0092E02C0369527950A94E2F72170B3
:102590003327042E01C0220F0A94EAF7822B4F5FE3
:1025A0005F4F4530510559F70895990F990F890FDD
:1025B000982F977041E001C0440F9A95EAF78695ED
:1025C0008695869595E0899FF0011124E75FFD4F80
:1025D00030E020E070E05191DF011197CB01022E35
:1025E00002C0969587950A94E2F7817081958527B8
:1025F000842385278C932F5F3F4F2530310559F772
:102600000895FC01808191810E949312292F2F70DF
:1026100092959F7092509E3078F4E92FF0E0EB5E37
:10262000F14D0C94952D803F19F020F4883E20F454
:1026300081E00895843FE1F380E00895883EC0F38F
:10264000813FD1F7F5CF822F86958695869508959F
:1026500090E080E00E94690C90E080E00E94530CC2
:1026600010925202109251020C94E61160932703CB
:10267000709328038093290390932A030C942813C2
:102680000F931F9341E050E060E070E004C0440FFE
:10269000551F661F771F8A95D2F7CB01BA01609547
:1026A00070958095909500912703109128032091B3
:1026B000290330912A0360237123822393231F91DE
:1026C0000F910C943613909150028095892380933A
:1026D0005002282F277039F4282F082E000C330BB6
:1026E0009217130621F49091B00392FF07C08595CD
:1026F000859585950E9440131092500208950F937E
:102700001F9341E050E060E070E004C0440F551FAB
:10271000661F771F8A95D2F780912703909128032F
:10272000A0912903B0912A038A019B01082B192B40
:102730002A2B3B2BC901B8011F910F910C94361322
:1027400060935402709355028093560290935702FF
:102750000C942813882341F080959091B503892328
:102760008093B5030C94E6110895882339F0909175
:10277000B503982B9093B5030C94E6110895882324
:1027800079F19CEF980F913A38F4682F88EE91E038
:102790000E94290C0C94E61190E2980F983088F46E
:1027A000877021E030E0A90102C0440F551F8A95CF
:1027B000E2F7CA0180959091B50389238093B50310
:1027C000E9CF9BE5980F933020F490E080E00C94E3
:1027D000690C885A873120F490E080E00C94530C07
:1027E0000895CF93C82F882309F497C08CEF8C0FDE
:1027F000813A08F067C080911F018823E9F1809138
:10280000AF0387FF39C0EC2FE695E695E695F0E03B
:10281000E851FE4F828190E04C2F477021E030E07C
:1028200002C0220F331F4A95E2F782239323892B9C
:1028300061F06C2F88EE91E00E94290C0E94E61155
:1028400025C08091AF0387FF25C0AC2FA695A69524
:10285000A695B0E0A851BE4FC77021E030E001C09E
:10286000220FCA95EAF712968C911297822B129634
:102870008C93CF910C94E611EAEEF1E080EF91E0B9
:102880002191C217B1F28E179F07D1F780911F01D6
:102890008111D7CFAAEEB1E0EFEF80E09D91C9178B
:1028A00041F3EF3F19F4911101C0E82F8F5F86309B
:1028B000A9F7EF3FF1F20E2E000CFF0BE851FE4F8F
:1028C000C283D7CF80E28C0F883068F4C77021E0D4
:1028D00030E001C0220FCA95EAF78091B503822B40
:1028E0008093B503C6CFEBE5EC0FE33040F4F0E0A6
:1028F000E95DFE4F808190E0CF910C94690CC85A3D
:10290000C73158F4EC2FF0E0EE0FFF1FE65DFE4FED
:1029100080819181CF910C94530CCF910895809137
:102920001F01EAEEF1E0882359F08091AF0387FFA1
:1029300007C08EE1DF011D928A95E9F70C942813F8
:1029400086E0F8CF1F93CF93DF93CDB7DEB7AA977A
:102950000FB6F894DEBF0FBECDBF8CED93E0209193
:10296000F100FC012193CF01F3E0843E9F07B9F70A
:102970008091DD03833009F46FC0B8F4813009F42D
:1029800046C0823009F4B2C08091E80083FF87C25C
:102990008091DC039091DD039A3008F080C2E92F2A
:1029A000F0E0ED5DF14D0C94952D8A3009F48DC069
:1029B0008B3009F46EC0893039F78091DC038132A5
:1029C00019F78091E0039091E1030297E8F6809176
:1029D000E800877F8093E8008091E80082FF37C09D
:1029E0009091F3008091F200029729F48091F10018
:1029F0008B7F813021F48091F1008093B703809127
:102A0000E8008B778093E8000E94DD09BDCF8091BC
:102A1000DC03813A09F0B8CF8091E800877F80938A
:102A2000E8008091E0039091E103892B61F460E27A
:102A300088EB93E070E00E948F0A8091E8008B772A
:102A40008093E800A1CF60E090E080E0F3CF809138
:102A5000DA038111C1CF98CF8091DC03813A09F06C
:102A600093CF8091E0039091E103892B09F08CCF03
:102A70008091E800877F8093E8008091E80080FFE4
:102A8000FCCF80911F018093F1008091E8008E7748
:102A9000B9CF8091DC03813209F076CF8091E003D9
:102AA0009091E103892B09F06FCF8091E800877F37
:102AB0008093E8000E94DD098091DE0380931F016E
:102AC0001092B5030E948F145FCF8091DC03813296
:102AD00009F05ACF8091E800877F8093E8000E9438
:102AE000DD098091DF038093B6034ECF8091DC0334
:102AF000813A09F049CF8091E800877F8093E80010
:102B00008091E80080FFFCCF8091B603BCCF803875
:102B100099F0823809F0C3C18091E0038F7087304B
:102B200008F0BDC18093E9008091EB0085FB882708
:102B300080F91092E90006C08091D8039091D903E2
:102B4000911182609091E800977F9093E8008093C4
:102B5000F1001092F1008091E8008E779CC18823EB
:102B600009F48AC1823009F09AC18091DE03811193
:102B70008DC18091E0038F702FEF280F263008F071
:102B80008EC18093E9002091EB0020FF7FC193303C
:102B900031F48091EB0080628093EB0077C19091DB
:102BA000EB0090619093EB0021E030E001C0220F38
:102BB0008A95EAF72093EA001092EA008091EB00F0
:102BC0008860EACF81116BC11091DE031F7780917D
:102BD000E3008078812B8093E3008091E800877F79
:102BE0008093E8000E94DD098091E80080FFFCCF1F
:102BF0008091E30080688093E30082E0111183E01C
:102C00008093DA034CC18058823008F048C180912B
:102C1000DE039091DF038C3D23E09207A1F583E072
:102C20008A838AE289834FB7F894DE01139620E005
:102C30003EE051E2E32FF0E050935700E49120FF93
:102C400003C0E295EF703F5FEF708E2F90E0EA30A7
:102C5000C0F0C7968D939D932F5F243159F74FBFD6
:102C60008091E800877F8093E8006AE270E0CE01FF
:102C700001960E948F0A8091E8008B778093E8008C
:102C80000EC1C096E7CF4091E0035091E103292F98
:102C900033272330310509F444C078F5213031055C
:102CA00009F46FC08FE990E0EAEFF8E022303105D7
:102CB00009F0F5C02091E800277F2093E8002091DB
:102CC000E2033091E3038217930708F49C0140E08C
:102CD0002115310509F064C0411162C08091E800FE
:102CE00082FDC9CF8091DA03882329F2853019F259
:102CF0008091E80083FFF2CFBECF21323105A9F1E8
:102D00002232310509F0CBC04115510509F443C009
:102D10004130510509F0C3C08DE690E0EDE4F8E0E4
:102D2000C9CF992781309105C1F0009759F00297DA
:102D300009F0B5C0EBEAF9E0E4918E2F90E0EBEA00
:102D4000F9E007C0E3EEF9E0E4918E2F90E0E3EEC6
:102D5000F9E0009709F4A3C0ADCFE3ECF9E0E4910A
:102D60008E2F90E0E3ECF9E0F4CF4115510571F0BE
:102D70004130510509F093C089E090E0E5E2F9E0C7
:102D800099CF82E190E0E9E9F9E094CF89E090E021
:102D9000ECE0F9E08FCF80E490E0EAEBF8E08ACF56
:102DA0008091DA03882309F466CF853009F463CF74
:102DB0008091E80083FD5FCF8091E80082FD8ECF97
:102DC0008091E80080FF84CF9091F3008091F20021
:102DD0002115310519F08830910550F041E0089730
:102DE00009F040E08091E8008E778093E80070CF92
:102DF00044914093F1003196215031090196E8CF7A
:102E0000803809F04CC08091E800877F8093E8000B
:102E10008091DB038093F1009ECE811140C0109120
:102E2000DE031230E0F58091E800877F8093E800B0
:102E30001093DB030E94DD09112311F084E005C02B
:102E40008091E30087FDFACF81E08093DA0342E0CE
:102E500061EC81E00E94FC0942E261EC82E00E94A8
:102E6000FC0942E361E883E00E94FC0942E361E877
:102E700084E00E94FC0913C08091DE03813079F464
:102E800081E0933009F080E08093D9031092E9004B
:102E90008091E800877F8093E8000E94DD0980919F
:102EA000E80083FF0AC08091E800877F8093E800F4
:102EB0008091EB0080628093EB00AA960FB6F894A5
:102EC000DEBF0FBECDBFDF91CF911F910895CF938D
:102ED000DF93682F81E06A3019F06D3029F480E0CB
:102EE000DF91CF910C94E8178091E5069091E6066A
:102EF00026E0FC01A0EFB3E001900D922A95E1F7E6
:102F0000603E08F45AC026E0FC0111922A95E9F7C8
:102F1000C091E506D091E60646E050E0BE0180EFA4
:102F200093E00E94A42D9E01255E3440892B41F13F
:102F3000C90145E0969587954A95E1F741E050E053
:102F4000BA0102C0660F771F8A95E2F7CB01609144
:102F5000E3047091E404862B972BB9016B5F7F4FDC
:102F6000E5E076956795EA95E1F702C0440F551FB5
:102F70006A95E2F7842B952B9093E4048093E30405
:102F80002A5F3F4F4091EF03642F70E0C9010E9418
:102F9000612D481B463010F4240F311D211572E0BD
:102FA000370710F030E020E02B513B4F3093E6061E
:102FB0002093E506DF91CF910895F6E06F9FB00171
:102FC00011246951764F46E050E00E949B2DA0CF1E
:102FD000CF93382FE091E506F091E606E55EF440E8
:102FE0002091EF03622F70E0CF010E94612D281B1A
:102FF000822F332361F066E00E94752DC82FC150E7
:1030000010F4CF91089580E20E946717F8CF9F01D6
:10301000280F311D2115324018F080E0F0E0E0E08B
:103020008E0F9F2F911D8B519B4F9093E60680939F
:10303000E506E7CFCF92DF92EF92FF920F931F93B7
:10304000CF93DF936C017B0164E670E088E70E9418
:10305000602CEC0197FD12C010E000E0F601E00FDB
:10306000F11F849164E670E00E94DA2CEC01892B58
:1030700029F40F5F1F4F0E151F0581F70E945D2D6C
:10308000CE01DF91CF911F910F91FF90EF90DF90D4
:10309000CF900895CF93C091A2038091A30388237A
:1030A000D1F00E941D0C605A75418F4F9F4F609365
:1030B0009E0370939F038093A0039093A103C1117B
:1030C00008C062E070E08BE498E00E941A18892B37
:1030D00029F0C091A2038C2FCF91089581E08093B5
:1030E000A203F7CF9091DA03943031F58093B103C6
:1030F0007093B3036093B20382E08093E9008FEF93
:103100009091E800815095FD06C095ED9A95F1F7F4
:1031100000008111F5CF8091E80085FF0DC050E0DF
:1031200040E063E070E081EB93E00E94B30980919E
:10313000E8008E778093E8000895BC0184E00C9449
:103140007218BC0183E00C947218CF93DF93EC01EA
:1031500080911F018823B1F18091AF0387FF32C0B6
:1031600060E282E08093E9008FEF9091E800815067
:1031700095FD06C095ED9A95F1F700008111F5CF08
:103180008091E80085FF1BC080911F0170E050E036
:1031900040E0811104C050E040E068E070E0CE0102
:1031A0000E94B3098091E8008E778093E80080E266
:1031B000FE01A8EBB3E001900D928A95E1F7DF9153
:1031C000CF91089568E081E0CDCF81E08093E00069
:1031D00080E28093D8001092C9008FE19EE40197AD
:1031E000F1F700C0000087E090EBDC018093E70678
:1031F0009093E806A093E906B093EA0688E19CE084
:103200000FB6F894A895809360000FBE909360006D
:10321000FFCF879A31B33F7721B320684FB7F89437
:103220008CE593E0FC015191CF0168E021BB0000E7
:1032300000C057FF31BB550F000000C000C000C0E8
:1032400031BB00C06A9591F7F3E08E399F0751F7C3
:103250004FBF8FE594E00197F1F700C0000008959B
:103260001F93CF93DF93182FEB010E94F113209748
:1032700031F4812FDF91CF911F910C94BF138FE90F
:103280009FE00197F1F700C000002197F0CFE9EE31
:10329000F3E08DE080838091240190912501A0913D
:1032A000260181839283A3838FE784838FEF8583B5
:1032B00046E050E06CE170E0CF010C94D82D69EE4F
:1032C0007EEF90E080E00E94062E60E082E090E0D9
:1032D0000E94E82D60E083E090E00E94E82D1092CB
:1032E000540210925502109256021092570260E05A
:1032F00084E090E00E94E82D60E082E290E00E948D
:10330000E82D60E085E090E00E94E82D60E086E036
:1033100090E00E94E82D6FEF87E090E00E94E82D9A
:1033200040E050E0BA0188E090E00E94FA2D60E0B1
:103330008DE090E00E94E82D40E050E0BA0188E185
:1033400090E00E94FA2D60E087E190E00E94E82D75
:1033500040E050E0BA018CE190E00E94FA2D70E06C
:1033600060E080E290E00E94062E40E050E0BA016A
:1033700088E190E00E94FA2D40E050E0BA018FE031
:1033800090E00E94FA2D40E050E0BA0183E190E025
:103390000C94FA2DCF93C091B003C2FB992790F9FA
:1033A000981781F080FBC2F9C093B0036091AF031E
:1033B00084E090E00E94E82D6C2F82E290E0CF91B3
:1033C0000C94E82DCF9108954F925F926F927F9267
:1033D0008F929F92AF92BF92CF92DF92EF92FF9225
:1033E0000F931F93CF93DF9300D000D00F92CDB7F0
:1033F000DEB77C01FC0183819481892B39F0108137
:103400000181812F80238F3F09F063C60F900F90B9
:103410000F900F900F90DF91CF911F910F91FF9020
:10342000EF90DF90CF90BF90AF909F908F907F9064
:103430006F905F904F9008950E943512D82E682F9C
:1034400089819A810E94D512E02FF0E025E0D29E7A
:10345000E00DF11D1124EE0FFF1FEE0FFF1FE10F16
:10346000F11DEE0FFF1FE455FF4F25913491F70139
:1034700092812336FDE53F0709F486C124364DE5E8
:10348000340709F4B8C12F3A8CE5380708F00BC1AE
:103490002F39ECE53E0708F072C22039FCE53F0702
:1034A00008F0AEC023384CE5340708F01FC22138BD
:1034B0008CE5380708F08EC02737ECE53E0708F0AA
:1034C000F7C12F32FCE53F0708F09FC1992369F14E
:1034D0008091B50382722B3CFCE53F0709F460C381
:1034E00008F00FC3263C9CE5390709F445C308F0F2
:1034F000F2C2243CFCE53F0709F432C308F037C3AD
:10350000233C8CE5380709F420C32B35FDE53F0744
:1035100009F479C308F053C321158CE5380709F481
:1035200060C32F3D3C4509F46BC3F70182811081D4
:103530000181882309F46BC3812F902F0E943512DB
:10354000D82E682F812F902F0E94D512E02FF0E007
:1035500025E0D29EE00DF11D1124EE0FFF1FEE0FAE
:10356000FF1FE10FF11DEE0FFF1FE455FF4F859187
:1035700094910E9463108C01882EF701D280A5805F
:10358000A294BFE0AB22809150028770A1F0CD2CB5
:10359000DD2091F0812F807F803421F080E2800F48
:1035A000883048F082E00E94631380915002877057
:1035B000CC24C3948111C12CB12EB2946FE0B622F9
:1035C000FBE0FB1508F45EC3EB2DF0E0E35DF14D8D
:1035D0000C94952D21384CE5340709F476C1223836
:1035E0008CE5380709F072CF992309F4DEC0809189
:1035F0004F03982F9F70993008F0D7C09F5F70C11C
:103600002D39ECE53E07A0F52239FCE53F0708F02F
:103610008BC120394CE5340709F473C121398CE59D
:10362000380709F053CF992309F4BFC080914F03A5
:10363000982F959595959595959596300CF0B5C0E4
:1036400021E0290F2295207F259525952595259503
:10365000322F3295307F8F70832B80934F03191652
:103660000CF0A3C09295907F8F7027FD3BC19DC049
:103670002D39ECE53E0709F467C12E39FCE53F071B
:1036800009F024CF992309F490C080915003982F1A
:103690009F779F3709F489C0982F9F77933708F059
:1036A0006CC1935F64C1253B4CE5340709F4BEC18E
:1036B000B0F5213BECE53E0709F491C1D8F42F3A6F
:1036C0004CE5340709F46EC1203B8CE5380709F05E
:1036D000FDCE992309F469C020915003322F331F86
:1036E0003327331F90915103892F8770880F832BC5
:1036F0008F5F68C18091500350915103233BECE5EB
:103700003E0709F489C108F47AC140E091114FE7FE
:10371000881F8827881F5770550F62E479C1283B9E
:103720004CE5340709F490C180F4263BECE53E07F4
:1037300009F47CC1273BFCE53F0709F0C7CE8FEFBA
:10374000911181E080934E0330C02A3B4CE5340751
:1037500009F4AFC108F498C12B3BECE53E0709F032
:10376000B5CE80915003282F221F2227221F80913F
:1037700051038770880F822B6FEF7FE1992309F443
:10378000A7C10E94470811C0992379F080910802CF
:10379000823069F51092080260E070E0CB010E946F
:1037A0003613809108020E947F1380915002877027
:1037B00009F42CCEF7018281882309F427CE82E018
:1037C0000F900F900F900F900F90DF91CF911F915E
:1037D0000F91FF90EF90DF90CF90BF90AF909F90B0
:1037E0008F907F906F905F904F900C9463138F5FDA
:1037F00080930802D1CF9923C1F2809108028111F0
:1038000002C082E0F5CF8150F3CF00915003802FAA
:10381000881F8827881F409151034770440F482B09
:103820000F7761ED620F70E0FB01E45AFD4F6F010D
:10383000992339F110914F03812F8F7015951595AC
:10384000159515951F52FCE08F9F100D1124120F36
:10385000212F2F774069E091F603F091F70363E0A1
:1038600070E086EF93E00995F601E85BFF4F8081F9
:103870008F5F8083F60180818F3F09F096CF1083A0
:1038800094CF2081E85BFF4F80818150808381113C
:103890008CCF2F774068E091F603F091F70363E057
:1038A00070E086EF93E009958FEFF60180837DCF7E
:1038B000992309F47ACF2757822F8F7020914F03D5
:1038C000207F282B20934F0370CF992309F46DCFCD
:1038D00080914F03982F9F7009F467CF9FE0980F56
:1038E0009F70807F892B80934F035FCF992309F4CA
:1038F0005CCF2958822F8295807F20914F032F70B3
:10390000E0CF992309F451CF80914F038595859598
:10391000859585958B3F0CF448CF815F8295807F9C
:1039200090914F039F70DECF992309F43ECF225927
:103930008CE0289F802D11248F77209150032078D0
:10394000282B2093500331CF992309F42ECF809157
:103950005003982F9F7709F428CF9F3729F4807858
:1039600085678093500321CF9D3028F09D509F772D
:103970008078892BF6CF8078F4CF8F67F2CF9923A8
:1039800009F413CF2F598091500320FB87F98093BE
:1039900050032695277080915103887F282B209310
:1039A000510303CF992309F400CF20915003322F04
:1039B000331F3327331F90915103892F8770880F4E
:1039C000832B815F382F3F7080FB27F920935003B2
:1039D000832F8695987F982B90935103E6CE992359
:1039E00009F4E3CE90915003991F9927991F809174
:1039F00051038770880F40E06BE7892B0AC040E0D5
:103A000091114FE7881F8827881F5770550F60E472
:103A1000852B0E941F08C9CE40E091114FE7881FF7
:103A20008827881F5770550F61E4F2CF40E091114D
:103A30004FE790915003991F9927991F8091510347
:103A40008770880F63E4D9CF992309F4AECE9091A3
:103A50005103292F2695269526952F7081E0820FF8
:103A60008F70880F880F880F9778892B8093510368
:103A7000982F987709F099CE220F220F220F87787E
:103A8000822B8093510391CE992309F48ECE80919D
:103A90005103982F987709F488CE982F969596958C
:103AA0009695915F9F70990F990F990F8778892B41
:103AB000E8CF80915003282F221F2227221F8091B8
:103AC00051038770880F822B60E070EE911159CE00
:103AD00070E060E056CE283C9CE5390709F456C0FA
:103AE00008F44FC0293CFCE53F0709F454C02A3CC8
:103AF0004CE5340709F009CD4EEB5CE06AEC7CE064
:103B000033C0213D9CE5390770F42F3CECE53E07BE
:103B100008F04BCE2D3CFCE53F0709F44BC008F400
:103B200044C081E009C0273D8CE5380740F483E0BC
:103B3000223D3C4508F039CE0E94300836CE2E3565
:103B4000EDE53E0709F431CEE0CC8091E90391E048
:103B500089278093E903109223019093E80325CEEF
:103B600040E05DE069E07DE00E948B0C1ECE49E004
:103B70005DE060E07DE0F8CF4EEE5CE067EF7CE07A
:103B8000F3CF47EF5CE06EEE7CE0EECF46ED5CE01D
:103B900062EE7CE0E9CF42EE5CE066ED7CE0E4CFF3
:103BA0004AEC5CE06EEB7CE0DFCF46EA5CE062EB87
:103BB0007CE0DACF42EB5CE066EA7CE0D5CF2C35E6
:103BC000EDE53E0711F12D353D4509F0AECC809174
:103BD000B00382FB882780F991E089270E94CA19E7
:103BE000A4CC1092B5030E948F142FEF34E34CE065
:103BF000215030404040E1F700C000000E94E5182D
:103C00000E945F19D2CD81E0E9CF80E0E7CF812F1C
:103C1000902F0E94AE12D82E99CC212F2F70A22E59
:103C2000107F19F0A29450EFA522DD20C9F0AA2040
:103C300069F080E2800F883010F081100BC0809115
:103C4000B503A82AA092B5030E94E611802F0E9416
:103C5000F11318C080915202A82AA0925202F4CF08
:103C6000802F0E94BF13AA2069F0A094005E083044
:103C700010F0811047C08091B503A822A092B5032F
:103C80000E94E611EB2DE850FF0B349710F40E94D0
:103C90007F0CCC20A9F08091500280FD11C0F7016B
:103CA00012828595859585950E947F13C7010E9494
:103CB000E419809150028595859585950E94401361
:103CC00085E0F701DE01119601900D928A95E1F7EA
:103CD00089819A810E94AE12EA81F5E08F9FC0012E
:103CE00011248E0F911D880F991F880F991FE9814C
:103CF000E80FF92FF11DEE0FFF1FE455FF4F8591DF
:103D0000949184CB80915202A822A0925202B8CF03
:103D1000312F3F70932E107F103219F0929440EFA4
:103D20009422882071F041E0841681F1DD20D9F1E0
:103D3000AA2091F1F701858180FF88CF8F7085835C
:103D40002BC0DD20B1F090915302892D892BA11059
:103D500003C00E94B51396CFE1E0AE12FACF2091D6
:103D6000B00322FD8FCF891709F48CCF80935302C3
:103D700089CFA11006C00E94E011892D0E94AA13CC
:103D800081CFF1E0AF1609F47DCFF5CFDD2031F022
:103D900025E02A1508F476CF892DDBCF34E03A15DB
:103DA00008F470CFEACFAA2041F3F9E38F128AC159
:103DB0002FEF37EE43E0215030404040E1F700C0A4
:103DC000000080C1812F86958695837061F08130D7
:103DD00009F058CFC8019370D11002C090E080E084
:103DE0000E94530C4FCFC8019370D11002C090E0D5
:103DF00080E00E94690C46CF812F837009F066C075
:103E0000D11040CF802F829586958770880F880FBC
:103E1000602F6F70462E512C712C612C082E04C01F
:103E2000440C551C661C771C0A94D2F740E050E005
:103E3000BA0104FF0FC04FE050E060E070E004C042
:103E4000440F551F661F771F8A95D2F740955095EE
:103E500060957095812F869586958370823019F1D3
:103E6000D8F40091540210915502209156023091DD
:103E70005702813069F04429552966297729CB01F9
:103E8000BA0160237123822393230E94A013FACEE8
:103E9000402A512A622A732ACB01BA016429752962
:103EA00086299729F2CF4429552966297729009137
:103EB0005402109155022091560230915702CB01C5
:103EC000BA016027712782279327DFCF8695DD20EF
:103ED00011F0812F8170882309F4D4CE802F829530
:103EE00086958770880F880F602F6F70462E512C33
:103EF000712C612C082E04C0440C551C661C771CC8
:103F00000A94D2F740E050E0BA0104FF0FC04FE03E
:103F100050E060E070E004C0440F551F661F771F3B
:103F20008A95D2F74095509560957095812F86952A
:103F300086958370823019F1D8F40091270310918F
:103F400028032091290330912A03813069F0442904
:103F5000552966297729CB01BA0160237123822371
:103F600093230E9436138ECE402A512A622A732A46
:103F7000CB01BA016429752986299729F2CF4429F2
:103F8000552966297729009127031091280320914C
:103F9000290330912A03CB01BA01602771278227B8
:103FA0009327DFCF1F70DD2029F0812F0E947F1320
:103FB000802FCFCE802F0E94AA13812F0E94401302
:103FC00061CE802F92EF891609F454C0981578F0CD
:103FD000E0EF8E1639F1F1EF8F1609F443C0DD20C2
:103FE00009F46BC0A11032CE812F8F7140C023EF36
:103FF000821609F444C034EF8312F1CFDD2009F4B6
:1040000051C01F71812F0E947F138091B00382FDE8
:1040100007C0E8E01E9FC001112483608093500216
:10402000812F25C0DD20C9F044E04A1508F42ACECE
:104030001F7161E070E080E090E004C0660F771FC0
:10404000881F991F1A95D2F7009127031091280312
:104050002091290330912A03A0CF85E08A1508F426
:1040600011CEE6CF812F8F71DD2009F4A7CF0E94FA
:104070007F1308CE812F8F71DD20C9F39FCF60E0C1
:1040800070E0CB01DD2009F46CCF1F7161E070E0BE
:1040900080E090E004C0660F771F881F991F1A9573
:1040A000D2F75FCF81E00E946313F1E0FA1508F0C8
:1040B000E9CD82E00E946313E5CDAA2039F089336F
:1040C00009F476CE802F0E94BF13DCCD812F8F7133
:1040D00075CF85E0DE01119601900D928A95E1F78A
:1040E000F701228189819A812111A6C90E94AE120D
:1040F000D82EAAC91F93CF93DF9380911D02807F92
:10410000A9F480911A02882389F080914F02D091FE
:104110001E026091180270911902A0911B02B091C9
:104120001C02C62FC72316E0D81304C0DF91CF911D
:104130001F91089590E0109711F0CF3F19F4019668
:104140008770F2CF189F9001199F300D1124F9014B
:10415000E15EFD4F41814713F2CF40814613EFCF1F
:1041600042814111ECCF438154814A1B5B0B483C97
:10417000510528F780911D028F70806180931D0288
:10418000F901EC5DFD4F80818F708061808388E153
:1041900092E00E94E419DF91CF911F910C942B12B1
:1041A000AF92BF92CF92DF92EF92FF920F931F9345
:1041B000CF93DF93CDB7DEB761970FB6F894DEBF2C
:1041C0000FBECDBF8C0185E0F801DE011D96019088
:1041D0000D928A95E1F7F801E28088E1A82E82E04D
:1041E000B82E60911B0270911C026115710509F4D3
:1041F00032C19091180240911902892F84238F3F78
:1042000009F429C120813181C380D480F0901A0241
:10421000F601E61BF70BFF2009F4E8C080911D02B0
:10422000582F507FE83CF10508F0ABC0511177C022
:10423000FE2C431321C092131FC0E1101DC08F70CC
:10424000806180931D02C5010E94E41980911D02C6
:10425000F80185838F2D61960FB6F894DEBF0FBEEF
:10426000CDBFDF91CF911F910F91FF90EF90DF9025
:10427000CF90BF90AF900895CD2829F0822F83234F
:104280008F3F09F003C180E0F82FF170DF2E80FF2F
:104290003CC080914F0240911E0256E0841315C02D
:1042A0002D873E878D859E850E949312292F22950A
:1042B0002F702230F0F0243018F59F70F1F0F801E3
:1042C0009581907FD1F4D12C1EC090E0589FF001D1
:1042D000599FF00D1124E15EFD4F6181361306C038
:1042E0006081261303C06281E6120FC001968770B9
:1042F000D5CF9F7011F0882331F3805E883018F39A
:10430000C8010E94E419FD2CA5CFEE2009F4A2CF2C
:1043100080911D02816080931D02F12C9BCF43137D
:1043200006C0921304C0F801EE2009F479C0C80158
:104330000E940113882309F1EE20F9F080911D02FB
:10434000803270F0209118023091190238872F8343
:104350001986DB86CA868C87CE0107960E94E419EF
:1043600086E0F801A8E1B2E001900D928A95E1F7AC
:104370000E947A20FF24F3946DCFC8010E94E419B3
:10438000F9CF51110AC088E192E00E94E41986E059
:10439000F50111928A95E9F7C0CF43130FC092132C
:1043A0000DC0E1100BC0F8018583C8010E94E4191B
:1043B00086E0F50111928A95E9F74CCFC8010E9479
:1043C00001138823D1F2EE20C1F280911D028032C8
:1043D00038F220911802309119023A8329831B8206
:1043E000DD82CC828E83CE010196B8CFE83CF10508
:1043F000F8F6FE2CEE2009F243131FC092131DC0E5
:1044000080911D0280FD10C0982F907F69F0F80107
:104410008583903F31F0982F907F905F8F70892B2C
:104420008583C8010E94E41986E0F801A8E1B2E0A2
:1044300001900D928A95E1F70DCFC8010E940113FA
:1044400081118ECF80911D02816080931D02C80171
:104450000E94E419FFCEEE2009F48FCFC8010E941C
:104460000113F82E882309F488CF86E0F801A8E12B
:10447000B2E001900D928A95E1F780911802909137
:1044800019020E9493120E947A20E4CE81E08E25C8
:10449000FBCE1F93CF93DF93CDB7DEB767970FB6F1
:1044A000F894DEBF0FBECDBF4B8B5C8B6D8B7E8BCC
:1044B0008F8B6111109252021A8A198A85E0FE01CF
:1044C0007396DE011D9601900D928A95E1F786E0C4
:1044D000FE013D96DE01179601900D928A95E1F757
:1044E000CE0107960E94D020882389F016E08091A3
:1044F0004F0290911E0289134BC067960FB6F89435
:10450000DEBF0FBECDBFDF91CF911F91089586E032
:10451000FE013796DE01119601900D928A95E1F722
:104520008A859B85892B11F38F81988589238F3FFD
:10453000E9F220911E0230E0C901019687709927A7
:1045400040914F024817190681F41092B5030E945A
:104550008F1410921E0210924F0286E0E8E1F2E002
:10456000DF011D928A95E9F7C1CF96E0929FD001B5
:10457000939FB00D1124A15EBD4FFE0131960190B5
:104580000D929A95E1F780931E020E942B12AECFF6
:10459000819FC0011124815E9D4F0E94D0208823FD
:1045A00009F4ABCF80914F0290E001968770992774
:1045B00080934F029CCF1F920F920FB60F9211243F
:1045C0002F933F934F935F936F937F938F939F931B
:1045D000AF93BF93CF93DF93EF93FF93D091E90015
:1045E000DF708091EC00C82FC17080FDC0E8109290
:1045F000E9008091F000877F8093F00078940E941A
:10460000A2141092E9008091F00088608093F0007D
:10461000CD2BCF70C093E900FF91EF91DF91CF9147
:10462000BF91AF919F918F917F916F915F914F91CA
:104630003F912F910F900FBE0F901F9018951F92D2
:104640000F920FB60F9211242F933F934F935F93C6
:104650006F937F938F939F93AF93BF93EF93FF934A
:104660008091E10082FF09C08091E20082FF05C0D5
:104670008091E1008B7F8093E1008091DA0080FFE0
:1046800024C08091D80080FF20C08091DA008E7F06
:104690008093DA008091D90080FF9BC080E189BDC2
:1046A00082E189BD09B400FEFDCF81E08093DA0389
:1046B0008091B403811109C00E9463090E942E0AEF
:1046C0008091E20084608093E2008091E10080FFAD
:1046D00017C08091E20080FF13C08091E2008E7FBE
:1046E0008093E2008091E20080618093E2008091FB
:1046F000D80080628093D80019BC85E08093DA03EB
:104700008091E10084FF29C08091E20084FF25C0F0
:1047100080E189BD82E189BD89B5982F917080FFC4
:10472000FBCF8091D8008F7D8093D8008091E100ED
:104730008F7E8093E1008091E2008F7E8093E20083
:104740008091E20081608093E2008091DB03882306
:1047500009F445C084E08093DA038091E10083FF8F
:1047600027C08091E20083FF23C08091E100877F12
:104770008093E10082E08093DA031092DB03809162
:10478000E1008E7F8093E1008091E2008E7F809334
:10479000E2008091E20080618093E20042E060E00C
:1047A00080E00E94FC098091F00088608093F00016
:1047B000FF91EF91BF91AF919F918F917F916F91F9
:1047C0005F914F913F912F910F900FBE0F901F90CF
:1047D000189519BC1092DA031092B40376CF809129
:1047E000E30087FD93E09093DA03B7CF78941F92AC
:1047F0001FB61F9211248F939F93AF93BF93809105
:10480000AB039091AC03A091AD03B091AE030196C0
:10481000A11DB11D8093AB039093AC03A093AD0396
:10482000B093AE03BF91AF919F918F911F901FBE28
:104830001F9018959C014FB7F8948091AB0390910D
:10484000AC03A091AD03B091AE034FBF821B930B9D
:1048500008952FB7F8948091AB039091AC03A09189
:10486000AD03B091AE032FBF08959F92AF92BF9258
:10487000CF92DF92EF92FF920F931F93CF93DF932C
:1048800000D000D00F92CDB7DEB78E010F5F1F4F63
:1048900085E0F80111928A95E9F738E5C32E31E0F9
:1048A000D32EF12CE12CAA24A394B12CF6018191F2
:1048B0006F018F3F09F449C0F894E82FE295EF703B
:1048C000F0E021A18F70A50102C0440F551F8A9509
:1048D000E2F7CA01922F982B91A392A18095892388
:1048E00082A3789400C0EDE5F1E030E020E0912C67
:1048F00041914F3F09F46FC0A42FA295AF70B0E073
:1049000090968C9190E04F7002C0959587954A954E
:10491000E2F780FD60C08A2D022E01C0880F0A9444
:10492000EAF7982A2F5F3F4F2430310509F7F60147
:10493000319780818F3F11F00E94091050EA5A95FB
:10494000F1F7F801EE0DFF1D90828FEFE81AF80ADB
:10495000E5E0EE16F10409F0A9CF45E050E0B8011A
:104960008CEE92E00E94A42DFF24F394009709F4AA
:10497000F12C892B91F185E0F801ACEEB2E00190C9
:104980000D928A95E1F781E080935A020E942924D2
:104990009093590280935802809158029091590245
:1049A0000E941A240597E8F08091EC028093F102AE
:1049B0008091ED028093F2028091EE028093F302E7
:1049C0008091EF028093F4028091F0028093F502CF
:1049D00010925A0206C080E0A4CF80915A02811141
:1049E000DBCF80915B0291E0980F90935B02811185
:1049F00027C086E880937A0080E880937B0086E475
:104A000080937C0080917A00806480937A0080910A
:104A10007A0086FDFCCF80917800209179009091FA
:104A20007A009F7790937A00922F23E0959587954F
:104A30002A95E1F74FE7481B6EE382E00E941F08CA
:104A40008F2D0F900F900F900F900F90DF91CF91BF
:104A50001F910F91FF90EF90DF90CF90BF90AF909C
:104A60009F9008951F921FB61F9211248F939F93BA
:104A7000AF93BF938091AA03811113C08091AB03C0
:104A80009091AC03A091AD03B091AE034196A11DEE
:104A9000B11D8093AB039093AC03A093AD03B0938F
:104AA000AE03BF91AF919F918F911F901FBE1F903A
:104AB0001895CDB7DEB761970FB6F894DEBF0FBE7D
:104AC000CDBF84E080934F038FE7809350038091A4
:104AD00051038078806480935103ECE5F2E08FEF1E
:104AE0008193DF01A95BBF4F1C9222E0E43AF207F9
:104AF000B9F710924D0310924E0310925403109286
:104B0000530310921B0410921D0410921C0480EC9D
:104B10008093E0048EE194E09093E2048093E104BA
:104B20001092DF041092DE041092FB031092FA033D
:104B30001092FD031092FC031092FF031092FE03EB
:104B400010920104109200041092030410920204C7
:104B500010920504109204041092070410920604A7
:104B6000109209041092080410920B0410920A0487
:104B700010920D0410920C0410920F0410920E0467
:104B80001092110410921004109215041092140443
:104B900082EC9BE09093F7038093F60386E19BE021
:104BA000909317048093160482EF9AE09093130475
:104BB0008093120481EF9AE09093F9038093F803B5
:104BC00084B7877F84BF0FB6F894A8958091600062
:104BD000886180936000109260000FBE80E890E0D2
:104BE0000FB6F89480936100909361000FBE85B773
:104BF000806885BF85B7806885BF87E090E1909326
:104C0000E7018093E6010E9463090E942E0A8091C9
:104C1000E20084608093E20078948091DA03882334
:104C2000A1F01091E9001F709091EC00892F817024
:104C300090FD80E8182B1092E9008091E80083FD38
:104C40000E94A2141F701093E90082E084BD93E0DB
:104C500095BD9AEF97BD80936E0008E511E08DE554
:104C6000E82E81E0F82ED8018D918D018F3F11F053
:104C70000E940910E016F106B1F780E30E940910C6
:104C800081E30E94091082E30E94091083E30E94DD
:104C900009101092EC021092F1021092ED021092A3
:104CA000F2021092EE021092F3021092EF021092B2
:104CB000F4021092F0021092F50290E080E00E945F
:104CC000D22D893E9E4F11F00E945F1982E090E044
:104CD0000E94CA2D8093560384E090E00E94CA2D62
:104CE000182F82E290E00E94CA2D982F812F909376
:104CF000B0038093AF030E943524EFE3FCE93197C2
:104D0000F1F700C000000E9435248091F10280FF7D
:104D100008C06FEF7FEF90E080E00E94062E0E94B7
:104D2000E51883E090E00E94CA2D682F70E090E0C3
:104D300080E00E94A0131092F6028FEF9FEF9093F5
:104D4000100380930F0390931203809311039093A9
:104D50001403809313039093160380931503909389
:104D600018038093170390931A0380931903909369
:104D70001C0380931B0390931E0380931D0390E0FC
:104D800080E00E94D22D893E9E4F21F00E945F1943
:104D90000E94471946E050E06CE170E089EE93E034
:104DA0000E94BA2D8091E9038C7F11F40E9447196B
:104DB0000E947F0C80FD05C070E060E083E50E94EA
:104DC000301982E080934B0380E88093EF030E94C8
:104DD0005A2C6DE070E087E391E00E941A18892B4D
:104DE000E9F580914B0363E070E081FDBBC284E391
:104DF00091E00E941A18892B89F56DE070E084E239
:104E000091E00E941A18892B49F50E941D0C605AE6
:104E100075418F4F9F4F60939E0370939F038093C4
:104E2000A0039093A103E5EEF4E080E092E0DF01BF
:104E30009C011D9221503040E1F7F093E606E0938B
:104E4000E5068FEF9FEF9093E4048093E30481E005
:104E50008093A3038093A20310924C033E98469A3A
:104E600026982E9A86B186FB882780F91E997DC2E6
:104E700090E0892B8093260380E091E09093A70334
:104E80008093A60381EF92E035E0380F3F8713E06F
:104E9000212E312C8091DA03853099F400E4FF242F
:104EA000F394B3E0EB2E10E18091DA03853009F43E
:104EB0005EC21092B5030E948F140E947F0C109264
:104EC00023030E9435248B8781110E941D0CE1EF82
:104ED000F2E0A7E5B3E010E000E0902FF1908D91B3
:104EE0008F1509F4AAC28F25C12CBB24B394282F97
:104EF0002B2109F49DC2C9829A83FB2081E009F429
:104F000080E08B830E9429248160782F9D838C838D
:104F100049815A816B818D810E944922F801E95AA9
:104F2000FC4F8081B826B082FF2081F0F801EE0F9F
:104F3000FF1FEE0FFF1FE057FE4FEC0DF11D8081AC
:104F4000F12C8F3F19F08C87FF24F3940F2D10E084
:104F50008091F602800F912F911D09976CF188E0E6
:104F600090E05C01A01AB10AB80169507D4FA5011B
:104F700087EF92E00E94B12DB80161507D4FA501ED
:104F80008FEF92E00E94B12DA501440F551FB8018B
:104F9000660F771F615F7C4F8FE093E00E94B12D19
:104FA000B801695F7C4FA50187E093E00E94B12DB5
:104FB00088E08F198093F6028091F60290E0EC85EC
:104FC000AE2FB0E09D01220F331F2C553E4FAA0F8C
:104FD000BB1FBD016B557E4F41E0480F9F1508F484
:104FE00011C28093F60280901F0390902003A0903E
:104FF0002103B09022038FB7F894C090AB03D090F8
:10500000AC03E090AD03F090AE038FBF26013701F3
:10501000481859086A087B080E941D0C60931F03FA
:10502000709320038093210390932203A091F602B2
:10503000E6EFF2E02A2F30E04FEF840E941EA11C21
:10504000B11C8C189D08AE08BF08A3130DC2209395
:10505000F6022091230330E0211108C02091E903DA
:10506000322F337019F0322F369536952091230167
:10507000213009F41AC2222309F409C2223009F4AA
:1050800018C2233009F420C2E0912603EE0FEE0F80
:10509000E093260386B186FB882780F98D871E86DC
:1050A0001E993FC280E0AD85BE858A2BE82BE09338
:1050B0002603EF70F0E0EF59FE4F808190912503B9
:1050C000890F80932503F12C823064F080912403B2
:1050D0008F5F8093240370E060E08AEA0E943019B9
:1050E000FF24F394809125038F3F64F4809124037F
:1050F00081508093240370E060E089EA0E943019B7
:10510000FF24F39480912503082E000C990B62E094
:1051100070E00E94812D80932503F1100E941D0CE8
:105120008091A303882309F48BC085EE94E09093CB
:10513000E6068093E506409127035091280360918D
:10514000290370912A03CB01AA27BB270097A10549
:10515000B10509F4E9C1AC01BD0180E1052F162FAD
:10516000272F3327011511052105310519F0885F17
:10517000B901A8018A019B01A4E0369527951795EE
:105180000795AA95D1F7011511052105310519F0EB
:105190008C5FB901A8018A019B01F2E03695279541
:1051A00017950795FA95D1F70115110521053105D8
:1051B00019F08E5FB901A8017695679557954795C7
:1051C000452B462B472B09F08F5F813009F417C21E
:1051D000882309F4ABC1823009F414C2E4E4F7E097
:1051E00084918F01811111C281E00E94E8178091A2
:1051F000A30381119FC18091A203882309F10E941A
:105200001D0C00919E0310919F032091A0033091EB
:10521000A103601B710B820B930B6F3F7F4F8F4F6E
:105220009F4770F48091A303882351F062E070E0FF
:1052300089E497E00E941A18892B11F41092A203B6
:105240004B85411101C0F1100E944A18E0911604EB
:10525000F0911704309719F086EF93E009959FB706
:10526000F8940091DF048091DE04081708F448C226
:10527000081B9FBFF12CE12C10E0AA24A394B12CB1
:1052800094E0892E77247394E016F10608F43CC26A
:1052900080915303909154030E941A24209151034A
:1052A0002695269526952F702817190609F060F582
:1052B0000E942924909354038093530380914E03BA
:1052C000882311F190915003991F9927991F80917C
:1052D00051038770880F40914D0361E0892B0E9434
:1052E0001F0880914E0390914D0387FFC2C2A82FE3
:1052F000BB27A1950CF4B0959A171B060CF0B9C208
:1053000010924D0310924E030E947F0C9091550312
:10531000891721F00E947F0C809355038091DA0356
:10532000843009F0B7CD809114018F708093E9002B
:105330009091E80090FFAECD9091DA03943009F09F
:10534000A9CD8093E9009091F3008091F200892B20
:1053500009F4A0CD8091E8008E778093E8000E9448
:10536000820998CD81E391E044CD92E082CD809195
:10537000DA03843009F436C08091230381110DC013
:105380000E94930E109212018091E9038370809322
:1053900011010E940919E0922301F0922303109257
:1053A000AA0348E150E00FB6F894A8954093600036
:1053B0000FBE0093600083B7817F846083BF83B793
:1053C000816083BF7894889583B78E7F83BF0FB643
:1053D000F894A89580916000886180936000109295
:1053E00060000FBE8091D903882309F45DCD0E942F
:1053F0003524E1EFF2E08191811143C25F855E13B4
:10540000FACF52CD90E0FC01EA50FD4FD9015C91FA
:105410005183DB015C915187BC85B18B880F991F4B
:10542000FC01EA50FD4F128E118E91E0842FD4CDF5
:10543000C394BB0C24E0C2125ACD0F5F1F4F05303E
:10544000110509F04ACD8FEF8E838F8318860E9455
:1054500029248160782F9A8789874E815F816885AA
:105460008A850E944922BFCD418D528D7A0110E07C
:1054700000E08E149F04A006B10620F421503F5F87
:105480003296E3CD440D551D528F418FF8CF1092C7
:1054900020016093E4037093E5038093E603909307
:1054A000E70381E080932301EFCD832F0E94930EC9
:1054B000EBCD309312018091E90383708093110149
:1054C0000E94091983E0EECF8091E803882341F020
:1054D00046E050E06CE170E089EE93E00E94D82D48
:1054E0001092E8034091E4035091E5036091E603D4
:1054F0007091E7032FB7F8948091AB039091AC03C0
:10550000A091AD03B091AE032FBF841B950BA60BEA
:10551000B70B4097A105B10508F4B6CD1092230151
:10552000B3CD82E090E0BFCD80E018CE84E491E07E
:105530000E94DD072091E3043091E4042115310538
:1055400009F459CE80914C0361E070E0811153CE93
:10555000082F10E02B01082E02C0440C551C0A94A1
:10556000E2F7A90144215521452B09F455C090913A
:105570004B0390FD53C08295880F807680930C0179
:105580009801369527953695279520930F01815ED2
:1055900080930D011092100124E630E047E050E0C6
:1055A0006AE071E088E70E94092D892B09F023CE7B
:1055B000A80135E0440F551F3A95E1F780914B0360
:1055C00080FD3AC04B515B4F04E610E020E230E032
:1055D00060E488E70E94302D892B09F00CCE0E94F0
:1055E0004A18C201809590954090E3045090E404DD
:1055F000482259225092E4044092E304FCCD84E412
:1056000093E096CF84E495E093CF0E9467170F5FF5
:105610001F4FF8018491E6CD8F5F9ACF880F880FD6
:10562000880F80930C0110920F01895F80930D0108
:1056300083E080931001B0CFEBE2F3E080E2DF0182
:105640001D928A95E9F7E5E7F1E0F98BE88B01E730
:1056500011E027E0E22EDD24D394A889B9896D9169
:10566000B98BA88BF80181918F01840F952F911D23
:105670009C012B513B4F4901E62FF0E0E55DFC4FCB
:1056800030E020E06E2C621ACD2C022E01C0CC0C32
:105690000A94EAF7540190E0D5018D915D018C21C7
:1056A000662D691B6770762E062E000C770BB82FBF
:1056B00001C0BB0F7A94EAF77B2E71956195710951
:1056C0006770772701C086956A95EAF7782A808106
:1056D000782A70829F5F9830F9F62F5F3F4F31969E
:1056E0002830310579F6E889F989E957F14009F060
:1056F000B4CF04E610E020E230E04BE253E068CFA4
:105700002091E004020FB4CD8091DE0490E060911E
:10571000E00470E00E94812D2091E1043091E204C8
:10572000280F391FD901CC9090901B04B7EFBC15FE
:10573000E8F470921B0420E040E06C2D81E090E0E2
:105740000E94600890921B042FB7F8948091DE04A9
:1057500090E001966091E00470E00E94812D8093BA
:10576000DE042FBF4FEFE41AF40A8ECDC7FE52C0FD
:10577000E4E09E1631F0C0921804B0921D04A0928D
:105780001C048C2D0E94F30A813069F08823D1F02B
:105790008230A9F0833099F010921B0410921D04FE
:1057A00010921C04D1CF80931B0420E040E06C2DAC
:1057B00081E090E00E94600810921B04C5CF8093A6
:1057C0001B04C2CFF0EFCF16E1F027EFC212E4CFF7
:1057D00020911C0430911D04C901B1010E94612D6A
:1057E000FC01EA50FC4FC2A2C901019690931D042E
:1057F00080931C0420911A044091190460911804AC
:10580000D9CF80921B04C0921804B0921D04A092BC
:105810001C049ACF992009F497CF20911C04309151
:105820001D04C901B1010E94612DAC01FC01EA50C7
:10583000FC4FC2A2C901019690931D0480931C04E1
:105840004130510589F04230510509F07DCF20915A
:105850001A0440911904609118040E946008809114
:105860001B04843091F670CF32E020E093126CCFAD
:10587000F0CF890F87FD03C080934D0345CD8FE79F
:10588000FBCF19BD82E189BD09B400FEFDCF809137
:10589000D8008F7D8093D8008091E0008260809353
:1058A000E0008091E00081FDFCCF1092B5030E94E2
:1058B0008F14FACA1092B9008CE08093B800089552
:1058C0009F92AF92BF92CF92DF92EF92FF920F938F
:1058D0001F93CF93DF93B82EEB010E9429246C0114
:1058E000EE24E394F12CC431D10560F025E0E22EE2
:1058F000F12CCF3FDC0731F0CE0164E170E00E9473
:10590000612D7B0184EAA82E94E8992E1092BC00A8
:10591000A092BC000E9429248C018091BC0087FFCA
:105920000DC08091B900887F883039F18091B9002D
:10593000887F803111F10FEF1FEF09C00E942924E9
:10594000801B910B8E159F0540F30EEF1FEFCF3F8D
:10595000DC07E1F2C6010E941A248C179D07B0F201
:10596000C801DF91CF911F910F91FF90EF90DF90D1
:10597000CF90BF90AF909F900895B092BB0090924F
:10598000BC000E9429248C018091BC0087FF0AC0C2
:105990008091B900887F883111F0803461F610E081
:1059A00000E0DECF0E942924801B910B8E159F05FD
:1059B00058F3CBCF0F931F93CF93DF93EB018093DB
:1059C000BB0084E88093BC000E9429248C01809154
:1059D000BC0087FF11C02091B900287F81E090E0D2
:1059E000283211F490E080E0919581959109DF9142
:1059F000CF911F910F910895CF3FDC0741F30E9493
:105A00002924801B910B8C179D0708F38EEF9FEFC5
:105A1000EECFCF92DF92EF92FF920F931F93CF932F
:105A2000DF936B018A017901B9010E94602CE601C4
:105A30000C0D1D1DC017D10761F424E92093BC0093
:105A4000DF91CF911F910F91FF90EF90DF90CF905A
:105A5000089597FDF2CFB70189910E94DA2CEACF21
:105A6000CF92DF92EF92FF920F931F93CF93DF932A
:105A7000C62F6A017901B8010E94602C97FD0CC005
:105A8000B8018C2F0E94DA2CE601EC0CFD1CCE151F
:105A9000DF0511F097FF0CC024E92093BC00DF91D3
:105AA000CF911F910F91FF90EF90DF90CF900895CD
:105AB000B80189910E94DA2CEACF84E98093BC0076
:105AC0000895AA1BBB1B51E107C0AA1FBB1FA61745
:105AD000B70710F0A61BB70B881F991F5A95A9F797
